:020000040800F2
:100000007806002029020008330D0008990C00082A
:10001000310D00081F040008FD0E0008000000005C
:10002000000000000000000000000000530E000867
:100030002104000800000000510E0008550E0008C1
:10004000430200084302000843020008430200087C
:10005000430200084302000843020008430200086C
:10006000430200084302000843020008430200085C
:10007000430200084302000843020008430200084C
:10008000430200084302000843020008430200083C
:10009000430200084302000843020008430200082C
:1000A000430200084302000843020008430200081C
:1000B000430200084302000843020008430200080C
:1000C00043020008430200084302000843020008FC
:1000D00043020008430200084302000843020008EC
:1000E00043020008430200084302000843020008DC
:1000F00043020008430200084302000843020008CC
:1001000043020008430200084302000843020008BB
:1001100043020008430200084302000843020008AB
:10012000430200084302000843020008430200089B
:10013000430200084302000843020008430200088B
:10014000430200084302000843020008430200087B
:10015000430200084302000843020008430200086B
:10016000430200084302000843020008430200085B
:100170004302000843020008430200080000000098
:10018000430200084302000800F002F800F03CF8C7
:100190000AA090E8000C82448344AAF10107DA45E2
:1001A00001D100F031F8AFF2090EBAE80F0013F0F8
:1001B000010F18BFFB1A43F0010318470416000093
:1001C00024160000103A24BF78C878C1FAD8520724
:1001D00024BF30C830C144BF04680C6070470000C1
:1001E0000023002400250026103A28BF78C1FBD840
:1001F000520728BF30C148BF0B6070471FB500F0E1
:10020000DAFF1FBD10B510BD00F0CFF81146FFF7A3
:10021000F5FF00F0D9FE00F0EDF803B4FFF7F2FFB0
:1002200003BC00F0F5F80000094880470948004782
:10023000FEE7FEE7FEE7FEE7FEE7FEE7FEE7FEE796
:10024000FEE7FEE704480549054A064B70470000F3
:10025000ED0E0008890100087800002078060020D3
:10026000780200207802002053EA020C00F0698036
:100270002DE9F04B4FF00006002B1FBFB3FA83F5BA
:1002800003FA05F424FA05F65E4012BF1643B2FAEB
:1002900082F502FA05F4C5F120051EBF22FA05FC1D
:1002A00044EA0C04203556EA044C4FEA144418BFC3
:1002B000641C4FF000084FF00009904271EB030CF2
:1002C00039D3002919BFB1FA81F701FA07F6B0FA5C
:1002D00080F700FA07F6C7F120071EBF20FA07FCD7
:1002E00046EA0C062037B6FBF4FCA7EB0507103FE7
:1002F00007F01F0BCBF120060CFA0BFB2CFA06F6CD
:1003000044BFB3460026202FA4BF5E464FF0000B2B
:100310005BEA060C08BF4FF0010B19EB0B09ABFBB6
:10032000027C48EB0608C01B06FB02CC0BFB03CC8F
:1003300071EB0C01C1E70B46024641464846BDE859
:10034000F08B13B54FF000004FF00001AFF30080C9
:10035000BDE81C4070474FF0000200B513469446BC
:100360009646203922BFA0E80C50A0E80C50B1F10D
:100370002001BFF4F7AF090728BFA0E80C5048BF21
:100380000CC05DF804EB890028BF40F8042B08BFBF
:10039000704748BF20F8022B11F0804F18BF00F8BB
:1003A000012B7047704770477047754600F02CF876
:1003B000AE4605006946534620F00700854618B052
:1003C00020B5FFF73FFFBDE820404FF000064FF09B
:1003D00000074FF000084FF0000B21F00701AC467A
:1003E000ACE8C009ACE8C009ACE8C009ACE8C00999
:1003F0008D46704710B50446AFF300802046BDE837
:100400001040FFF70ABF00000048704714000020AA
:1004100001491820ABBEFEE7260002007047FEE748
:100420007047000070B5044600F010F90546601CE6
:1004300002D004480078044400F008F9401BA042B0
:10044000FAD370BD040000202DE9F84FDFF8BCA1FD
:100450000022012503264FF00F090AF1040BAAF12F
:10046000040E00BF0B6805FA02F42340A34270D1CA
:100470000F7907F00307012F01D0022F16D18768EB
:100480004FEA420806FA08FC27EA0C07D1F80CC02C
:100490000CFA08FC4CEA070CC0F808C04768A743F0
:1004A0000C79C4F3001494403C4344600C79E44359
:1004B000A4070AD0C4684FEA420C06FA0CF7BC4302
:1004C0008F6807FA0CF72743C7600C7904F0030420
:1004D000022C12D1D40800EB840CDCF82040570722
:1004E000FF0E09FA07F824EA0804D1F8108008FA88
:1004F00007F848EA0408CCF8208004684FEA420C68
:1005000006FA0CF7BC430F7907F0030707FA0CF75C
:10051000274307604C6814F4403F70D03C4C276878
:1005200047F480472760246822F0030704F48044DE
:100530000094384C07EB040CDCF8084897074FEAA6
:10054000177809FA08F7BC43334FB84202D10027A5
:1005500024E054E0314FB84201D101271EE0304F72
:10056000B84201D1022719E02E4FB84201D103272A
:1005700014E02D4FB84201D104270FE02B4FB842B1
:1005800001D105270AE02A4FB84201D1062705E02C
:10059000284FB84201D1072700E0082707FA08F7DB
:1005A0002743CCF80878DAF800405746D1F804C061
:1005B0009C435FEACC2C00D51C433C60DBF8004038
:1005C0005F46D1F804C09C435FEA8C2C00D51C43E5
:1005D0003C60DEF800407746D1F804C09C435FEAF7
:1005E0008C3C00D51C433C60084F083F3C68D1F868
:1005F00004C09C435FEACC3C00D51C433C60521CC9
:10060000102AFFF42FAFBDE8F88F0000083C01402E
:100610004438024000300140000002400004024023
:1006200000080240000C024000100240001402408A
:1006300000180240001C02400069084000D0012060
:1006400070470AB1816170470904FBE7014880687F
:1006500070470000040000200248816802781144BD
:1006600081607047040000200B4810B5016841F418
:1006700000710160016841F480610160016841F42A
:1006800080710160032000F061F80F2000F006F88F
:1006900000F024F8002010BD003C024070B50D4D64
:1006A00004464FF47A712878B1FBF0F00A490968E2
:1006B000B1FBF0F000F0DCFA48B9102C07D20022B0
:1006C0002146501E00F022F800206C6070BD012011
:1006D00070BD000004000020100000200A4808B58A
:1006E000016841F480410160006800F4804000909E
:1006F0000548001F016841F080510160006800F06A
:100700008050009008BD000044380240F0B40E4B09
:100710001B680C46C3F30223C3F10705042D00D95F
:100720000425191D072901D2002300E0DB1E012644
:1007300006FA05F1491E214099409E40761E16405A
:100740003143F0BC00F0DBBB0CED00E0064900F0EB
:10075000070208684FF6FF03184040EA0220034AE8
:1007600010430860704700000CED00E00000FA053F
:100770002DE9F0470E46050065D0DFF81481D8F862
:100780000000F7B200F00700B04207D288F800700E
:10079000D8F8000000F00700B04254D128683D4C62
:1007A000810712D5400703D5206840F4E05020604F
:1007B0002878000703D5206840F460402060206856
:1007C000A96820F0F000084320602878C0072DD0E9
:1007D000304968680839012812D0022813D003284C
:1007E00011D00968890700292DDA216821F0030159
:1007F00001432160FFF72AFF814641F2883A0EE06B
:1008000009688903EFE709688901ECE7FFF71EFF34
:10081000A0EB0901514502D90320BDE8F08720680B
:10082000696800F00C00B0EB810FEFD1D8F8001030
:10083000404601F00701B14207D90770006800F097
:100840000700B04201D00120E7E72878400705D52E
:100850002068E96820F4E050084320602878000709
:1008600006D52068296920F4604040EAC100206074
:1008700000F018F82168084AC1F30311515CC84020
:100880000649086006480068FFF708FF0020C4E733
:10089000003C024008380240C0110008100000204F
:1008A00008000020154810B5006810F00C0214482C
:1008B00013D04110042A0FD0082A0ED10F4C241F48
:1008C0002268236802F03F025B0207D52068C0F36C
:1008D0008810A0FB010106E0084610BD2168C1F3A5
:1008E0008811A1FB00010023FFF7BEFC2168C1F3C2
:1008F0000141491C4900B0FBF1F010BD083802402D
:100900000024F4002DE9F84F04006ED02078DFF8C1
:100910004C93C007A9F104054AD009F1040001680D
:10092000C1F38101012908D00068C0F381000228C9
:100930000AD1D9F80000400206D52868800337D5CF
:1009400060680028E1D033E06068B0F5803F10D0E7
:10095000B0F5A02F286810D020F4803028602868D7
:1009600020F4802028606068A8B1FFF76FFE06467B
:100970000DE0286840F48030F4E740F480202860DF
:10098000F7E700BFFFF762FE801B642873D8286872
:100990008003F7D50CE0FFF759FE064605E000BFDF
:1009A000FFF754FE801B6428F0D828688003F7D432
:1009B0002078DFF8AC8280074FF0000A3ED5A748C8
:1009C000001D016811F00C0F08D00068C0F3810011
:1009D00002280BD1D9F80000400207D4286880070C
:1009E00016D5E068012800D112E033E1E068B8B123
:1009F0000120C8F80000FFF729FE064605E000BF09
:100A0000FFF724FE801B0228C0D828688007F7D58E
:100A10002868216920F0F80040EAC10028600DE054
:100A2000C8F800A0FFF712FE064604E0FFF70EFE2E
:100A3000801B02281FD828688007F7D42078000779
:100A400022D5864F87486169703771B101210160F5
:100A5000FFF7FCFD064604E0FFF7F8FD801B0228C7
:100A600009D838688007F7D50EE0C0F800A0FFF776
:100A7000EDFD064605E082E0FFF7E8FD801B022859
:100A80007DD838688007F7D42078400768D5DFF82C
:100A9000CCB100270BF13C0BDBF80000C0000BD4FD
:100AA000DBF8001041F08051CBF80010DBF80000BB
:100AB000012700F0805000906B4E3068C00510D4C4
:100AC000306840F480703060FFF7C0FD009005E0B2
:100AD000FFF7BCFD0099401A022850D83068C005C5
:100AE000F6D55E4EA0686C3601280FD00528306818
:100AF00010D020F001003060306820F00400306039
:100B0000A068B8B1FFF7A2FD00900FE0306840F098
:100B10000100F4E740F004003060F7E7FFF796FDCE
:100B20000099411A41F28830814266D830688007C6
:100B3000F4D50EE0FFF78AFD009007E0FFF786FD91
:100B40000099411A41F28830814256D830688007B6
:100B5000F4D42FB1DBF8001021F08051CBF8001055
:100B6000A069C8B33D49091D0968C1F38101022983
:100B70004AD00228504607D0C8F8600000E03CE0A8
:100B8000FFF764FD04463BE04746C8F86000FFF706
:100B90005DFD064605E000BFFFF758FD801B0228FB
:100BA0002BD828688001F7D4D4E907010843A16A4B
:100BB0002E4A490802EB0141626A41EA8211084368
:100BC00094F82C1040EA0161C9F800100120386641
:100BD000FFF73CFD044606E03EE000BFFFF736FDB0
:100BE000001B022809D828688001F7D534E000BF2F
:100BF000FFF72CFD001B022802D90320BDE8F88F67
:100C000028688001F4D427E00128F7D0D9F8000043
:100C1000E26900F4800191421CD1226A00F03F0198
:100C2000914217D147F6C071626A0140B1EB821F51
:100C300010D1A26A4FF0FF3300F4403103EB5202AF
:100C4000B1EB024F06D194F82C1000F07060B0EBBD
:100C5000016F01D00120D1E70020CFE70438024026
:100C600000004742800E4742007000400000FFFF36
:100C700010B5401EB0F1807F01D3012010BD4FF0B0
:100C8000E02460610F21601700F039F90020A061B5
:100C900007202061002010BDFEE7000070B586B07F
:100CA00014216846FFF757FB1E480025016841F0F4
:100CB00080010160016801F080010591016841F047
:100CC00010010160016801F010010591016841F017
:100CD00001010160016801F001010591016841F025
:100CE000020101600068104E00F002004FF47854D9
:100CF0000590002221463046FFF7A3FC0094012412
:100D0000CDE90145694630460394FFF79DFB4FF45A
:100D1000F070CDE90005694602940448FFF794FBA2
:100D200006B070BD3038024000100240000402409E
:100D3000FEE7FEE710B50E4C00224FF4007120468E
:100D4000FFF77FFC012291022046FFF77AFC012287
:100D5000D1022046FFF775FC012211032046FFF760
:100D600070FC20460122BDE810405103FFF769BC2A
:100D7000001002402DE9F0470F4D002407464FF0C8
:100D800080084FF480696E1528FA04F23A4049460B
:100D90002846FFF756FC012231462846FFF751FC52
:100DA000002231462846FFF74CFC641CE4B2082CB4
:100DB000EAD3BDE8F08700000010024010B50C46F1
:100DC00040F0B00000F00CF8102040EA141000F0E1
:100DD00007F804F00F00BDE8104000F001B8000073
:100DE00070B50C4D06464FF40054002221462846AB
:100DF000FFF727FC002261102846FFF722FC30464F
:100E0000FFF7B8FF21462846BDE870400122FFF7F2
:100E100018BC00000010024070B50C4D06464FF49F
:100E20000054002221462846FFF70BFC0122110343
:100E30002846FFF706FC3046FFF79CFF2146284670
:100E4000BDE870400122FFF7FCBB0000001002402B
:100E500070477047FFF700BC30B593B0302168464B
:100E6000FFF779FA14210CA8FFF775FA1D48002541
:100E7000016841F080510160006800F080501190DD
:100E80001948016841F4804101600068022400F4BF
:100E90008040119001200090000401908001CDE974
:100EA000064008AA0420A82182E813000B90684697
:100EB000FFF728FD08B172B6FEE70CA90F2081E804
:100EC00031004FF4A0500F904FF480501090052146
:100ED0000CA8FFF74DFC002801D072B6FEE713B056
:100EE00030BD0000403802400070004002480168F8
:100EF00041F470010160704788ED00E0FEE70907EA
:100F0000090E002804DB00F1E02080F8001470478F
:100F100000F00F0000F1E02080F8141D7047000081
:100F200070B5284D002420212846FFF785FB80B1AD
:100F300040212846FFF780FBC8B180212846FFF7F3
:100F40007BFB10B3AE1531462846FFF775FB50B357
:100F500036E01420FFF766FA20212846FFF76CFBE5
:100F60000028F9D01420FFF75DFA012428E01420AE
:100F7000FFF758FA40212846FFF75EFB0028F9D01A
:100F80001420FFF74FFA02241AE01420FFF74AFA60
:100F900080212846FFF750FB0028F9D01420FFF7E6
:100FA00041FA03240CE01420FFF73CFA31462846AE
:100FB000FFF742FB0028F9D01420FFF733FA04248E
:100FC000204670BD00040240FFF74EFBFFF744FFD0
:100FD000FFF764FE00F053F80F4C00BFFFF7A0FFCF
:100FE000207001210DA2084600F0D2F820780128D7
:100FF0000BD002280BD003280BD00428EED10AA274
:101000000121022000F0C4F8E8E70AA2F8E70CA2E8
:10101000F6E70EA2F4E70000000000204B657920FF
:10102000746573743A0000004B6579203420707247
:10103000657373004B65792031207072657373009E
:101040004B65792032207072657373004B6579208F
:10105000332070726573730070B500240021204640
:10106000FFF7ACFE00250020FFF7D6FE6D1CEDB2A9
:10107000802DF8D3641CE4B2082CEFD370BD10B5FA
:1010800000200021491C6429FCD3401C6428F8D3AB
:10109000FFF750FEAE20FFF7A3FED520FFF7A0FE1E
:1010A0008020FFF79DFEA820FFF79AFE3F20FFF764
:1010B00097FED320FFF794FE0020FFF791FE40201B
:1010C000FFF78EFEA120FFF78BFEC820FFF788FEFA
:1010D000DA20FFF785FE1220FFF782FE8120FFF75E
:1010E0007FFECF20FFF77CFED920FFF779FEF120AD
:1010F000FFF776FEDB20FFF773FE3020FFF770FE70
:10110000A420FFF76DFEA620FFF76AFE8D20FFF7F3
:1011100067FE1420FFF764FEAF20FFF761FEBDE815
:101120001040FFF799BF00002DE9F0410746CE00BF
:101130004000083E801E15464FF0FF38F1B2C0B2A5
:10114000FFF73CFE1148002400EB05152819A0F517
:10115000805090F8000EFFF75FFE641CE4B2082C8C
:10116000F4D308EB4700F1B2C0B2FFF727FE00242A
:101170002819A0F5805090F8080EFFF74DFE641C6A
:10118000E4B2082CF4D3BDE8F0810000D0110008CF
:101190002DE9F04115460E460746002406E03019B9
:1011A000C1B23846FFF7C0FF641CE4B22A5D002AD2
:1011B000F5D1BDE8F0814FF04070E1EE100A7047C4
:1011C00000000000000000000102030406070809F7
:1011D000000000000000000000000000000000000F
:1011E000000000F8000000000000003330000000A4
:1011F00000100C06100C06000000000000000000AB
:1012000040C07840C0784000043F04043F0404001C
:10121000007088FC08300000001820FF211E00002C
:10122000F008F000E018000000211C031E211E0041
:1012300000F00888700000001E21232419272110C7
:1012400010160E000000000000000000000000006A
:10125000000000E018040200000000071820400011
:1012600000020418E0000000004020180700000001
:10127000404080F0804040000202010F0102020065
:10128000000000F0000000000101011F0101010049
:10129000000000000000000080B0700000000000AE
:1012A0000000000000000000000101010101010137
:1012B00000000000000000000030300000000000CE
:1012C00000000000806018040060180601000000A3
:1012D00000E010080810E000000F102020100F00A0
:1012E000001010F8000000000020203F2020000027
:1012F000007008080888700000302824222130007F
:1013000000300888884830000018202020110E0086
:101310000000C02010F8000000070424243F24002F
:1013200000F80888880808000019212020110E0004
:1013300000E0108888180000000F112020110E0016
:1013400000380808C83808000000003F000000000E
:101350000070880808887000001C222121221C00CF
:1013600000E010080810E0000000312222110F00F8
:10137000000000C0C000000000000030300000008D
:1013800000000080000000000000806000000000FD
:101390000000804020100800000102040810200016
:1013A0004040404040404000040404040404040061
:1013B00000081020408000000020100804020100F6
:1013C000007048080808F0000000003036010000F6
:1013D000C030C828E810E0000718272423140B00A9
:1013E0000000C038E0000000203C23020227382023
:1013F00008F8888888700000203F202020110E0007
:10140000C0300808080838000718202020100800FD
:1014100008F808080810E000203F202020100F00E6
:1014200008F88888E8081000203F202023201800B2
:1014300008F88888E8081000203F2000030000001A
:10144000C03008080838000007182020221E0200BB
:1014500008F808000008F808203F210101213F207A
:10146000000808F8080800000020203F20200000A5
:1014700000000808F8080800C08080807F00000095
:1014800008F888C028180800203F200126382000CE
:1014900008F8080000000000203F20202020300035
:1014A00008F8F800F8F80800203F003F003F20004F
:1014B00008F830C00008F808203F200007183F0057
:1014C000E01008080810E0000F10202020100F0086
:1014D00008F808080808F000203F21010101000079
:1014E000E01008080810E0000F18242438504F00BE
:1014F00008F8888888887000203F2000030C30207E
:1015000000708808080838000038202121221C00BB
:10151000180808F8080818000000203F2000000004
:1015200008F808000008F808001F202020201F00ED
:101530000878880000C83808000007380E0100004D
:10154000F80800F80008F800033C0700073C030017
:10155000081868808068180820302C03032C30207D
:101560000838C800C83808000000203F20000000EC
:1015700010080808C8380800203826212020180044
:10158000000000FE020202000000007F4040400018
:10159000000C30C000000000000000010638C00050
:1015A00000020202FE000000004040407F000000F8
:1015B000000004020202040000000000000000001D
:1015C000000000000000000080808080808080801B
:1015D0000002020400000000000000000000000003
:1015E00000008080808000000019242222223F20F9
:1015F00008F8008080000000003F112020110E003C
:101600000000008080800000000E112020201100CA
:10161000000000808088F800000E112020103F207C
:101620000000808080800000001F22222222130000
:10163000008080F0888888180020203F202000004B
:101640000000808080808000006B94949493600000
:1016500008F8008080800000203F210000203F200B
:1016600000809898000000000020203F202000000B
:10167000000000809898000000C08080807F0000FB
:1016800008F8000080808000203F24022D302000D8
:10169000000808F8000000000020203F2020000083
:1016A0008080808080808000203F20003F20003F9D
:1016B0008080008080800000203F210000203F20AB
:1016C0000000808080800000001F202020201F005C
:1016D000808000808000000080FFA12020110E008B
:1016E0000000008080808000000E112020A0FF807C
:1016F000808080008080800020203F212000010029
:10170000000080808080800000332424242419007D
:10171000008080E0808000000000001F202000008A
:101720008080000000808000001F202020103F20CB
:10173000808080000080808000010E30080601005B
:1017400080800080008080800F300C030C300F0000
:1017500000808000808080000020312E0E3120002B
:10176000808080000080808080818E70180601005B
:1017700000808080808080000021302C2221300079
:1017800000000000807C020200000000003F40409A
:1017900000000000FF00000000000000FF0000004B
:1017A0000002027C800000000040403F000000007A
:1017B0000006010102020404000000000000000015
:1017C000E01700080000002014000000C401000819
:1017D000F41700081400002064060000E00100086F
:1017E00000000000010000001000000000000000E8
:0417F0000024F400DD
:040000050800018965
:00000001FF
