:020000040800F2
:100000007806002055020008990D0008ED0C000844
:10001000950D0008010400084110000800000000D0
:100020000000000000000000000000007D0F00083C
:100030000504000800000000790F0008810F000887
:100040006F0200086F0200086F0200086F020008CC
:100050006F0200086F0200086F0200086F020008BC
:100060006F0200086F0200086F0200086F020008AC
:100070006F0200086F0200086F0200086F0200089C
:100080006F0200086F0200086F0200086F0200088C
:100090006F0200086F0200086F0200086F0200087C
:1000A0006F0200086F0200086F0200086F0200086C
:1000B0006F0200086F0200086F0200086F0200085C
:1000C0006F0200086F0200086F0200086F0200084C
:1000D0006F0200086F0200086F0200086F0200083C
:1000E0006F0200086F0200086F0200086F0200082C
:1000F0006F0200086F0200086F0200086F0200081C
:100100006F0200086F0200086F0200086F0200080B
:100110006F0200086F0200086F0200086F020008FB
:100120006F0200086F0200086F0200086F020008EB
:100130006F0200086F0200086F0200086F020008DB
:100140006F0200086F0200086F0200086F020008CB
:100150006F0200086F0200086F0200086F020008BB
:100160006F0200086F0200086F0200086F020008AB
:100170006F0200086F0200086F0200080000000014
:100180006F0200086F02000800F002F800F052F859
:1001900014A696E8000CB244B344DA4501D100F04D
:1001A00049F8BAE80F000FA696E83000A5EB040561
:1001B00004EB0607AAEB0704A7F101074FEA1515A0
:1001C0004FEA3414A4F10104AC4201D300F032F838
:1001D00013F0010F18BFFB1A43F0010300F001F800
:1001E000DBE71847281F0000481F0000103A24BF13
:1001F00078C878C1FAD8520724BF30C830C144BF8C
:1002000004680C6070470000704700000023002461
:1002100000250026103A28BF78C1FBD8520728BF16
:1002200030C148BF0B6070471FB501F04AFC1FBDCD
:1002300010B510BD00F0A9F81146FFF7F5FF00F06A
:100240005FFF00F0C7F803B4FFF7F2FF03BC00F054
:10025000CFF800000948804709480047FEE7FEE75D
:10026000FEE7FEE7FEE7FEE7FEE7FEE7FEE7FEE766
:1002700004480549054A064B704700002D10000848
:10028000890100087800002078060020780200200C
:100290007802002053EA020C00F069802DE9F04B4F
:1002A0004FF00006002B1FBFB3FA83F503FA05F4E5
:1002B00024FA05F65E4012BF1643B2FA82F502FA3E
:1002C00005F4C5F120051EBF22FA05FC44EA0C0422
:1002D000203556EA044C4FEA144418BF641C4FF012
:1002E00000084FF00009904271EB030C39D300294C
:1002F00019BFB1FA81F701FA07F6B0FA80F700FAF0
:1003000007F6C7F120071EBF20FA07FC46EA0C06D5
:100310002037B6FBF4FCA7EB0507103F07F01F0BD7
:10032000CBF120062CFA06F60CFA0BFB44BFB346C1
:100330000026202FA4BF5E464FF0000B5BEA060CA0
:1003400008BF4FF0010B19EB0B0948EB0608ABFB9C
:10035000027C06FB02CC0BFB03CCC01B71EB0C0137
:10036000C1E70B46024641464846BDE8F08B13B54F
:10037000084318BF4FF0FF300146AFF30080BDE8DF
:100380001C407047704770477047754600F02CF866
:10039000AE4605006946534620F00700854618B072
:1003A00020B5FFF765FFBDE820404FF000064FF095
:1003B00000074FF000084FF0000BAC46ACE8C00956
:1003C000ACE8C009ACE8C009ACE8C00921F00701FD
:1003D0008D46704710B50446AFF300802046BDE857
:1003E0001040FFF730BF00000048704710000020A9
:1003F00001491820ABBEFEE726000200704700004E
:10040000FEE7000070470000B0B5044600F0ECF8CD
:10041000054640F20000C2F200000078611C18BFDF
:10042000044400BF00F0E0F8401BA042FAD3B0BD86
:100430002DE9F04F82B000F13E4707F1FF778605C6
:1004400046EA972741F60046C4F20206082243F620
:10045000004EB04208BF0722C4F2010E072F38BF7A
:100460003A46002600274FF00008009209E000BF3E
:1004700008F101080237B8F1100F06F1040600F088
:10048000A3800D68012202FA08F415EA0409EFD0EE
:10049000D1F804B003220BF0030CACF10105BA4013
:1004A000012D6FEA020A0FD88268CD6802EA0A02BB
:1004B000BD402A4382604268A243CBF3001404FA91
:1004C00008F42243426005E0BCF1030F02D14FF073
:1004D000030C1EE0C2688C6802EA0A02BC40224398
:1004E000BCF1020FC26014D16FF0030202EA58029D
:1004F0000244D2F820C006F01C040F230D69A3406B
:100500002CEA0303A5402B431362D1F804B00BF08F
:10051000030C02680CFA07F302EA0A021A431BF4FE
:10052000403F0260A4D0002243F644030192C4F28B
:1005300002031A684FF6084C42F480421A601A68A7
:10054000CFF6FF7C02F480420192019A28F0030268
:10055000724452F80C3006F00C050F24AC40A34353
:10056000009C04FA05F52B4342F80C30DEF8082015
:100570004B6842EA090543F60C4CDC0258BF22EAFC
:100580000905CEF80850C4F2010CDCF800209C02EA
:1005900042EA090558BF22EA0905CCF80050DEF806
:1005A00004209C0342EA090558BF22EA0905CEF857
:1005B0000450DEF80020DB0342EA090558BF22EAB6
:1005C0000905CEF8005053E702B0BDE8F08F0000F7
:1005D0000069084018BF012070470000002A08BFCA
:1005E000090481617047000040F27400C2F200000B
:1005F0000068704740F2000040F27401C2F200004F
:10060000C2F2000100780A681044086070470000D8
:1006100080B543F60040C4F20200016841F4007165
:100620000160016841F480610160016841F48071FA
:100630000160032000F074F80F2000F005F800F0CE
:1006400027F8002080BD000070B540F20006C2F21D
:10065000000640F208013278C2F200014FF47A73CA
:100660000968B3FBF2F20446B1FBF2F1084600F070
:1006700027FB0F2C4FF0010508D838B94FF0FF3099
:1006800021460022002500F01FF87460284670BD46
:1006900082B0002043F640010190C4F202014A6892
:1006A00042F480424A604A6802F480420192019A10
:1006B0000090086840F080500860086800F08050A2
:1006C0000090009802B0704710B54EF60C5CCEF268
:1006D000000CDCF80030C3F3022E8EF00704042C6B
:1006E00028BF0424BEF103034FF0FF3E0EFA04F4CA
:1006F00038BF0023A14399400EFA03F39A431143F4
:1007000000F00F0200F160430901043A03F564436D
:100710006244002848BF02F10C03197010BD0000AC
:100720004EF60C51CEF200010A684FF6FF031A4054
:1007300060F30A2242F0806040F0FD70086070476C
:10074000002804BF012070472DE9F04143F6080856
:10075000C4F202080446D8F8F8030D4600F007007A
:10076000884207D288F8F853D8F8F80300F0070059
:10077000A84277D12068810717D5410705D5D8F859
:10078000001041F4E051C8F80010010705D5D8F871
:10079000001041F46041C8F80010D8F80010A268B9
:1007A00021F0F0011143C8F80010C00740D1D8F87B
:1007B000F80300F00700A84207D988F8F853D8F8E2
:1007C000F80300F00700A8424CD12068410707D584
:1007D000D8F80010E26821F4E0511143C8F8001085
:1007E000000708D5D8F80000216920F4604040EAED
:1007F000C100C8F8000000F055F8D8F8001041F624
:10080000DC22C1F30311C0F60002515C40F2080281
:1008100020FA01F140F20400C2F200000068C2F2C6
:1008200000021160FFF710FF0020BDE8F08100BF5B
:100830006068811E022907D258F8081C89015CBF34
:100840000120BDE8F08111E0012807D158F8081C0B
:1008500089035CBF0120BDE8F08107E058F8081C5F
:10086000890703D40120BDE8F08100BFD8F800104B
:1008700021F003010843C8F80000FFF7B5FE064663
:1008800041F28837D8F80000616800F00C00B0EB46
:10089000810F8CD0FFF7A8FE801BB842F2D903204D
:1008A000BDE8F08110B543F60404C4F202046068A8
:1008B00000F00C0142F200400829C0F2F40007D019
:1008C000042918BF10BD41F20020C0F27A0010BD0B
:1008D000216801F03F02216823684902C3F38811AF
:1008E00006D4A1FB00010023FFF7D4FC07E000BF02
:1008F00041F20020C0F27A004843B0FBF2F02168D8
:100900000222C1F3014102EB4101B0FBF1F010BD45
:10091000002804BF012070472DE9F04182B0044651
:10092000007843F60006C007C4F202060CD0B06897
:1009300000F00C00042840F081803068800303D56B
:100940006068002800F06A81207880071BD5B068B5
:1009500010F00C0F09D0B06800F00C00082840F02F
:1009600087807068400200F183803068800703D57B
:10097000E068012840F052813068216920F0F800D9
:1009800040EAC10030602078000713D42078400787
:100990002AD4A569002D00F03C81B06800F00C005D
:1009A000082840F0A180012D40F01081012002B004
:1009B000BDE8F0816069002840F20000C4F24720E1
:1009C00000F07E800121C0F8801EFFF70DFE054675
:1009D000706F8007DAD4FFF707FE401B0228F7D9B3
:1009E000032002B0BDE8F081306C5FEAC0080AD491
:1009F00000200190306C40F080503064306C00F08A
:100A000080500190019847F20007C4F2000738684F
:100A1000C00547D4386840F480703860FFF7E4FDC3
:100A2000054600BF3868C0053CD4FFF7DDFD401B1C
:100A30000228F7D9032002B0BDE8F081B06800F0C9
:100A40000C00082803D1706840023FF576AF60685B
:100A5000B0F5803F07D0B0F5A02F40F09B80306804
:100A600040F480203060306840F4803030609BE09B
:100A7000E06800285CD00020C4F24720012101601A
:100A8000FFF7B2FD054600BF306880073FF574AF41
:100A9000FFF7AAFD401B0228F6D9032002B0BDE8EB
:100AA000F08100BFA068012805D0052854D1306F1F
:100AB00040F004003067306F40F00100306755E0CF
:100AC0000021C0F8801EFFF78FFD0546706F80077C
:100AD0007FF55CAFFFF788FD401B0228F6D90320A5
:100AE00002B0BDE8F08100BF0027C4F24727002014
:100AF0003866FFF779FD022D05460DD1306880017B
:100B000040F19080FFF770FD401B02284FF003007A
:100B1000F4D902B0BDE8F0813068800179D5FFF7E3
:100B200063FD401B02284FF00300F5D9F1E700BF39
:100B30000020C4F2472000210160FFF755FD054663
:100B4000306880077FF51FAFFFF74EFD401B02287E
:100B50004FF00300F4D9DCE7316F002821F00101E8
:100B60003167316F21F0040131677DD0FFF73CFD23
:100B7000054641F2883700BF306F800700F186805C
:100B8000FFF732FD401BB842F6D9032002B0BDE8A2
:100B9000F08100BF3168002821F480313160316874
:100BA00021F4802131607BD0FFF71EFD054600BF98
:100BB000306880033FF5C8AEFFF716FD401B642880
:100BC000F6D9032002B0BDE8F08100BF7068E1698A
:100BD00000F480028A4221D1216A00F03F028A4259
:100BE0001CD147F6C071626A0140B1EB821F15D17A
:100BF000A16A4FF6FF73C903994300F44032A1F58F
:100C000080318A420AD1E16A00F07060B0EB016F76
:100C100004D1002002B0BDE8F08100BF012002B085
:100C2000BDE8F08104F11C052FCD084340EA821095
:100C3000D9034FF6FF729143A1F5803140EA056078
:100C40000843706001203866FFF7CEFC044600BF01
:100C500030688001DDD4FFF7C7FC001B02284FF08D
:100C60000300F5D955E700BFFFF7BEFC054641F28A
:100C7000883700BF306F800708D5FFF7B5FC401BF1
:100C8000B8424FF00300F5D943E700BFB8F1000FB9
:100C90003FF57FAE306C20F08050306479E600BFC5
:100CA000FFF7A2FC054600BF306880037FF54CAE1D
:100CB000FFF79AFC401B64284FF00300F4D928E7A3
:100CC000411E0020B0EB116F1CBF012070474EF297
:100CD0001002CEF2000251604EF62351CEF2000116
:100CE000F0230B700721906011607047FEE7000051
:100CF000F0B587B0002643F6300006960196C4F2A0
:100D00000200016841F2000441F0800101600168C5
:100D1000C4F2020401F08001019101990196016879
:100D2000002241F01001016001684FF4785501F094
:100D30001001019101990196016841F001010160E2
:100D4000016801F00101019101990196016841F0EA
:100D50000201016000684FF4785100F00200019038
:100D600001982046FFF73AFC029502AD0127204684
:100D70002946CDE903760597FFF75AFB4FF4F0704B
:100D800002A9C1C1A4F540602946FFF751FB07B095
:100D9000F0BD0000FEE70000FEE70000B0B541F244
:100DA0000004C4F20204054600F0800220464FF41D
:100DB0008061FFF713FC20464FF400710122FFF71A
:100DC0000DFC20464FF400710022FFF707FC05F0F0
:100DD000400220464FF48061FFF700FC20464FF4AC
:100DE00000710122FFF7FAFB20464FF40071002248
:100DF000FFF7F4FB05F0200220464FF48061FFF777
:100E0000EDFB20464FF400710122FFF7E7FB20467F
:100E10004FF400710022FFF7E1FB05F010022046BD
:100E20004FF48061FFF7DAFB20464FF40071012296
:100E3000FFF7D4FB20464FF400710022FFF7CEFBF2
:100E400005F0080220464FF48061FFF7C7FB2046FB
:100E50004FF400710122FFF7C1FB20464FF40071EF
:100E60000022FFF7BBFB05F0040220464FF480612F
:100E7000FFF7B4FB20464FF400710122FFF7AEFBF1
:100E800020464FF400710022FFF7A8FB05F0020294
:100E900020464FF48061FFF7A1FB20464FF400711C
:100EA0000122FFF79BFB20464FF400710022FFF761
:100EB00095FB05F0010220464FF48061FFF78EFBA1
:100EC00020464FF400710122FFF788FB20464FF4C3
:100ED00000710022BDE8B040FFF780BB70B541F261
:100EE0000005C4F202050C4640F0B00628464FF457
:100EF00000510022FFF772FB28464FF48051002278
:100F0000FFF76CFB3046FFF749FF28464FF40051CE
:100F10000122FFF763FB200900F1100628464FF479
:100F200000510022FFF75AFB28464FF4805100225F
:100F3000FFF754FB3046FFF731FF28464FF40051CE
:100F40000122FFF74BFB28464FF400510022FFF728
:100F500045FB28464FF480510022FFF73FFB04F089
:100F60000F00FFF71BFF28464FF400510122BDE898
:100F70007040FFF733BB000070470000704700006F
:100F8000FFF738BBB0B592B0002443F64000CDE97E
:100F90000A44CDE908440594CDE90344CDE9014470
:100FA0000094C4F202000168022541F08051016002
:100FB000006800F080500090009847F20000009414
:100FC000C4F20000016841F4804101600068A8217A
:100FD00000F4804000900098012006904FF480308B
:100FE00007904FF480000D9004200E90119006A8F9
:100FF0000C95CDE90F15FFF78BFC18B172B600BF49
:10100000FEE700BF0F20CDE901054FF4A05004908A
:101010004FF48050059001A805210394FFF790FB41
:1010200010B172B6FEE700BF12B0B0BD4EF68850E8
:10103000CEF20000016841F47001016070470000C9
:10104000FEE7000010B540F20044C4F2020420465E
:101050002021FFF7BDFA18B320464021FFF7B8FA68
:1010600070B320468021FFF7B3FAC8B320464FF48F
:101070008071FFF7ADFA00281CBF002010BD1420BE
:10108000FFF7C2F920464FF48071FFF7A1FA00285C
:10109000F8D004241420FFF7B7F9204610BD00BF94
:1010A0001420FFF7B1F900BF20462021FFF790FA86
:1010B0000028F9D001241420FFF7A6F9204610BD1E
:1010C0001420FFF7A1F900BF20464021FFF780FA66
:1010D0000028F9D002241420FFF796F9204610BD0D
:1010E0001420FFF791F900BF20468021FFF770FA26
:1010F0000028F9D003241420FFF786F9204610BDFC
:10110000FFF786FAFFF73EFFFFF7F2FD00F02EF93A
:1011100040F27005C2F200050AA40DA6FFF792FF87
:10112000287001200121224600F0B6FC2878013801
:10113000C0B20328F2D856F820200220012100F086
:10114000ABFCEBE74B657920746573743A000000E3
:10115000DC200008E8200008F42000080021000836
:10116000B0B541F2000400200021C4F202040025C1
:10117000FFF7B4FE20464FF400510022FFF72EFA8D
:1011800020464FF480510122FFF728FA0020FFF794
:1011900005FE20464FF400510122FFF71FFA681C9C
:1011A00045B2B5F1FF3FE5DC012000210025FFF746
:1011B00095FE00BF20464FF400510022FFF70EFAC3
:1011C00020464FF480510122FFF708FA0020FFF774
:1011D000E5FD20464FF400510122FFF7FFF9681C9E
:1011E00045B2B5F1FF3FE5DC022000210025FFF705
:1011F00075FE00BF20464FF400510022FFF7EEF9C4
:1012000020464FF480510122FFF7E8F90020FFF754
:10121000C5FD20464FF400510122FFF7DFF9681C9D
:1012200045B2B5F1FF3FE5DC032000210025FFF7C3
:1012300055FE00BF20464FF400510022FFF7CEF9C3
:1012400020464FF480510122FFF7C8F90020FFF734
:10125000A5FD20464FF400510122FFF7BFF9681C9D
:1012600045B2B5F1FF3FE5DC042000210025FFF782
:1012700035FE00BF20464FF400510022FFF7AEF9C3
:1012800020464FF480510122FFF7A8F90020FFF714
:1012900085FD20464FF400510122FFF79FF9681C9D
:1012A00045B2B5F1FF3FE5DC052000210025FFF741
:1012B00015FE00BF20464FF400510022FFF78EF9C3
:1012C00020464FF480510122FFF788F90020FFF7F4
:1012D00065FD20464FF400510122FFF77FF9681C9D
:1012E00045B2B5F1FF3FE5DC062000210025FFF700
:1012F000F5FD00BF20464FF400510022FFF76EF9C4
:1013000020464FF480510122FFF768F90020FFF7D3
:1013100045FD20464FF400510122FFF75FF9681C9C
:1013200045B2B5F1FF3FE5DC072000210025FFF7BE
:10133000D5FD00BF20464FF400510022FFF74EF9C3
:1013400020464FF480510122FFF748F90020FFF7B3
:1013500025FD20464FF400510122FFF73FF9681C9C
:1013600045B2B5F1FF3FE5DCB0BD000010B541F27C
:101370000004C4F2020420464FF400710022FFF77B
:101380002DF920464FF480610122FFF727F920460E
:101390004FF400610122FFF721F920464FF48051FC
:1013A0000122FFF71BF920464FF400510122FFF7FD
:1013B00015F920464FF400510022FFF70FF920469F
:1013C0004FF480510022FFF709F9AE20FFF7E6FC49
:1013D00020464FF400510122FFF700F920464FF458
:1013E00000510022FFF7FAF820464FF48051002206
:1013F000FFF7F4F8D520FFF7D1FC20464FF4005159
:101400000122FFF7EBF820464FF400510022FFF7CE
:10141000E5F820464FF480510022FFF7DFF88020E6
:10142000FFF7BCFC20464FF400510122FFF7D6F82D
:1014300020464FF400510022FFF7D0F820464FF429
:1014400080510022FFF7CAF8A820FFF7A7FC20462A
:101450004FF400510122FFF7C1F820464FF400512C
:101460000022FFF7BBF820464FF480510022FFF71F
:10147000B5F83F20FFF792FC20464FF400510122BF
:10148000FFF7ACF820464FF400510022FFF7A6F812
:1014900020464FF480510022FFF7A0F8D320FFF739
:1014A0007DFC20464FF400510122FFF797F82046BB
:1014B0004FF400510022FFF791F820464FF480517D
:1014C0000022FFF78BF80020FFF768FC20464FF45E
:1014D00000510122FFF782F820464FF4005100220C
:1014E000FFF77CF820464FF480510022FFF776F892
:1014F0004020FFF753FC20464FF400510122FFF734
:101500006DF820464FF400510022FFF767F820469F
:101510004FF480510022FFF761F8A120FFF73EFC55
:1015200020464FF400510122FFF758F820464FF4AF
:1015300000510022FFF752F820464FF4805100225C
:10154000FFF74CF8C820FFF729FC20464FF4005164
:101550000122FFF743F820464FF400510022FFF725
:101560003DF820464FF480510022FFF737F8DA208B
:10157000FFF714FC20464FF400510122FFF72EF82C
:1015800020464FF400510022FFF728F820464FF480
:1015900080510022FFF722F81220FFF7FFFB2046C0
:1015A0004FF400510122FFF719F820464FF4005183
:1015B0000022FFF713F820464FF480510022FFF776
:1015C0000DF88120FFF7EAFB20464FF4005101227D
:1015D000FFF704F820464FF400510022FEF7FEFF0B
:1015E00020464FF480510022FEF7F8FFCF20FFF78E
:1015F000D5FB20464FF400510122FEF7EFFF2046B5
:101600004FF400510022FEF7E9FF20464FF48051CD
:101610000022FEF7E3FFD920FFF7C0FB20464FF47E
:1016200000510122FEF7DAFF20464FF4005100225C
:10163000FEF7D4FF20464FF480510022FEF7CEFF84
:10164000F120FFF7ABFB20464FF400510122FEF7DB
:10165000C5FF20464FF400510022FEF7BFFF204691
:101660004FF480510022FEF7B9FFDB20FFF796FB15
:1016700020464FF400510122FEF7B0FF20464FF400
:1016800000510022FEF7AAFF20464FF480510022AD
:10169000FEF7A4FF3020FFF781FB20464FF40051F6
:1016A0000122FEF79BFF20464FF400510022FEF777
:1016B00095FF20464FF480510022FEF78FFFA420B3
:1016C000FFF76CFB20464FF400510122FEF786FF26
:1016D00020464FF400510022FEF780FF20464FF4D1
:1016E00080510022FEF77AFFA620FFF757FB204625
:1016F0004FF400510122FEF771FF20464FF40051D4
:101700000022FEF76BFF20464FF480510022FEF7C7
:1017100065FF8D20FFF742FB20464FF40051012268
:10172000FEF75CFF20464FF400510022FEF756FF03
:1017300020464FF480510022FEF750FF1420FFF79F
:101740002DFB20464FF400510122FEF747FF2046B3
:101750004FF400510022FEF741FF20464FF4805124
:101760000022FEF73BFFAF20FFF718FB20464FF4A7
:1017700000510122FEF732FFBDE81040FFF7F0BC38
:101780002DE9F04714466FF0070280466FF0010024
:1017900002EBC10100EB48005FFA81F9C0B2494693
:1017A000FFF79CFB41F6EC20C0F6000000EB0410B4
:1017B0004FF6006141F20004CFF6FF71C4F202045B
:1017C000455CA0F5007720464FF400510022FEF75B
:1017D00005FF20464FF480510122FEF7FFFE284608
:1017E000FFF7DCFA20464FF400510122FEF7F6FE27
:1017F00020464FF400510022FEF7F0FE20464FF441
:1018000080510122FEF7EAFE7878BE78FD7897F8DD
:1018100004A0FFF7C3FA20464FF400510122FEF75F
:10182000DDFE20464FF400510022FEF7D7FE204691
:101830004FF480510122FEF7D1FE3046FFF7AEFA99
:1018400020464FF400510122FEF7C8FE20464FF417
:1018500000510022FEF7C2FE20464FF480510122C3
:10186000FEF7BCFE2846FFF799FA20464FF40051D8
:101870000122FEF7B3FE20464FF400510022FEF78E
:10188000ADFE20464FF480510122FEF7A7FE5046E0
:10189000FFF784FA20464FF400510122FEF79EFE26
:1018A0007D7920464FF400510022FEF797FE204636
:1018B0004FF480510122FEF791FE2846FFF76EFAA1
:1018C00020464FF400510122FEF788FEBD792046E4
:1018D0004FF400510022FEF781FE20464FF4805164
:1018E0000122FEF77BFE2846FFF758FA20464FF408
:1018F00000510122FEF772FEFD7920464FF400519F
:101900000022FEF76BFE20464FF480510122FEF7C5
:1019100065FE2846FFF742FA20464FF400510122A7
:10192000FEF75CFE4FF0FF3000EB4800C0B24946C6
:10193000FFF7D4FA3D7A20464FF400510022FEF71B
:101940004DFE20464FF480510122FEF747FE284607
:10195000FFF724FA20464FF400510122FEF73EFE25
:101960007D7A20464FF400510022FEF737FE2046D4
:101970004FF480510122FEF731FE2846FFF70EFAA0
:1019800020464FF400510122FEF728FEBD7A204682
:101990004FF400510022FEF721FE20464FF4805103
:1019A0000122FEF71BFE2846FFF7F8F920464FF408
:1019B00000510122FEF712FEFD7A20464FF400513D
:1019C0000022FEF70BFE20464FF480510122FEF765
:1019D00005FE2846FFF7E2F920464FF400510122A8
:1019E000FEF7FCFD3D7B20464FF400510022FEF740
:1019F000F5FD20464FF480510122FEF7EFFD284609
:101A0000FFF7CCF920464FF400510122FEF7E6FD26
:101A10007D7B20464FF400510022FEF7DFFD20467B
:101A20004FF480510122FEF7D9FD2846FFF7B6F9A1
:101A300020464FF400510122FEF7D0FDBD7B204629
:101A40004FF400510022FEF7C9FD20464FF48051AB
:101A50000122FEF7C3FD2846FFF7A0F920464FF408
:101A600000510122FEF7BAFDFD7B20464FF40051E4
:101A70000022FEF7B3FD20464FF480510122FEF70D
:101A8000ADFD2846FFF78AF920464FF400510122A8
:101A9000BDE8F047FEF7A2BDF0B581B0144612785C
:101AA0006AB10D46064600277819C1B2D2B2304657
:101AB000FFF766FE0137F8B2225C002AF4D101B0CC
:101AC000F0BDF1EE100A4FF6FF71C0F2C03120EA0E
:101AD000010040F04070E1EE100A70470000000085
:101AE00000000000010203040607080900000000CE
:101AF000000000000000000000000000000000F8EE
:101B000000000000000000333000000000100C0650
:101B1000100C0600000000000000000040C07840EB
:101B2000C0784000043F04043F040400007088FCB7
:101B300008300000001820FF211E0000F008F0000F
:101B4000E018000000211C031E211E0000F0088880
:101B5000700000001E2123241927211010160E00EA
:101B6000000000000000000000000000000000E095
:101B700018040200000000071820400000020418AA
:101B8000E00000000040201807000000404080F006
:101B9000804040000202010F01020200000000F03C
:101BA000000000000101011F010101000000000010
:101BB0000000000080B07000000000000000000085
:101BC000000000000001010101010101000000000E
:101BD00000000000003030000000000000000000A5
:101BE00080601804006018060100000000E0100882
:101BF0000810E000000F102020100F00001010F857
:101C0000000000000020203F202000000070080895
:101C10000888700000302824222130000030088815
:101C2000884830000018202020110E000000C0203D
:101C300010F8000000070424243F240000F808885E
:101C4000880808000019212020110E0000E01088EB
:101C500088180000000F112020110E00003808081D
:101C6000C83808000000003F00000000007088082D
:101C700008887000001C222121221C0000E01008AE
:101C80000810E0000000312222110F00000000C007
:101C9000C0000000000000303000000000000080A4
:101CA0000000000000008060000000000000804094
:101CB00020100800000102040810200040404040AD
:101CC0004040400004040404040404000008102000
:101CD0004080000000201008040201000070480845
:101CE0000808F0000000003036010000C030C828AD
:101CF000E810E0000718272423140B000000C03868
:101D0000E0000000203C23020227382008F88888E1
:101D100088700000203F202020110E00C0300808ED
:101D200008083800071820202010080008F80808C4
:101D30000810E000203F202020100F0008F88888BD
:101D4000E8081000203F20202320180008F8888889
:101D5000E8081000203F200003000000C030080801
:101D60000838000007182020221E020008F808008A
:101D70000008F808203F210101213F20000808F851
:101D8000080800000020203F202000000000080874
:101D9000F8080800C08080807F00000008F888C034
:101DA00028180800203F20012638200008F80800E5
:101DB00000000000203F20202020300008F8F8001C
:101DC000F8F80800203F003F003F200008F830C02E
:101DD0000008F808203F200007183F00E01008081E
:101DE0000810E0000F10202020100F0008F808084D
:101DF0000808F000203F210101010000E010080860
:101E00000810E0000F18242438504F0008F8888884
:101E100088887000203F2000030C30200070880864
:101E2000080838000038202121221C00180808F872
:101E3000080818000000203F2000000008F80800F3
:101E40000008F808001F202020201F0008788800C4
:101E500000C83808000007380E010000F80800F834
:101E60000008F800033C0700073C030008186880DE
:101E70008068180820302C03032C30200838C80054
:101E8000C83808000000203F2000000010080808A3
:101E9000C83808002038262120201800000000FE45
:101EA000020202000000007F40404000000C30C0F1
:101EB00000000000000000010638C000000202021D
:101EC000FE000000004040407F00000000000402CF
:101ED00002020400000000000000000000000000FA
:101EE00000000000808080808080808000020204EA
:101EF00000000000000000000000000000008080E2
:101F0000808000000019242222223F2008F800804F
:101F100080000000003F112020110E000000008012
:101F200080800000000E11202020110000000080A1
:101F30008088F800000E112020103F2000008080D3
:101F400080800000001F222222221300008080F0E7
:101F5000888888180020203F202000000000808012
:101F600080808000006B94949493600008F8008057
:101F700080800000203F210000203F2000809898B2
:101F8000000000000020203F202000000000008012
:101F90009898000000C08080807F000008F8000052
:101FA00080808000203F24022D302000000808F8A7
:101FB000000000000020203F202000008080808062
:101FC00080808000203F20003F20003F80800080F4
:101FD00080800000203F210000203F200000808002
:101FE00080800000001F202020201F0080800080B3
:101FF0008000000080FFA12020110E000000008062
:1020000080808000000E112020A0FF808080800052
:102010008080800020203F2120000100000080807F
:10202000808080000033242424241900008080E074
:10203000808000000000001F202000008080000041
:1020400000808000001F202020103F208080800022
:102050000080808000010E30080601008080008032
:10206000008080800F300C030C300F000080800057
:10207000808080000020312E0E3120008080800082
:102080000080808080818E70180601000080808032
:10209000808080000021302C2221300000000000D0
:1020A000807C020200000000003F40400000000071
:1020B000FF00000000000000FF0000000002027CA2
:1020C000800000000040403F0000000000060101C9
:1020D0000202040400000000000000004B657920AB
:1020E00031207072657373004B65792032207072F5
:1020F000657373004B6579203320707265737300CC
:102100004B657920342070726573730030210008AC
:102110000000002010000000EC0100084021000831
:1021200010000020680600000C02000800000000FB
:1021300001000000100000000024F4000000000076
:040000050800018965
:00000001FF
