:020000040800F2
:10000000E80600205D020008BD1900085918000824
:10001000B9190008FD050008B51D00080000000022
:10002000000000000000000000000000A11B00080C
:1000300001060008000000009D1B0008A51B000829
:1000400077020008770200087702000877020008AC
:10005000770200087702000877020008770200089C
:10006000770200087702000877020008770200088C
:10007000770200087702000877020008770200087C
:10008000770200087702000877020008770200086C
:10009000770200087702000877020008770200085C
:1000A000770200087702000877020008770200084C
:1000B00077020008651C0008770200087702000834
:1000C000770200087702000877020008770200082C
:1000D000770200087702000877020008770200081C
:1000E000770200087702000877020008770200080C
:1000F00077020008770200087702000877020008FC
:1001000077020008770200087702000877020008EB
:1001100077020008770200087702000877020008DB
:1001200077020008770200087702000877020008CB
:1001300077020008770200087702000877020008BB
:1001400077020008770200087702000877020008AB
:10015000770200087702000877020008770200089B
:10016000770200087702000877020008770200088B
:1001700077020008770200087702000800000000FC
:10018000770200087702000800F002F800F057F844
:1001900014A696E8000CB244B344DA4501D100F04D
:1001A0004EF8BAE80F000FA696E83000A5EB04055C
:1001B00004EB0607AAEB0704A7F101074FEA1515A0
:1001C0004FEA3414A4F10104AC4201D300F037F833
:1001D00013F0010F18BFFB1A43F0010300F001F800
:1001E000DBE718477C2D00009C2D0000103A24BF4F
:1001F00078C878C1FAD8520724BF30C830C144BF8C
:1002000004680C6070470000704700000023002461
:1002100000250026103A28BF78C1FBD8520728BF16
:1002200030C148BF0B607047642900F0F7800020A0
:1002300070471FB502F077FB1FBD10B510BD00F071
:10024000A2F91146FFF7F5FF01F04CFE00F0C0F9EE
:1002500003B4FFF7F2FF03BC00F0C8F90948804778
:1002600009480047FEE7FEE7FEE7FEE7FEE7FEE798
:10027000FEE7FEE7FEE7FEE704480549054A064BB0
:1002800070470000511C000889010008E8000020A8
:10029000E8060020E8020020E802002053EA020CF1
:1002A00000F069802DE9F04B4FF00006002B1FBFD6
:1002B000B3FA83F503FA05F424FA05F65E4012BF9B
:1002C0001643B2FA82F502FA05F4C5F120051EBF05
:1002D00022FA05FC44EA0C04203556EA044C4FEAA5
:1002E000144418BF641C4FF000084FF000099042FE
:1002F00071EB030C39D3002919BFB1FA81F701FA68
:1003000007F6B0FA80F700FA07F6C7F120071EBF1C
:1003100020FA07FC46EA0C062037B6FBF4FCA7EBF4
:100320000507103F07F01F0BCBF120062CFA06F64D
:100330000CFA0BFB44BFB3460026202FA4BF5E4639
:100340004FF0000B5BEA060C08BF4FF0010B19EBF6
:100350000B0948EB0608ABFB027C06FB02CC0BFB4F
:1003600003CCC01B71EB0C01C1E70B4602464146B2
:100370004846BDE8F08B13B5084318BF4FF0FF3077
:100380000146AFF30080BDE81C4070470FB41CB5B8
:10039000074B06AA7B4469460090059800F0DBF8FD
:1003A0000020694600F0EAF81CBC5DF814FB000070
:1003B000E50100002DE9F0410E46044600202062D0
:1003C0002046E168884730B3252805D0D4E90121CB
:1003D0009047206A401CF2E7E168204600278847E2
:1003E000050018D0A5F14100192802D820354FF496
:1003F00000673246294620462760FFF715FF40B1C7
:10040000012804D0F61D26F007060836D8E7361D69
:10041000D6E72846DAE7206ABDE8F0812DE9F04109
:100420000646002410687529314616A510D0AFF392
:100430000080002802DA404213A507E031688A07ED
:1004400001D512A502E0490704D511A5012401E058
:10045000AFF3008000210A2206F1240709E0B0FB77
:10046000F2FCB0FBF2F302FB1C003030785418466B
:10047000491C0028F3D123462A463046BDE8F04106
:1004800000F00BB8000000002D0000002B00000061
:10049000200000007047704770472DE9F0470D4677
:1004A00099469246044600F124080168880604D55E
:1004B000E06921F01001216000E00120A84201DD87
:1004C000471B00E00027A1697A1902EB0900081A0E
:1004D000A0612078C00602D42046AFF30080002639
:1004E00008E0D4E901211AF806009047206A401C70
:1004F000761C20624E45F4DB2078C0060AD52046E3
:10050000AFF3008006E0D4E9012130209047206A53
:10051000401C2062381EA7F10107F4DC07E0D4E993
:10052000012118F805009047206A401C2062281E0F
:10053000A5F10105F3DC2046AFF30080207800062A
:1005400002D50220BDE8F0870120FBE701694A1CC3
:1005500002610878704700B58FB0CDE90131002104
:10056000059105497944CDE9031011466846FFF726
:1005700021FF0FB000BD0000E5FFFFFF0A6802F891
:10058000010B0A607047754600F02CF8AE46050076
:100590006946534620F00700854618B020B5FFF79E
:1005A0006BFEBDE820404FF000064FF000074FF013
:1005B00000084FF0000BAC46ACE8C009ACE8C0093D
:1005C000ACE8C009ACE8C00921F007018D467047CE
:1005D00010B50446AFF300802046BDE81040FFF799
:1005E00037BE000000487047100000200149182065
:1005F000ABBEFEE72600020070470000FEE70000E9
:100600007047000072B600BFFEE70000B0B50446B8
:1006100000F0E6F8054640F20000C2F20000007863
:10062000611C18BF044400BF00F0DAF8401BA04270
:10063000FAD3B0BD2DE9F04F82B000F13E4707F18B
:10064000FF77860546EA972741F60046C4F2020680
:10065000082243F6004EB04208BF0722C4F2010E42
:10066000072F38BF3A46002600274FF000080092B7
:1006700009E000BF08F101080237B8F1100F06F1D8
:10068000040600F0A3800D68012202FA08F415EABE
:100690000409EFD0D1F804B003220BF0030CACF145
:1006A0000105BA40012D6FEA020A0FD88268CD68B1
:1006B00002EA0A02BD402A4382604268A243CBF3A9
:1006C000001404FA08F42243426005E0BCF1030F71
:1006D00002D14FF0030C1EE0C2688C6802EA0A02E5
:1006E000BC402243BCF1020FC26014D16FF0030280
:1006F00002EA58020244D2F820C006F01C040F237C
:100700000D69A3402CEA0303A5402B431362D1F8E3
:1007100004B00BF0030C02680CFA07F302EA0A02B9
:100720001A431BF4403F0260A4D0002243F6440366
:100730000192C4F202031A684FF6084C42F4804258
:100740001A601A68CFF6FF7C02F480420192019A87
:1007500028F00302724452F80C3006F00C050F2406
:10076000AC40A343009C04FA05F52B4342F80C303F
:10077000DEF808204B6842EA090543F60C4CDC021F
:1007800058BF22EA0905CEF80850C4F2010CDCF883
:1007900000209C0242EA090558BF22EA0905CCF86C
:1007A0000050DEF804209C0342EA090558BF22EA03
:1007B0000905CEF80450DEF80020DB0342EA090503
:1007C00058BF22EA0905CEF8005053E702B0BDE851
:1007D000F08F0000002A08BF090481617047000003
:1007E00040F2E400C2F200000068704740F20000EE
:1007F00040F2E401C2F20000C2F2000100780A688F
:10080000104408607047000080B543F60040C4F211
:100810000200016841F400710160016841F48061E7
:100820000160016841F480710160032000F086F8E6
:100830000F2000F005F800F027F8002080BD000030
:1008400070B540F20006C2F2000640F208013278AC
:10085000C2F200014FF47A730968B3FBF2F2044666
:10086000B1FBF2F1084600F039FB0F2C4FF0010507
:1008700008D838B94FF0FF3021460022002500F09B
:1008800031F87460284670BD82B0002043F6400104
:100890000190C4F202014A6842F480424A604A6808
:1008A00002F480420192019A0090086840F0805062
:1008B0000860086800F080500090009802B070470F
:1008C000002848BF704700F01F01012202FA01F121
:1008D0001C2202EAD0004EF20012CEF20002815039
:1008E0007047000010B54EF60C5CCEF2000CDCF840
:1008F0000030C3F3022E8EF00704042C28BF04241A
:10090000BEF103034FF0FF3E0EFA04F438BF00239C
:10091000A14399400EFA03F39A43114300F00F02EA
:1009200000F160430901043A03F56443624400287E
:1009300048BF02F10C03197010BD00004EF60C51B7
:10094000CEF200010A684FF6FF031A4060F30A2254
:1009500042F0806040F0FD7008607047002804BFDE
:10096000012070472DE9F04143F60808C4F202085F
:100970000446D8F8F8030D4600F00700884207D275
:1009800088F8F853D8F8F80300F00700A84277D1A8
:100990002068810717D5410705D5D8F8001041F424
:1009A000E051C8F80010010705D5D8F8001041F44F
:1009B0006041C8F80010D8F80010A26821F0F001DA
:1009C0001143C8F80010C00740D1D8F8F80300F070
:1009D0000700A84207D988F8F853D8F8F80300F0C0
:1009E0000700A8424CD12068410707D5D8F800106D
:1009F000E26821F4E0511143C8F80010000708D55F
:100A0000D8F80000216920F4604040EAC100C8F82D
:100A1000000000F055F8D8F8001042F64012C1F37B
:100A20000311C0F60002515C40F2080220FA01F105
:100A300040F20400C2F200000068C2F2000211603D
:100A4000FFF7FEFE0020BDE8F08100BF6068811E58
:100A5000022907D258F8081C89015CBF0120BDE8B3
:100A6000F08111E0012807D158F8081C89035CBF08
:100A70000120BDE8F08107E058F8081C890703D47D
:100A80000120BDE8F08100BFD8F8001021F003017B
:100A90000843C8F80000FFF7A3FE064641F2883776
:100AA000D8F80000616800F00C00B0EB810F8CD02A
:100AB000FFF796FE801BB842F2D90320BDE8F08113
:100AC00010B543F60404C4F20204606800F00C019F
:100AD00042F200400829C0F2F40007D0042918BFF0
:100AE00010BD41F20020C0F27A0010BD216801F073
:100AF0003F02216823684902C3F3881106D4A1FB91
:100B000000010023FFF7CAFB07E000BF41F200200D
:100B1000C0F27A004843B0FBF2F021680222C1F330
:100B2000014102EB4101B0FBF1F010BD002804BF10
:100B3000012070472DE9F04182B00446007843F669
:100B40000006C007C4F202060CD0B06800F00C002A
:100B5000042840F081803068800303D56068002855
:100B600000F06A81207880071BD5B06810F00C0F68
:100B700009D0B06800F00C00082840F08780706849
:100B8000400200F183803068800703D5E0680128C7
:100B900040F052813068216920F0F80040EAC1003D
:100BA00030602078000713D4207840072AD4A56944
:100BB000002D00F03C81B06800F00C00082840F0E7
:100BC000A180012D40F01081012002B0BDE8F0812C
:100BD0006069002840F20000C4F2472000F07E80E7
:100BE0000121C0F8801EFFF7FBFD0546706F8007EE
:100BF000DAD4FFF7F5FD401B0228F7D9032002B035
:100C0000BDE8F081306C5FEAC0080AD40020019092
:100C1000306C40F080503064306C00F080500190B7
:100C2000019847F20007C4F200073868C00547D4AE
:100C3000386840F480703860FFF7D2FD054600BF89
:100C40003868C0053CD4FFF7CBFD401B0228F7D91C
:100C5000032002B0BDE8F081B06800F00C00082865
:100C600003D1706840023FF576AF6068B0F5803F11
:100C700007D0B0F5A02F40F09B80306840F4802072
:100C80003060306840F4803030609BE0E0680028DD
:100C90005CD00020C4F2472001210160FFF7A0FDD5
:100CA000054600BF306880073FF574AFFFF798FD39
:100CB000401B0228F6D9032002B0BDE8F08100BF36
:100CC000A068012805D0052854D1306F40F00400F9
:100CD0003067306F40F00100306755E00021C0F808
:100CE000801EFFF77DFD0546706F80077FF55CAFC6
:100CF000FFF776FD401B0228F6D9032002B0BDE8BD
:100D0000F08100BF0027C4F2472700203866FFF7B4
:100D100067FD022D05460DD13068800140F19080BD
:100D2000FFF75EFD401B02284FF00300F4D902B02C
:100D3000BDE8F0813068800179D5FFF751FD401B97
:100D400002284FF00300F5D9F1E700BF0020C4F2FC
:100D5000472000210160FFF743FD0546306880070A
:100D60007FF51FAFFFF73CFD401B02284FF003004B
:100D7000F4D9DCE7316F002821F001013167316FD0
:100D800021F0040131677DD0FFF72AFD054641F2CD
:100D9000883700BF306F800700F18680FFF720FDA5
:100DA000401BB842F6D9032002B0BDE8F08100BF75
:100DB0003168002821F480313160316821F48021CC
:100DC00031607BD0FFF70CFD054600BF3068800323
:100DD0003FF5C8AEFFF704FD401B6428F6D9032099
:100DE00002B0BDE8F08100BF7068E16900F48002E4
:100DF0008A4221D1216A00F03F028A421CD147F683
:100E0000C071626A0140B1EB821F15D1A16A4FF631
:100E1000FF73C903994300F44032A1F580318A423F
:100E20000AD1E16A00F07060B0EB016F04D10020DC
:100E300002B0BDE8F08100BF012002B0BDE8F08142
:100E400004F11C052FCD084340EA8210D9034FF668
:100E5000FF729143A1F5803140EA0560084370605C
:100E600001203866FFF7BCFC044600BF30688001F3
:100E7000DDD4FFF7B5FC001B02284FF00300F5D9C5
:100E800055E700BFFFF7ACFC054641F2883700BFCD
:100E9000306F800708D5FFF7A3FC401BB8424FF026
:100EA0000300F5D943E700BFB8F1000F3FF57FAE6F
:100EB000306C20F08050306479E600BFFFF790FC82
:100EC000054600BF306880037FF54CAEFFF788FC15
:100ED000401B64284FF00300F4D928E7411E00208E
:100EE000B0EB116F1CBF012070474EF21002CEF222
:100EF000000251604EF62351CEF20001F0230B7038
:100F00000721906011607047704700007047000033
:100F100090F83C20012A4FF0020254D010B580F81E
:100F20003D200268D2F804E0D2F808C00C682EF028
:100F30007003234341F2FF74C4F20004A2425360E1
:100F40000EDC40F2FF73C4F200039A4216DCB2F1E9
:100F5000804F2BD040F20043C4F2000324E000BFD6
:100F600040F2FF33C4F201039A4213DC41F600035E
:100F7000C4F200039A4219D0002313E040F60003A4
:100F8000C4F200039A4211D040F60043C4F20003B9
:100F90000AE000BF44F20003C4F201039A4205D004
:100FA00040F20043C4F201039A4204D149682CF094
:100FB0008003194391600121002280F83D1080F8E0
:100FC0003C20BDE81040104670470000002804BFD8
:100FD0000120704710B5044690F83D0028B9002064
:100FE00084F83C00204600F01FF8022084F83D0001
:100FF0002068211D00F03CFE012084F8460084F8A2
:101000003E0084F83F0084F8400084F8410084F8F2
:10101000420084F8430084F8440084F8450084F8D2
:101020003D00002010BD0000016840F20040C4F205
:101030000000814218BF704780B586B0002143F69A
:1010400030020191C4F20202136900F5FE3043F050
:1010500002031361136903F002030193019B0191E1
:10106000136843F001031360126802F00102019259
:10107000019A802201920222CDE902210121CDE9CB
:10108000041201A9FFF7D6FA1D2000210022FFF764
:1010900029FC1D20FFF714FC06B0BDE88040704716
:1010A00090F83D1001291CBF01207047022180F8F3
:1010B0003D10006841F2FF72C168C4F20002904224
:1010C00041F00101C1600DDC40F2FF71C4F200018A
:1010D000884215DCB0F1804F2AD040F20041C4F2C2
:1010E000000123E040F2FF31C4F20101884213DC29
:1010F00041F60001C4F20001884219D0002113E03A
:1011000040F60001C4F20001884211D040F60041CF
:10111000C4F200010AE000BF44F20001C4F2010180
:10112000884205D040F20041C4F20101884206D154
:10113000816801F00701062904BF0020704701689B
:1011400041F00101016000207047000090F83C2050
:10115000012A4FF0020200F0C58080B580F83D20E2
:10116000D0F800C04FF67772DCF8083023EA0202AC
:10117000CCF808200B684F2B28DC1F2B44DD202BDC
:1011800045D0302B43D0402B40F0AE80D1F804E066
:10119000C968DCF82030DCF8202022F00102CCF80D
:1011A0002020DCF8182022F0F00242EA011123F09E
:1011B0000A0242EA0E02CCF81810CCF82020DCF823
:1011C000081041F0470121F0300180E06F2B27DD4E
:1011D000B3F5005F48D0B3F5805F7AD0702B40F054
:1011E0008380D1E901E3C968DCF8082043EA0E03F3
:1011F00022F47F4243EA01211143CCF80810DCF8C5
:10120000081041F0770162E00BB1102B6CD1DCF8D3
:10121000081021F07001194341F0070157E000BFA9
:10122000502B35D0602B5FD1D1F804E0C968DCF8D1
:101230002030DCF8202022F01002CCF82020DCF84E
:10124000182022F4704242EA013123F0A00242EA5F
:101250000E12CCF81810CCF82020DCF8081041F061
:10126000670121F0100132E0D1E901E3C968DCF83F
:10127000082043EA0E0322F47F4243EA012111438E
:10128000CCF80810DCF8081041F480411FE000BFE2
:10129000D1F804E0C968DCF82030DCF8202022F026
:1012A0000102CCF82020DCF8182022F0F00242EAFB
:1012B000011123F00A0242EA0E02CCF81810CCF811
:1012C0002020DCF8081041F0570121F02001CCF873
:1012D00008100022012180F83D10002180F83C1008
:1012E000BDE88040104670470122F3E7016840F2F4
:1012F0000042C4F20002914218BF7047007F0228EA
:101300000AD140F29C0040F28801C2F20000C2F211
:10131000000100F055BD00BF7047000090F83C3060
:10132000012B04BF022070474FEAB202032A29D8DA
:10133000F0B5DFE802F0032D4B6B00BF0368D1E985
:1013400000C5D1F80CE01C6A1A6A41F2FF7722F05E
:1013500001021A621A4652F8186FC4F20007BB4223
:101360007ADC40F2FF77C4F20007BB4200F38280D0
:10137000B3F1804F00F0968040F20047C4F20007BE
:101380008EE000BF0121002280F83C200846704713
:101390000368D1E900E6D1E902C11C6A1A6A360283
:1013A00022F010021A621A4652F8185F4FF2FF0735
:1013B000BE4325F4734561F30F3624F0A0040EF00C
:1013C0000A0746EA050144EA07173CE00768D1E945
:1013D00000C5D1E902313C6A3A6A61F3071522F48B
:1013E00080723A623A4652F81C6F26F0F30645EADC
:1013F000060124F420660CF00A0546EA0526116071
:101400003E62116821F00C0111605CE00368D1E9D3
:1014100000E6D1E902C11C6A1A6A360222F480523F
:101420001A621A4652F81C5F4FF2FF07BE4325F4BA
:10143000734561F30F3624F420440EF00A0746EAA0
:10144000050144EA073711601F6211684FEA0C2357
:1014500021F44061116036E040F2FF37C4F2010729
:10146000BB4213DC41F60007C4F20007BB4219D0AF
:10147000002713E040F60007C4F20007BB4211D07A
:1014800040F60047C4F200070AE000BF44F200073C
:10149000C4F20107BB4205D040F20047C4F2010785
:1014A000BB421BD126F00306354324F00A070CF09B
:1014B0000A066EF3071537449D611F629F6927F086
:1014C0000C079F618B681168194311600021BDE80A
:1014D000F040002280F83C200846704746F00105A5
:1014E000E3E70000002804BF0120704710B5044660
:1014F00090F83D0028B9002084F83C00204600F018
:101500001FF8022084F83D002068211D00F0B0FB88
:10151000012084F8460084F83E0084F83F0084F8F7
:10152000400084F8410084F8420084F8430084F8C5
:10153000440084F8450084F83D00002010BD000000
:101540007047000061B1082916D0042919BF00F1C5
:10155000410200F1450300F13F0200F143030FE0B7
:1015600090F83E2090F84230012A4FF0010208BF67
:10157000012B1DD01046704700F1400200F14403DA
:1015800012781B78012A4FF0010208BF012BF1D11C
:101590000222082918D0042922D180F83F2080F89F
:1015A00043204FEAB103032B4FF00102E2D821E0C0
:1015B000022280F83E2080F842204FEAB103032B3C
:1015C0004FF00102D6D815E080F8402080F8442082
:1015D0004FEAB103032B4FF00102CBD80AE000BF62
:1015E00080F8412080F845204FEAB103032B4FF0EB
:1015F0000102BFD842F6407C0068C0F6000C5CF8DF
:1016000023C0C36801F01F0143EA0C03C360036AEF
:1016100002FA01F123EA01020262026A114341F275
:10162000FF72C4F20002904201620DDC40F2FF71D1
:10163000C4F20001884215DCB0F1804F2AD040F29C
:101640000041C4F2000123E040F2FF31C4F2010185
:10165000884213DC41F60001C4F20001884219D02F
:10166000002113E040F60001C4F20001884211D0CD
:1016700040F60041C4F200010AE000BF44F200015C
:10168000C4F20101884205D040F20041C4F20101D8
:10169000884204D1816801F00701062903D001685E
:1016A00041F00101016000221046704770B5044608
:1016B0000068C5680669B10716D515F0020113D098
:1016C0006FF002010161012121778069800703D059
:1016D0002046FFF70BFE05E0204600F08FF820467D
:1016E00000F08EF800202077700719D515F004005F
:1016F00016D020686FF00401016102212177806912
:1017000010F4407F04D02046FFF7F0FD06E000BF54
:10171000204600F073F8204600F072F80020207791
:10172000300717D515F0080014D020686FF00801B5
:10173000016104212177C069800703D02046FFF7AB
:10174000D5FD05E0204600F059F8204600F058F895
:1017500000202077F00619D515F0100016D020686B
:101760006FF01001016108212177C06910F4407FFA
:1017700004D02046FFF7BAFD06E000BF204600F087
:101780003DF8204600F03CF800202077F00718BF15
:1017900015F0010002D1300609D412E020686FF084
:1017A00001010161204600F02DF8300609D515F041
:1017B000800006D020686FF0800101612046FFF7AD
:1017C000A3FB700609D515F0400006D020686FF025
:1017D00040010161204600F03DF8B00658BF70BDE1
:1017E00015F0200008D021686FF0200220460A6121
:1017F000BDE87040FFF78ABB70BD00007047000075
:1018000070470000006840F20041C4F200018842C5
:1018100018BF704740F28800C2F2000000F05EBBC3
:101820004FEAB101032984BF00207047DFE801F0CF
:10183000020E060A006834300068704700683C30C9
:1018400000687047006840300068704700683830B2
:101850000068704770470000FEE700002DE9F04384
:1018600087B0002743F6300006970197C4F20200C4
:101870000168002441F0800101600168C4F20204A3
:1018800001F080010191019901970168002241F066
:10189000010101600168402601F0010101910199F7
:1018A0000197016841F0100101600068402100F0DB
:1018B0001000019001982046FEF78CFF04F580553A
:1018C00028464FF4785100224FF47858FEF782FFF3
:1018D0000DF108090296012620464946CDE9036725
:1018E0000596FEF7A7FE28464946CDE90286CDE9D2
:1018F0000476FEF79FFE07B0BDE8F08310B58AB00E
:1019000040F29C000021C2F2000040F200424FF67B
:10191000FF740991CDE90711CDE90411CDE9021158
:10192000CDE90011C4F200025323C0E902140161A1
:101930008021C0E900238161FFF748FB002818BF20
:10194000FEF760FE4FF48050069040F29C00C2F219
:10195000000006A9FFF7FAFB002818BFFEF752FEA9
:1019600040F29C00C2F20000FFF7BCFD002818BF47
:10197000FEF748FE40F29C000024C2F2000004A9D9
:10198000CDE90444FFF7C4FA002818BFFEF73AFE79
:101990000120CDE9010440F29C00C2F2000069463A
:1019A000042200940394FFF7B9FC002818BFFEF747
:1019B00029FE0AB010BD0000FEE70000FEE70000AF
:1019C000B0B541F20004C4F20204054600F0800202
:1019D00020464FF48061FEF7FDFE20464FF4007173
:1019E0000122FEF7F7FE20464FF400710022FEF7B9
:1019F000F1FE05F0400220464FF48061FEF7EAFE5A
:101A000020464FF400710122FEF7E4FE20464FF419
:101A100000710022FEF7DEFE05F0200220464FF4A2
:101A20008061FEF7D7FE20464FF400710122FEF7D9
:101A3000D1FE20464FF400710022FEF7CBFE05F0E8
:101A4000100220464FF48061FEF7C4FE20464FF49A
:101A500000710122FEF7BEFE20464FF40071002205
:101A6000FEF7B8FE05F0080220464FF48061FEF74D
:101A7000B1FE20464FF400710122FEF7ABFE204676
:101A80004FF400710022FEF7A5FE05F00402204687
:101A90004FF48061FEF79EFE20464FF40071012254
:101AA000FEF798FE20464FF400710022FEF792FEEA
:101AB00005F0020220464FF48061FEF78BFE2046BF
:101AC0004FF400710122FEF785FE20464FF40071AD
:101AD0000022FEF77FFE05F0010220464FF48061F0
:101AE000FEF778FE20464FF400710122FEF772FEE9
:101AF00020464FF400710022BDE8B040FEF76ABEF8
:101B000070B541F20005C4F202050C4640F0B00683
:101B100028464FF400510022FEF75CFE28464FF4A1
:101B200080510022FEF756FE3046FFF749FF284657
:101B30004FF400510122FEF74DFE200900F110067E
:101B400028464FF400510022FEF744FE28464FF489
:101B500080510022FEF73EFE3046FFF731FF284657
:101B60004FF400510122FEF735FE28464FF4005194
:101B70000022FEF72FFE28464FF480510022FEF788
:101B800029FE04F00F00FFF71BFF28464FF4005119
:101B90000122BDE87040FEF71DBE00007047000046
:101BA00070470000FEF722BEB0B592B0002443F6A5
:101BB0004000CDE90A44CDE908440594CDE9034449
:101BC000CDE901440094C4F202000168022541F00D
:101BD00080510160006800F080500090009847F24A
:101BE00000000094C4F20000016841F480410160EB
:101BF0000068A82100F48040009000980120069021
:101C00004FF4803007904FF480000D9004200E9028
:101C1000119006A80C95CDE90F15FEF787FF18B1B6
:101C200072B600BFFEE700BF0F20CDE901054FF4FB
:101C3000A05004904FF48050059001A80521039412
:101C4000FEF78CFE10B172B6FEE700BF12B0B0BD59
:101C50004EF68850CEF20000016841F47001016038
:101C60007047000040F29C00C2F20000FFF71EBD6A
:101C7000B0B540F6FF3E0568C4F2000E40F2004CDD
:101C80007045C4F2010C27DCB0F1804F31D040F236
:101C90000043C4F2000398422BD040F60003C4F284
:101CA0000003984225D041F6FF73C4F20003984226
:101CB0002ADC70453CDCB0F1804F5FD040F200433D
:101CC000C4F20003984259D040F60003C4F2000366
:101CD000984253D057E000BF40F60043C4F20003DF
:101CE000984206D0604504D00023C4F20103984214
:101CF000D9D14B6825F0700243EA020541F6FF7323
:101D0000C4F200039842D4DD43F6FF73C4F201032A
:101D1000984221DC42F20003C4F2000398422DD025
:101D20000023C4F20103984228D0604526D02AE05F
:101D300040F60043C4F2000398421FD041F600036E
:101D4000C4F20003984219D041F60043C4F20003E4
:101D5000984213D017E000BF44F20003C4F201031D
:101D600098420BD044F60003C4F20103984205D018
:101D700044F20043C4F20103984204D1CB6825F435
:101D8000407243EA02050A688C684B69C46240F4F9
:101D900080648262644504BF09690163026825F0BA
:101DA000800142F004021943026001224261016095
:101DB000B0BD0000FEE7000090ED040A704700008F
:101DC000B0B50C4609780546012919D0002918BF7D
:101DD000B0BD28460421FFF723FD40F29C01C2F26A
:101DE000000109686060086A20F0A0000862086AC3
:101DF00040F0200008620020608001202070B0BD0B
:101E000028460421FFF70CFD6188EA689FED121A4D
:101E100002FB01006168411A00EE101AB8EE400A98
:101E200080EE010A9FED0D1AC4E902012868002125
:101E3000217020EE010AB6EE001A20EE010A9FED95
:101E4000081A20EE010A84ED040A016A21F0A001BB
:101E50000162016A0162B0BD002474490000AE4312
:101E60000000C84210B582B00024C4F2020420462B
:101E700040210122FEF7AEFC002001900198C0082D
:101E8000682823D800BF00BF019801300190019855
:101E9000C00868281AD800BF00BF0198013001901F
:101EA0000198C008682811D800BF00BF0198013010
:101EB00001900198C008682808D800BF00BF0198A9
:101EC000013001900198B0F5527FDBD320464021CC
:101ED000002202B0BDE81040FEF77CBC4188013111
:101EE00041807047FEF790FCFFF75EFEFFF7B6FCFF
:101EF000FFF704FD00F06CF929A20120012100F098
:101F0000FDFC40F29C04C2F200042046FFF7C8F832
:101F100020460421FFF716FBFFF7A4FF40F27007ED
:101F200040F28808C2F200079FED219A48F21F593B
:101F3000C2F20008B0EE008AC5F2EB1964243D1D20
:101F40001CA600BF4046FFF737FFB4EE480AF1EE8B
:101F500010FAB8BFB0EE480A87ED000AFFF782FF1B
:101F600097ED000ABDEEC01A20EE090ABDEEC00AC8
:101F700010EE100A50FB09F14A1102EBD17101FB7E
:101F8000140311EE102A28463146FEF7FFF902200D
:101F900001212A4600F0B2FC3220FEF737FBD1E7E0
:101FA00048432D5352303420746573743A00000056
:101FB0000000C84264697374616E63653A25642EDB
:101FC00025640000B0B541F2000400200021C4F2F5
:101FD00002040025FFF794FD20464FF40051002233
:101FE000FEF7F8FB20464FF480510122FEF7F2FB8A
:101FF0000020FFF7E5FC20464FF400510122FEF7D8
:10200000E9FB681C45B2B5F1FF3FE5DC012000218A
:102010000025FFF775FD00BF20464FF40051002258
:10202000FEF7D8FB20464FF480510122FEF7D2FB89
:102030000020FFF7C5FC20464FF400510122FEF7B7
:10204000C9FB681C45B2B5F1FF3FE5DC0220002169
:102050000025FFF755FD00BF20464FF40051002238
:10206000FEF7B8FB20464FF480510122FEF7B2FB89
:102070000020FFF7A5FC20464FF400510122FEF797
:10208000A9FB681C45B2B5F1FF3FE5DC0320002148
:102090000025FFF735FD00BF20464FF40051002218
:1020A000FEF798FB20464FF480510122FEF792FB89
:1020B0000020FFF785FC20464FF400510122FEF777
:1020C00089FB681C45B2B5F1FF3FE5DC0420002127
:1020D0000025FFF715FD00BF20464FF400510022F8
:1020E000FEF778FB20464FF480510122FEF772FB89
:1020F0000020FFF765FC20464FF400510122FEF757
:1021000069FB681C45B2B5F1FF3FE5DC0520002105
:102110000025FFF7F5FC00BF20464FF400510022D8
:10212000FEF758FB20464FF480510122FEF752FB88
:102130000020FFF745FC20464FF400510122FEF736
:1021400049FB681C45B2B5F1FF3FE5DC06200021E4
:102150000025FFF7D5FC00BF20464FF400510022B8
:10216000FEF738FB20464FF480510122FEF732FB88
:102170000020FFF725FC20464FF400510122FEF716
:1021800029FB681C45B2B5F1FF3FE5DC07200021C3
:102190000025FFF7B5FC00BF20464FF40051002298
:1021A000FEF718FB20464FF480510122FEF712FB88
:1021B0000020FFF705FC20464FF400510122FEF7F6
:1021C00009FB681C45B2B5F1FF3FE5DCB0BD00007E
:1021D00010B541F20004C4F2020420464FF400712D
:1021E0000022FEF7F7FA20464FF480610122FEF745
:1021F000F1FA20464FF400610122FEF7EBFA204687
:102200004FF480510122FEF7E5FA20464FF40051C9
:102210000122FEF7DFFA20464FF400510022FEF7BC
:10222000D9FA20464FF480510022FEF7D3FAAE20AF
:10223000FFF7C6FB20464FF400510122FEF7CAFA11
:1022400020464FF400510022FEF7C4FA20464FF416
:1022500080510022FEF7BEFAD520FFF7B1FB2046E1
:102260004FF400510122FEF7B5FA20464FF4005119
:102270000022FEF7AFFA20464FF480510022FEF70D
:10228000A9FA8020FFF79CFB20464FF40051012261
:10229000FEF7A0FA20464FF400510022FEF79AFA0A
:1022A00020464FF480510022FEF794FAA820FFF751
:1022B00087FB20464FF400510122FEF78BFA20469F
:1022C0004FF400510022FEF785FA20464FF480516A
:1022D0000022FEF77FFA3F20FFF772FB20464FF403
:1022E00000510122FEF776FA20464FF400510022F9
:1022F000FEF770FA20464FF480510022FEF76AFA8A
:10230000D320FFF75DFB20464FF400510122FEF77A
:1023100061FA20464FF400510022FEF75BFA204696
:102320004FF480510022FEF755FA0020FFF748FBDA
:1023300020464FF400510122FEF74CFA20464FF49C
:1023400000510022FEF746FA20464FF48051002249
:10235000FEF740FA4020FFF733FB20464FF40051D0
:102360000122FEF737FA20464FF400510022FEF713
:1023700031FA20464FF480510022FEF72BFAA120BB
:10238000FFF71EFB20464FF400510122FEF722FA10
:1023900020464FF400510022FEF71CFA20464FF46D
:1023A00080510022FEF716FAC820FFF709FB2046ED
:1023B0004FF400510122FEF70DFA20464FF4005170
:1023C0000022FEF707FA20464FF480510022FEF764
:1023D00001FADA20FFF7F4FA20464FF40051012207
:1023E000FEF7F8F920464FF400510022FEF7F2F90B
:1023F00020464FF480510022FEF7ECF91220FFF73F
:10240000DFFA20464FF400510122FEF7E3F920469F
:102410004FF400510022FEF7DDF920464FF48051C1
:102420000022FEF7D7F98120FFF7CAFA20464FF4C1
:1024300000510122FEF7CEF920464FF40051002250
:10244000FEF7C8F920464FF480510022FEF7C2F98A
:10245000CF20FFF7B5FA20464FF400510122FEF7D6
:10246000B9F920464FF400510022FEF7B3F9204697
:102470004FF480510022FEF7ADF9D920FFF7A0FA02
:1024800020464FF400510122FEF7A4F920464FF4F4
:1024900000510022FEF79EF920464FF480510022A1
:1024A000FEF798F9F120FFF78BFA20464FF4005120
:1024B0000122FEF78FF920464FF400510022FEF76B
:1024C00089F920464FF480510022FEF783F9DB2082
:1024D000FFF776FA20464FF400510122FEF77AF911
:1024E00020464FF400510022FEF774F920464FF4C5
:1024F00080510022FEF76EF93020FFF761FA204686
:102500004FF400510122FEF765F920464FF40051C7
:102510000022FEF75FF920464FF480510022FEF7BB
:1025200059F9A420FFF74CFA20464FF4005101223C
:10253000FEF750F920464FF400510022FEF74AF909
:1025400020464FF480510022FEF744F9A620FFF701
:1025500037FA20464FF400510122FEF73BF920469E
:102560004FF400510022FEF735F920464FF4805118
:102570000022FEF72FF98D20FFF722FA20464FF4B4
:1025800000510122FEF726F920464FF400510022A7
:10259000FEF720F920464FF480510022FEF71AF989
:1025A0001420FFF70DFA20464FF400510122FEF7E8
:1025B00011F920464FF400510022FEF70BF9204696
:1025C0004FF480510022FEF705F9AF20FFF7F8F92C
:1025D00020464FF400510122FEF7FCF8BDE8104000
:1025E000FFF7F0BC2DE9F04714466FF00702804674
:1025F0006FF0010002EBC10100EB48005FFA81F9C6
:10260000C0B24946FFF77CFA42F65010C0F600000F
:1026100000EB04104FF6006141F20004CFF6FF71A9
:10262000C4F20204455CA0F5007720464FF4005147
:102630000022FEF7CFF820464FF480510122FEF72A
:10264000C9F82846FFF7BCF920464FF40051012293
:10265000FEF7C0F820464FF400510022FEF7BAF80A
:1026600020464FF480510122FEF7B4F87878BE7806
:10267000FD7897F804A0FFF7A3F920464FF4005126
:102680000122FEF7A7F820464FF400510022FEF782
:10269000A1F820464FF480510122FEF79BF8304606
:1026A000FFF78EF920464FF400510122FEF792F811
:1026B00020464FF400510022FEF78CF820464FF4DC
:1026C00080510122FEF786F82846FFF779F9204667
:1026D0004FF400510122FEF77DF820464FF40051DF
:1026E0000022FEF777F820464FF480510122FEF7D2
:1026F00071F85046FFF764F920464FF4005101226B
:10270000FEF768F87D7920464FF400510022FEF76D
:1027100061F820464FF480510122FEF75BF828460D
:10272000FFF74EF920464FF400510122FEF752F810
:10273000BD7920464FF400510022FEF74BF82046A9
:102740004FF480510122FEF745F82846FFF738F98B
:1027500020464FF400510122FEF73CF8FD79204657
:102760004FF400510022FEF735F820464FF4805117
:102770000122FEF72FF82846FFF722F920464FF4F2
:1027800000510122FEF726F84FF0FF3000EB480021
:10279000C0B24946FFF7B4F93D7A20464FF40051E4
:1027A0000022FEF717F820464FF480510122FEF771
:1027B00011F82846FFF704F920464FF40051012292
:1027C000FEF708F87D7A20464FF400510022FEF70C
:1027D00001F820464FF480510122FDF7FBFF284607
:1027E000FFF7EEF820464FF400510122FDF7F2FF0B
:1027F000BD7A20464FF400510022FDF7EBFF204642
:102800004FF480510122FDF7E5FF2846FFF7D8F885
:1028100020464FF400510122FDF7DCFFFD7A2046EF
:102820004FF400510022FDF7D5FF20464FF48051B0
:102830000122FDF7CFFF2846FFF7C2F820464FF4EC
:1028400000510122FDF7C6FF3D7B20464FF40051A9
:102850000022FDF7BFFF20464FF480510122FDF713
:10286000B9FF2846FFF7ACF820464FF4005101228B
:10287000FDF7B0FF7D7B20464FF400510022FDF7AD
:10288000A9FF20464FF480510122FDF7A3FF2846FF
:10289000FFF796F820464FF400510122FDF79AFF0A
:1028A000BD7B20464FF400510022FDF793FF2046E8
:1028B0004FF480510122FDF78DFF2846FFF780F885
:1028C00020464FF400510122FDF784FFFD7B204696
:1028D0004FF400510022FDF77DFF20464FF4805158
:1028E0000122FDF777FF2846FFF76AF820464FF4EC
:1028F00000510122BDE8F047FDF76CBFF0B581B093
:10290000144612786AB10D46064600277819C1B2FE
:10291000D2B23046FFF766FE0137F8B2225C002AD9
:10292000F4D101B0F0BDF1EE100A4FF6FF71C0F224
:10293000C03120EA010040F04070E1EE100A70471B
:10294000000000000000000001020304060708095F
:102950000000000000000000000000000000000077
:10296000000000F80000000000000033300000000C
:1029700000100C06100C0600000000000000000013
:1029800040C07840C0784000043F04043F04040085
:10299000007088FC08300000001820FF211E000095
:1029A000F008F000E018000000211C031E211E00AA
:1029B00000F00888700000001E2123241927211030
:1029C00010160E00000000000000000000000000D3
:1029D000000000E01804020000000007182040007A
:1029E00000020418E000000000402018070000006A
:1029F000404080F0804040000202010F01020200CE
:102A0000000000F0000000000101011F01010100B1
:102A1000000000000000000080B070000000000016
:102A2000000000000000000000010101010101019F
:102A30000000000000000000003030000000000036
:102A4000000000008060180400601806010000000B
:102A500000E010080810E000000F102020100F0008
:102A6000001010F8000000000020203F202000008F
:102A700000700808088870000030282422213000E7
:102A800000300888884830000018202020110E00EF
:102A90000000C02010F8000000070424243F240098
:102AA00000F80888880808000019212020110E006D
:102AB00000E0108888180000000F112020110E007F
:102AC00000380808C83808000000003F0000000077
:102AD0000070880808887000001C222121221C0038
:102AE00000E010080810E0000000312222110F0061
:102AF000000000C0C00000000000003030000000F6
:102B00000000008000000000000080600000000065
:102B1000000080402010080000010204081020007E
:102B200040404040404040000404040404040400C9
:102B3000000810204080000000201008040201005E
:102B4000007048080808F00000000030360100005E
:102B5000C030C828E810E0000718272423140B0011
:102B60000000C038E0000000203C2302022738208B
:102B700008F8888888700000203F202020110E006F
:102B8000C030080808083800071820202010080066
:102B900008F808080810E000203F202020100F004F
:102BA00008F88888E8081000203F2020232018001B
:102BB00008F88888E8081000203F20000300000083
:102BC000C03008080838000007182020221E020024
:102BD00008F808000008F808203F210101213F20E3
:102BE000000808F8080800000020203F202000000E
:102BF00000000808F8080800C08080807F000000FE
:102C000008F888C028180800203F20012638200036
:102C100008F8080000000000203F2020202030009D
:102C200008F8F800F8F80800203F003F003F2000B7
:102C300008F830C00008F808203F200007183F00BF
:102C4000E01008080810E0000F10202020100F00EE
:102C500008F808080808F000203F210101010000E1
:102C6000E01008080810E0000F18242438504F0026
:102C700008F8888888887000203F2000030C3020E6
:102C800000708808080838000038202121221C0024
:102C9000180808F8080818000000203F200000006D
:102CA00008F808000008F808001F202020201F0056
:102CB0000878880000C83808000007380E010000B6
:102CC000F80800F80008F800033C0700073C030080
:102CD000081868808068180820302C03032C3020E6
:102CE0000838C800C83808000000203F2000000055
:102CF00010080808C83808002038262120201800AD
:102D0000000000FE020202000000007F4040400080
:102D1000000C30C000000000000000010638C000B8
:102D200000020202FE000000004040407F00000060
:102D30000000040202020400000000000000000085
:102D40000000000000000000808080808080808083
:102D5000000202040000000000000000000000006B
:102D600000008080808000000019242222223F2061
:102D700008F8008080000000003F112020110E00A4
:102D80000000008080800000000E11202020110033
:102D9000000000808088F800000E112020103F20E5
:102DA0000000808080800000001F22222222130069
:102DB000008080F0888888180020203F20200000B4
:102DC0000000808080808000006B94949493600069
:102DD00008F8008080800000203F210000203F2074
:102DE00000809898000000000020203F2020000074
:102DF000000000809898000000C08080807F000064
:102E000008F8000080808000203F24022D30200040
:102E1000000808F8000000000020203F20200000EB
:102E20008080808080808000203F20003F20003F05
:102E30008080008080800000203F210000203F2013
:102E40000000808080800000001F202020201F00C4
:102E5000808000808000000080FFA12020110E00F3
:102E60000000008080808000000E112020A0FF80E4
:102E7000808080008080800020203F212000010091
:102E800000008080808080000033242424241900E6
:102E9000008080E0808000000000001F20200000F3
:102EA0008080000000808000001F202020103F2034
:102EB000808080000080808000010E3008060100C4
:102EC00080800080008080800F300C030C300F0069
:102ED00000808000808080000020312E0E31200094
:102EE000808080000080808080818E7018060100C4
:102EF00000808080808080000021302C22213000E2
:102F000000000000807C020200000000003F404002
:102F100000000000FF00000000000000FF000000B3
:102F20000002027C800000000040403F00000000E2
:102F3000000601010202040400000000000000007D
:102F40000200000004000000080000001000000063
:102F5000FDFFFFFFFBFFFFFFF7FFFFFFEFFFFFFF9F
:102F6000802F00080000002010000000EC01000885
:102F7000902F000810000020D80600000C02000866
:102F800001000000100000000024F4000000000018
:040000050800018965
:00000001FF
