:020000040800F2
:10000000E806002031020008CF1600089D15000800
:10001000CD1600081F060008AF1A000800000000F7
:10002000000000000000000000000000EF170008C2
:100030002106000800000000ED170008F117000875
:100040004B0200084B0200084B0200084B0200085C
:100050004B0200084B0200084B0200084B0200084C
:100060004B0200084B0200084B0200084B0200083C
:100070004B0200084B0200084B0200084B0200082C
:100080004B0200084B0200084B0200084B0200081C
:100090004B0200084B0200084B0200084B0200080C
:1000A0004B0200084B0200084B0200084B020008FC
:1000B0004B020008991800084B0200084B02000888
:1000C0004B0200084B0200084B0200084B020008DC
:1000D0004B0200084B0200084B0200084B020008CC
:1000E0004B0200084B0200084B0200084B020008BC
:1000F0004B0200084B0200084B0200084B020008AC
:100100004B0200084B0200084B0200084B0200089B
:100110004B0200084B0200084B0200084B0200088B
:100120004B0200084B0200084B0200084B0200087B
:100130004B0200084B0200084B0200084B0200086B
:100140004B0200084B0200084B0200084B0200085B
:100150004B0200084B0200084B0200084B0200084B
:100160004B0200084B0200084B0200084B0200083B
:100170004B0200084B0200084B0200080000000080
:100180004B0200084B02000800F002F800F041F8B2
:100190000AA090E8000C82448344AAF10107DA45E2
:1001A00001D100F036F8AFF2090EBAE80F0013F0F3
:1001B000010F18BFFB1A43F001031847302200005B
:1001C00050220000103A24BF78C878C1FAD85207EC
:1001D00024BF30C830C144BF04680C6070470000C1
:1001E0000023002400250026103A28BF78C1FBD840
:1001F000520728BF30C148BF0B607047642900F028
:10020000F780002070471FB501F0EBFD1FBD10B552
:1002100010BD00F0CAF91146FFF7F5FF01F0CCFC64
:1002200000F0E8F903B4FFF7F2FF03BC00F0F0F9C7
:100230000948804709480047FEE7FEE7FEE7FEE77A
:10024000FEE7FEE7FEE7FEE7FEE7FEE704480549B6
:10025000054A064B7047000089180008890100080C
:10026000E8000020E8060020E8020020E802002064
:1002700053EA020C00F069802DE9F04B4FF00006C4
:10028000002B1FBFB3FA83F503FA05F424FA05F631
:100290005E4012BF1643B2FA82F502FA05F4C5F1C8
:1002A00020051EBF22FA05FC44EA0C04203556EA5C
:1002B000044C4FEA144418BF641C4FF000084FF080
:1002C0000009904271EB030C39D3002919BFB1FA30
:1002D00081F701FA07F6B0FA80F700FA07F6C7F1DE
:1002E00020071EBF20FA07FC46EA0C062037B6FBA3
:1002F000F4FCA7EB0507103F07F01F0BCBF120061E
:100300000CFA0BFB2CFA06F644BFB3460026202F4E
:10031000A4BF5E464FF0000B5BEA060C08BF4FF02F
:10032000010B19EB0B09ABFB027C48EB0608C01B69
:1003300006FB02CC0BFB03CC71EB0C01C1E70B46B7
:10034000024641464846BDE8F08B13B54FF0000029
:100350004FF00001AFF30080BDE81C407047000083
:100360000FB41CB5074B06AA7B446946009005985C
:1003700000F003F90020694600F012F91CBC5DF89A
:1003800014FB0000350200002DE9F0410E46044642
:10039000002020622046E168884730B3252805D038
:1003A000D4E901219047206A401CF2E7E168204629
:1003B00000278847050018D0A5F14100192802D868
:1003C00020354FF400673246294620462760FFF764
:1003D00015FF40B1012804D0F61D26F007060836A7
:1003E000D8E7361DD6E72846DAE7206ABDE8F0816F
:1003F0002DE9F0410646002410687529314616A5FE
:1004000010D0AFF30080002802DA404213A507E0C5
:1004100031688A0701D512A502E0490704D511A564
:10042000012401E0AFF3008000210A2206F1240735
:1004300009E0B0FBF2FCB0FBF2F302FB1C00303031
:1004400078541846491C0028F3D123462A463046E2
:10045000BDE8F04100F032B8000000002D000000BF
:100460002B000000200000004FF0000200B51346F2
:1004700094469646203922BFA0E80C50A0E80C50C4
:10048000B1F12001BFF4F7AF090728BFA0E80C5075
:1004900048BF0CC05DF804EB890028BF40F8042B6E
:1004A00008BF704748BF20F8022B11F0804F18BFDB
:1004B00000F8012B70477047704770472DE9F047EF
:1004C0000D4699469246044600F1240801688806C4
:1004D00004D5E06921F01001216000E00120A8426C
:1004E00001DD471B00E00027A1697A1902EB090032
:1004F000081AA0612078C00602D42046AFF300801D
:10050000002608E0D4E901211AF806009047206A85
:10051000401C761C20624E45F4DB2078C0060AD5CC
:100520002046AFF3008006E0D4E901213020904757
:10053000206A401C2062381EA7F10107F4DC07E0A6
:10054000D4E9012118F805009047206A401C206278
:10055000281EA5F10105F3DC2046AFF300802078CA
:10056000000602D50220BDE8F0870120FBE700006D
:1005700001694A1C02610878704700B58FB0CDE967
:1005800001310021059105497944CDE90310114657
:100590006846FFF7F9FE0FB000BD0000E5FFFFFF62
:1005A0000A6802F8010B0A607047754600F02CF8E3
:1005B000AE4605006946534620F00700854618B050
:1005C00020B5FFF743FEBDE820404FF000064FF096
:1005D00000074FF000084FF0000B21F00701AC4678
:1005E000ACE8C009ACE8C009ACE8C009ACE8C00997
:1005F0008D46704710B50446AFF300802046BDE835
:100600001040FFF70FBE0000004870478400002034
:1006100001491820ABBEFEE7260002007047FEE746
:10062000704772B6FEE7000070B5044600F00CF9A2
:100630000546601C02D004480078044400F004F928
:10064000401BA042FAD370BD040000202DE9F84FF2
:10065000DFF8BCA10022012503264FF00F090AF1A3
:10066000040BAAF1040E00BF0B6805FA02F4234044
:10067000A34270D10F7907F00307012F01D0022F99
:1006800016D187684FEA420806FA08FC27EA0C07E9
:10069000D1F80CC00CFA08FC4CEA070CC0F808C0F2
:1006A0004768A7430C79C4F3001494403C4344606A
:1006B0000C79E443A4070AD0C4684FEA420C06FA56
:1006C0000CF7BC438F6807FA0CF72743C7600C7917
:1006D00004F00304022C12D1D40800EB840CDCF8E3
:1006E00020405707FF0E09FA07F824EA0804D1F85A
:1006F000108008FA07F848EA0408CCF8208004685B
:100700004FEA420C06FA0CF7BC430F7907F00307D7
:1007100007FA0CF7274307604C6814F4403F70D089
:100720003C4C276847F480472760246822F0030781
:1007300004F480440094384C07EB040CDCF80848BF
:1007400097074FEA177809FA08F7BC43334FB842C6
:1007500002D1002724E054E0314FB84201D10127F3
:100760001EE0304FB84201D1022719E02E4FB842A7
:1007700001D1032714E02D4FB84201D104270FE027
:100780002B4FB84201D105270AE02A4FB84201D1C8
:10079000062705E0284FB84201D1072700E00827C7
:1007A00007FA08F72743CCF80878DAF800405746EC
:1007B000D1F804C09C435FEACC2C00D51C433C60BC
:1007C000DBF800405F46D1F804C09C435FEA8C2C04
:1007D00000D51C433C60DEF800407746D1F804C0E9
:1007E0009C435FEA8C3C00D51C433C60084F083FAB
:1007F0003C68D1F804C09C435FEACC3C00D51C4364
:100800003C60521C102AFFF42FAFBDE8F88F0000A7
:10081000083C0140443802400030014000000240E2
:100820000004024000080240000C02400010024098
:100830000014024000180240001C02400AB181610D
:1008400070470904FBE7000001488068704700001A
:1008500004000020024881680278114481607047DA
:10086000040000200B4810B5016841F400710160DC
:10087000016841F480610160016841F480710160A8
:10088000032000F06FF80F2000F006F800F024F8C5
:10089000002010BD003C024070B50D4D04464FF4E1
:1008A0007A712878B1FBF0F00A490968B1FBF0F0E1
:1008B00000F0EAFA48B9102C07D200222146501E57
:1008C00000F030F800206C6070BD012070BD0000A9
:1008D00004000020100000200A4808B5016841F417
:1008E00080410160006800F4804000900548001FCE
:1008F000016841F080510160006800F08050009074
:1009000008BD000044380240002809DB00F01F0247
:10091000012191404009800000F1E020C0F8001161
:1009200070470000F0B40E4B1B680C46C3F3022363
:10093000C3F10705042D00D90425191D072901D28B
:10094000002300E0DB1E012606FA05F1491E2140C6
:1009500099409E40761E16403143F0BC01F0A8B885
:100960000CED00E0064900F0070208684FF6FF03AF
:10097000184040EA0220034A104308607047000014
:100980000CED00E00000FA052DE9F0470E460500E9
:1009900065D0DFF81481D8F80000F7B200F0070046
:1009A000B04207D288F80070D8F8000000F00700C5
:1009B000B04254D128683D4C810712D5400703D579
:1009C000206840F4E05020602878000703D52068B4
:1009D00040F4604020602068A96820F0F0000843DF
:1009E00020602878C0072DD0304968680839012870
:1009F00012D0022813D0032811D0096889070029D2
:100A00002DDA216821F0030101432160FFF71CFF6B
:100A1000814641F2883A0EE009688903EFE70968E8
:100A20008901ECE7FFF710FFA0EB0901514502D95E
:100A30000320BDE8F0872068696800F00C00B0EB87
:100A4000810FEFD1D8F80010404601F00701B14204
:100A500007D90770006800F00700B04201D00120FC
:100A6000E7E72878400705D52068E96820F4E050DA
:100A7000084320602878000706D52068296920F4FB
:100A8000604040EAC100206000F018F82168084A80
:100A9000C1F30311515CC84006490860064800686C
:100AA000FFF7FAFE0020C4E7003C0240083802408D
:100AB000EC1D00081000002008000020154810B5AB
:100AC000006810F00C02144813D04110042A0FD013
:100AD000082A0ED10F4C241F2268236802F03F021F
:100AE0005B0207D52068C0F38810A0FB010106E077
:100AF000084610BD2168C1F38811A1FB0001002345
:100B0000FFF7B6FB2168C1F30141491C4900B0FB66
:100B1000F1F010BD083802400024F4002DE9F84F30
:100B200004006ED02078DFF84C93C007A9F10405CB
:100B30004AD009F104000168C1F38101012908D0FC
:100B40000068C0F3810002280AD1D9F800004002F1
:100B500006D52868800337D560680028E1D033E0E7
:100B60006068B0F5803F10D0B0F5A02F286810D095
:100B700020F480302860286820F480202860606895
:100B8000A8B1FFF761FE06460DE0286840F480300A
:100B9000F4E740F480202860F7E700BFFFF754FE39
:100BA000801B642873D828688003F7D50CE0FFF712
:100BB0004BFE064605E000BFFFF746FE801B64289B
:100BC000F0D828688003F7D42078DFF8AC8280075B
:100BD0004FF0000A3ED5A748001D016811F00C0F28
:100BE00008D00068C0F3810002280BD1D9F80000BA
:100BF000400207D42868800716D5E068012800D194
:100C000012E033E1E068B8B10120C8F80000FFF756
:100C10001BFE064605E000BFFFF716FE801B0228FC
:100C2000C0D828688007F7D52868216920F0F80027
:100C300040EAC10028600DE0C8F800A0FFF704FEFC
:100C4000064604E0FFF700FE801B02281FD8286834
:100C50008007F7D42078000722D5864F874861693E
:100C6000703771B101210160FFF7EEFD064604E027
:100C7000FFF7EAFD801B022809D838688007F7D5FE
:100C80000EE0C0F800A0FFF7DFFD064605E082E0B9
:100C9000FFF7DAFD801B02287DD838688007F7D47B
:100CA0002078400768D5DFF8CCB100270BF13C0B6A
:100CB000DBF80000C0000BD4DBF8001041F08051DD
:100CC000CBF80010DBF80000012700F08050009006
:100CD0006B4E3068C00510D4306840F480703060CE
:100CE000FFF7B2FD009005E0FFF7AEFD0099401A56
:100CF000022850D83068C005F6D55E4EA0686C3624
:100D000001280FD00528306810D020F00100306095
:100D1000306820F004003060A068B8B1FFF794FD9F
:100D200000900FE0306840F00100F4E740F004006C
:100D30003060F7E7FFF788FD0099411A41F28830EB
:100D4000814266D830688007F4D50EE0FFF77CFD5D
:100D5000009007E0FFF778FD0099411A41F28830D2
:100D6000814256D830688007F4D42FB1DBF80010E8
:100D700021F08051CBF80010A069C8B33D49091D8E
:100D80000968C1F3810102294AD00228504607D0E0
:100D9000C8F8600000E03CE0FFF756FD04463BE089
:100DA0004746C8F86000FFF74FFD064605E000BF64
:100DB000FFF74AFD801B02282BD828688001F7D452
:100DC000D4E907010843A16A2E4A490802EB014110
:100DD000626A41EA8211084394F82C1040EA0161EA
:100DE000C9F8001001203866FFF72EFD044606E022
:100DF0003EE000BFFFF728FD001B022809D8286845
:100E00008001F7D534E000BFFFF71EFD001B02286C
:100E100002D90320BDE8F88F28688001F4D427E0C8
:100E20000128F7D0D9F80000E26900F4800191426E
:100E30001CD1226A00F03F01914217D147F6C071E0
:100E4000626A0140B1EB821F10D1A26A4FF0FF33FA
:100E500000F4403103EB5202B1EB024F06D194F89B
:100E60002C1000F07060B0EB016F01D00120D1E7D1
:100E70000020CFE70438024000004742800E47427E
:100E8000007000400000FFFF10B5401EB0F1807FF1
:100E900001D3012010BD4FF0E02460610F216017E5
:100EA00000F006FE0020A06107202061002010BD98
:100EB0007047704770B590F83C20012A32D0012469
:100EC00080F83C40022280F83D2003685A689D6803
:100ED00022F070060A6832435A60134B02689A4245
:100EE00014D0B2F1804F11D0104B9A420ED0104B5B
:100EF0009A420BD00F4B9A4208D00F4B9A4205D022
:100F00000E4B9A4202D00E4B9A4204D1496825F00A
:100F100080031943916080F83D40002180F83C1027
:100F2000084670BD022070BD000001400004004072
:100F300000080040000C0040000401400040014057
:100F40000018004010B5040003D094F83D0010B123
:100F500007E0012010BD002084F83C00204600F08E
:100F60001FF8022084F83D00211D206800F09AFC43
:100F7000012084F8460084F83E0084F83F0084F89D
:100F8000400084F8410084F8420084F8430084F86B
:100F9000440084F8450084F83D00002010BD0000A6
:100FA00010B586B0044614216846FFF75DFA17496C
:100FB0002068884227D116480021026842F00202C8
:100FC0000260006800F002000590114810380268C5
:100FD00042F001020260006800F0010005908020EC
:100FE00000900220CDE901010121CDE903106946FD
:100FF0000848FFF72BFB002211461D20FFF792FC4B
:101000001D20FFF781FC06B010BD00000004004069
:10101000403802400000024090F83D10012901D004
:1010200001207047022180F83D100168CA6842F033
:101030000102CA6000681149884214D0B0F1804FA3
:1010400011D00F4988420ED00E4988420BD00E496C
:10105000884208D00D49884205D00D49884202D007
:101060000C49884204D1816801F00701062903D0A8
:10107000016841F00101016000207047000001405B
:101080000004004000080040000C00400004014043
:10109000004001400018004070B5044690F83C0044
:1010A0000025012817D0012684F83C60022084F82E
:1010B0003D002068826822F0770222F47F4282603D
:1010C0000868502838D00DDC20284FD005DC90B3BC
:1010D000102811D14AE0022070BD302846D04028A7
:1010E0000AD13BE060282FD070280DD0B0F5805F8A
:1010F00003D0B0F5005F12D0012584F83D600020D8
:1011000084F83C00284670BDCB68D1E901212068F5
:1011100000F03DFC2068816841F0770109E0CB6870
:10112000D1E90121206800F032FC2068816841F497
:1011300080418160E1E719E0CA684968206800F0F1
:1011400038FC5021206806E0CA684968206800F031
:1011500081FC6021206800F024FCCEE7CA68496861
:10116000206800F026FC40212068F4E72268014650
:101170001046F0E7054A0168914206D1007F022837
:1011800003D10349034800F0A7BC704700040040A6
:1011900070000020280000202DE9F041054690F85D
:1011A0003C0000260C46012810D0012085F83C00A8
:1011B00072B1042A1CD0082A2CD00C2A50D0012647
:1011C000002085F83C003046BDE8F0810220FBE7B6
:1011D000D4E90012E368286800F0FCFB2868816904
:1011E00021F00C01816128688169A26811430FE038
:1011F000D4E90012E368286800F03EFC28688169A1
:1012000021F44061816128688169A26841EA022174
:101210008161D5E72868D4E9002C277B036A016A3D
:1012200021F480710162C16923F4206321F003017C
:1012300041EA0C0121F0F00C39074FF420674CEA29
:10124000116107EA02221A43C16102622868C1697A
:1012500021F00C01C1612868C169A26811432BE02B
:101260002868D4E90021E768036AD0F820C02CF48C
:10127000805CC0F820C0D0F81CC023F420432CF4BC
:10128000407C4CEA012121F4704C4FF6FF7101EAD9
:1012900007314FF4204741EA0C0107EA02321A43B2
:1012A000C16102622868C16921F44061C161286896
:1012B000C169A26841EA0221C16181E710B5040059
:1012C00003D094F83D0010B107E0012010BD0020CC
:1012D00084F83C00204600F01EF8022084F83D000F
:1012E000211D206800F0DEFA012084F8460084F811
:1012F0003E0084F83F0084F8400084F8410084F800
:10130000420084F8430084F8440084F8450084F8DF
:101310003D00002010BD704730B50446002551B196
:1013200004290DD0082910D094F8410094F84520E4
:10133000012811D10EE094F83E0094F84220F7E71E
:1013400094F83F0094F84320F2E794F8400094F8B2
:101350004420EDE7012A01D0012030BD022059B11F
:10136000042912D0082919D084F8410084F84500D6
:101370000C2944D0012540E084F83E0084F8420066
:101380002068C26842F0020210E084F83F0084F84E
:1013900043002068C26842F0040207E084F840007D
:1013A00084F844002068C26842F00802C26001224A
:1013B000206800F0DFFA14492068884214D0B0F1A8
:1013C000804F11D0114988420ED0114988420BD06C
:1013D0001049884208D01049884205D00F498842F8
:1013E00002D00F49884204D1816801F00701062923
:1013F00003D0016841F001010160284630BD20683A
:10140000C26842F01002D1E7000001400004004031
:1014100000080040000C0040000401400040014072
:10142000001800402DE9F04104460068C6680569CF
:101430004FF00007A90713D5B10711D5F91E0161B7
:1014400001202077206880698007204602D0FFF7BE
:1014500091FE04E000F07EF8204600F07CF827774B
:10146000680716D5700714D521686FF0040008616D
:10147000022020772068806910F4407F204602D047
:10148000FFF778FE04E000F065F8204600F063F80E
:101490002777280715D5300713D521686FF0080086
:1014A0000861042020772068C0698007204602D0A8
:1014B000FFF760FE04E000F04DF8204600F04BF826
:1014C0002777E80616D5F00614D521686FF01000CE
:1014D0000861082020772068C06910F4407F20460A
:1014E00002D0FFF747FE04E000F034F8204600F099
:1014F00032F82777E80708D0F00706D021686FF0A8
:1015000001000861204600F027F8280608D53006BB
:1015100006D521686FF0800008612046FFF7C8FCFF
:10152000680608D5700606D521686FF0400008618E
:10153000204600F032F8A8060AD5B00608D5216882
:101540006FF0200008612046BDE8F041FFF7B1BC14
:10155000BDE8F0817047704700680349884202D1B6
:10156000024800F025BB70470004004070000020D6
:101570000246002041B1042909D008290AD00C29CB
:1015800001D11068006C70471068406B704710689C
:10159000806B70471068C06B70477047FEE70000B3
:1015A0002DE9F04186B014216846FEF75DFF1E4824
:1015B0000025016841F080010160016801F08001AF
:1015C0000591016841F001010160016801F001012C
:1015D0000591016841F0100101600068134F00F0AF
:1015E00010000590002240213846FFF727F9DFF868
:1015F00040804FF47856002231464046FFF71EF9EE
:10160000402001248DE83100694638460394FFF7F5
:101610001DF80096CDE90145694640460394FFF761
:1016200015F806B0BDE8F0813038024000000240F5
:101630000010024010B58AB0002423480494059499
:1016400006940794089409940094019402941D4907
:10165000039401605321C0E901144FF6FF71C0E902
:10166000031480218161FFF76DFC08B1FEF7D9FFFB
:101670004FF48050049004A91348FFF70DFD08B102
:10168000FEF7CFFF1048FFF719FE08B1FEF7C9FFBC
:10169000089408A90C480994FFF70CFC08B1FEF760
:1016A000C0FF0120CDE900400294042269460648AB
:1016B0000394FFF771FD002801D0FEF7B2FF0AB0D6
:1016C00010BD00000004004028000020FEE7FEE7F7
:1016D00010B50E4C00224FF400712046FFF7AEF813
:1016E000012291022046FFF7A9F80122D1022046EB
:1016F000FFF7A4F8012211032046FFF79FF82046C8
:101700000122BDE810405103FFF798B800100240D5
:101710002DE9F0470F4D002407464FF080084FF4A5
:1017200080696E1528FA04F23A4049462846FFF7C8
:1017300085F8012231462846FFF780F8002231461D
:101740002846FFF77BF8641CE4B2082CEAD3BDE816
:10175000F08700000010024010B50C4640F0B000C9
:1017600000F00CF8102040EA141000F007F804F024
:101770000F00BDE8104000F001B8000070B50C4D3E
:1017800006464FF40054002221462846FFF756F83B
:10179000002261102846FFF751F83046FFF7B8FFE6
:1017A00021462846BDE870400122FFF747B80000F7
:1017B0000010024070B50C4D06464FF40054002254
:1017C00021462846FFF73AF8012211032846FFF781
:1017D00035F83046FFF79CFF21462846BDE87040AB
:1017E0000122FFF72BB8000000100240704770473D
:1017F000FFF730B830B593B030216846FEF734FEBD
:1018000014210CA8FEF730FE1D480025016841F0A8
:1018100080510160006800F0805011901948016803
:1018200041F4804101600068022400F4804011907E
:1018300001200090000401908001CDE9064008AA33
:101840000420A82182E813000B906846FFF766F990
:1018500008B172B6FEE70CA90F2081E831004FF401
:10186000A0500F904FF48050109005210CA8FFF766
:101870008BF8002801D072B6FEE713B030BD00002F
:1018800040380240007000400248016841F4700195
:101890000160704788ED00E00148FFF7C3BD00001C
:1018A00028000020F0B50268274B284D284E294F0C
:1018B000294C4FF0804C984209D0604507D0A8428F
:1018C00005D0B04203D0B84201D0A04204D122F0EA
:1018D000700E4A6842EA0E0298421BD0604519D049
:1018E000A84217D0B04215D0B84213D0A04211D0B0
:1018F0001A4DA8420ED01A4DA8420BD0194DA8423D
:1019000008D0194DA84205D0184DA84202D0184D54
:10191000A84203D122F44075CA682A434D6922F0D7
:1019200080022A438D68C5620D688562984201D0A5
:10193000A04201D109690163016841F0040101601D
:10194000012141610260F0BD00000140000400403F
:1019500000080040000C004000040140004001402D
:10196000004401400048014000180040001C0040B5
:101970000020004010B501F01F030121046A9940C6
:101980008C430462016A9A401143016210BD10B594
:10199000846842EA032224F47F440A43224382609B
:1019A00010BD826822F070020A4342F00701816094
:1019B000704710B5036A046A24F001040462846964
:1019C00024F0F00444EA021423F00A020A4384617A
:1019D000026210BD70B5056A046A24F00104046255
:1019E0008469154EB04214D0B0F1804F11D0134E1F
:1019F000B0420ED0124EB0420BD0124EB04208D0C0
:101A0000114EB04205D0114EB04202D0104EB0423D
:101A100003D124F00304144301E044F001041A0745
:101A200024F0F00444EA126225F00A0301F00A01EE
:101A300019438261016270BD000001400004004052
:101A400000080040000C004000040140004001403C
:101A50000018004010B5036A046A24F01004046200
:101A6000846923F0A00324F4704444EA023243EA78
:101A700001118261016210BD30B5046A056A25F06A
:101A800010050562856925F4407545EA022222F4B5
:101A900070454FF6FF7202EA033224F0A0032A4396
:101AA000A02404EA011119438261016230BDFEE7FE
:101AB0000907090E002804DB00F1E02080F800147B
:101AC000704700F00F0000F1E02080F8141D70470F
:101AD00090ED040A7047000070B5054608780C4682
:101AE000002670B301282BD104212846FFF740FDC2
:101AF000A0606188EA689FED1D1A01FB0200A060EA
:101B00006168401A00EE100AE060F8EE400A80EECC
:101B1000810ADFED170A20EE200AF6EE000A20EE19
:101B2000200ADFED140A20EE200A84ED040A267054
:101B30002868016A21F0A00101622868016A016237
:101B400070BDFFE704212846FFF712FD0A496060D7
:101B50000868026A22F0A00202620868016A41F085
:101B600020010162668001202070E9E700247449A9
:101B70000000AE430000C8422800002038B50B4CDE
:101B8000012240212046FEF759FE00204FF45271F9
:101B9000009000BF00BF401C00908842F9D320464F
:101BA000BDE8384000224021FEF748BE0000024058
:101BB0004188491C418070472DED028BFEF752FE93
:101BC000FFF718FEFFF7ECFCFFF734FD00F06DF8AF
:101BD00001211FA2084600F0F1F82148FFF71CFA86
:101BE00004211F48FFF798FBFFF7C8FF1D4CDFEDEE
:101BF0001E8A4FF08046B0EE008A64251B48FFF72E
:101C000067FF10EE100A84ED000AB04201DA84ED9D
:101C1000008AFFF7B3FF94ED000A60EE280ABDEEDC
:101C2000C00AFDEEE00A10EE102A10EE900A90FBBA
:101C3000F5F105FB11030EA11148FEF791FB104AC7
:101C40000121022000F0BAF83220FEF7EDFCD5E7C2
:101C500048432D5352303420746573743A000000A9
:101C600028000020000000200000C8427000002072
:101C700064697374616E63653A25642E256400009F
:101C80001400002070B5002400212046FFF764FDF9
:101C900000250020FFF78EFD6D1CEDB2802DF8D3DE
:101CA000641CE4B2082CEFD370BD10B500200021F5
:101CB000491C6429FCD3401C6428F8D3FFF708FDB5
:101CC000AE20FFF75BFDD520FFF758FD8020FFF722
:101CD00055FDA820FFF752FD3F20FFF74FFDD32011
:101CE000FFF74CFD0020FFF749FD4020FFF746FDC0
:101CF000A120FFF743FDC820FFF740FDDA20FFF7E2
:101D00003DFD1220FFF73AFD8120FFF737FDCF2080
:101D1000FFF734FDD920FFF731FDF120FFF72EFD4D
:101D2000DB20FFF72BFD3020FFF728FDA420FFF775
:101D300025FDA620FFF722FD8D20FFF71FFD1420B3
:101D4000FFF71CFDAF20FFF719FDBDE81040FFF7BE
:101D500099BF00002DE9F0410746CE004000083E43
:101D6000801E15464FF0FF38F1B2C0B2FFF7F4FC09
:101D70001148002400EB05152819A0F5805090F8B3
:101D8000000EFFF717FD641CE4B2082CF4D308EB37
:101D90004700F1B2C0B2FFF7DFFC00242819A0F51C
:101DA000805090F8080EFFF705FD641CE4B2082C83
:101DB000F4D3BDE8F0810000FC1D00082DE9F041DE
:101DC00015460E460746002406E03019C1B23846D3
:101DD000FFF7C0FF641CE4B22A5D002AF5D1BDE81C
:101DE000F0814FF04070E1EE100A704700000000F3
:101DF00000000000010203040607080900000000BB
:101E0000000000000000000000000000000000F8DA
:101E100000000000000000333000000000100C063D
:101E2000100C0600000000000000000040C07840D8
:101E3000C0784000043F04043F040400007088FCA4
:101E400008300000001820FF211E0000F008F000FC
:101E5000E018000000211C031E211E0000F008886D
:101E6000700000001E2123241927211010160E00D7
:101E7000000000000000000000000000000000E082
:101E80001804020000000007182040000002041897
:101E9000E00000000040201807000000404080F0F3
:101EA000804040000202010F01020200000000F029
:101EB000000000000101011F0101010000000000FD
:101EC0000000000080B07000000000000000000072
:101ED00000000000000101010101010100000000FB
:101EE0000000000000303000000000000000000092
:101EF00080601804006018060100000000E010086F
:101F00000810E000000F102020100F00001010F843
:101F1000000000000020203F202000000070080882
:101F20000888700000302824222130000030088802
:101F3000884830000018202020110E000000C0202A
:101F400010F8000000070424243F240000F808884B
:101F5000880808000019212020110E0000E01088D8
:101F600088180000000F112020110E00003808080A
:101F7000C83808000000003F00000000007088081A
:101F800008887000001C222121221C0000E010089B
:101F90000810E0000000312222110F00000000C0F4
:101FA000C000000000000030300000000000008091
:101FB0000000000000008060000000000000804081
:101FC000201008000001020408102000404040409A
:101FD00040404000040404040404040000081020ED
:101FE0004080000000201008040201000070480832
:101FF0000808F0000000003036010000C030C8289A
:10200000E810E0000718272423140B000000C03854
:10201000E0000000203C23020227382008F88888CE
:1020200088700000203F202020110E00C0300808DA
:1020300008083800071820202010080008F80808B1
:102040000810E000203F202020100F0008F88888AA
:10205000E8081000203F20202320180008F8888876
:10206000E8081000203F200003000000C0300808EE
:102070000838000007182020221E020008F8080077
:102080000008F808203F210101213F20000808F83E
:10209000080800000020203F202000000000080861
:1020A000F8080800C08080807F00000008F888C021
:1020B00028180800203F20012638200008F80800D2
:1020C00000000000203F20202020300008F8F80009
:1020D000F8F80800203F003F003F200008F830C01B
:1020E0000008F808203F200007183F00E01008080B
:1020F0000810E0000F10202020100F0008F808083A
:102100000808F000203F210101010000E01008084C
:102110000810E0000F18242438504F0008F8888871
:1021200088887000203F2000030C30200070880851
:10213000080838000038202121221C00180808F85F
:10214000080818000000203F2000000008F80800E0
:102150000008F808001F202020201F0008788800B1
:1021600000C83808000007380E010000F80800F821
:102170000008F800033C0700073C030008186880CB
:102180008068180820302C03032C30200838C80041
:10219000C83808000000203F200000001008080890
:1021A000C83808002038262120201800000000FE32
:1021B000020202000000007F40404000000C30C0DE
:1021C00000000000000000010638C000000202020A
:1021D000FE000000004040407F00000000000402BC
:1021E00002020400000000000000000000000000E7
:1021F00000000000808080808080808000020204D7
:1022000000000000000000000000000000008080CE
:10221000808000000019242222223F2008F800803C
:1022200080000000003F112020110E0000000080FF
:1022300080800000000E112020201100000000808E
:102240008088F800000E112020103F2000008080C0
:1022500080800000001F222222221300008080F0D4
:10226000888888180020203F2020000000008080FF
:1022700080808000006B94949493600008F8008044
:1022800080800000203F210000203F20008098989F
:10229000000000000020203F2020000000000080FF
:1022A0009898000000C08080807F000008F800003F
:1022B00080808000203F24022D302000000808F894
:1022C000000000000020203F20200000808080804F
:1022D00080808000203F20003F20003F80800080E1
:1022E00080800000203F210000203F2000008080EF
:1022F00080800000001F202020201F0080800080A0
:102300008000000080FFA12020110E00000000804E
:1023100080808000000E112020A0FF80808080003F
:102320008080800020203F2120000100000080806C
:10233000808080000033242424241900008080E061
:10234000808000000000001F20200000808000002E
:1023500000808000001F202020103F20808080000F
:102360000080808000010E3008060100808000801F
:10237000008080800F300C030C300F000080800044
:10238000808080000020312E0E312000808080006F
:102390000080808080818E7018060100008080801F
:1023A000808080000021302C2221300000000000BD
:1023B000807C020200000000003F4040000000005E
:1023C000FF00000000000000FF0000000002027C8F
:1023D000800000000040403F0000000000060101B6
:1023E0000202040400000000000000000C240008A9
:1023F0000000002014000000C40100082024000890
:1024000014000020D4060000E001000800000000D5
:102410000100000010000000000000000024F40093
:040000050800018965
:00000001FF
