:020000040800F2
:10000000C00600205502000855140008951200088B
:1000100051140008010400086516000800000000E3
:100020000000000000000000000000005D14000857
:1000300005040008000000005914000861140008BD
:100040006F0200086F0200086F0200086F020008CC
:100050006F0200086F0200086F0200086F020008BC
:100060006F0200086F0200086F0200086F020008AC
:100070006F0200086F0200086F0200086F0200089C
:100080006F0200086F0200086F0200086F0200088C
:100090006F0200086F0200086F0200086F0200087C
:1000A0006F0200086F0200086F0200086F0200086C
:1000B0006F0200086F0200086F0200086F0200085C
:1000C0006F0200086F0200086F0200086F0200084C
:1000D0006F0200086F0200086F0200086F0200083C
:1000E0006F0200086F0200086F0200086F0200082C
:1000F0006F0200086F0200086F0200086F0200081C
:100100006F0200086F0200086F0200086F0200080B
:100110006F0200086F0200086F0200086F020008FB
:100120006F0200086F0200086F0200086F020008EB
:100130006F0200086F0200086F0200086F020008DB
:100140006F0200086F0200086F0200086F020008CB
:100150006F0200086F0200086F0200086F020008BB
:100160006F0200086F0200086F0200086F020008AB
:100170006F0200086F0200086F0200080000000014
:100180006F0200086F02000800F002F800F052F859
:1001900014A696E8000CB244B344DA4501D100F04D
:1001A00049F8BAE80F000FA696E83000A5EB040561
:1001B00004EB0607AAEB0704A7F101074FEA1515A0
:1001C0004FEA3414A4F10104AC4201D300F032F838
:1001D00013F0010F18BFFB1A43F0010300F001F800
:1001E000DBE718477C1500009C150000103A24BF7F
:1001F00078C878C1FAD8520724BF30C830C144BF8C
:1002000004680C6070470000704700000023002461
:1002100000250026103A28BF78C1FBD8520728BF16
:1002200030C148BF0B6070471FB501F083FA1FBD96
:1002300010B510BD00F0A9F81146FFF7F5FF01F069
:1002400013FA00F0C7F803B4FFF7F2FF03BC00F0A5
:10025000CFF800000948804709480047FEE7FEE75D
:10026000FEE7FEE7FEE7FEE7FEE7FEE7FEE7FEE766
:1002700004480549054A064B704700000D15000863
:1002800089010008C0000020C0060020C002002034
:10029000C002002053EA020C00F069802DE9F04B07
:1002A0004FF00006002B1FBFB3FA83F503FA05F4E5
:1002B00024FA05F65E4012BF1643B2FA82F502FA3E
:1002C00005F4C5F120051EBF22FA05FC44EA0C0422
:1002D000203556EA044C4FEA144418BF641C4FF012
:1002E00000084FF00009904271EB030C39D300294C
:1002F00019BFB1FA81F701FA07F6B0FA80F700FAF0
:1003000007F6C7F120071EBF20FA07FC46EA0C06D5
:100310002037B6FBF4FCA7EB0507103F07F01F0BD7
:10032000CBF120062CFA06F60CFA0BFB44BFB346C1
:100330000026202FA4BF5E464FF0000B5BEA060CA0
:1003400008BF4FF0010B19EB0B0948EB0608ABFB9C
:10035000027C06FB02CC0BFB03CCC01B71EB0C0137
:10036000C1E70B46024641464846BDE8F08B13B54F
:10037000084318BF4FF0FF300146AFF30080BDE8DF
:100380001C407047704770477047754600F02CF866
:10039000AE4605006946534620F00700854618B072
:1003A00020B5FFF765FFBDE820404FF000064FF095
:1003B00000074FF000084FF0000BAC46ACE8C00956
:1003C000ACE8C009ACE8C009ACE8C00921F00701FD
:1003D0008D46704710B50446AFF300802046BDE857
:1003E0001040FFF730BF00000048704710000020A9
:1003F00001491820ABBEFEE726000200704700004E
:10040000FEE700007047000072B600BFFEE7000084
:100410002DE9F04F82B000F13E4707F1FF778605E6
:1004200046EA972741F60046C4F20206082243F640
:10043000004EB04208BF0722C4F2010E072F38BF9A
:100440003A46002600274FF00008009209E000BF5E
:1004500008F101080237B8F1100F06F1040600F0A8
:10046000A3800D68012202FA08F415EA0409EFD00E
:10047000D1F804B003220BF0030CACF10105BA4033
:10048000012D6FEA020A0FD88268CD6802EA0A02DB
:10049000BD402A4382604268A243CBF3001404FAB1
:1004A00008F42243426005E0BCF1030F02D14FF093
:1004B000030C1EE0C2688C6802EA0A02BC402243B8
:1004C000BCF1020FC26014D16FF0030202EA5802BD
:1004D0000244D2F820C006F01C040F230D69A3408B
:1004E0002CEA0303A5402B431362D1F804B00BF0B0
:1004F000030C02680CFA07F302EA0A021A431BF41F
:10050000403F0260A4D0002243F644030192C4F2AB
:1005100002031A684FF6084C42F480421A601A68C7
:10052000CFF6FF7C02F480420192019A28F0030288
:10053000724452F80C3006F00C050F24AC40A34373
:10054000009C04FA05F52B4342F80C30DEF8082035
:100550004B6842EA090543F60C4CDC0258BF22EA1C
:100560000905CEF80850C4F2010CDCF800209C020A
:1005700042EA090558BF22EA0905CCF80050DEF826
:1005800004209C0342EA090558BF22EA0905CEF877
:100590000450DEF80020DB0342EA090558BF22EAD6
:1005A0000905CEF8005053E702B0BDE8F08F000017
:1005B000002A08BF090481617047000040F2B800BA
:1005C000C2F200000068704740F2000040F2B8013B
:1005D000C2F20000C2F2000100780A68104408600C
:1005E0007047000080B543F60040C4F20200016885
:1005F00041F400710160016841F4806101600168AB
:1006000041F480710160032000F074F80F2000F0C5
:1006100005F800F027F8002080BD000070B540F21A
:100620000006C2F2000640F208013278C2F2000170
:100630004FF47A730968B3FBF2F20446B1FBF2F1AE
:10064000084600F027FB0F2C4FF0010508D838B9F9
:100650004FF0FF3021460022002500F01FF87460A3
:10066000284670BD82B0002043F640010190C4F2DC
:1006700002014A6842F480424A604A6802F48042B9
:100680000192019A0090086840F080500860086864
:1006900000F080500090009802B0704710B54EF600
:1006A0000C5CCEF2000CDCF80030C3F3022E8EF0AE
:1006B0000704042C28BF0424BEF103034FF0FF3EBF
:1006C0000EFA04F438BF0023A14399400EFA03F355
:1006D0009A43114300F00F0200F160430901043A0C
:1006E00003F564436244002848BF02F10C0319700B
:1006F00010BD00004EF60C51CEF200010A684FF614
:10070000FF031A4060F30A2242F0806040F0FD705F
:1007100008607047002804BF012070472DE9F041B0
:1007200043F60808C4F202080446D8F8F8030D4658
:1007300000F00700884207D288F8F853D8F8F80389
:1007400000F00700A84277D12068810717D541073C
:1007500005D5D8F8001041F4E051C8F800100107A1
:1007600005D5D8F8001041F46041C8F80010D8F859
:100770000010A26821F0F0011143C8F80010C00772
:1007800040D1D8F8F80300F00700A84207D988F84C
:10079000F853D8F8F80300F00700A8424CD12068BD
:1007A000410707D5D8F80010E26821F4E051114361
:1007B000C8F80010000708D5D8F80000216920F417
:1007C000604040EAC100C8F8000000F055F8D8F8D1
:1007D000001041F24E72C1F30311C0F60002515CE9
:1007E00040F2080220FA01F140F20400C2F20000D7
:1007F0000068C2F200021160FFF710FF0020BDE8A0
:10080000F08100BF6068811E022907D258F8081CD9
:1008100089015CBF0120BDE8F08111E0012807D10A
:1008200058F8081C89035CBF0120BDE8F08107E08F
:1008300058F8081C890703D40120BDE8F08100BFE7
:10084000D8F8001021F003010843C8F80000FFF7B2
:10085000B5FE064641F28837D8F80000616800F01E
:100860000C00B0EB810F8CD0FFF7A8FE801BB842C4
:10087000F2D90320BDE8F08110B543F60404C4F2B8
:100880000204606800F00C0142F200400829C0F246
:10089000F40007D0042918BF10BD41F20020C0F2B7
:1008A0007A0010BD216801F03F02216823684902E7
:1008B000C3F3881106D4A1FB00010023FFF7EAFC73
:1008C00007E000BF41F20020C0F27A004843B0FBCD
:1008D000F2F021680222C1F3014102EB4101B0FBB9
:1008E000F1F010BD002804BF012070472DE9F04150
:1008F00082B00446007843F60006C007C4F2020640
:100900000CD0B06800F00C00042840F08180306802
:10091000800303D56068002800F06A812078800792
:100920001BD5B06810F00C0F09D0B06800F00C00B7
:10093000082840F087807068400200F183803068AA
:10094000800703D5E068012840F0528130682169B2
:1009500020F0F80040EAC10030602078000713D48E
:10096000207840072AD4A569002D00F03C81B068AA
:1009700000F00C00082840F0A180012D40F010810B
:10098000012002B0BDE8F0816069002840F200005B
:10099000C4F2472000F07E800121C0F8801EFFF7DE
:1009A0000DFE0546706F8007DAD4FFF707FE401B87
:1009B0000228F7D9032002B0BDE8F081306C5FEA6D
:1009C000C0080AD400200190306C40F080503064A0
:1009D000306C00F080500190019847F20007C4F29B
:1009E00000073868C00547D4386840F48070386024
:1009F000FFF7E4FD054600BF3868C0053CD4FFF7AB
:100A0000DDFD401B0228F7D9032002B0BDE8F081CC
:100A1000B06800F00C00082803D1706840023FF570
:100A200076AF6068B0F5803F07D0B0F5A02F40F0FA
:100A30009B80306840F480203060306840F4803023
:100A400030609BE0E06800285CD00020C4F24720C2
:100A500001210160FFF7B2FD054600BF3068800745
:100A60003FF574AFFFF7AAFD401B0228F6D903201B
:100A700002B0BDE8F08100BFA068012805D00528BC
:100A800054D1306F40F004003067306F40F0010007
:100A9000306755E00021C0F8801EFFF78FFD054646
:100AA000706F80077FF55CAFFFF788FD401B022861
:100AB000F6D9032002B0BDE8F08100BF0027C4F2E0
:100AC000472700203866FFF779FD022D05460DD136
:100AD0003068800140F19080FFF770FD401B0228D4
:100AE0004FF00300F4D902B0BDE8F0813068800116
:100AF00079D5FFF763FD401B02284FF00300F5D9BD
:100B0000F1E700BF0020C4F2472000210160FFF799
:100B100055FD0546306880077FF51FAFFFF74EFD96
:100B2000401B02284FF00300F4D9DCE7316F0028A6
:100B300021F001013167316F21F0040131677DD06F
:100B4000FFF73CFD054641F2883700BF306F800754
:100B500000F18680FFF732FD401BB842F6D9032032
:100B600002B0BDE8F08100BF3168002821F4803177
:100B70003160316821F4802131607BD0FFF71EFDA8
:100B8000054600BF306880033FF5C8AEFFF716FD8D
:100B9000401B6428F6D9032002B0BDE8F08100BFF5
:100BA0007068E16900F480028A4221D1216A00F074
:100BB0003F028A421CD147F6C071626A0140B1EB24
:100BC000821F15D1A16A4FF6FF73C903994300F440
:100BD0004032A1F580318A420AD1E16A00F07060AA
:100BE000B0EB016F04D1002002B0BDE8F08100BF7E
:100BF000012002B0BDE8F08104F11C052FCD0843AF
:100C000040EA8210D9034FF6FF729143A1F580317B
:100C100040EA05600843706001203866FFF7CEFCAB
:100C2000044600BF30688001DDD4FFF7C7FC001B1D
:100C300002284FF00300F5D955E700BFFFF7BEFCCF
:100C4000054641F2883700BF306F800708D5FFF7AF
:100C5000B5FC401BB8424FF00300F5D943E700BF95
:100C6000B8F1000F3FF57FAE306C20F0805030645B
:100C700079E600BFFFF7A2FC054600BF306880039D
:100C80007FF54CAEFFF79AFC401B64284FF0030041
:100C9000F4D928E7411E0020B0EB116F1CBF0120E2
:100CA00070474EF21002CEF2000251604EF6235110
:100CB000CEF20001F0230B700721906011607047A5
:100CC000002804BF0120704710B5044690F83D008D
:100CD00028B9002084F83C00204600F01FF80220CC
:100CE00084F83D002068211D00F01AFC012084F8E2
:100CF000460084F83E0084F83F0084F8400084F801
:100D0000410084F8420084F8430084F8440084F8E9
:100D1000450084F83D00002010BD0000006841F649
:100D20000001C4F20001884218BF704781B0002062
:100D3000009043F64000C4F20200016841F0400117
:100D40000160006800F040000090009801B070471A
:100D500090F83C20012A4FF0020200F0C58080B5D7
:100D600080F83D20D0F800C04FF67772DCF80830EC
:100D700023EA0202CCF808200B684F2B28DC1F2B3B
:100D800044DD202B45D0302B43D0402B40F0AE80AB
:100D9000D1F804E0C968DCF82030DCF8202022F02B
:100DA0000102CCF82020DCF8182022F0F00242EA00
:100DB000011123F00A0242EA0E02CCF81810CCF816
:100DC0002020DCF8081041F0470121F0300180E0DC
:100DD0006F2B27DDB3F5005F48D0B3F5805F7AD085
:100DE000702B40F08380D1E901E3C968DCF808206A
:100DF00043EA0E0322F47F4243EA01211143CCF877
:100E00000810DCF8081041F0770162E00BB1102BFC
:100E10006CD1DCF8081021F07001194341F0070192
:100E200057E000BF502B35D0602B5FD1D1F804E0E4
:100E3000C968DCF82030DCF8202022F01002CCF861
:100E40002020DCF8182022F4704242EA013123F01D
:100E5000A00242EA0E12CCF81810CCF82020DCF8E0
:100E6000081041F0670121F0100132E0D1E901E3FF
:100E7000C968DCF8082043EA0E0322F47F4243EA03
:100E800001211143CCF80810DCF8081041F480412E
:100E90001FE000BFD1F804E0C968DCF82030DCF8BE
:100EA000202022F00102CCF82020DCF8182022F0CB
:100EB000F00242EA011123F00A0242EA0E02CCF8E3
:100EC0001810CCF82020DCF8081041F0570121F070
:100ED0002001CCF808100022012180F83D100021EB
:100EE00080F83C10BDE88040104670470122F3E7CF
:100EF00090F83C30012B04BF022070474FEAB20249
:100F0000032A00F201812DE9F043DFE802F0033FFC
:100F10007FBF00BF036840F200461C6A1A6A24F0D3
:100F2000020422F001021A621A46D3F804C052F8F1
:100F300018EF8F6843F48065C4F20106B54244EAB5
:100F4000070405D1CF6824F00C0427F004073C43C4
:100F50000F68B54206D1D1E905582CF440762E43EE
:100F600046EA080C2EF073063743C3F804C09F61AD
:100F70004F6809695F631C629F6947F008079F61BA
:100F80009F6927F004079F61B2E000BF036840F249
:100F900000481C6A1A6A24F0200422F010021A6227
:100FA0001A46D3F804C052F818EF8F6843F48065EE
:100FB000C4F20108454544EA071407D1CF686FF031
:100FC000400624F0C00406EA07163443D1F8009026
:100FD000454506D1D1E905562CF440672E4347EA32
:100FE000860C2EF4E64747EA0927C3F804C09F6140
:100FF0004F6809699F631C629F6947F400679F619E
:101000009F6927F480679F6171E000BF036840F229
:1010100000481C6A1A6A24F4007422F480721A626E
:101020001A46D3F804C052F81CEF8F6843F4806569
:10103000C4F20108454544EA072408D1CF6840F2CC
:10104000FF463F0224F4406427EA06063443D1F801
:101050000090454506D1D1E905562CF440572E4362
:1010600047EA061C2EF0730747EA0907C3F804C0D5
:10107000DF614F680969DF631C62DF6947F00807B9
:10108000DF61DF6927F00407DF6131E0036840F2C8
:101090000045D3F820C01A6A43F4806722F48052D6
:1010A0001A621A465C6852F81CEFD1F800808E680C
:1010B000C4F20105AF4204D14D6924F4804444EAEE
:1010C00085142CF4005747EA06372EF4E64646EA24
:1010D00008265C60DE614E6809691E641F62DF6974
:1010E00047F40067DF61DF6927F48067DF61090289
:1010F0001368194311600021BDE8F043002280F815
:101100003C200846704700BF0121002280F83C20A7
:1011100008467047002804BF0120704710B50446F8
:1011200090F83D0028B9002084F83C00204600F0EB
:101130001FF8022084F83D002068211D00F0F0F91E
:10114000012084F8460084F83E0084F83F0084F8CB
:10115000400084F8410084F8420084F8430084F899
:10116000440084F8450084F83D00002010BD0000D4
:101170007047000041B1082910D0042914BF00F1C4
:10118000410200F13F020BE090F83E20012A1CBF13
:1011900001207047022280F83E2013E000F1400257
:1011A0001278012A1CBF012070470222082907D0AB
:1011B000042914BF80F8412080F83F2002E000BFDE
:1011C00080F84020006801F01F010122036A02FA42
:1011D00001F123EA01020262026A114341F2FF7245
:1011E000C4F200029042016210DC40F2FF71C4F2CE
:1011F000000188421CDCB0F1804F3FD040F200413A
:10120000C4F20001884239D03DE000BF40F2FF3116
:10121000C4F20101884219DC41F60001C4F2000168
:1012200088422BD00021C4F2010188421AD02AE062
:1012300040F60001C4F2000188421FD040F6004190
:10124000C4F20001884219D01DE000BF44F2000141
:10125000C4F20101884211D040F20041C4F2010100
:10126000884210D1416C40F2004340F48062C4F2E5
:10127000010341F400419A42416404D1816801F0C4
:101280000701062903D0016841F001010160002037
:1012900070470000FEE700002DE9F04387B000270B
:1012A00043F6300006970197C4F20200016840F24D
:1012B000000941F0800101600168C4F2020901F0F7
:1012C0008001019101990197016809F5006541F0DC
:1012D000020101600168002201F0020101910199FF
:1012E000019701684FF4A07641F0040101600168A4
:1012F00001F00401019101990197016841F0010198
:10130000016000684FF4A07100F0010001900198A5
:101310002846FFF74DF948464FF4A06100224FF4EC
:10132000A068FFF745F9029602AE0124284631462F
:10133000CDE903470594FFF76BF848463146CDE900
:101340000284CDE90474FFF763F807B0BDE8F083C9
:10135000B0B590B041F6000540F27000C4F200054F
:101360000021C2F20000292263230A91CDE908116D
:101370000691CDE90411CDE90211CDE90011C0E9D2
:101380000052C0E9021301618161FFF799FC002856
:1013900018BFFFF739F84FF48050079040F2700003
:1013A000C2F2000007A9FFF7D3FC002818BFFFF71F
:1013B0002BF840F27000C2F20000FFF7ABFE0028ED
:1013C00018BFFFF721F8602000900020CDE9010050
:1013D000049040F27000C2F2000069460022FFF75C
:1013E00087FD002818BFFFF70FF840F27004C2F223
:1013F0000004694620460422FFF77AFD002818BF42
:10140000FFF702F82068A84202D010B0B0BD00BFBC
:10141000002043F630010B90C4F202010A6842F04A
:1014200002020A60096801F002010B910B994FF466
:1014300040410B910221CDE90C100E9009200F9034
:1014400005F5F6300BA9FEF7E3FF10B0B0BD0000C4
:10145000FEE70000FEE70000704700007047000054
:10146000FFF7B2B8B0B592B0002443F64000CDE922
:101470000A44CDE908440594CDE90344CDE901448B
:101480000094C4F202000168022541F0805101601D
:10149000006800F080500090009847F2000000942F
:1014A000C4F20000016841F4804101600068A82195
:1014B00000F4804000900098012006904FF48030A6
:1014C00007904FF480000D9004200E90119006A814
:1014D0000C95CDE90F15FFF705FA18B172B600BFEC
:1014E000FEE700BF0F20CDE901054FF4A0500490A6
:1014F0004FF48050059001A805210394FFF70AF9E5
:1015000010B172B6FEE700BF12B0B0BD4EF6885003
:10151000CEF20000016841F47001016070470000E4
:10152000B0B540F6FF3E0568C4F2000E40F2004C34
:101530007045C4F2010C27DCB0F1804F31D040F28D
:101540000043C4F2000398422BD040F60003C4F2DB
:101550000003984225D041F6FF73C4F2000398427D
:101560002ADC70453CDCB0F1804F5FD040F2004394
:10157000C4F20003984259D040F60003C4F20003BD
:10158000984253D057E000BF40F60043C4F2000336
:10159000984206D0604504D00023C4F2010398426B
:1015A000D9D14B6825F0700243EA020541F6FF737A
:1015B000C4F200039842D4DD43F6FF73C4F2010382
:1015C000984221DC42F20003C4F2000398422DD07D
:1015D0000023C4F20103984228D0604526D02AE0B7
:1015E00040F60043C4F2000398421FD041F60003C6
:1015F000C4F20003984219D041F60043C4F200033C
:10160000984213D017E000BF44F20003C4F2010374
:1016100098420BD044F60003C4F20103984205D06F
:1016200044F20043C4F20103984204D1CB6825F48C
:10163000407243EA02050A688C684B69C46240F450
:1016400080648262644504BF09690163026825F011
:10165000800142F0040219430260012242610160EC
:10166000B0BD0000FEE70000FEF7BCFFFFF7FAFE8A
:10167000FFF712FEFFF76CFE40F27004C2F20004A6
:1016800020460021FFF776FD20460421FFF772FD7A
:10169000322000F005F86FF0310000F027F8F7E78E
:1016A000B0B50025C4F202050446002828464FF4D0
:1016B000807109D40022FEF77BFF28464FF4806139
:1016C0000122FEF775FF09E00122FEF771FF2846AF
:1016D0004FF480610022FEF76BFF644240F270001D
:1016E000C2F2000000684463B0BD0000B0B540F62F
:1016F0000005C4F202050446002828464FF4807114
:1017000008D40022FEF754FF284640210122FEF7AC
:101710004FFF08E00122FEF74BFF28464021002240
:10172000FEF746FF644240F27000C2F2000000681B
:101730008463B0BDF1EE100A4FF6FF71C0F2C03104
:1017400020EA010040F04070E1EE100A704700000E
:101750000000000000000102030406070809000061
:10176000801700080000002010000000EC010008B5
:101770009017000810000020B00600000C020008BE
:1017800001000000100000000024F4000000000030
:040000050800018965
:00000001FF
