:020000040800F2
:10000000D806002031020008231400084913000814
:100010002114000849070008FD1500080000000031
:100020000000000000000000000000005315000860
:100030004B07000800000000511500085515000886
:100040004B0200084B0200084B0200084B0200085C
:100050004B0200084B0200084B0200084B0200084C
:100060004B0200084B0200084B0200084B0200083C
:100070004B0200084B0200084B0200084B0200082C
:100080004B0200084B0200084B0200084B0200081C
:100090004B0200084B0200084B0200084B0200080C
:1000A0004B0200084B0200084B0200084B020008FC
:1000B0004B0200084B0200084B0200084B020008EC
:1000C0004B0200084B0200084B0200084B020008DC
:1000D0004B0200084B0200084B0200084B020008CC
:1000E0004B0200084B0200084B0200084B020008BC
:1000F0004B0200084B0200084B0200084B020008AC
:100100004B0200084B0200084B0200084B0200089B
:100110004B0200084B0200084B0200084B0200088B
:100120004B0200084B0200084B0200084B0200087B
:100130004B0200084B0200084B0200084B0200086B
:100140004B0200084B0200084B0200084B0200085B
:100150004B0200084B0200084B0200084B0200084B
:100160004B0200084B0200084B0200084B0200083B
:100170004B0200084B0200084B0200080000000080
:100180004B0200084B02000800F002F800F041F8B2
:100190000AA090E8000C82448344AAF10107DA45E2
:1001A00001D100F036F8AFF2090EBAE80F0013F0F3
:1001B000010F18BFFB1A43F0010318474C2200003F
:1001C0006C220000103A24BF78C878C1FAD85207D0
:1001D00024BF30C830C144BF04680C6070470000C1
:1001E0000023002400250026103A28BF78C1FBD840
:1001F000520728BF30C148BF0B607047642900F028
:10020000F780002070471FB501F0F4FD1FBD10B549
:1002100010BD00F0CAF91146FFF7F5FF01F000FA32
:1002200000F0E8F903B4FFF7F2FF03BC00F0F0F9C7
:100230000948804709480047FEE7FEE7FEE7FEE77A
:10024000FEE7FEE7FEE7FEE7FEE7FEE704480549B6
:10025000054A064B70470000ED15000889010008AB
:10026000D8000020D8060020D8020020D8020020A4
:1002700053EA020C00F069802DE9F04B4FF00006C4
:10028000002B1FBFB3FA83F503FA05F424FA05F631
:100290005E4012BF1643B2FA82F502FA05F4C5F1C8
:1002A00020051EBF22FA05FC44EA0C04203556EA5C
:1002B000044C4FEA144418BF641C4FF000084FF080
:1002C0000009904271EB030C39D3002919BFB1FA30
:1002D00081F701FA07F6B0FA80F700FA07F6C7F1DE
:1002E00020071EBF20FA07FC46EA0C062037B6FBA3
:1002F000F4FCA7EB0507103F07F01F0BCBF120061E
:100300000CFA0BFB2CFA06F644BFB3460026202F4E
:10031000A4BF5E464FF0000B5BEA060C08BF4FF02F
:10032000010B19EB0B09ABFB027C48EB0608C01B69
:1003300006FB02CC0BFB03CC71EB0C01C1E70B46B7
:10034000024641464846BDE8F08B13B54FF0000029
:100350004FF00001AFF30080BDE81C407047000083
:100360000FB41CB5074B06AA7B446946009005985C
:1003700000F003F90020694600F012F91CBC5DF89A
:1003800014FB0000350200002DE9F0410E46044642
:10039000002020622046E168884730B3252805D038
:1003A000D4E901219047206A401CF2E7E168204629
:1003B00000278847050018D0A5F14100192802D868
:1003C00020354FF400673246294620462760FFF764
:1003D00015FF40B1012804D0F61D26F007060836A7
:1003E000D8E7361DD6E72846DAE7206ABDE8F0816F
:1003F0002DE9F0410646002410687529314616A5FE
:1004000010D0AFF30080002802DA404213A507E0C5
:1004100031688A0701D512A502E0490704D511A564
:10042000012401E0AFF3008000210A2206F1240735
:1004300009E0B0FBF2FCB0FBF2F302FB1C00303031
:1004400078541846491C0028F3D123462A463046E2
:10045000BDE8F04100F032B8000000002D000000BF
:100460002B000000200000004FF0000200B51346F2
:1004700094469646203922BFA0E80C50A0E80C50C4
:10048000B1F12001BFF4F7AF090728BFA0E80C5075
:1004900048BF0CC05DF804EB890028BF40F8042B6E
:1004A00008BF704748BF20F8022B11F0804F18BFDB
:1004B00000F8012B70477047704770472DE9F047EF
:1004C0000D4699469246044600F1240801688806C4
:1004D00004D5E06921F01001216000E00120A8426C
:1004E00001DD471B00E00027A1697A1902EB090032
:1004F000081AA0612078C00602D42046AFF300801D
:10050000002608E0D4E901211AF806009047206A85
:10051000401C761C20624E45F4DB2078C0060AD5CC
:100520002046AFF3008006E0D4E901213020904757
:10053000206A401C2062381EA7F10107F4DC07E0A6
:10054000D4E9012118F805009047206A401C206278
:10055000281EA5F10105F3DC2046AFF300802078CA
:10056000000602D50220BDE8F0870120FBE700006D
:1005700001694A1C02610878704700B58FB0CDE967
:1005800001310021059105497944CDE90310114657
:100590006846FFF7F9FE0FB000BD0000E5FFFFFF62
:1005A0000A6802F8010B0A607047754600F02CF8E3
:1005B000AE4605006946534620F00700854618B050
:1005C00020B5FFF743FEBDE820404FF000064FF096
:1005D00000074FF000084FF0000B21F00701AC4678
:1005E000ACE8C009ACE8C009ACE8C009ACE8C00997
:1005F0008D46704710B50446AFF300802046BDE835
:100600001040FFF70FBE0000004870477400002044
:1006100001491820ABBEFEE726000200704700002B
:10062000464910B54A6822F440324A604A68436835
:100630001A434A6001684A6822F480724A6001687D
:100640004A68036942EA03224A6001684A6822F064
:1006500040724A6001684A6883681A434A600168C8
:100660008A6822F400628A6001688A68C3681A4353
:100670008A60816A6FF07062D14201688A6822F0F4
:1006800070628A6001688A680CD0836A1A438A6043
:1006900001688A6822F040528A6001688A68C36AE9
:1006A0001A4301E022F040528A6001688A6822F011
:1006B00002028A6001688A68037E42EA43028A6015
:1006C00090F82010002901684A680FD042F40062B7
:1006D0004A6001684A6822F460424A6001684A68D8
:1006E000174C436A04EB43331A4301E022F40062DF
:1006F0004A600168CA6A22F47002CA620168CA6A62
:10070000838B104C04EB03531A43CA6201688A6856
:1007100022F400728A6001688A6890F8303042EAF8
:1007200043228A6001688A6822F480628A600168D4
:100730008A68406942EA8020886010BD0023014039
:1007400000E0FFFF0000F0FFFEE7704772B6FEE733
:1007500078B50024009490F83C20012A19D0012299
:1007600080F83C200A6807230568092A13D9EE6837
:100770000A3A02EB420293409E43EE600B788A688D
:100780000A3B03EB43039A400368DD682A43DA60BF
:1007900010E0022078BD2E6902EB420293409E4396
:1007A0002E610B788A6803EB43039A4003681D6946
:1007B0002A431A614A681F23072A13D205686E6B01
:1007C000521E02EB820293409E436E630B790A88AD
:1007D0005B1E92B203EB83039A4003685D6B2A436E
:1007E0005A6327E005680D2A12D22E6BD21F02EB46
:1007F000820293409E432E630B790A88DB1F92B2DC
:1008000003EB83039A4003681D6B2A431A6311E0CC
:10081000EE6A0D3A02EB820293409E43EE620B7940
:100820000A880D3B92B203EB83039A400368DD6AAA
:100830002A43DA62164B0568144A9D4206D10D68B8
:10084000122D03D1556845F48005556005689D4219
:1008500018D10B68102B01D0112B13D1536843F41E
:1008600000035360096810290CD10A490A4A096833
:10087000B1FBF2F101EB8101490000E0491E00915A
:100880000029FBD180F83C40002078BD00230140C6
:10089000002001401400002040420F000068C06C9E
:1008A000704770B504004FF0000503D0206C00269F
:1008B00010B107E0012070BD204600F01DF866640D
:1008C00084F83C60206CC00610D4206C20F4885062
:1008D00040F0020020642046FFF7A2FE6664206C10
:1008E00020F0020040F00100206400E0012584F8BF
:1008F0003C60284670BD000010B586B00446142147
:100900006846FFF7B1FD1149206888421CD11048A4
:100910000021026842F480720260006800F4807076
:1009200005900B481438026842F00102026000682A
:1009300000F001000590042000900320CDE90101A2
:100940006946044800F0DCF806B010BD0020014004
:1009500044380240000002402DE9F041044600689E
:100960000D4681684FF0000749050BD58068C0052A
:1009700008D5206C40F02000206484F83C700120F1
:10098000BDE8F08100F0BAF9064613E0681C11D00A
:1009900025B100F0B3F9801BA8420BD9206800688C
:1009A000800707D4206C40F00400206484F83C7079
:1009B0000320E5E7206800688007E7D521686FF02D
:1009C00012000860206C40F4007020642068816888
:1009D00011F0405F13D1217E89B9C16A11F4700F03
:1009E00002D0806840050AD4206C20F48070206416
:1009F000206CC00403D4206C40F00100206400206F
:100A0000BEE7000018B50021009190F83C20012AB3
:100A100007D0012280F83C2002689368DB0702D0EF
:100A200011E0022018BD936843F0010393602E4A41
:100A30002E4B1268B2FBF3F202EB420200E0521EB0
:100A40000092002AFBD102689368DB0742D0036C56
:100A500040F20164A34343F48073036453685B056D
:100A600005D5036C23F4005343F480530364036CF3
:100A7000DB0404D5436C23F00603436400E04164C7
:100A800080F83C101A496FF022031360496800682F
:100A9000CA06184906D0884224D1816811F0405F07
:100AA00013D01FE08842F8D0134A904203D1D1F806
:100AB0000423D206F1D0114A904213D1D1F8041385
:100AC00001F01F011029E8D30CE0816841F080415A
:100AD000816007E0016C41F010010164416C41F05C
:100AE00001014164002018BD1400002040420F00A5
:100AF000002301400020014000210140002201406C
:100B00002DE9F84FDFF8BCA10022012503264FF0A4
:100B10000F090AF1040BAAF1040E00BF0B6805FAD5
:100B200002F42340A34270D10F7907F00307012F8D
:100B300001D0022F16D187684FEA420806FA08FC56
:100B400027EA0C07D1F80CC00CFA08FC4CEA070C99
:100B5000C0F808C04768A7430C79C4F30014944058
:100B60003C4344600C79E443A4070AD0C4684FEACC
:100B7000420C06FA0CF7BC438F6807FA0CF72743C0
:100B8000C7600C7904F00304022C12D1D40800EBE6
:100B9000840CDCF820405707FF0E09FA07F824EA16
:100BA0000804D1F8108008FA07F848EA0408CCF8DD
:100BB000208004684FEA420C06FA0CF7BC430F7918
:100BC00007F0030707FA0CF7274307604C6814F493
:100BD000403F70D03C4C276847F48047276024682A
:100BE00022F0030704F480440094384C07EB040C13
:100BF000DCF8084897074FEA177809FA08F7BC436A
:100C0000334FB84202D1002724E054E0314FB842BC
:100C100001D101271EE0304FB84201D1022719E06F
:100C20002E4FB84201D1032714E02D4FB84201D115
:100C300004270FE02B4FB84201D105270AE02A4FC5
:100C4000B84201D1062705E0284FB84201D1072755
:100C500000E0082707FA08F72743CCF80878DAF805
:100C600000405746D1F804C09C435FEACC2C00D525
:100C70001C433C60DBF800405F46D1F804C09C4355
:100C80005FEA8C2C00D51C433C60DEF800407746C0
:100C9000D1F804C09C435FEA8C3C00D51C433C6007
:100CA000084F083F3C68D1F804C09C435FEACC3C45
:100CB00000D51C433C60521C102AFFF42FAFBDE846
:100CC000F88F0000083C01404438024000300140E9
:100CD000000002400004024000080240000C0240F4
:100CE000001002400014024000180240001C0240A4
:100CF0000AB1816170470904FBE700000148806880
:100D00007047000008000020024881680278114402
:100D100081607047080000200B4810B5016841F45D
:100D200000710160016841F480610160016841F473
:100D300080710160032000F061F80F2000F006F8D8
:100D400000F024F8002010BD003C024070B50D4DAD
:100D500004464FF47A712878B1FBF0F00A4909682B
:100D6000B1FBF0F000F0DCFA48B9102C07D20022F9
:100D70002146501E00F022F800206C6070BD01205A
:100D800070BD000008000020140000200A4808B5CB
:100D9000016841F480410160006800F480400090E7
:100DA0000548001F016841F080510160006800F0B3
:100DB0008050009008BD000044380240F0B40E4B53
:100DC0001B680C46C3F30223C3F10705042D00D9A9
:100DD0000425191D072901D2002300E0DB1E01268E
:100DE00006FA05F1491E214099409E40761E1640A4
:100DF0003143F0BC00F003BC0CED00E0064900F00C
:100E0000070208684FF6FF03184040EA0220034A31
:100E100010430860704700000CED00E00000FA0588
:100E20002DE9F0470E46050065D0DFF81481D8F8AB
:100E30000000F7B200F00700B04207D288F8007057
:100E4000D8F8000000F00700B04254D128683D4CAB
:100E5000810712D5400703D5206840F4E050206098
:100E60002878000703D5206840F46040206020689F
:100E7000A96820F0F000084320602878C0072DD032
:100E8000304968680839012812D0022813D0032895
:100E900011D00968890700292DDA216821F00301A2
:100EA00001432160FFF72AFF814641F2883A0EE0B4
:100EB00009688903EFE709688901ECE7FFF71EFF7E
:100EC000A0EB0901514502D90320BDE8F087206855
:100ED000696800F00C00B0EB810FEFD1D8F800107A
:100EE000404601F00701B14207D90770006800F0E1
:100EF0000700B04201D00120E7E72878400705D578
:100F00002068E96820F4E050084320602878000752
:100F100006D52068296920F4604040EAC1002060BD
:100F200000F018F82168084AC1F30311515CC84069
:100F30000649086006480068FFF708FF0020C4E77C
:100F4000003C024008380240081E0008140000203F
:100F50000C000020154810B5006810F00C02144871
:100F600013D04110042A0FD0082A0ED10F4C241F91
:100F70002268236802F03F025B0207D52068C0F3B5
:100F80008810A0FB010106E0084610BD2168C1F3EE
:100F90008811A1FB00010023FFF76AF92168C1F362
:100FA0000141491C4900B0FBF1F010BD0838024076
:100FB0000024F4002DE9F84F04006ED02078DFF80B
:100FC0004C93C007A9F104054AD009F10400016857
:100FD000C1F38101012908D00068C0F38100022813
:100FE0000AD1D9F80000400206D52868800337D519
:100FF00060680028E1D033E06068B0F5803F10D031
:10100000B0F5A02F286810D020F480302860286820
:1010100020F4802028606068A8B1FFF76FFE0646C4
:101020000DE0286840F48030F4E740F48020286028
:10103000F7E700BFFFF762FE801B642873D82868BB
:101040008003F7D50CE0FFF759FE064605E000BF28
:10105000FFF754FE801B6428F0D828688003F7D47B
:101060002078DFF8AC8280074FF0000A3ED5A74811
:10107000001D016811F00C0F08D00068C0F381005A
:1010800002280BD1D9F80000400207D42868800755
:1010900016D5E068012800D112E033E1E068B8B16C
:1010A0000120C8F80000FFF729FE064605E000BF52
:1010B000FFF724FE801B0228C0D828688007F7D5D8
:1010C0002868216920F0F80040EAC10028600DE09E
:1010D000C8F800A0FFF712FE064604E0FFF70EFE78
:1010E000801B02281FD828688007F7D420780007C3
:1010F00022D5864F87486169703771B1012101603F
:10110000FFF7FCFD064604E0FFF7F8FD801B022810
:1011100009D838688007F7D50EE0C0F800A0FFF7BF
:10112000EDFD064605E082E0FFF7E8FD801B0228A2
:101130007DD838688007F7D42078400768D5DFF875
:10114000CCB100270BF13C0BDBF80000C0000BD446
:10115000DBF8001041F08051CBF80010DBF8000004
:10116000012700F0805000906B4E3068C00510D40D
:10117000306840F480703060FFF7C0FD009005E0FB
:10118000FFF7BCFD0099401A022850D83068C0050E
:10119000F6D55E4EA0686C3601280FD00528306861
:1011A00010D020F001003060306820F00400306082
:1011B000A068B8B1FFF7A2FD00900FE0306840F0E2
:1011C0000100F4E740F004003060F7E7FFF796FD18
:1011D0000099411A41F28830814266D83068800710
:1011E000F4D50EE0FFF78AFD009007E0FFF786FDDB
:1011F0000099411A41F28830814256D83068800700
:10120000F4D42FB1DBF8001021F08051CBF800109E
:10121000A069C8B33D49091D0968C1F381010229CC
:101220004AD00228504607D0C8F8600000E03CE0F1
:10123000FFF764FD04463BE04746C8F86000FFF74F
:101240005DFD064605E000BFFFF758FD801B022844
:101250002BD828688001F7D4D4E907010843A16A94
:101260002E4A490802EB0141626A41EA82110843B1
:1012700094F82C1040EA0161C9F80010012038668A
:10128000FFF73CFD044606E03EE000BFFFF736FDF9
:10129000001B022809D828688001F7D534E000BF78
:1012A000FFF72CFD001B022802D90320BDE8F88FB0
:1012B00028688001F4D427E00128F7D0D9F800008D
:1012C000E26900F4800191421CD1226A00F03F01E2
:1012D000914217D147F6C071626A0140B1EB821F9B
:1012E00010D1A26A4FF0FF3300F4403103EB5202F9
:1012F000B1EB024F06D194F82C1000F07060B0EB07
:10130000016F01D00120D1E70020CFE7043802406F
:1013100000004742800E4742007000400000FFFF7F
:1013200010B5401EB0F1807F01D3012010BD4FF0F9
:10133000E02460610F21601700F061F90020A061D6
:1013400007202061002010BDFEE700007FB50024CB
:1013500015480094019402941249039401604FF4DB
:101360008031C0E9011401250461057680F8204030
:101370000E49C0E90A14C561C46080F83040456177
:10138000FFF78FFA08B1FFF7E1F90220CDE9000578
:10139000694602940448FFF7DBF9002801D0FFF703
:1013A000D5F97FBD002001402C0000200100000F76
:1013B00070B586B014216846FFF756F81648002528
:1013C000016841F080010160016801F08001059130
:1013D000016841F001010160016801F0010105911E
:1013E000016841F01001016000680C4E00F010002F
:1013F0004FF478540590002221463046FFF778FCE0
:101400000121CDE90041CDE9025169463046FFF79F
:1014100077FB06B070BD000030380240001002407B
:10142000FEE7FEE70246012000E05043491EFCD2E1
:101430007047000010B50E4C00224FF4007120469A
:10144000FFF756FC012291022046FFF751FC0122D2
:10145000D1022046FFF74CFC012211032046FFF782
:1014600047FC20460122BDE810405103FFF740BC75
:10147000001002402DE9F0470F4D002407464FF0C1
:1014800080084FF480696E1528FA04F23A40494604
:101490002846FFF72DFC012231462846FFF728FC9D
:1014A000002231462846FFF723FC641CE4B2082CD6
:1014B000EAD3BDE8F08700000010024010B50C46EA
:1014C00040F0B00000F00CF8102040EA141000F0DA
:1014D00007F804F00F00BDE8104000F001B800006C
:1014E00070B50C4D06464FF40054002221462846A4
:1014F000FFF7FEFB002261102846FFF7F9FB30469C
:10150000FFF7B8FF21462846BDE870400122FFF7EB
:10151000EFBB00000010024070B50C4D06464FF4C2
:101520000054002221462846FFF7E2FB0122110366
:101530002846FFF7DDFB3046FFF79CFF2146284693
:10154000BDE870400122FFF7D3BB0000001002404D
:1015500070477047FFF7D8BB30B593B0302168466D
:10156000FEF782FF14210CA8FEF77EFF1D48002520
:10157000016841F080510160006800F080501190D6
:101580001948016841F4804101600068022400F4B8
:101590008040119001200090000401908001CDE96D
:1015A000064008AA0420A82182E813000B90684690
:1015B000FFF700FD08B172B6FEE70CA90F2081E825
:1015C00031004FF4A0500F904FF48050109005213F
:1015D0000CA8FFF725FC002801D072B6FEE713B077
:1015E00030BD0000403802400070004002480168F1
:1015F00041F470010160704788ED00E0FEE70907E3
:10160000090E002804DB00F1E02080F80014704788
:1016100000F00F0000F1E02080F8141D704700007A
:101620002DED068BFFF778FBFFF796FFFFF7C0FE67
:10163000FFF78CFE00F081F82548FFF7E3F94FF043
:10164000FF312348FFF788F9224C9FED238B9FED54
:10165000249B9FED25AA6426012124A2084600F0C0
:1016600016F925A20121022000F011F91848FFF710
:1016700015F90546206000F0A7FA53EC182B00F08E
:101680004BF953EC192B00F0B7FA00F013F9606036
:1016900004232A460521022000F0D8F894ED010A1F
:1016A00060EE0A0ABDEEC00AFDEEE00A10EE102A56
:1016B00010EE900A90FBF6F106FB110310A11448FE
:1016C000FEF74EFE124A0121032000F0E0F8C3E7C6
:1016D0002C000020000000200000000000FEAF40B1
:1016E0006666666666660A400000C842414443205A
:1016F000746573743A0000004C44523A00000000D4
:10170000766F6C746167653A25642E25640000006D
:101710001800002070B5002400212046FFF7CEFEFF
:1017200000250020FFF7F8FE6D1CEDB2802DF8D3E8
:10173000641CE4B2082CEFD370BD10B5002000216A
:10174000491C6429FCD3401C6428F8D3FFF772FEBF
:10175000AE20FFF7C5FED520FFF7C2FE8020FFF7C1
:10176000BFFEA820FFF7BCFE3F20FFF7B9FED32045
:10177000FFF7B6FE0020FFF7B3FE4020FFF7B0FEF4
:10178000A120FFF7ADFEC820FFF7AAFEDA20FFF781
:10179000A7FE1220FFF7A4FE8120FFF7A1FECF20B5
:1017A000FFF79EFED920FFF79BFEF120FFF798FE82
:1017B000DB20FFF795FE3020FFF792FEA420FFF715
:1017C0008FFEA620FFF78CFE8D20FFF789FE1420E8
:1017D000FFF786FEAF20FFF783FEBDE81040FFF75E
:1017E00099BF00002DE9F0410746CE004000083EB9
:1017F000801E15464FF0FF38F1B2C0B2FFF75EFE13
:101800001148002400EB05152819A0F5805090F828
:10181000000EFFF781FE641CE4B2082CF4D308EB41
:101820004700F1B2C0B2FFF749FE00242819A0F525
:10183000805090F8080EFFF76FFE641CE4B2082C8D
:10184000F4D3BDE8F0810000181E00082DE9F04730
:1018500000241D461646884681460A2713E0291BA8
:101860000A20491EFFF7DEFDB6FBF0F0B0FBF7F1F2
:1018700007FB110208EB0400C1B248463032FFF703
:10188000B1FF641CE4B2AC42E9D3BDE8F0872DE9B6
:10189000F04115460E460746002406E03019C1B255
:1018A0003846FFF79FFF641CE4B22A5D002AF5D199
:1018B000BDE8F08121F00042A2F16052B2F5801F34
:1018C00001F0004328BFD2F17F6C0BD95FEA001C06
:1018D00043EAC20242EB507018BF704728BF20F0A5
:1018E00001007047B2F5801FBCBF184670474FEA31
:1018F000410C1CF5001F02D2084600F080BA70B5FA
:1019000000F024FA00000089FFF7F6BF4FF0004016
:10191000A0F58000704700002DE9C04130B4DFF829
:10192000A0C23CEA111418BF3CEA131400F0EC808A
:1019300081EA03051CEA111444EAD57418BF1CEAB5
:10194000131500F0C780A4EB05044FF0004545EAED
:10195000C12145EAC32341EA505143EA525304F1FD
:101960007F74994204F500344FEAC0204FEAC22246
:1019700008BF904200F09C804FEA13650FF24016BA
:10198000765D4FEA134506FB05F7C7F1807706FB46
:1019900007F74FEAD737A7FB03687642C8F58038C8
:1019A000A7FB06CE38BFA8F1010807FB08E64FF0F9
:1019B000000EA6FB028CE6FB03CEDCF1000CCEF1A0
:1019C000004E38BFAEF1010EA6FB0C584FF00007D9
:1019D0004FF00005E6FB0E87A1FB08C6A0FB07CE73
:1019E00016EB0E0645F10005E1FB076515F1E04E2B
:1019F0007EBFA4F580345FEA46066D4116F180078C
:101A000045F100054FEA17274FEA066647EA0567E2
:101A1000A6F1DE46B6F1805F4FEA15251FD938469C
:101A200024F0010C05EBC471BCF1FE6F01EB0C114D
:101A300002D8F0BCBDE8008124425CBF01F5801EE5
:101A40009EEAC47F02D4F0BCBDE80081244238D4B1
:101A5000F0BCA1F1C041BDE8004100F0C5B94FEABA
:101A6000D22242EA43524FEAD323A7FB02864FEA2F
:101A7000D02040EA415007FB03661EEA0E0F4FEAF2
:101A8000D12105FB026658BFA6EB0056B6EB005607
:101A90004FEA520E4EEAC37E18EB0E0E56EB530E73
:101AA000BDD518EB02085E417F1C55F10005B6E775
:101AB0004FF480154FF000074FF000064FF000087C
:101AC000ADE7F0BC4FF0000001F1C04101F0004172
:101AD000BDE8008111EA0C1F0CEA131500D00CE0E0
:101AE00013EA0C1F00F025804FF00000F0BC81EAE3
:101AF000030101F00041BDE80081F0BCBDE80041F8
:101B000081EA030100F070B9F0BCBDE8004170B596
:101B100000F01CF9097EFC3E00F007B881EA0301E1
:101B20004FF0000001F00041704781EA030100F02E
:101B30005BB9F0BCBDE800414FF00000214970479F
:101B4000FFFDFBF9F7F5F4F2F0EEEDEBE9E8E6E482
:101B5000E3E1E0DEDDDBDAD8D7D5D4D3D1D0CFCD09
:101B6000CCCBCAC8C7C6C5C4C2C1C0BFBEBDBCBB42
:101B7000BAB9B8B7B6B5B4B3B2B1B0AFAEADACAB3D
:101B8000AAA9A8A8A7A6A5A4A3A3A2A1A09F9F9E17
:101B90009D9C9C9B9A9999989797969595949393C9
:101BA000929191908F8F8E8E8D8C8C8B8B8A898960
:101BB00088888787868585848483838282818180E3
:101BC0000000FF070000F87F10F0004248BF4042CD
:101BD000B0FA80F310FA03F10AD0C3F11D0303F544
:101BE00080634FEA415002EB035202EBD121704770
:101BF0004FF0000070470000DFF848C170B51CEAE4
:101C0000111E1EBF1CEA13159EEA0C0F95EA0C0F5D
:101C100000F06F8081EA030423EA4C134EEAD47E7D
:101C200021EA4C1141F4801143F48013AE44A1FB2E
:101C3000024CA0FB0365AEF17F7E361955EB0C0517
:101C4000A1FB034C4CF10003A0FB021C16EB0C069D
:101C5000654153F10003094218BF46F0010613F431
:101C6000007F0BD14FEA03314FEA0530340341EADC
:101C7000155140EA16506FF003020AE04FEAC32103
:101C80004FEAC520F40241EA555140EA56506FF040
:101C9000020202EB2E4201EB025585EACE710AD018
:101CA0005FEA440C18BF24F0004450F1000041F1F9
:101CB000000120EAD47040F2FE7C624500D270BD83
:101CC000A84214BF4FF080444FF04044002E08BF9C
:101CD0000024BEF1806FA8BFA1F1C041BDE87040F3
:101CE00080F282804FF0000001F1C04101F000411C
:101CF00070479EEA0C0F0CEA131518BF95EA0C0FFB
:101D000006D04FF0000081EA030E0EF0004170BDD6
:101D100000F01CF88900013E00F007B800F009B897
:101D20004FEA430C5FEA5C5C08D081EA030100F0F3
:101D30005BB84FEA410C5FEA5C5CF6D14FF0000003
:101D4000014970470000FF070000F87F0EF1020E06
:101D50002EF0030E5EF8046B364205D4012A43EBE5
:101D6000030515F5001F12D8012841EB010C1CF5E5
:101D7000001F0CD80ED14FEAD17C15F5001F0CEBDB
:101D80004C0C0CF1020C08BF4CEBD37C04E04FF080
:101D9000080C01E04FEAD37C0CEB4C0526FA05F663
:101DA00006F00706B6F1040C06D20EEB860CBDE871
:101DB00070404CF0010C6047DFE80CF0090B0202A8
:101DC0004FF000414FF00000A1F5002170BD194611
:101DD0001046012851EB010418BFD4F5001484BF4C
:101DE000002001F0004170BD0808A0F500114FEA85
:101DF000310170474FF04070E1EE100A7047FF214B
:101E000041EAD050C005704700000000000000000B
:101E1000010203040607080900000000000000009A
:101E20000000000000000000000000F800000000BA
:101E3000000000333000000000100C06100C0600FB
:101E4000000000000000000040C07840C078400062
:101E5000043F04043F040400007088FC08300000C4
:101E6000001820FF211E0000F008F000E01800001C
:101E700000211C031E211E0000F0088870000000D5
:101E80001E2123241927211010160E000000000027
:101E90000000000000000000000000E01804020044
:101EA000000000071820400000020418E0000000B5
:101EB0000040201807000000404080F080404000B3
:101EC0000202010F01020200000000F00000000009
:101ED0000101011F010101000000000000000000DD
:101EE00080B0700000000000000000000000000052
:101EF00000010101010101010000000000000000DB
:101F00000030300000000000000000008060180475
:101F1000006018060100000000E010080810E00052
:101F2000000F102020100F00001010F8000000001B
:101F30000020203F20200000007008080888700062
:101F400000302824222130000030088888483000E2
:101F50000018202020110E000000C02010F8000002
:101F600000070424243F240000F80888880808009B
:101F70000019212020110E0000E0108888180000B0
:101F8000000F112020110E0000380808C838080082
:101F90000000003F00000000007088080888700002
:101FA000001C222121221C0000E010080810E00083
:101FB0000000312222110F00000000C0C00000000C
:101FC0000000003030000000000000800000000031
:101FD0000000806000000000000080402010080029
:101FE00000010204081020004040404040404000F2
:101FF00004040404040404000008102040800000CD
:102000000020100804020100007048080808F000D1
:102010000000003036010000C030C828E810E000A1
:102020000718272423140B000000C038E00000002C
:10203000203C23020227382008F888888870000096
:10204000203F202020110E00C0300808080838006A
:10205000071820202010080008F808080810E000E1
:10206000203F202020100F0008F88888E808100082
:10207000203F20202320180008F88888E808100056
:10208000203F200003000000C0300808083800008E
:1020900007182020221E020008F808000008F8088F
:1020A000203F210101213F20000808F80808000016
:1020B0000020203F2020000000000808F808080049
:1020C000C08080807F00000008F888C028180800C1
:1020D000203F20012638200008F8080000000000FA
:1020E000203F20202020300008F8F800F8F80800F1
:1020F000203F003F003F200008F830C00008F808EB
:10210000203F200007183F00E01008080810E000FA
:102110000F10202020100F0008F808080808F00011
:10212000203F210101010000E01008080810E00034
:102130000F18242438504F0008F8888888887000C9
:10214000203F2000030C3020007088080808380069
:102150000038202121221C00180808F8080818005F
:102160000000203F2000000008F808000008F808E0
:10217000001F202020201F000878880000C8380891
:10218000000007380E010000F80800F80008F80009
:10219000033C0700073C03000818688080681808A3
:1021A00020302C03032C30200838C800C838080021
:1021B0000000203F2000000010080808C838080070
:1021C0002038262120201800000000FE0202020014
:1021D0000000007F40404000000C30C000000000C4
:1021E000000000010638C00000020202FE000000EC
:1021F000004040407F000000000004020202040092
:1022000000000000000000000000000000000000CE
:1022100080808080808080800002020400000000B6
:1022200000000000000000000000808080800000AE
:102230000019242222223F2008F80080800000009C
:10224000003F112020110E0000000080808000005F
:10225000000E112020201100000000808088F8006E
:10226000000E112020103F200000808080800000A0
:10227000001F222222221300008080F08888881804
:102280000020203F2020000000008080808080000F
:10229000006B94949493600008F8008080800000A4
:1022A000203F210000203F2000809898000000007F
:1022B0000020203F202000000000008098980000AF
:1022C00000C08080807F000008F8000080808000CF
:1022D000203F24022D302000000808F800000000F4
:1022E0000020203F202000008080808080808000AF
:1022F000203F20003F20003F808000808080000041
:10230000203F210000203F200000808080800000CE
:10231000001F202020201F008080008080000000FF
:1023200080FFA12020110E0000000080808080002E
:10233000000E112020A0FF8080808000808080001F
:1023400020203F212000010000008080808080004C
:102350000033242424241900008080E080800000C1
:102360000000001F2020000080800000008080000E
:10237000001F202020103F2080808000008080806F
:1023800000010E30080601008080008000808080FF
:102390000F300C030C300F00008080008080800024
:1023A0000020312E0E31200080808000008080804F
:1023B00080818E70180601000080808080808000FF
:1023C0000021302C2221300000000000807C02021D
:1023D00000000000003F404000000000FF0000003F
:1023E00000000000FF0000000002027C80000000EE
:1023F0000040403F0000000000060101020204040A
:102400000000000000000000282400080000002058
:1024100018000000C4010008402400081800002033
:10242000C0060000E00100080000000000000000FD
:102430000100000010000000000000000024F40073
:040000050800018965
:00000001FF
