:020000040800F2
:100000007807002029020008071F0008DD1A0008F1
:10001000051F0008490500087F24000800000000B3
:100020000000000000000000000000003720000871
:100030004B050008000000003520000839200008AA
:10004000430200084302000843020008430200087C
:10005000430200084302000843020008430200086C
:10006000430200084302000843020008430200085C
:10007000430200084302000843020008430200084C
:10008000430200084302000843020008430200083C
:10009000430200084302000843020008430200082C
:1000A000430200084302000843020008430200081C
:1000B00043020008E1200008430200084302000850
:1000C00043020008430200084302000843020008FC
:1000D00043020008430200084302000843020008EC
:1000E00043020008430200084302000843020008DC
:1000F00043020008430200084302000843020008CC
:1001000043020008430200084302000843020008BB
:1001100043020008430200084302000843020008AB
:10012000430200084302000843020008430200089B
:10013000430200084302000843020008430200088B
:10014000430200084302000843020008430200087B
:10015000430200084302000843020008430200086B
:10016000430200084302000843020008430200085B
:100170004302000843020008430200080000000098
:10018000430200084302000800F002F800F03CF8C7
:100190000AA090E8000C82448344AAF10107DA45E2
:1001A00001D100F031F8AFF2090EBAE80F0013F0F8
:1001B000010F18BFFB1A43F0010318477431000008
:1001C00094310000103A24BF78C878C1FAD8520799
:1001D00024BF30C830C144BF04680C6070470000C1
:1001E0000023002400250026103A28BF78C1FBD840
:1001F000520728BF30C148BF0B6070471FB502F0DF
:1002000091FD1FBD10B510BD00F0CFF81146FFF7EE
:10021000F5FF02F0E9FA00F0EDF803B4FFF7F2FFA2
:1002200003BC00F0F5F80000094880470948004782
:10023000FEE7FEE7FEE7FEE7FEE7FEE7FEE7FEE796
:10024000FEE7FEE704480549054A064B70470000F3
:10025000D1200008890100087801002078070020DB
:10026000780300207803002053EA020C00F0698034
:100270002DE9F04B4FF00006002B1FBFB3FA83F5BA
:1002800003FA05F424FA05F65E4012BF1643B2FAEB
:1002900082F502FA05F4C5F120051EBF22FA05FC1D
:1002A00044EA0C04203556EA044C4FEA144418BFC3
:1002B000641C4FF000084FF00009904271EB030CF2
:1002C00039D3002919BFB1FA81F701FA07F6B0FA5C
:1002D00080F700FA07F6C7F120071EBF20FA07FCD7
:1002E00046EA0C062037B6FBF4FCA7EB0507103FE7
:1002F00007F01F0BCBF120060CFA0BFB2CFA06F6CD
:1003000044BFB3460026202FA4BF5E464FF0000B2B
:100310005BEA060C08BF4FF0010B19EB0B09ABFBB6
:10032000027C48EB0608C01B06FB02CC0BFB03CC8F
:1003300071EB0C01C1E70B46024641464846BDE859
:10034000F08B13B54FF000004FF00001AFF30080C9
:10035000BDE81C4070474FF0000200B513469446BC
:100360009646203922BFA0E80C50A0E80C50B1F10D
:100370002001BFF4F7AF090728BFA0E80C5048BF21
:100380000CC05DF804EB890028BF40F8042B08BFBF
:10039000704748BF20F8022B11F0804F18BF00F8BB
:1003A000012B7047704770477047754600F02CF876
:1003B000AE4605006946534620F00700854618B052
:1003C00020B5FFF73FFFBDE820404FF000064FF09B
:1003D00000074FF000084FF0000B21F00701AC467A
:1003E000ACE8C009ACE8C009ACE8C009ACE8C00999
:1003F0008D46704710B50446AFF300802046BDE837
:100400001040FFF70ABF00000048704718010020A5
:1004100001491820ABBEFEE726000200704700002D
:10042000464910B54A6822F440324A604A68436837
:100430001A434A6001684A6822F480724A6001687F
:100440004A68036942EA03224A6001684A6822F066
:1004500040724A6001684A6883681A434A600168CA
:100460008A6822F400628A6001688A68C3681A4355
:100470008A60816A6FF07062D14201688A6822F0F6
:1004800070628A6001688A680CD0836A1A438A6045
:1004900001688A6822F040528A6001688A68C36AEB
:1004A0001A4301E022F040528A6001688A6822F013
:1004B00002028A6001688A68037E42EA43028A6017
:1004C00090F82010002901684A680FD042F40062B9
:1004D0004A6001684A6822F460424A6001684A68DA
:1004E000174C436A04EB43331A4301E022F40062E1
:1004F0004A600168CA6A22F47002CA620168CA6A64
:10050000838B104C04EB03531A43CA6201688A6858
:1005100022F400728A6001688A6890F8303042EAFA
:1005200043228A6001688A6822F480628A600168D6
:100530008A68406942EA8020886010BD002301403B
:1005400000E0FFFF0000F0FFFEE7704772B6FEE735
:1005500078B50024009490F83C20012A19D001229B
:1005600080F83C200A6807230568092A13D9EE6839
:100570000A3A02EB420293409E43EE600B788A688F
:100580000A3B03EB43039A400368DD682A43DA60C1
:1005900010E0022078BD2E6902EB420293409E4398
:1005A0002E610B788A6803EB43039A4003681D6948
:1005B0002A431A614A681F23072A13D205686E6B03
:1005C000521E02EB820293409E436E630B790A88AF
:1005D0005B1E92B203EB83039A4003685D6B2A4370
:1005E0005A6327E005680D2A12D22E6BD21F02EB48
:1005F000820293409E432E630B790A88DB1F92B2DE
:1006000003EB83039A4003681D6B2A431A6311E0CE
:10061000EE6A0D3A02EB820293409E43EE620B7942
:100620000A880D3B92B203EB83039A400368DD6AAC
:100630002A43DA62164B0568144A9D4206D10D68BA
:10064000122D03D1556845F48005556005689D421B
:1006500018D10B68102B01D0112B13D1536843F420
:1006600000035360096810290CD10A490A4A096835
:10067000B1FBF2F101EB8101490000E0491E00915C
:100680000029FBD180F83C40002078BD00230140C8
:10069000002001402800002040420F000068C06C8C
:1006A000704770B504004FF0000503D0206C0026A1
:1006B00010B107E0012070BD204600F01DF866640F
:1006C00084F83C60206CC00610D4206C20F4885064
:1006D00040F0020020642046FFF7A2FE6664206C12
:1006E00020F0020040F00100206400E0012584F8C1
:1006F0003C60284670BD000010B586B00446142149
:100700006846FFF728FE1149206888421CD110482E
:100710000021026842F480720260006800F4807078
:1007200005900B481438026842F00102026000682C
:1007300000F001000590042000900320CDE90101A4
:100740006946044800F0EEF806B010BD00200140F4
:1007500044380240000002402DE9F04104460068A0
:100760000D4681684FF0000749050BD58068C0052C
:1007700008D5206C40F02000206484F83C700120F3
:10078000BDE8F08100F0D0F9064613E0681C11D0F6
:1007900025B100F0C9F9801BA8420BD92068006878
:1007A000800707D4206C40F00400206484F83C707B
:1007B0000320E5E7206800688007E7D521686FF02F
:1007C00012000860206C40F400702064206881688A
:1007D00011F0405F13D1217E89B9C16A11F4700F05
:1007E00002D0806840050AD4206C20F48070206418
:1007F000206CC00403D4206C40F001002064002071
:10080000BEE7000018B50021009190F83C20012AB5
:1008100007D0012280F83C2002689368DB0702D0F1
:1008200011E0022018BD936843F0010393602E4A43
:100830002E4B1268B2FBF3F202EB420200E0521EB2
:100840000092002AFBD102689368DB0742D0036C58
:1008500040F20164A34343F48073036453685B056F
:1008600005D5036C23F4005343F480530364036CF5
:10087000DB0404D5436C23F00603436400E04164C9
:1008800080F83C101A496FF0220313604968006831
:10089000CA06184906D0884224D1816811F0405F09
:1008A00013D01FE08842F8D0134A904203D1D1F808
:1008B0000423D206F1D0114A904213D1D1F8041387
:1008C00001F01F011029E8D30CE0816841F080415C
:1008D000816007E0016C41F010010164416C41F05E
:1008E00001014164002018BD2800002040420F0093
:1008F000002301400020014000210140002201406E
:1009000070B5044600F010F90546601C02D004489A
:100910000078044400F008F9401BA042FAD370BDEF
:100920001C0000202DE9F84FDFF8BCA100220125B2
:1009300003264FF00F090AF1040BAAF1040E00BFC1
:100940000B6805FA02F42340A34270D10F7907F037
:100950000307012F01D0022F16D187684FEA420802
:1009600006FA08FC27EA0C07D1F80CC00CFA08FCC0
:100970004CEA070CC0F808C04768A7430C79C4F3D9
:10098000001494403C4344600C79E443A4070AD02B
:10099000C4684FEA420C06FA0CF7BC438F6807FAAA
:1009A0000CF72743C7600C7904F00304022C12D122
:1009B000D40800EB840CDCF820405707FF0E09FA3E
:1009C00007F824EA0804D1F8108008FA07F848EA82
:1009D0000408CCF8208004684FEA420C06FA0CF7B1
:1009E000BC430F7907F0030707FA0CF727430760AA
:1009F0004C6814F4403F70D03C4C276847F4804763
:100A00002760246822F0030704F480440094384CE3
:100A100007EB040CDCF8084897074FEA177809FA47
:100A200008F7BC43334FB84202D1002724E054E01A
:100A3000314FB84201D101271EE0304FB84201D1F9
:100A4000022719E02E4FB84201D1032714E02D4FA1
:100A5000B84201D104270FE02B4FB84201D105273E
:100A60000AE02A4FB84201D1062705E0284FB842D4
:100A700001D1072700E0082707FA08F72743CCF839
:100A80000878DAF800405746D1F804C09C435FEA82
:100A9000CC2C00D51C433C60DBF800405F46D1F80D
:100AA00004C09C435FEA8C2C00D51C433C60DEF8FC
:100AB00000407746D1F804C09C435FEA8C3C00D5E7
:100AC0001C433C60084F083F3C68D1F804C09C437D
:100AD0005FEACC3C00D51C433C60521C102AFFF45A
:100AE0002FAFBDE8F88F0000083C014044380240B9
:100AF00000300140000002400004024000080240B3
:100B0000000C024000100240001402400018024095
:100B1000001C02400069084000D0012070470AB163
:100B2000816170470904FBE7014880687047000055
:100B30001C000020024881680278114481607047DF
:100B40001C0000200B4810B5016841F400710160E1
:100B5000016841F480610160016841F480710160C5
:100B6000032000F06FF80F2000F006F800F024F8E2
:100B7000002010BD003C024070B50D4D04464FF4FE
:100B80007A712878B1FBF0F00A490968B1FBF0F0FE
:100B900000F0EAFA48B9102C07D200222146501E74
:100BA00000F030F800206C6070BD012070BD0000C6
:100BB0001C000020280000200A4808B5016841F404
:100BC00080410160006800F4804000900548001FEB
:100BD000016841F080510160006800F08050009091
:100BE00008BD000044380240002809DB00F01F0265
:100BF000012191404009800000F1E020C0F800117F
:100C000070470000F0B40E4B1B680C46C3F3022380
:100C1000C3F10705042D00D90425191D072901D2A8
:100C2000002300E0DB1E012606FA05F1491E2140E3
:100C300099409E40761E16403143F0BC01F020BC26
:100C40000CED00E0064900F0070208684FF6FF03CC
:100C5000184040EA0220034A104308607047000031
:100C60000CED00E00000FA052DE9F0470E46050006
:100C700065D0DFF81481D8F80000F7B200F0070063
:100C8000B04207D288F80070D8F8000000F00700E2
:100C9000B04254D128683D4C810712D5400703D596
:100CA000206840F4E05020602878000703D52068D1
:100CB00040F4604020602068A96820F0F0000843FC
:100CC00020602878C0072DD030496868083901288D
:100CD00012D0022813D0032811D0096889070029EF
:100CE0002DDA216821F0030101432160FFF71CFF89
:100CF000814641F2883A0EE009688903EFE7096806
:100D00008901ECE7FFF710FFA0EB0901514502D97B
:100D10000320BDE8F0872068696800F00C00B0EBA4
:100D2000810FEFD1D8F80010404601F00701B14221
:100D300007D90770006800F00700B04201D0012019
:100D4000E7E72878400705D52068E96820F4E050F7
:100D5000084320602878000706D52068296920F418
:100D6000604040EAC100206000F018F82168084A9D
:100D7000C1F30311515CC840064908600648006889
:100D8000FFF7FAFE0020C4E7003C024008380240AA
:100D90002E2D00082800002020000020154810B546
:100DA000006810F00C02144813D04110042A0FD030
:100DB000082A0ED10F4C241F2268236802F03F023C
:100DC0005B0207D52068C0F38810A0FB010106E094
:100DD000084610BD2168C1F38811A1FB0001002362
:100DE000FFF742FA2168C1F30141491C4900B0FBF9
:100DF000F1F010BD083802400024F4002DE9F84F4E
:100E000004006ED02078DFF84C93C007A9F10405E8
:100E10004AD009F104000168C1F38101012908D019
:100E20000068C0F3810002280AD1D9F8000040020E
:100E300006D52868800337D560680028E1D033E004
:100E40006068B0F5803F10D0B0F5A02F286810D0B2
:100E500020F480302860286820F4802028606068B2
:100E6000A8B1FFF761FE06460DE0286840F4803027
:100E7000F4E740F480202860F7E700BFFFF754FE56
:100E8000801B642873D828688003F7D50CE0FFF72F
:100E90004BFE064605E000BFFFF746FE801B6428B8
:100EA000F0D828688003F7D42078DFF8AC82800778
:100EB0004FF0000A3ED5A748001D016811F00C0F45
:100EC00008D00068C0F3810002280BD1D9F80000D7
:100ED000400207D42868800716D5E068012800D1B1
:100EE00012E033E1E068B8B10120C8F80000FFF774
:100EF0001BFE064605E000BFFFF716FE801B02281A
:100F0000C0D828688007F7D52868216920F0F80044
:100F100040EAC10028600DE0C8F800A0FFF704FE19
:100F2000064604E0FFF700FE801B02281FD8286851
:100F30008007F7D42078000722D5864F874861695B
:100F4000703771B101210160FFF7EEFD064604E044
:100F5000FFF7EAFD801B022809D838688007F7D51B
:100F60000EE0C0F800A0FFF7DFFD064605E082E0D6
:100F7000FFF7DAFD801B02287DD838688007F7D498
:100F80002078400768D5DFF8CCB100270BF13C0B87
:100F9000DBF80000C0000BD4DBF8001041F08051FA
:100FA000CBF80010DBF80000012700F08050009023
:100FB0006B4E3068C00510D4306840F480703060EB
:100FC000FFF7B2FD009005E0FFF7AEFD0099401A73
:100FD000022850D83068C005F6D55E4EA0686C3641
:100FE00001280FD00528306810D020F001003060B3
:100FF000306820F004003060A068B8B1FFF794FDBD
:1010000000900FE0306840F00100F4E740F0040089
:101010003060F7E7FFF788FD0099411A41F2883008
:10102000814266D830688007F4D50EE0FFF77CFD7A
:10103000009007E0FFF778FD0099411A41F28830EF
:10104000814256D830688007F4D42FB1DBF8001005
:1010500021F08051CBF80010A069C8B33D49091DAB
:101060000968C1F3810102294AD00228504607D0FD
:10107000C8F8600000E03CE0FFF756FD04463BE0A6
:101080004746C8F86000FFF74FFD064605E000BF81
:10109000FFF74AFD801B02282BD828688001F7D46F
:1010A000D4E907010843A16A2E4A490802EB01412D
:1010B000626A41EA8211084394F82C1040EA016107
:1010C000C9F8001001203866FFF72EFD044606E03F
:1010D0003EE000BFFFF728FD001B022809D8286862
:1010E0008001F7D534E000BFFFF71EFD001B02288A
:1010F00002D90320BDE8F88F28688001F4D427E0E6
:101100000128F7D0D9F80000E26900F4800191428B
:101110001CD1226A00F03F01914217D147F6C071FD
:10112000626A0140B1EB821F10D1A26A4FF0FF3317
:1011300000F4403103EB5202B1EB024F06D194F8B8
:101140002C1000F07060B0EB016F01D00120D1E7EE
:101150000020CFE70438024000004742800E47429B
:10116000007000400000FFFF10B5401EB0F1807F0E
:1011700001D3012010BD4FF0E02460610F21601702
:1011800001F07EF90020A06107202061002010BD41
:101190007047704770B590F83C20012A32D0012486
:1011A00080F83C40022280F83D2003685A689D6820
:1011B00022F070060A6832435A60134B02689A4262
:1011C00014D0B2F1804F11D0104B9A420ED0104B78
:1011D0009A420BD00F4B9A4208D00F4B9A4205D03F
:1011E0000E4B9A4202D00E4B9A4204D1496825F028
:1011F00080031943916080F83D40002180F83C1045
:10120000084670BD022070BD00000140000400408F
:1012100000080040000C0040000401400040014074
:101220000018004010B5040003D094F83D0010B140
:1012300007E0012010BD002084F83C00204600F0AB
:101240001FF8022084F83D00211D206800F04EFFA9
:10125000012084F8460084F83E0084F83F0084F8BA
:10126000400084F8410084F8420084F8430084F888
:10127000440084F8450084F83D00002010BD0000C3
:1012800010B586B0044614216846FFF764F81D4B7C
:10129000226800211C489A4227D1026842F00202CB
:1012A0000260006800F002000590174810380268DC
:1012B00042F001020260006800F001000590802009
:1012C00000900220CDE901010121CDE9031069461A
:1012D0000E48FFF727FB002211461D20FFF792FC66
:1012E0001D20FFF781FC06B010BD09498A42FAD1E2
:1012F000016841F040010160006800F04000059085
:10130000F1E70000000400404038024000000240C5
:101310000018004090F83D10012901D001207047CD
:10132000022180F83D100168CA6842F00102CA60DB
:1013300000681149884214D0B0F1804F11D00F4994
:1013400088420ED00E4988420BD00E49884208D000
:101350000D49884205D00D49884202D00C49884287
:1013600004D1816801F00701062903D0016841F02A
:1013700001010160002070470000014000040040AE
:1013800000080040000C0040000401400040014003
:101390000018004070B5044690F83C000025012874
:1013A00017D0012684F83C60022084F83D002068B4
:1013B000826822F0770222F47F4282600868502817
:1013C00038D00DDC20284FD005DC90B3102811D187
:1013D0004AE0022070BD302846D040280AD13BE0C8
:1013E00060282FD070280DD0B0F5805F03D0B0F505
:1013F000005F12D0012584F83D60002084F83C0095
:10140000284670BDCB68D1E90121206800F0E3FED9
:101410002068816841F0770109E0CB68D1E90121BA
:10142000206800F0D8FE2068816841F48041816026
:10143000E1E719E0CA684968206800F0A1FF50217F
:10144000206806E0CA684968206800F0EBFF602168
:10145000206800F0CAFECEE7CA684968206800F03C
:101460008FFF40212068F4E7226801461046F0E72C
:10147000054A0168914206D1007F022803D1034941
:10148000034801F021B87047000400400401002027
:10149000740000202DE9F041054690F83C0000263C
:1014A0000C46012810D0012085F83C0072B1042AB6
:1014B0001CD0082A2CD00C2A50D00126002085F8F8
:1014C0003C003046BDE8F0810220FBE7D4E9001281
:1014D000E368286800F066FF2868816921F00C0144
:1014E000816128688169A26811430FE0D4E9001284
:1014F000E368286800F0A8FF2868816921F440614A
:10150000816128688169A26841EA02218161D5E789
:101510002868D4E9002C277B036A016A21F48071D2
:101520000162C16923F4206321F0030141EA0C0147
:1015300021F0F00C39074FF420674CEA116107EAFB
:1015400002221A43C16102622868C16921F00C01BC
:10155000C1612868C169A26811432BE02868D4E9F9
:101560000021E768036AD0F820C02CF4805CC0F842
:1015700020C0D0F81CC023F420432CF4407C4CEA5B
:10158000012121F4704C4FF6FF7101EA07314FF44D
:10159000204741EA0C0107EA02321A43C1610262A4
:1015A0002868C16921F44061C1612868C169A268E5
:1015B00041EA0221C16181E710B5040003D094F82B
:1015C0003D0010B107E0012010BD002084F83C0070
:1015D000204600F01EF8022084F83D00211D2068FE
:1015E00000F084FD012084F8460084F83E0084F871
:1015F0003F0084F8400084F8410084F8420084F8F9
:10160000430084F8440084F8450084F83D0000203D
:1016100010BD704730B50446002551B104290DD0E6
:10162000082910D094F8410094F84520012811D1E0
:101630000EE094F83E0094F84220F7E794F83F005B
:1016400094F84320F2E794F8400094F84420EDE742
:10165000012A01D0012030BD022059B1042912D045
:10166000082919D084F8410084F845000C2944D099
:10167000012540E084F83E0084F842002068C268FA
:1016800042F0020210E084F83F0084F84300206832
:10169000C26842F0040207E084F8400084F8440085
:1016A0002068C26842F00802C2600122206800F08F
:1016B00085FD14492068884214D0B0F1804F11D0C4
:1016C000114988420ED0114988420BD010498842F6
:1016D00008D01049884205D00F49884202D00F49EE
:1016E000884204D1816801F00701062903D001680E
:1016F00041F001010160284630BD2068C26842F017
:101700001002D1E700000140000400400008004042
:10171000000C00400004014000400140001800405F
:101720002DE9F04104460068C66805694FF00007DE
:10173000A90713D5B10711D5F91E01610120207742
:10174000206880698007204602D0FFF791FE04E000
:1017500000F0A8F8204600F03AF92777680716D578
:10176000700714D521686FF004000861022020770B
:101770002068806910F4407F204602D0FFF778FE91
:1017800004E000F08FF8204600F021F927772807C1
:1017900015D5300713D521686FF0080008610420C3
:1017A00020772068C0698007204602D0FFF760FEDE
:1017B00004E000F077F8204600F009F92777E80602
:1017C00016D5F00614D521686FF0100008610820C6
:1017D00020772068C06910F4407F204602D0FFF7D0
:1017E00047FE04E000F05EF8204600F0F0F82777AE
:1017F000E80708D0F00706D021686FF00100086103
:10180000204600F049F9280608D5300606D521689B
:101810006FF0800008612046FFF7BAFC680608D523
:10182000700606D521686FF040000861204600F080
:1018300054F9A8060AD5B00608D521686FF0200033
:1018400008612046BDE8F041FFF7A3BCBDE8F08188
:1018500010B586B0044614216846FEF77CFD0E499B
:101860002068884216D10D480021026842F0020229
:101870000260006800F0020005904FF440400090C4
:101880000220CDE901010920CDE903106946044891
:10189000FFF748F806B010BD00180040303802408D
:1018A00000040240704770B5044690F83C000026E2
:1018B0000D4601280FD0012084F83C006AB1042AAB
:1018C0001DD0082A2FD00C2A3FD00126002084F8F2
:1018D0003C00304670BD022070BD206800F08EFCD8
:1018E0002068816941F0080181612068816921F0E7
:1018F00004018161206881692A69114311E020682F
:1019000000F0ACFC2068816941F4006181612068CD
:10191000816921F480618161206881692A6941EAD5
:1019200002218161D2E7206800F0CEFC2068C16905
:1019300041F00801C1612068C16921F00401C16161
:101940002068C1692A69114311E0206800F0F0FCA9
:101950002068C16941F40061C1612068C16921F456
:101960008061C1612068C1692A6941EA0221C161BF
:10197000ACE710B5040003D094F83D0010B107E0C7
:10198000012010BD002084F83C00204600F01EF825
:10199000022084F83D00211D206800F0A7FB0120F3
:1019A00084F8460084F83E0084F83F0084F8400044
:1019B00084F8410084F8420084F8430084F844002D
:1019C00084F8450084F83D00002010BD7047704742
:1019D00010B50446022249B104290ED0082913D0BB
:1019E00094F84100012816D0012010BD94F83E0063
:1019F0000128F9D184F83E200FE094F83F00012837
:101A0000F2D184F83F2008E094F840000128EBD19F
:101A100084F8402001E084F841200122206800F091
:101A2000CDFB16492068164A884201D0904203D166
:101A3000436C43F4004343642068884213D0B0F100
:101A4000804F10D00F4988420DD00F4988420AD0EC
:101A50000E49884207D0904205D00D49884202D0F5
:101A60000C49884204D1816801F00701062903D09E
:101A7000016841F001010160002010BD000001403B
:101A8000000401400004004000080040000C004039
:101A9000004001400018004000680349884202D11C
:101AA000024800F07DBD70470004004004010020A2
:101AB0000246002041B1042909D008290AD00C2986
:101AC00001D11068006C70471068406B7047106857
:101AD000806B70471068C06B70477047FEE72DE958
:101AE000F0470746DDE9089A1D4690460E463B2022
:101AF00000F05BF804463C2000F057F840EA042070
:101B000038803D2000F051F804463E2000F04DF8AA
:101B100040EA042030803F2000F047F8044640208F
:101B200000F043F840EA0420A8F80000432000F049
:101B30003CF80446442000F038F840EA04202880AD
:101B4000452000F032F80446462000F02EF840EA26
:101B50000420A9F80000472000F027F80446482098
:101B600000F023F840EA0420AAF80000BDE8F0875E
:101B700010B500F026FD01216B2000F035F80021A2
:101B80006C2000F031F80921192000F02DF8062111
:101B90001A2000F029F818211B2000F025F8182140
:101BA000BDE810401C2000F01FB810B5044600F03E
:101BB00067FDD02000F050FD00F01AFD204600F037
:101BC0004BFD00F015FD00F05BFDD12000F044FD61
:101BD00000F00EFD00F01BFD0446012000F031FD79
:101BE00000F05DFD204610BD70B50D46044600F0C6
:101BF00047FDD02000F030FD00F0FAFC204600F058
:101C00002BFD00F0F5FC284600F026FD00F0F0FC6E
:101C1000BDE8704000F043BD7FB500241548009436
:101C2000019402941249039401604FF48031C0E999
:101C300001140461047680F820400F49C0E90A14B9
:101C40000125C561C46080F830404561FEF729FD7B
:101C500008B1FEF77BFC0220CDE90005694602943D
:101C60000448FEF775FC002801D0FEF76FFC7FBD2D
:101C7000002001402C0000200100000F2DE9F04F52
:101C800087B014216846FEF766FB4E4800250168C0
:101C900041F004010160016801F00401059101684F
:101CA00041F080010160016801F080010591016847
:101CB00041F001010160016801F001010591016835
:101CC00041F010010160016801F010010591016807
:101CD00041F002010160016801F002010591016813
:101CE00041F0080101600068DFF8DCA000F00800A6
:101CF0000590012230215046FEF711FF4FF4A866EF
:101D0000002231465046FEF70AFFDFF8C0B04FF41C
:101D10007857002239465846FEF701FF4FF4E04855
:101D2000002241462A48FEF7FAFE4FF4A07900222D
:101D300049462848FEF7F3FE002210212648FEF708
:101D4000EEFE3020009011200124CDE90104694607
:101D500050460394FEF7E6FD0096CDE9014569463D
:101D600050460394FEF7DEFD0097CDE90145694634
:101D700058460394FEF7D6FDCDF80080CDE9014525
:101D8000694613480394FEF7CDFDCDF80090CDE9E8
:101D9000014569460F480394FEF7C4FD10208DE805
:101DA000310069460C480394FEF7BCFD4FF4F07017
:101DB000CDE90005694602940748FEF7B3FD07B078
:101DC000BDE8F08F303802400000024000100240B1
:101DD000000C0240000802400004024010B58CB024
:101DE00000240794089409941C2168460A94FEF77D
:101DF000B2FA1D481B4901602921C0E90114632181
:101E0000C0E903148461FFF70DFA08B1FEF79EFBE9
:101E10004FF48050079007A91348FFF7BBFA08B1A9
:101E2000FEF794FB1048FFF7A4FD08B1FEF78EFB08
:101E30006020CDE900040294002269460A48049417
:101E4000FFF731FD08B1FEF781FB04226946064821
:101E5000FFF729FD08B1FEF779FB0348FFF7F8FC0F
:101E60000CB010BD00180040BC00002010B58AB0B6
:101E70000024234804940594069407940894099434
:101E80000094019402941D49039401605321C0E918
:101E900001144FF6FF71C0E9031480218161FFF73F
:101EA000C1F908B1FEF752FB4FF48050049004A929
:101EB0001348FFF76FFA08B1FEF748FB1048FFF729
:101EC0007BFB08B1FEF742FB089408A90C48099473
:101ED000FFF760F908B1FEF739FB0120CDE90040BA
:101EE00002940422694606480394FFF7D3FA0028B7
:101EF00001D0FEF72BFB0AB010BD0000000400402B
:101F000074000020FEE7FEE70246012000E0504397
:101F1000491EFCD27047000010B50E4C00224FF451
:101F200000712046FEF7FBFD012291022046FEF7DC
:101F3000F6FD0122D1022046FEF7F1FD0122110338
:101F40002046FEF7ECFD20460122BDE8104051037B
:101F5000FEF7E5BD001002402DE9F0470F4D0024CB
:101F600007464FF080084FF480696E1528FA04F296
:101F70003A4049462846FEF7D2FD0122314628461E
:101F8000FEF7CDFD002231462846FEF7C8FD641C51
:101F9000E4B2082CEAD3BDE8F0870000001002404C
:101FA00010B50C4640F0B00000F00CF8102040EAEC
:101FB000141000F007F804F00F00BDE8104000F026
:101FC00001B8000070B50C4D06464FF400540022D5
:101FD00021462846FEF7A3FD002261102846FEF7A1
:101FE0009EFD3046FFF7B8FF21462846BDE8704009
:101FF0000122FEF794BD00000010024070B50C4DA8
:1020000006464FF40054002221462846FEF787FD7D
:10201000012211032846FEF782FD3046FFF79CFFA0
:1020200021462846BDE870400122FEF778BD000039
:102030000010024070477047FEF77CBD30B593B08A
:1020400030216846FEF787F914210CA8FEF783F9C2
:102050001D480025016841F080510160006800F0D2
:10206000805011901948016841F480410160006876
:10207000022400F48040119001200090000401909F
:102080008001CDE9064008AA0420A82182E81300B7
:102090000B906846FEF7B2FE08B172B6FEE70CA9D7
:1020A0000F2081E831004FF4A0500F904FF4805082
:1020B000109005210CA8FEF7D7FD002801D072B6BC
:1020C000FEE713B030BD0000403802400070004011
:1020D0000248016841F470010160704788ED00E03A
:1020E0000148FFF71DBB000074000020F0B5026836
:1020F000274B284D284E294F294C4FF0804C9842B1
:1021000009D0604507D0A84205D0B04203D0B842FC
:1021100001D0A04204D122F0700E4A6842EA0E02B9
:1021200098421BD0604519D0A84217D0B04215D0B4
:10213000B84213D0A04211D01A4DA8420ED01A4D69
:10214000A8420BD0194DA84208D0194DA84205D07D
:10215000184DA84202D0184DA84203D122F4407570
:10216000CA682A434D6922F080022A438D68C562FD
:102170000D688562984201D0A04201D109690163CE
:10218000016841F004010160012141610260F0BD7C
:10219000000001400004004000080040000C004026
:1021A000000401400040014000440140004801405B
:1021B00000180040001C00400020004010B501F055
:1021C0001F030121046A99408C430462016A9A400A
:1021D0001143016210BD10B5846842EA032224F461
:1021E0007F440A432243826010BD826822F070025D
:1021F0000A4342F00701816070470000F0B5036AAE
:10220000026A22F00102026242688469124E24F0DE
:1022100073050C682C4323F002058B682B430D4D8E
:10222000A84201D0B04205D123F00807CB683B4358
:1022300023F00403A84201D0B04205D14D6922F435
:10224000407215438A692A43426084614968416348
:102250000362F0BD0000014000040140F0B5026AD5
:10226000036A23F010030362436884690D6824F451
:10227000E64444EA05248D6822F0200242EA051271
:102280000F4D104EA84201D0B04206D1CF6822F0C7
:10229000800242EA071222F04002A84201D0B04276
:1022A00007D14D6923F4406343EA85038D6943EA0E
:1022B000850343608461496881630262F0BD000068
:1022C0000000014000040140F0B5026A036A23F4F3
:1022D000807303624368C46922F4007224F07305BA
:1022E0000C68124E2C438D6842EA05220E4DA8421E
:1022F00001D0B04206D1CF6822F4006242EA072240
:1023000022F48062A84201D0B04207D14D6923F483
:10231000405343EA05138D6943EA05134360C461E2
:102320004968C1630262F0BD000001400004014041
:1023300030B5046A026A22F4805202624268C369BC
:102340000D6823F4E64343EA05238D6824F4005422
:1023500044EA0534084DA84202D0084DA84204D1F1
:102360004D6922F4804242EA85124260C3614968A5
:102370000164046230BD000000000140000401401F
:1023800010B5036A046A24F001040462846924F02D
:10239000F00444EA021423F00A020A438461026250
:1023A00010BD000070B5056A046A24F001040462DF
:1023B0008469154EB04214D0B0F1804F11D0134E45
:1023C000B0420ED0124EB0420BD0124EB04208D0E6
:1023D000114EB04205D0114EB04202D0104EB04264
:1023E00003D124F00304144301E044F001041A076C
:1023F00024F0F00444EA126225F00A0301F00A0115
:1024000019438261016270BD000001400004004078
:1024100000080040000C0040000401400040014062
:102420000018004010B5036A046A24F01004046226
:10243000846923F0A00324F4704444EA023243EA9E
:1024400001118261016210BD30B5046A056A25F090
:1024500010050562856925F4407545EA022222F4DB
:1024600070454FF6FF7202EA033224F0A0032A43BC
:10247000A02404EA011119438261016230BDFEE724
:102480000907090E002804DB00F1E02080F80014A1
:10249000704700F00F0000F1E02080F8141D704735
:1024A000002210210148FEF73ABB00000004024060
:1024B000012210210148FEF732BB00000004024057
:1024C00090ED040A7047000070B5054608780C4688
:1024D000002670B301282BD104212846FFF7E8FA23
:1024E000A0606188EA689FED1D1A01FB0200A060F0
:1024F0006168401A00EE100AE060F8EE400A80EED3
:10250000810ADFED170A20EE200AF6EE000A20EE1F
:10251000200ADFED140A20EE200A84ED040A26705A
:102520002868016A21F0A00101622868016A01623D
:1025300070BDFFE704212846FFF7BAFA0A49606038
:102540000868026A22F0A00202620868016A41F08B
:1025500020010162668001202070E9E700247449AF
:102560000000AE430000C8427400002038B50B4C98
:10257000012240212046FEF7D2FA00204FF452718A
:10258000009000BF00BF401C00908842F9D3204655
:10259000BDE8384000224021FEF7C1BA00000240E9
:1025A0004188491C41807047C0EBC00008B58000DD
:1025B00000210091814203D200BF00BF491CF8E70F
:1025C00008BD10B5012000F077F8BDE810400120EB
:1025D00000F080B810B520210448FEF79BFA0446AD
:1025E0000A20FFF7E1FF204610BD00000000024076
:1025F00010B5012000F06EF8012000F05DF8FFF743
:10260000E9FF0446002000F057F8204610BD70B5E1
:102610000025012000F05EF800248026012000F053
:102620004BF8FFF7D7FF012802D126FA04F0054343
:10263000002000F041F8641CE4B2082CEED32846D8
:1026400070BD10B500F046F8012000F035F8BDE887
:102650001040002000F030B870B5002405468026F8
:1026600026FA04F0284000F035F8012000F024F8A4
:10267000002000F021F8641CE4B2082CF0D370BDF7
:1026800010B5012000F026F8012000F015F8002018
:1026900000F020F8BDE81040002000F00DB810B5A3
:1026A000002000F017F8012000F006F8BDE8104007
:1026B000012000F00FB8000010B5024610210448B8
:1026C000FEF72DFABDE810400A20FFF76DBF0000AD
:1026D0000000024010B5024620210448FEF71FFA10
:1026E000BDE810400A20FFF75FBF00000000024075
:1026F00070B5284D002420212846FEF70BFA80B142
:1027000040212846FEF706FAC8B180212846FEF788
:1027100001FA10B3AE1531462846FEF7FBF950B367
:1027200036E01420FEF7ECF820212846FEF7F2F9F7
:102730000028F9D01420FEF7E3F8012428E0142043
:10274000FEF7DEF840212846FEF7E4F90028F9D02C
:102750001420FEF7D5F802241AE01420FEF7D0F872
:1027600080212846FEF7D6F90028F9D01420FEF77C
:10277000C7F803240CE01420FEF7C2F831462846BF
:10278000FEF7C8F90028F9D01420FEF7B9F80424A0
:10279000204670BD00040240012211030148FEF7EB
:1027A000BEB90000000C0240012291030148FEF76F
:1027B000B6B90000000C024000224FF480410148ED
:1027C000FEF7ADB9000C0240012251030148FEF7AB
:1027D000A6B90000000C024000224FF4005101484D
:1027E000FEF79DB9000C0240904C4FF000082DED13
:1027F000028B82B084F80080FEF7A4F9FFF71EFC7C
:10280000FFF73CFAFFF708FAFFF730FBFFF7E6FAAD
:1028100000F09FF9FFF7ACF9FFF7BEFF8448FEF721
:1028200079FD04218248FEF7F5FEFFF79FFE0021A7
:102830008048FFF7CDF804217E48FFF7C9F81E2035
:1028400000F028F96FF01D0000F04CF94FF0FF394F
:102850009FED798ADFED798A04F10C05AE1E784F81
:10286000FFF746FF012810D12078401CC0B220702D
:10287000022801D984F80080FFF71AFE6420FEF7D1
:102880003FF8FFF70DFE00F051F96E48FDF7BAFF73
:1028900049466C48FDF760FF6A48FDF7FFFE00EE11
:1028A000100A60616848F8EE400A80EE880A20EE5F
:1028B000280A84ED060AFFF703FE84ED040AFFF7F9
:1028C00055FE5A4BCDE9006508339A1E911E881EAD
:1028D000FFF705F994ED040A10EE100AB8424DDA3C
:1028E000B5EEC00AF1EE10FA48DDFFF775FFFFF70D
:1028F0005BFF56492069884202DAFFF7D9FD01E003
:10290000FFF7CEFD012152A2084600F0F8F9207829
:1029100098B3012857D00228A2D14FA20621012046
:1029200000F0EDF90523B4F902200121022000F0A6
:10293000BAF90523B4F904200121032000F0B3F90A
:102940000523B4F906200121042000F0ACF9052389
:10295000B4F908200821022000F0A5F90523B4F9F4
:102960000A200821032000F09EF90523B4F90C2069
:102970000821042000F097F972E704E0FFF724FF34
:10298000FFF71AFFBCE736A20621012000F0B7F9D5
:1029900036A20121022000F0B2F994ED040A0323CB
:1029A0000621BCEEC00A022010EE102A00F05AF9EF
:1029B00063220921022000F021F96D220A21022060
:1029C00000F01CF94CE72BA20621012000F097F93A
:1029D0002BA20121022000F092F9042305210220FC
:1029E000626900F03FF928A20121032000F087F975
:1029F000D4ED060A9FED260A0323062120EE800A65
:102A00001846BCEEC00A10EE102A00F02BF96D2219
:102A10000921032000F0F2F856220A21032000F0D9
:102A2000EDF83220FDF76CFF1AE7000000000020EF
:102A300074000020BC00002000F07F453333534079
:102A40000000A0412C0000200401002000002041D3
:102A50004D6F64653A0000004D50553630353000FA
:102A600044697374616E63650000000044697374A7
:102A70003A0000004C44522053656E736F720000A0
:102A80004144433A00000000566F6C743A00000065
:102A900000007A442DE9F041104D114E04004FF42E
:102AA00080714FF480670CD400222846FEF737F877
:102AB000012239462846FEF732F830684463BDE803
:102AC000F08101222846FEF72AF8002239462846DE
:102AD000FEF725F8316860424863F0E700000240E5
:102AE000BC00002070B50F4D0F4E04004FF48071F4
:102AF0000BD400222846FEF712F801224021284676
:102B0000FEF70DF83068846370BD01222846FEF799
:102B100006F8002240212846FEF701F8316860429D
:102B2000886370BD00080240BC00002070B500241E
:102B300000212046FFF734FA00250020FFF75EFA57
:102B40006D1CEDB2802DF8D3641CE4B2082CEFD3D9
:102B500070BD10B500200021491C6429FCD3401C25
:102B60006428F8D3FFF7D8F9AE20FFF72BFAD52069
:102B7000FFF728FA8020FFF725FAA820FFF722FAAE
:102B80003F20FFF71FFAD320FFF71CFA0020FFF7C2
:102B900019FA4020FFF716FAA120FFF713FAC82010
:102BA000FFF710FADA20FFF70DFA1220FFF70AFA02
:102BB0008120FFF707FACF20FFF704FAD920FFF7AB
:102BC00001FAF120FFF7FEF9DB20FFF7FBF93020D7
:102BD000FFF7F8F9A420FFF7F5F9A620FFF7F2F9BF
:102BE0008D20FFF7EFF91420FFF7ECF9AF20FFF786
:102BF000E9F9BDE81040FFF799BF00002DE9F04169
:102C00000746CE004000083E801E15464FF0FF38B4
:102C1000F1B2C0B2FFF7C4F91148002400EB05156A
:102C20002819A0F5805090F8000EFFF7E7F9641C12
:102C3000E4B2082CF4D308EB4700F1B2C0B2FFF7BE
:102C4000AFF900242819A0F5805090F8080EFFF77E
:102C5000D5F9641CE4B2082CF4D3BDE8F08100007F
:102C60003E2D00082DE9F04700241D4616468846F3
:102C700081460A2713E0291B0A20491EFFF744F961
:102C8000B6FBF0F0B0FBF7F107FB110208EB040014
:102C9000C1B248463032FFF7B1FF641CE4B2AC4227
:102CA000E9D3BDE8F0872DE9F0471E4614008846B9
:102CB000814604D42B22FFF7A1FF254603E02D22F5
:102CC000FFF79CFF654200240A2714E0311B0A200D
:102CD000491EFFF719F9B5FBF0F0B0FBF7F107FB60
:102CE000110208EB0400401CC1B248463032FFF725
:102CF00085FF641CE4B2B442E8D3BDE8F0872DE957
:102D0000F04115460E460746002406E03019C1B2D0
:102D10003846FFF773FF641CE4B22A5D002AF5D140
:102D2000BDE8F0814FF04070E1EE100A70470000FE
:102D3000000000000000010203040607080900006B
:102D40000000000000000000000000000000000083
:102D500000F8000000000000003330000000001008
:102D60000C06100C0600000000000000000040C02F
:102D70007840C0784000043F04043F040400007021
:102D800088FC08300000001820FF211E0000F00819
:102D9000F000E018000000211C031E211E0000F0BE
:102DA0000888700000001E21232419272110101606
:102DB0000E00000000000000000000000000000005
:102DC00000E0180402000000000718204000000284
:102DD0000418E000000000402018070000004040F8
:102DE00080F0804040000202010F0102020000005A
:102DF00000F0000000000101011F010101000000BE
:102E000000000000000080B0700000000000000022
:102E100000000000000000010101010101010000AB
:102E20000000000000000030300000000000000042
:102E3000000080601804006018060100000000E037
:102E400010080810E000000F102020100F000010E4
:102E500010F8000000000020203F2020000000703B
:102E60000808088870000030282422213000003033
:102E70000888884830000018202020110E0000002B
:102E8000C02010F8000000070424243F240000F8AC
:102E90000888880808000019212020110E0000E091
:102EA000108888180000000F112020110E00003833
:102EB0000808C83808000000003F0000000000704B
:102EC000880808887000001C222121221C0000E0D4
:102ED00010080810E0000000312222110F0000004D
:102EE00000C0C00000000000003030000000000002
:102EF0000080000000000000806000000000000072
:102F0000804020100800000102040810200040400A
:102F1000404040404000040404040404040000084D
:102F20001020408000000020100804020100007002
:102F300048080808F0000000003036010000C030EA
:102F4000C828E810E0000718272423140B0000000D
:102F5000C038E0000000203C23020227382008F897
:102F6000888888700000203F202020110E00C0308B
:102F7000080808083800071820202010080008F862
:102F800008080810E000203F202020100F0008F85B
:102F90008888E8081000203F20202320180008F827
:102FA0008888E8081000203F200003000000C0309F
:102FB00008080838000007182020221E020008F820
:102FC00008000008F808203F210101213F200008E7
:102FD00008F8080800000020203F20200000000022
:102FE0000808F8080800C08080807F00000008F80A
:102FF00088C028180800203F20012638200008F843
:10300000080000000000203F20202020300008F8A9
:10301000F800F8F80800203F003F003F200008F8C3
:1030200030C00008F808203F200007183F00E010DB
:1030300008080810E0000F10202020100F0008F8EA
:1030400008080808F000203F210101010000E010FD
:1030500008080810E0000F18242438504F0008F822
:10306000888888887000203F2000030C3020007082
:103070008808080838000038202121221C00180880
:1030800008F8080818000000203F2000000008F899
:1030900008000008F808001F202020201F000878E2
:1030A000880000C83808000007380E010000F80842
:1030B00000F80008F800033C0700073C030008186C
:1030C00068808068180820302C03032C30200838D2
:1030D000C800C83808000000203F20000000100889
:1030E0000808C838080020382621202018000000D1
:1030F00000FE020202000000007F40404000000C81
:1031000030C000000000000000010638C0000002CE
:103110000202FE000000004040407F00000000006E
:103120000402020204000000000000000000000091
:10313000000000000000808080808080808000028D
:103140000204000000000000000000000000000079
:103150008080808000000019242222223F2008F86D
:10316000008080000000003F112020110E000000B0
:10317000008080800000000E11202020110000003F
:1031800000808088F800000E112020103F200000F1
:10319000808080800000001F2222222213000080F5
:1031A00080F0888888180020203F20200000000040
:1031B000808080808000006B94949493600008F875
:1031C000008080800000203F210000203F20008000
:1031D0009898000000000020203F20200000000000
:1031E00000809898000000C08080807F000008F870
:1031F000000080808000203F24022D302000000845
:1032000008F8000000000020203F202000008080FF
:10321000808080808000203F20003F20003F808011
:10322000008080800000203F210000203F2000001F
:10323000808080800000001F202020201F008080D0
:1032400000808000000080FFA12020110E000000FF
:10325000008080808000000E112020A0FF808080F0
:1032600080008080800020203F212000010000009D
:103270008080808080000033242424241900008072
:1032800080E0808000000000001F2020000080807F
:10329000000000808000001F202020103F20808040
:1032A00080000080808000010E30080601008080D0
:1032B0000080008080800F300C030C300F000080F5
:1032C0008000808080000020312E0E312000808020
:1032D00080000080808080818E7018060100008050
:1032E0008080808080000021302C2221300000006E
:1032F0000000807C020200000000003F404000000F
:103300000000FF00000000000000FF0000000002BD
:10331000027C800000000040403F000000000006EA
:10332000010102020404000000000000000000008F
:1033300050330008000000202C000000C4010008E9
:103340007C3300082C0000204C070000E00100083E
:10335000000000000000000000000000000000006D
:10336000000000000000000000000000010000005C
:0C33700010000000000000000024F40029
:040000050800018965
:00000001FF
