:020000040800F2
:10000000800700205502000825270008B11F0008BE
:1000100021270008010400081D2B00080000000033
:100020000000000000000000000000000929000896
:100030000504000800000000052900080D2900083B
:100040006F0200086F0200086F0200086F020008CC
:100050006F0200086F0200086F0200086F020008BC
:100060006F0200086F0200086F0200086F020008AC
:100070006F0200086F0200086F0200086F0200089C
:100080006F0200086F0200086F0200086F0200088C
:100090006F0200086F0200086F0200086F0200087C
:1000A0006F0200086F0200086F0200086F0200086C
:1000B0006F020008CD2900086F0200086F020008D7
:1000C0006F0200086F0200086F0200086F0200084C
:1000D0006F0200086F0200086F0200086F0200083C
:1000E0006F0200086F0200086F0200086F0200082C
:1000F0006F0200086F0200086F0200086F0200081C
:100100006F0200086F0200086F0200086F0200080B
:100110006F0200086F0200086F0200086F020008FB
:100120006F0200086F0200086F0200086F020008EB
:100130006F0200086F0200086F0200086F020008DB
:100140006F0200086F0200086F0200086F020008CB
:100150006F0200086F0200086F0200086F020008BB
:100160006F0200086F0200086F0200086F020008AB
:100170006F0200086F0200086F0200080000000014
:100180006F0200086F02000800F002F800F052F859
:1001900014A696E8000CB244B344DA4501D100F04D
:1001A00049F8BAE80F000FA696E83000A5EB040561
:1001B00004EB0607AAEB0704A7F101074FEA1515A0
:1001C0004FEA3414A4F10104AC4201D300F032F838
:1001D00013F0010F18BFFB1A43F0010300F001F800
:1001E000DBE718475049000070490000103A24BF6F
:1001F00078C878C1FAD8520724BF30C830C144BF8C
:1002000004680C6070470000704700000023002461
:1002100000250026103A28BF78C1FBD8520728BF16
:1002200030C148BF0B6070471FB504F066F91FBDB1
:1002300010B510BD00F0A9F81146FFF7F5FF03F067
:1002400035FA00F0C7F803B4FFF7F2FF03BC00F083
:10025000CFF800000948804709480047FEE7FEE75D
:10026000FEE7FEE7FEE7FEE7FEE7FEE7FEE7FEE766
:1002700004480549054A064B70470000B9290008A3
:1002800089010008800100208007002080030020F1
:100290008003002053EA020C00F069802DE9F04B46
:1002A0004FF00006002B1FBFB3FA83F503FA05F4E5
:1002B00024FA05F65E4012BF1643B2FA82F502FA3E
:1002C00005F4C5F120051EBF22FA05FC44EA0C0422
:1002D000203556EA044C4FEA144418BF641C4FF012
:1002E00000084FF00009904271EB030C39D300294C
:1002F00019BFB1FA81F701FA07F6B0FA80F700FAF0
:1003000007F6C7F120071EBF20FA07FC46EA0C06D5
:100310002037B6FBF4FCA7EB0507103F07F01F0BD7
:10032000CBF120062CFA06F60CFA0BFB44BFB346C1
:100330000026202FA4BF5E464FF0000B5BEA060CA0
:1003400008BF4FF0010B19EB0B0948EB0608ABFB9C
:10035000027C06FB02CC0BFB03CCC01B71EB0C0137
:10036000C1E70B46024641464846BDE8F08B13B54F
:10037000084318BF4FF0FF300146AFF30080BDE8DF
:100380001C407047704770477047754600F02CF866
:10039000AE4605006946534620F00700854618B072
:1003A00020B5FFF765FFBDE820404FF000064FF095
:1003B00000074FF000084FF0000BAC46ACE8C00956
:1003C000ACE8C009ACE8C009ACE8C00921F00701FD
:1003D0008D46704710B50446AFF300802046BDE857
:1003E0001040FFF730BF00000048704710000020A9
:1003F00001491820ABBEFEE726000200704700004E
:10040000FEE700007047000072B600BFFEE7000084
:1004100070B581B00022009290F83C20012A03D1EF
:100420000221084601B070BD0E6801220A2E80F834
:100430003C2009D3B2B25200D0F800E012FA86F2A2
:100440001E3A0EF10C0305E0D0F800E006EB460280
:100450000EF110034FF0070C1D680CFA02F4A543CF
:100460001D608D681C6805FA02F222431A60496813
:1004700006290FD801EB81014A1F71461F2351F84D
:10048000345F934025EA03030B60B3B203FA02F230
:1004900014E000BF01EB81030C29B2B204D871460D
:1004A00051F8304F233B03E0714651F82C4F413B4C
:1004B0001F259D4024EA05059A400D600B6842F215
:1004C000043CC4F2010C1A43ACF541739E450A602A
:1004D0003BD1122E06D1DCF8001041F48001CCF89B
:1004E000001032E026F0010110292ED1DCF80010B6
:1004F000102E41F40001CCF8001026D140F2080182
:10050000C2F2000109684DF68362C4F21B32A1FBFE
:100510000212910C01EB8101490000910099A1B1F7
:10052000009901390091009979B100990139009140
:10053000009951B1009901390091009929B10099B0
:100540000139009100990029EAD1002180F83C107E
:10055000084601B070BD00000068C06C7047000024
:10056000002804BF0120704710B50446006C002825
:100570003ED0206CC00645D4206C41F20211884365
:10058000023042F204312064C4F20101086820F410
:10059000403008600A6894E809101A43D4F810E063
:1005A0000A604168012321F4807141604168C0F60E
:1005B000007341EA0E214160416821F040714160C1
:1005C000416841EA0C014160816821F40061816069
:1005D000E168826811438160A16A8268994222F0D1
:1005E00070628260826813D122F0405119E000BF2E
:1005F000204600F065F80020606484F83C00206C20
:10060000C006B9D50120002184F83C1010BD00BF00
:1006100011438160816821F040518160E16A826804
:1006200011438160816821F0020181608168227E2E
:1006300094F8203041EA42018160416883B141F47D
:100640000061416041684EF2000221F46041416066
:10065000616ACFF6FF72436802EB4131194301E052
:1006600021F400614160C16A40F2000C21F4700184
:10067000C162E2696169CFF6F07CC36A0CEB025299
:100680001A43C262826822F40072826094F83020B9
:10069000836843EA42228260826822F48062826038
:1006A000826842EA8121816000206064216C01221D
:1006B00062F301012164002184F83C1010BD0000A8
:1006C00080B586B042F200010068C4F20101002248
:1006D00088420592049201D006B080BD43F63000F6
:1006E0000092C4F20200436943F48073436143699A
:1006F00003F480730093009B0092036843F00103AE
:100700000360006800F00100009000980420019050
:100710000320CDE9020201F5604001A900F044F98F
:1007200006B080BD70B5044600680D46826852056B
:1007300044BF80685FEAC05038D400F011FA2168E5
:100740000A68920749D40646681C3CD0DDB908689F
:10075000800721D5086880073FD4086880071BD52B
:100760000868800739D40868800715D508688007AD
:1007700033D4086880070FD508688007E7D52CE0D8
:100780000868800729D400F0EBF9801B2168A84293
:10079000F6D908688007F3D4206C40F00400206488
:1007A000002084F83C00032070BD00BF206C40F0A6
:1007B00020002064002084F83C00012070BD00BFB0
:1007C0000868800709D40868800706D4086880078D
:1007D0005CBF08685FEA8070F2D56FF012000860B5
:1007E000206C40F400702064886810F0405F01D0F5
:1007F000002070BD207E0028FAD1C86A10F4700F66
:1008000002D088684005F3D4206C20F48070206406
:10081000206CC004ECD4206C40F001002064002067
:1008200070BD000010B581B00021009190F83C101F
:10083000012903D1022001B010BD00BF04680121CD
:1008400080F83C10214651F8083FDB0729D10B689E
:100850004DF6836243F001030B6040F20803C2F2DD
:1008600000031B68C4F21B32A3FB02239A0C02EBA9
:1008700042020092009AA2B1009A013A0092009AB4
:100880007AB1009A013A0092009A52B1009A013A64
:100890000092009A2AB1009A013A0092009A002A26
:1008A000EAD10A68036CD2070CD143F0100101644D
:1008B00000F1440101200A6810430860002001B0E3
:1008C00010BD00BF40F2017223EA020202F58072FD
:1008D00002646268520504D5026C012363F30D3291
:1008E0000264026C4FF0000E0023D20444BF426C3D
:1008F00022F0060342F2043C436480F83CE06FF0CF
:100900002200C4F2010C2060DCF80000C0060DD00B
:10091000ACF5417084422BD14FF60450CFF6FF70F6
:100920005CF8000010F0405F22D125E042F20000A8
:10093000C4F20100844217D042F20020C4F2010048
:1009400084420DD042F20010C4F2010084420FD163
:10095000DCF80000C00607D0ACF58270844207D1F5
:10096000DCF80000C00603D4086810F0405F03D034
:10097000002001B010BD00BF4FF080409BE7000099
:10098000B0B5044600F0ECF8054640F20000C2F2B3
:1009900000000078611C18BF044400BF00F0E0F8BC
:1009A000401BA042FAD3B0BD2DE9F04F82B000F158
:1009B0003E4707F1FF77860546EA972741F600464E
:1009C000C4F20206082243F6004EB04208BF0722D6
:1009D000C4F2010E072F38BF3A46002600274FF019
:1009E0000008009209E000BF08F101080237B8F1E1
:1009F000100F06F1040600F0A3800D68012202FA30
:100A000008F415EA0409EFD0D1F804B003220BF082
:100A1000030CACF10105BA40012D6FEA020A0FD8B0
:100A20008268CD6802EA0A02BD402A4382604268B9
:100A3000A243CBF3001404FA08F42243426005E019
:100A4000BCF1030F02D14FF0030C1EE0C2688C68AA
:100A500002EA0A02BC402243BCF1020FC26014D178
:100A60006FF0030202EA58020244D2F820C006F0F6
:100A70001C040F230D69A3402CEA0303A5402B435C
:100A80001362D1F804B00BF0030C02680CFA07F300
:100A900002EA0A021A431BF4403F0260A4D000227B
:100AA00043F644030192C4F202031A684FF6084C5D
:100AB00042F480421A601A68CFF6FF7C02F480424A
:100AC0000192019A28F00302724452F80C3006F0A9
:100AD0000C050F24AC40A343009C04FA05F52B43FE
:100AE00042F80C30DEF808204B6842EA090543F66C
:100AF0000C4CDC0258BF22EA0905CEF80850C4F2BB
:100B0000010CDCF800209C0242EA090558BF22EAE9
:100B10000905CCF80050DEF804209C0342EA0905E0
:100B200058BF22EA0905CEF80450DEF80020DB03A6
:100B300042EA090558BF22EA0905CEF8005053E7FA
:100B400002B0BDE8F08F00000069084018BF012026
:100B500070470000002A08BF090481617047000047
:100B600040F27810C2F200000068704740F20000C6
:100B700040F27811C2F20000C2F2000100780A6867
:100B8000104408607047000080B543F60040C4F28E
:100B90000200016841F400710160016841F4806164
:100BA0000160016841F480710160032000F086F863
:100BB0000F2000F005F800F027F8002080BD0000AD
:100BC00070B540F20006C2F2000640F20801327829
:100BD000C2F200014FF47A730968B3FBF2F20446E3
:100BE000B1FBF2F1084600F039FB0F2C4FF0010584
:100BF00008D838B94FF0FF3021460022002500F018
:100C000031F87460284670BD82B0002043F6400180
:100C10000190C4F202014A6842F480424A604A6884
:100C200002F480420192019A0090086840F08050DE
:100C30000860086800F080500090009802B070478B
:100C4000002848BF704700F01F01012202FA01F19D
:100C50001C2202EAD0004EF20012CEF200028150B5
:100C60007047000010B54EF60C5CCEF2000CDCF8BC
:100C70000030C3F3022E8EF00704042C28BF042496
:100C8000BEF103034FF0FF3E0EFA04F438BF002319
:100C9000A14399400EFA03F39A43114300F00F0267
:100CA00000F160430901043A03F5644362440028FB
:100CB00048BF02F10C03197010BD00004EF60C5134
:100CC000CEF200010A684FF6FF031A4060F30A22D1
:100CD00042F0806040F0FD7008607047002804BF5B
:100CE000012070472DE9F04143F60808C4F20208DC
:100CF0000446D8F8F8030D4600F00700884207D2F2
:100D000088F8F853D8F8F80300F00700A84277D124
:100D10002068810717D5410705D5D8F8001041F4A0
:100D2000E051C8F80010010705D5D8F8001041F4CB
:100D30006041C8F80010D8F80010A26821F0F00156
:100D40001143C8F80010C00740D1D8F8F80300F0EC
:100D50000700A84207D988F8F853D8F8F80300F03C
:100D60000700A8424CD12068410707D5D8F80010E9
:100D7000E26821F4E0511143C8F80010000708D5DB
:100D8000D8F80000216920F4604040EAC100C8F8AA
:100D9000000000F055F8D8F8001044F21452C1F3E6
:100DA0000311C0F60002515C40F2080220FA01F182
:100DB00040F20400C2F200000068C2F200021160BA
:100DC000FFF7FEFE0020BDE8F08100BF6068811ED5
:100DD000022907D258F8081C89015CBF0120BDE830
:100DE000F08111E0012807D158F8081C89035CBF85
:100DF0000120BDE8F08107E058F8081C890703D4FA
:100E00000120BDE8F08100BFD8F8001021F00301F7
:100E10000843C8F80000FFF7A3FE064641F28837F2
:100E2000D8F80000616800F00C00B0EB810F8CD0A6
:100E3000FFF796FE801BB842F2D90320BDE8F0818F
:100E400010B543F60404C4F20204606800F00C011B
:100E500042F200400829C0F2F40007D0042918BF6C
:100E600010BD41F20020C0F27A0010BD216801F0EF
:100E70003F02216823684902C3F3881106D4A1FB0D
:100E800000010023FFF706FA07E000BF41F200204F
:100E9000C0F27A004843B0FBF2F021680222C1F3AD
:100EA000014102EB4101B0FBF1F010BD002804BF8D
:100EB000012070472DE9F04182B00446007843F6E6
:100EC0000006C007C4F202060CD0B06800F00C00A7
:100ED000042840F081803068800303D560680028D2
:100EE00000F06A81207880071BD5B06810F00C0FE5
:100EF00009D0B06800F00C00082840F087807068C6
:100F0000400200F183803068800703D5E068012843
:100F100040F052813068216920F0F80040EAC100B9
:100F200030602078000713D4207840072AD4A569C0
:100F3000002D00F03C81B06800F00C00082840F063
:100F4000A180012D40F01081012002B0BDE8F081A8
:100F50006069002840F20000C4F2472000F07E8063
:100F60000121C0F8801EFFF7FBFD0546706F80076A
:100F7000DAD4FFF7F5FD401B0228F7D9032002B0B1
:100F8000BDE8F081306C5FEAC0080AD4002001900F
:100F9000306C40F080503064306C00F08050019034
:100FA000019847F20007C4F200073868C00547D42B
:100FB000386840F480703860FFF7D2FD054600BF06
:100FC0003868C0053CD4FFF7CBFD401B0228F7D999
:100FD000032002B0BDE8F081B06800F00C000828E2
:100FE00003D1706840023FF576AF6068B0F5803F8E
:100FF00007D0B0F5A02F40F09B80306840F48020EF
:101000003060306840F4803030609BE0E068002859
:101010005CD00020C4F2472001210160FFF7A0FD51
:10102000054600BF306880073FF574AFFFF798FDB5
:10103000401B0228F6D9032002B0BDE8F08100BFB2
:10104000A068012805D0052854D1306F40F0040075
:101050003067306F40F00100306755E00021C0F884
:10106000801EFFF77DFD0546706F80077FF55CAF42
:10107000FFF776FD401B0228F6D9032002B0BDE839
:10108000F08100BF0027C4F2472700203866FFF731
:1010900067FD022D05460DD13068800140F190803A
:1010A000FFF75EFD401B02284FF00300F4D902B0A9
:1010B000BDE8F0813068800179D5FFF751FD401B14
:1010C00002284FF00300F5D9F1E700BF0020C4F279
:1010D000472000210160FFF743FD05463068800787
:1010E0007FF51FAFFFF73CFD401B02284FF00300C8
:1010F000F4D9DCE7316F002821F001013167316F4D
:1011000021F0040131677DD0FFF72AFD054641F249
:10111000883700BF306F800700F18680FFF720FD21
:10112000401BB842F6D9032002B0BDE8F08100BFF1
:101130003168002821F480313160316821F4802148
:1011400031607BD0FFF70CFD054600BF306880039F
:101150003FF5C8AEFFF704FD401B6428F6D9032015
:1011600002B0BDE8F08100BF7068E16900F4800260
:101170008A4221D1216A00F03F028A421CD147F6FF
:10118000C071626A0140B1EB821F15D1A16A4FF6AE
:10119000FF73C903994300F44032A1F580318A42BC
:1011A0000AD1E16A00F07060B0EB016F04D1002059
:1011B00002B0BDE8F08100BF012002B0BDE8F081BF
:1011C00004F11C052FCD084340EA8210D9034FF6E5
:1011D000FF729143A1F5803140EA056008437060D9
:1011E00001203866FFF7BCFC044600BF3068800170
:1011F000DDD4FFF7B5FC001B02284FF00300F5D942
:1012000055E700BFFFF7ACFC054641F2883700BF49
:10121000306F800708D5FFF7A3FC401BB8424FF0A2
:101220000300F5D943E700BFB8F1000F3FF57FAEEB
:10123000306C20F08050306479E600BFFFF790FCFE
:10124000054600BF306880037FF54CAEFFF788FC91
:10125000401B64284FF00300F4D928E7411E00200A
:10126000B0EB116F1CBF012070474EF21002CEF29E
:10127000000251604EF62351CEF20001F0230B70B4
:1012800007219060116070477047000070470000B0
:1012900090F83C20012A4FF0020254D010B580F89B
:1012A0003D200268D2F804E0D2F808C00C682EF0A5
:1012B0007003234341F2FF74C4F20004A24253605E
:1012C0000EDC40F2FF73C4F200039A4216DCB2F166
:1012D000804F2BD040F20043C4F2000324E000BF53
:1012E00040F2FF33C4F201039A4213DC41F60003DB
:1012F000C4F200039A4219D0002313E040F6000321
:10130000C4F200039A4211D040F60043C4F2000335
:101310000AE000BF44F20003C4F201039A4205D080
:1013200040F20043C4F201039A4204D149682CF010
:101330008003194391600121002280F83D1080F85C
:101340003C20BDE81040104670470000002804BF54
:101350000120704710B5044690F83D0028B90020E0
:1013600084F83C00204600F01FF8022084F83D007D
:101370002068211D01F030FB012084F8460084F82C
:101380003E0084F83F0084F8400084F8410084F86F
:10139000420084F8430084F8440084F8450084F84F
:1013A0003D00002010BD000080B586B0006841F609
:1013B0000001C4F2000188423AD040F20041C4F278
:1013C0000001884243D1002043F640010190C4F25D
:1013D00002010A6842F002020A600A6802F0020290
:1013E0000192019A019051F8102C42F0010241F84B
:1013F000102C51F8101C01F001010191019980217C
:1014000001910221CDE902100120CDE90401002063
:10141000C4F2020001A9FFF7C7FA1D200021002233
:10142000FFF720FC1D20FFF70BFC06B080BD00BFBE
:101430000020019043F64000C4F20200016841F030
:1014400040010160006800F040000190019806B082
:1014500080BD000090F83D1001291CBF012070479D
:10146000022180F83D10006841F2FF72C168C4F2A9
:101470000002904241F00101C1600DDC40F2FF71B9
:10148000C4F20001884215DCB0F1804F2AD040F24E
:101490000041C4F2000123E040F2FF31C4F2010137
:1014A000884213DC41F60001C4F20001884219D0E1
:1014B000002113E040F60001C4F20001884211D07F
:1014C00040F60041C4F200010AE000BF44F200010E
:1014D000C4F20101884205D040F20041C4F201018A
:1014E000884206D1816801F00701062904BF002067
:1014F0007047016841F00101016000207047000061
:1015000090F83C20012A4FF0020200F0C58080B51F
:1015100080F83D20D0F800C04FF67772DCF8083034
:1015200023EA0202CCF808200B684F2B28DC1F2B83
:1015300044DD202B45D0302B43D0402B40F0AE80F3
:10154000D1F804E0C968DCF82030DCF8202022F073
:101550000102CCF82020DCF8182022F0F00242EA48
:10156000011123F00A0242EA0E02CCF81810CCF85E
:101570002020DCF8081041F0470121F0300180E024
:101580006F2B27DDB3F5005F48D0B3F5805F7AD0CD
:10159000702B40F08380D1E901E3C968DCF80820B2
:1015A00043EA0E0322F47F4243EA01211143CCF8BF
:1015B0000810DCF8081041F0770162E00BB1102B45
:1015C0006CD1DCF8081021F07001194341F00701DB
:1015D00057E000BF502B35D0602B5FD1D1F804E02D
:1015E000C968DCF82030DCF8202022F01002CCF8AA
:1015F0002020DCF8182022F4704242EA013123F066
:10160000A00242EA0E12CCF81810CCF82020DCF828
:10161000081041F0670121F0100132E0D1E901E347
:10162000C968DCF8082043EA0E0322F47F4243EA4B
:1016300001211143CCF80810DCF8081041F4804176
:101640001FE000BFD1F804E0C968DCF82030DCF806
:10165000202022F00102CCF82020DCF8182022F013
:10166000F00242EA011123F00A0242EA0E02CCF82B
:101670001810CCF82020DCF8081041F0570121F0B8
:101680002001CCF808100022012180F83D10002133
:1016900080F83C10BDE88040104670470122F3E717
:1016A000016840F20042C4F20002914218BF704744
:1016B000007F02280AD140F2301040F28C01C2F2C1
:1016C0000000C2F2000101F03FBA00BF7047000005
:1016D00090F83C30012B04BF022070474FEAB20261
:1016E000032A29D8F0B5DFE802F0032D4B6B00BFC9
:1016F0000368D1E900C5D1F80CE01C6A1A6A41F20E
:10170000FF7722F001021A621A4652F8186FC4F2EB
:101710000007BB427ADC40F2FF77C4F20007BB420D
:1017200000F38280B3F1804F00F0968040F20047D2
:10173000C4F200078EE000BF0121002280F83C20A7
:10174000084670470368D1E900E6D1E902C11C6A86
:101750001A6A360222F010021A621A4652F8185F0C
:101760004FF2FF07BE4325F4734561F30F3624F0B3
:10177000A0040EF00A0746EA050144EA07173CE018
:101780000768D1E900C5D1E902313C6A3A6A61F3E0
:10179000071522F480723A623A4652F81C6F26F01E
:1017A000F30645EA060124F420660CF00A0546EA31
:1017B000052611603E62116821F00C0111605CE0A9
:1017C0000368D1E900E6D1E902C11C6A1A6A36024F
:1017D00022F480521A621A4652F81C5F4FF2FF0739
:1017E000BE4325F4734561F30F3624F420440EF014
:1017F0000A0746EA050144EA073711601F621168CB
:101800004FEA0C2321F44061116036E040F2FF37CB
:10181000C4F20107BB4213DC41F60007C4F2000723
:10182000BB4219D0002713E040F60007C4F20007BE
:10183000BB4211D040F60047C4F200070AE000BFE7
:1018400044F20007C4F20107BB4205D040F2004752
:10185000C4F20107BB421BD126F00306354324F036
:101860000A070CF00A066EF3071537449D611F62E4
:101870009F6927F00C079F618B68116819431160FD
:101880000021BDE8F040002280F83C200846704767
:1018900046F00105E3E70000002804BF012070477F
:1018A00010B5044690F83D0028B9002084F83C00AB
:1018B000204600F01FF8022084F83D002068211D1A
:1018C00001F08AF8012084F8460084F83E0084F88C
:1018D0003F0084F8400084F8410084F8420084F816
:1018E000430084F8440084F8450084F83D0000205B
:1018F00010BD00007047000061B1082916D004290E
:1019000019BF00F1410200F1450300F13F0200F16F
:1019100043030FE090F83E2090F84230012A4FF048
:10192000010208BF012B1DD01046704700F1400294
:1019300000F1440312781B78012A4FF0010208BF1E
:10194000012BF1D10222082918D0042922D180F8D4
:101950003F2080F843204FEAB103032B4FF00102F0
:10196000E2D821E0022280F83E2080F842204FEAAF
:10197000B103032B4FF00102D6D815E080F84020C8
:1019800080F844204FEAB103032B4FF00102CBD87B
:101990000AE000BF80F8412080F845204FEAB103FB
:1019A000032B4FF00102BFD844F6143C0068C0F688
:1019B000000C5CF823C0C36801F01F0143EA0C036C
:1019C000C360036A02FA01F123EA01020262026AB9
:1019D000114341F2FF72C4F20002904201620DDC39
:1019E00040F2FF71C4F20001884215DCB0F1804F73
:1019F0002AD040F20041C4F2000123E040F2FF315E
:101A0000C4F20101884213DC41F60001C4F2000176
:101A1000884219D0002113E040F60001C4F2000111
:101A2000884211D040F60041C4F200010AE000BF34
:101A300044F20001C4F20101884205D040F20041A5
:101A4000C4F20101884204D1816801F0070106292E
:101A500003D0016841F00101016000221046704787
:101A600070B504460068C5680669B10716D515F05B
:101A7000020113D06FF00201016101212177806919
:101A8000800703D02046FFF70BFE05E0204600F05C
:101A90008FF8204600F0D0F900202077700719D584
:101AA00015F0040016D020686FF0040101610221D6
:101AB0002177806910F4407F04D02046FFF7F0FDC5
:101AC00006E000BF204600F073F8204600F0B4F9AD
:101AD00000202077300717D515F0080014D02068B3
:101AE0006FF00801016104212177C069800703D0EC
:101AF0002046FFF7D5FD05E0204600F059F82046C6
:101B000000F09AF900202077F00619D515F01000A2
:101B100016D020686FF01001016108212177C0699B
:101B200010F4407F04D02046FFF7BAFD06E000BF66
:101B3000204600F03DF8204600F07EF90020207796
:101B4000F00718BF15F0010002D1300609D412E0E9
:101B500020686FF001010161204600F0FFF93006B6
:101B600009D515F0800006D020686FF08001016172
:101B70002046FFF789FB700609D515F0400006D016
:101B800020686FF040010161204600F00FFAB006B6
:101B900058BF70BD15F0200008D021686FF02002FA
:101BA00020460A61BDE87040FFF770BB70BD0000C1
:101BB0007047000090F83C30012B04BF02207047B2
:101BC0004FEAB202032A00F201812DE9F043DFE877
:101BD00002F0033F7FBF00BF036840F200461C6A6B
:101BE0001A6A24F0020422F001021A621A46D3F89B
:101BF00004C052F818EF8F6843F48065C4F2010600
:101C0000B54244EA070405D1CF6824F00C0427F05C
:101C100004073C430F68B54206D1D1E905582CF4BE
:101C200040762E4346EA080C2EF073063743C3F87D
:101C300004C09F614F6809695F631C629F6947F038
:101C400008079F619F6927F004079F61B2E000BF0A
:101C5000036840F200481C6A1A6A24F0200422F04B
:101C600010021A621A46D3F804C052F818EF8F68AF
:101C700043F48065C4F20108454544EA071407D1DE
:101C8000CF686FF0400624F0C00406EA071634431C
:101C9000D1F80090454506D1D1E905562CF44067AE
:101CA0002E4347EA860C2EF4E64747EA0927C3F895
:101CB00004C09F614F6809699F631C629F6947F474
:101CC00000679F619F6927F480679F6171E000BF93
:101CD000036840F200481C6A1A6A24F4007422F473
:101CE00080721A621A46D3F804C052F81CEF8F684B
:101CF00043F48065C4F20108454544EA072408D14D
:101D0000CF6840F2FF463F0224F4406427EA06060B
:101D10003443D1F80090454506D1D1E905562CF45D
:101D200040572E4347EA061C2EF0730747EA09077F
:101D3000C3F804C0DF614F680969DF631C62DF69B3
:101D400047F00807DF61DF6927F00407DF6131E052
:101D5000036840F20045D3F820C01A6A43F4806754
:101D600022F480521A621A465C6852F81CEFD1F8CD
:101D700000808E68C4F20105AF4204D14D6924F49D
:101D8000804444EA85142CF4005747EA06372EF4C1
:101D9000E64646EA08265C60DE614E6809691E6414
:101DA0001F62DF6947F40067DF61DF6927F480673E
:101DB000DF6109021368194311600021BDE8F04397
:101DC000002280F83C200846704700BF0121002215
:101DD00080F83C2008467047002804BF0120704767
:101DE00010B5044690F83D0028B9002084F83C0066
:101DF000204600F01FF8022084F83D002068211DD5
:101E000000F0EAFD012084F8460084F83E0084F8E2
:101E10003F0084F8400084F8410084F8420084F8D0
:101E2000430084F8440084F8450084F83D00002015
:101E300010BD0000704700007047000041B1082944
:101E400010D0042914BF00F1410200F13F020BE061
:101E500090F83E20012A1CBF01207047022280F822
:101E60003E2013E000F140021278012A1CBF01203D
:101E700070470222082907D0042914BF80F84120A6
:101E800080F83F2002E000BF80F84020006801F0A9
:101E90001F010122036A02FA01F123EA0102026230
:101EA000026A114341F2FF72C4F2000290420162E1
:101EB00010DC40F2FF71C4F2000188421CDCB0F17A
:101EC000804F3FD040F20041C4F20001884239D037
:101ED0003DE000BF40F2FF31C4F20101884219DC4D
:101EE00041F60001C4F2000188422BD00021C4F267
:101EF000010188421AD02AE040F60001C4F2000134
:101F000088421FD040F60041C4F20001884219D037
:101F10001DE000BF44F20001C4F20101884211D06B
:101F200040F20041C4F20101884210D1416C40F2FC
:101F3000004340F48062C4F2010341F400419A423C
:101F4000416404D1816801F00701062903D00168CA
:101F500041F001010160002070470000006840F27C
:101F60000041C4F20001884218BF704740F28C0063
:101F7000C2F2000000F076BE4FEAB101032984BF2F
:101F800000207047DFE801F0020E060A00683430D6
:101F90000068704700683C30006870470068403057
:101FA000006870470068383000687047704700006C
:101FB000FEE700002DE9F04F81B0DDE90ABA98464E
:101FC00091460E46074601F08BF9D02001F0E2F869
:101FD00000F0B0FE3B2001F0DDF800F0ABFE01F0B8
:101FE0007FF9D12001F0D6F800F0A4FE00F066FFE2
:101FF0000446012001F03AF801F034FA01F070F9DA
:10200000D02001F0C7F800F095FE3C2001F0C2F8A6
:1020100000F090FE01F064F9D12001F0BBF800F06F
:1020200089FE00F04BFF0546012001F01FF801F08A
:1020300019FA45EA0420388001F052F9D02001F065
:10204000A9F800F077FE3D2001F0A4F800F072FE40
:1020500001F046F9D12001F09DF800F06BFE00F090
:102060002DFF0446012001F001F801F0FBF901F019
:1020700037F9D02001F08EF800F05CFE3E2001F030
:1020800089F800F057FE01F02BF9D12001F082F819
:1020900000F050FE00F012FF0546012000F0E6FFC0
:1020A00001F0E0F945EA0420308001F019F9D02070
:1020B00001F070F800F03EFE3F2001F06BF800F0F8
:1020C00039FE01F00DF9D12001F064F800F032FE84
:1020D00000F0F4FE0446012000F0C8FF01F0C2F950
:1020E00001F0FEF8D02001F055F800F023FE40206A
:1020F00001F050F800F01EFE01F0F2F8D12001F0DE
:1021000049F800F017FE00F0D9FE0546012000F066
:10211000ADFF01F0A7F945EA0420A9F8000001F09D
:10212000DFF8D02001F036F800F004FE432001F083
:1021300031F800F0FFFD01F0D3F8D12001F02AF8CA
:1021400000F0F8FD00F0BAFE0446012000F08EFF1A
:1021500001F088F901F0C4F8D02001F01BF800F07C
:10216000E9FD442001F016F800F0E4FD01F0B8F8B4
:10217000D12001F00FF800F0DDFD00F09FFE0546D4
:10218000012000F073FF01F06DF945EA0420A8F882
:10219000000001F0A5F8D02000F0FCFF00F0CAFD1F
:1021A000452000F0F7FF00F0C5FD01F099F8D120BF
:1021B00000F0F0FF00F0BEFD00F080FE04460120BC
:1021C00000F054FF01F04EF901F08AF8D02000F041
:1021D000E1FF00F0AFFD462000F0DCFF00F0AAFDBB
:1021E00001F07EF8D12000F0D5FF00F0A3FD00F053
:1021F00065FE0546012000F039FF01F033F945EA9C
:102200000420ABF8000001F06BF8D02000F0C2FF12
:1022100000F090FD472000F0BDFF00F08BFD01F0C5
:102220005FF8D12000F0B6FF00F084FD00F046FE1C
:102230000446012000F01AFF01F014F901F050F8F3
:10224000D02000F0A7FF00F075FD482000F0A2FFAD
:1022500000F070FD01F044F8D12000F09BFF00F089
:1022600069FD00F02BFE0546012000F0FFFE01F0A5
:10227000F9F845EA0420AAF8000001B0BDE8F08FA3
:1022800080B500F0F3FC01F02BF8D02000F082FFC5
:1022900000F050FD6B2000F07DFF00F04BFD0120B1
:1022A00000F078FF00F046FD01F0DCF801F018F8CE
:1022B000D02000F06FFF00F03DFD6C2000F06AFFC1
:1022C00000F038FD002000F065FF00F033FD01F064
:1022D000C9F801F005F8D02000F05CFF00F02AFDFD
:1022E000192000F057FF00F025FD092000F052FFF3
:1022F00000F020FD01F0B6F800F0F2FFD02000F071
:1023000049FF00F017FD1A2000F044FF00F012FD15
:10231000062000F03FFF00F00DFD01F0A3F800F0F3
:10232000DFFFD02000F036FF00F004FD1B2000F09E
:1023300031FF00F0FFFC182000F02CFF00F0FAFC49
:1023400001F090F800F0CCFFD02000F023FF00F067
:10235000F1FC1C2000F01EFF00F0ECFC182000F047
:1023600019FF00F0E7FCBDE8804001F07BB80000F9
:10237000B0B584B040F2A00042F200010123002475
:10238000C2F20000C4F20101C0F6007301250394FB
:102390004FF48032047680F82040C0E90A34C561E9
:1023A00080F8304080E81600C0E903444561FEF73C
:1023B000D7F8002818BFFEF727F80220CDE900055E
:1023C00040F2A000C2F2000069460294FEF720F835
:1023D000002818BFFEF718F804B0B0BD2DE9F04F83
:1023E00087B04FF0000B43F63000CDF818B0CDF8B1
:1023F00004B0C4F202000168002541F0040101604C
:102400000168C4F2020501F0040101910199CDF8BF
:1024100004B00168012241F08001016001683027A9
:1024200001F0800101910199CDF804B00168012605
:1024300041F001010160016801F001010191019980
:10244000CDF804B0016841F010010160016801F0AD
:10245000100101910199CDF804B0016841F0020129
:102460000160016801F0020101910199CDF804B009
:10247000016841F0080101600068302100F00800A7
:10248000019001982846FEF765FB28464FF4A861A5
:102490000022FEF75FFB05F5805A50464FF4785155
:1024A0000022FEF757FB05F5406948464FF4E0412E
:1024B0000022FEF74FFB05F5006840464FF4A0717F
:1024C0000022FEF747FB05F580642046102100221C
:1024D000FEF740FB0297112002AFCDE90306284624
:1024E00039460596FEF760FA4FF4A86002A981E824
:1024F0004108284639460596FEF756FA4FF47850BB
:1025000002A981E84108504639460596FEF74CFA83
:102510004FF4E04002A981E8410848463946059653
:10252000FEF742FA4FF4A07002A981E84108404644
:1025300039460596FEF738FA102002A981E84108CD
:10254000204639460596FEF72FFA4FF4F070CDE994
:10255000020B204639460496FEF726FA07B0BDE87E
:10256000F08F0000B0B590B041F6000540F2E800F1
:10257000C4F200050021C2F20000292263230A915F
:10258000CDE908110691CDE90411CDE90211CDE99B
:102590000011C0E90052C0E9021301618161FEF738
:1025A000D5FE002818BFFDF72FFF4FF4805007908D
:1025B00040F2E800C2F2000007A9FEF7A1FF0028E0
:1025C00018BFFDF721FF40F2E800C2F20000FFF75C
:1025D00003FC002818BFFDF717FF602000900020C3
:1025E000CDE90100049040F2E800C2F20000694623
:1025F0000022FFF7DFFA002818BFFDF705FF40F2C1
:10260000E804C2F20004694620460422FFF7D2FA29
:10261000002818BFFDF7F8FE2068A84202D010B0CD
:10262000B0BD00BF002043F630010B90C4F20201A0
:102630000A6842F002020A60096801F002010B9187
:102640000B994FF440410B910221CDE90C100E90F3
:1026500009200F9005F5F6300BA9FEF7A5F910B08B
:10266000B0BD000010B58AB040F230100021C2F2B7
:10267000000040F200424FF6FF740991CDE90711C6
:10268000CDE90411CDE90211CDE90011C4F2000237
:102690005323C0E9021401618021C0E90023816154
:1026A000FEF754FE002818BFFDF7AEFE4FF4805031
:1026B000069040F23010C2F2000006A9FEF720FF9B
:1026C000002818BFFDF7A0FE40F23010C2F2000053
:1026D000FFF7E2F8002818BFFDF796FE40F2301031
:1026E0000024C2F2000004A9CDE90444FEF7D0FDA5
:1026F000002818BFFDF788FE0120CDE9010440F253
:102700003010C2F200006946042200940394FEF7E0
:10271000DFFF002818BFFDF777FE0AB010BD0000EC
:10272000FEE70000FEE70000B0B541F20004C4F28D
:102730000204054600F0800220464FF48061FEF757
:1027400009FA20464FF400710122FEF703FA2046F1
:102750004FF400710022FEF7FDF905F0400220461B
:102760004FF48061FEF7F6F920464FF40071012224
:10277000FEF7F0F920464FF400710022FEF7EAF967
:1027800005F0200220464FF48061FEF7E3F9204671
:102790004FF400710122FEF7DDF920464FF400717D
:1027A0000022FEF7D7F905F0100220464FF48061B1
:1027B000FEF7D0F920464FF400710122FEF7CAF966
:1027C00020464FF400710022FEF7C4F905F008021C
:1027D00020464FF48061FEF7BDF920464FF40071AA
:1027E0000122FEF7B7F920464FF400710022FEF7F0
:1027F000B1F905F0040220464FF48061FEF7AAF912
:1028000020464FF400710122FEF7A4F920464FF450
:1028100000710022FEF79EF905F0020220464FF4F7
:102820008061FEF797F920464FF400710122FEF710
:1028300091F920464FF400710022FEF78BF905F064
:10284000010220464FF48061FEF784F920464FF4E0
:1028500000710122FEF77EF920464FF4007100223C
:10286000BDE8B040FEF776B970B541F20005C4F29C
:1028700002050C4640F0B00628464FF400510022F5
:10288000FEF768F928464FF480510022FEF762F9FE
:102890003046FFF749FF28464FF400510122FEF76A
:1028A00059F9200900F1100628464FF40051002282
:1028B000FEF750F928464FF480510022FEF74AF9FE
:1028C0003046FFF731FF28464FF400510122FEF752
:1028D00041F928464FF400510022FEF73BF9284603
:1028E0004FF480510022FEF735F904F00F00FFF796
:1028F0001BFF28464FF400510122BDE87040FEF74F
:1029000029B900007047000070470000FEF72EB99B
:10291000B0B592B0002443F64000CDE90A44CDE9B9
:1029200008440594CDE90344CDE901440094C4F280
:1029300002000168022541F080510160006800F04A
:1029400080500090009847F200000094C4F200000C
:10295000016841F4804101600068A82100F48040D2
:1029600000900098012006904FF4803007904FF4BB
:1029700080000D9004200E90119006A80C95CDE9D2
:102980000F15FEF793FA18B172B600BFFEE700BF4D
:102990000F20CDE901054FF4A05004904FF4805072
:1029A000059001A805210394FEF798F910B172B6BD
:1029B000FEE700BF12B0B0BD4EF68850CEF2000068
:1029C000016841F4700101607047000040F230106E
:1029D000C2F20000FFF744B8B0B540F6FF3E05680C
:1029E000C4F2000E40F2004C7045C4F2010C27DC2A
:1029F000B0F1804F31D040F20043C4F2000398425E
:102A00002BD040F60003C4F20003984225D041F6D3
:102A1000FF73C4F2000398422ADC70453CDCB0F13D
:102A2000804F5FD040F20043C4F20003984259D077
:102A300040F60003C4F20003984253D057E000BFB1
:102A400040F60043C4F20003984206D0604504D02B
:102A50000023C4F201039842D9D14B6825F07002DB
:102A600043EA020541F6FF73C4F200039842D4DD45
:102A700043F6FF73C4F20103984221DC42F20003E3
:102A8000C4F2000398422DD00023C4F201039842FF
:102A900028D0604526D02AE040F60043C4F2000367
:102AA00098421FD041F60003C4F20003984219D0A7
:102AB00041F60043C4F20003984213D017E000BF70
:102AC00044F20003C4F2010398420BD044F6000321
:102AD000C4F20103984205D044F20043C4F201035A
:102AE000984204D1CB6825F4407243EA02050A6893
:102AF0008C684B69C46240F480648262644504BFA0
:102B000009690163026825F0800142F0040219435B
:102B10000260012242610160B0BD0000FEE70000DA
:102B200040F20040C4F2020010210022FEF712B869
:102B300040F20040C4F2020010210122FEF70AB860
:102B400090ED040A70470000B0B50C4609780546C0
:102B5000012919D0002918BFB0BD28460421FFF76C
:102B60000BFA40F23011C2F2000109686060086A95
:102B700020F0A0000862086A40F0200008620020EF
:102B8000608001202070B0BD28460421FFF7F4F9D1
:102B90006188EA689FED121A02FB01006168411A20
:102BA00000EE101AB8EE400A80EE010A9FED0D1AF1
:102BB000C4E9020128680021217020EE010AB6EE66
:102BC000001A20EE010A9FED081A20EE010A84ED9A
:102BD000040A016A21F0A0010162016A0162B0BD2C
:102BE000002474490000AE430000C84210B582B012
:102BF0000024C4F20204204640210122FDF7AAFF6E
:102C0000002001900198C008682823D800BF00BFA9
:102C10000198013001900198C00868281AD800BFB7
:102C200000BF0198013001900198C008682811D8B0
:102C300000BF00BF0198013001900198C0086828CA
:102C400008D800BF00BF0198013001900198B0F58D
:102C5000527FDBD320464021002202B0BDE8104065
:102C6000FDF778BF4188013141807047B0B582B02F
:102C70000024C4F20204204610210122FDF76AFF5D
:102C8000002500950098C008222823D800BF00BF67
:102C90000098013000900098C00822281AD800BF80
:102CA00000BF0098013000900098C008222811D879
:102CB00000BF00BF0098013000900098C008222893
:102CC00008D800BF00BF0098013000900098B0F510
:102CD0008C7FDBD3204620210122FDF73BFF0195AD
:102CE0000198C008222823D800BF00BF01980130F6
:102CF00001900198C00822281AD800BF00BF01988F
:102D0000013001900198C008222811D800BF00BFEF
:102D10000198013001900198C008222808D800BF0E
:102D200000BF0198013001900198B0F58C7FDBD392
:102D300002B0B0BD70B582B00024C4F202042046D7
:102D400020210122FDF706FF002501950198C0080A
:102D5000222823D800BF00BF0198013001900198BC
:102D6000C00822281AD800BF00BF01980130019086
:102D70000198C008222811D800BF00BF0198013077
:102D800001900198C008222808D800BF00BF019810
:102D9000013001900198B0F58C7FDBD320461021E3
:102DA0000122FDF7D7FE01950198C008222823D8FB
:102DB00000BF00BF0198013001900198C00822288F
:102DC0001AD800BF00BF0198013001900198C008D7
:102DD000222811D800BF00BF01980130019001984E
:102DE000C008222808D800BF00BF01980130019018
:102DF0000198B0F58C7FDBD320462021FDF7A4FE9F
:102E00000026019601990546C908222924D800BF49
:102E100000BF00BF0198013001900198C00822282E
:102E20001AD800BF00BF0198013001900198C00876
:102E3000222811D800BF00BF0198013001900198ED
:102E4000C008222808D800BF00BF019801300190B7
:102E50000198B0F58C7FDBD3204610210022FDF7CE
:102E600079FE01960198C008222823D800BF00BF30
:102E70000198013001900198C00822281AD800BF9B
:102E800000BF0198013001900198C008222811D894
:102E900000BF00BF0198013001900198C0082228AE
:102EA00008D800BF00BF0198013001900198B0F52B
:102EB0008C7FDBD3284602B070BD00002DE9F041C5
:102EC00082B00024C4F20204204620210122FDF732
:102ED00041FE002501950198C008222824D800BF92
:102EE00000BF00BF0198013001900198C00822285E
:102EF0001AD800BF00BF0198013001900198C008A6
:102F0000222811D800BF00BF01980130019001981C
:102F1000C008222808D800BF00BF019801300190E6
:102F20000198B0F58C7FDBD34FF080080026002796
:102F300004E000BF0136082E00F0948020461021E6
:102F40000122FDF707FE01950198C008222823D829
:102F500000BF00BF0198013001900198C0082228ED
:102F60001AD800BF00BF0198013001900198C00835
:102F7000222811D800BF00BF0198013001900198AC
:102F8000C008222808D800BF00BF01980130019076
:102F90000198B0F58C7FDBD320462021FDF7D4FDCE
:102FA00001950199C908222924D800BF00BF00BF9C
:102FB0000199013101910199C90822291AD800BF4C
:102FC00000BF0199013101910199C908222911D845
:102FD00000BF00BF0199013101910199C90822295F
:102FE00008D800BF00BF0199013101910199B1F5E5
:102FF0008C7FDBD328FA06F1012808BF0F43204657
:1030000010210022FDF7A6FD01950198C008222895
:1030100090D800BF00BF00BF019801300190019817
:10302000C00822283FF686AF00BF00BF01980130DC
:1030300001900198C00822283FF67CAF00BF00BF76
:103040000198013001900198C00822283FF672AF24
:1030500000BF00BF0198013001900198B0F58C7F4E
:10306000D8D367E7F8B202B0BDE8F081B0B584B05C
:103070000024C4F20204024620462021FDF76AFD26
:10308000002501950198C008222823D800BF00BF61
:103090000198013001900198C00822281AD800BF79
:1030A00000BF0198013001900198C008222811D872
:1030B00000BF00BF0198013001900198C00822288C
:1030C00008D800BF00BF0198013001900198B0F509
:1030D0008C7FDBD3204610210122FDF73BFD0295BA
:1030E0000298C008222823D800BF00BF02980130F0
:1030F00002900298C00822281AD800BF00BF029888
:10310000013002900298C008222811D800BF00BFE9
:103110000298013002900298C008222808D800BF07
:1031200000BF0298013002900298B0F58C7FDBD38B
:103130002046102100220024FDF70CFD0394039883
:10314000C008222824D800BF00BF00BF0398013068
:1031500003900398C00822281AD800BF00BF039824
:10316000013003900398C008222811D800BF00BF87
:103170000398013003900398C008222808D800BFA4
:1031800000BF0398013003900398B0F58C7FDBD328
:1031900004B0B0BD2DE9F04184B000250446C4F26E
:1031A000020500264FF08008002703E00137082FB2
:1031B00000F0928028FA07F000EA04022846202155
:1031C000FDF7C8FC01960198C008222824D800BF4A
:1031D00000BF00BF0198013001900198C00822286B
:1031E0001AD800BF00BF0198013001900198C008B3
:1031F000222811D800BF00BF01980130019001982A
:10320000C008222808D800BF00BF019801300190F3
:103210000198B0F58C7FDBD3284610210122FDF701
:1032200099FC02960298C008222823D800BF00BF4C
:103230000298013002900298C00822281AD800BFD4
:1032400000BF0298013002900298C008222811D8CD
:1032500000BF00BF0298013002900298C0082228E7
:1032600008D800BF00BF0298013002900298B0F564
:103270008C7FDBD3284610210022FDF76BFC0396E0
:103280000398C008222891D800BF00BF03980130DE
:1032900003900398C00822283FF688AF00BF00BF04
:1032A0000398013003900398C00822283FF67EAFB0
:1032B00000BF00BF0398013003900398C008222884
:1032C0003FF674AF00BF00BF03980130039003982E
:1032D000B0F58C7FD8D369E704B0BDE8F081000079
:1032E000B0B582B00024C4F202042046202101229D
:1032F000FDF730FC002501950198C008222823D84D
:1033000000BF00BF0198013001900198C008222839
:103310001AD800BF00BF0198013001900198C00881
:10332000222811D800BF00BF0198013001900198F8
:10333000C008222808D800BF00BF019801300190C2
:103340000198B0F58C7FDBD3204610210122FDF7D8
:1033500001FC01950198C008222823D800BF00BFB6
:103360000198013001900198C00822281AD800BFA6
:1033700000BF0198013001900198C008222811D89F
:1033800000BF00BF0198013001900198C0082228B9
:1033900008D800BF00BF0198013001900198B0F536
:1033A0008C7FDBD32046202100220025FDF7D2FBB5
:1033B00001950198C008222824D800BF00BF00BF93
:1033C0000198013001900198C00822281AD800BF46
:1033D00000BF0198013001900198C008222811D83F
:1033E00000BF00BF0198013001900198C008222859
:1033F00008D800BF00BF0198013001900198B0F5D6
:103400008C7FDBD3204610210022FDF7A3FB019522
:103410000198C008222823D800BF00BF01980130BE
:1034200001900198C00822281AD800BF00BF019857
:10343000013001900198C008222811D800BF00BFB8
:103440000198013001900198C008222808D800BFD7
:1034500000BF0198013001900198B0F58C7FDBD35B
:1034600002B0B0BDB0B584B00024C4F2020420465E
:10347000202100220025FDF76DFB01950198C00871
:10348000222823D800BF00BF019801300190019885
:10349000C00822281AD800BF00BF0198013001904F
:1034A0000198C008222811D800BF00BF0198013040
:1034B00001900198C008222808D800BF00BF0198D9
:1034C000013001900198B0F58C7FDBD320461021AC
:1034D0000122FDF73FFB02950298C008222823D85D
:1034E00000BF00BF0298013002900298C008222855
:1034F0001AD800BF00BF0298013002900298C0089D
:10350000222811D800BF00BF029801300290029813
:10351000C008222808D800BF00BF029801300290DE
:103520000298B0F58C7FDBD3204620210122FDF7E5
:1035300011FB002003900398C008222824D800BF64
:1035400000BF00BF0398013003900398C0082228F1
:103550001AD800BF00BF0398013003900398C00839
:10356000222811D800BF00BF0398013003900398B0
:10357000C008222808D800BF00BF0398013003907C
:103580000398B0F58C7FDBD304B0B0BD10B540F22A
:103590000044C4F2020420462021FDF7D5FA18B3F6
:1035A00020464021FDF7D0FA70B320468021FDF778
:1035B000CBFAC8B320464FF48071FDF7C5FA002856
:1035C0001CBF002010BD1420FDF7DAF920464FF48F
:1035D0008071FDF7B9FA0028F8D004241420FDF713
:1035E000CFF9204610BD00BF1420FDF7C9F900BF78
:1035F00020462021FDF7A8FA0028F9D00124142044
:10360000FDF7BEF9204610BD1420FDF7B9F900BF43
:1036100020464021FDF798FA0028F9D00224142012
:10362000FDF7AEF9204610BD1420FDF7A9F900BF43
:1036300020468021FDF788FA0028F9D003241420C1
:10364000FDF79EF9204610BD40F60040C4F202008E
:103650004FF480510122FDF77DBA000040F6004092
:10366000C4F202004FF480410122FDF773BA00005A
:1036700040F60040C4F202004FF480410022FDF702
:1036800069BA000040F60040C4F202004FF4005155
:103690000122FDF75FBA000040F60040C4F20200CC
:1036A0004FF400510022FDF755BA000082B040F2FD
:1036B000700BC2F2000B00208BF80000FDF764FADB
:1036C000FFF726F9FEF78AFEFEF752FEFEF7CAFF65
:1036D000FEF748FF00F0A4FAFEF7D2FDFFF7B4FFB3
:1036E00040F23014C2F200042046FDF7B3FE20463B
:1036F0000421FEF701F9FFF779FA40F2E804C2F27B
:10370000000420460021FEF799FB20460421FEF725
:1037100095FB1E2000F034F96FF01D0000F056F903
:1037200040F2A0049FED838A9FED839A9FED8ECA9D
:10373000C2F200040BF10C080BF10A0A0BF10209AA
:103740000BF104070BF106050BF10806B3EE04AA12
:10375000B2EE04BA2FE000BF0120062179A200F0EA
:10376000B7FEBBF9022002200121052300F048FE2C
:10377000BBF9042003200121052300F041FEBBF921
:10378000062004200121052300F03AFEBBF90820A1
:1037900002200821052300F033FEBBF90A20032094
:1037A0000821052300F02CFEBBF90C200420082181
:1037B000052300F025FEFFF7E9FE012811D19BF853
:1037C00000000130C1B2022988BF00208BF8000040
:1037D000FFF7AEF96420FDF7D3F8FFF7A1F900F089
:1037E00019F92046FDF71EF820464FF0FF31FCF78F
:1037F00099FF2046FCF7B0FE00EE100AB8EE400A32
:1038000080EE080ACBF8100040F28C00C2F20000F3
:1038100020EE090A8BED050AFFF792F98BED060AF7
:10382000FFF7E4F9484639462A463346CDE900A871
:10383000FEF7C0FB9BED060AB4EE4A0AF1EE10FA61
:1038400012DAB5EE400AF1EE10FA0DDDFFF724FFB3
:10385000FFF704FF9BED060AB4EE4B0AF1EE10FAF7
:1038600006DAFFF765F905E0FFF70CFFFFF700FF49
:10387000FFF756F90120012130A200F029FE9BF844
:10388000000002283FF468AF012821D0002892D11F
:103890000120062135A200F01BFE0220012136A2E4
:1038A00000F016FE9BED060A0220BCEEC00A10EEE8
:1038B000102A0621032300F049FD0220092163227A
:1038C00000F0B8FB02200A216D2200F0B3FB72E782
:1038D000012006211DA200F0FBFD022001211EA2F5
:1038E00000F0F6FDDBF8102002200521042300F093
:1038F0002DFD032001211AA200F0EAFD9BED050A2F
:10390000032020EE0C0ABCEEC00A10EE102A06219D
:10391000032300F01BFD032009216D2200F08AFB28
:1039200003200A21562200F085FB3220FDF728F8FB
:1039300041E700BF00F07F45333353404D6F64656E
:103940003A0000004D505536303530004C4452207E
:1039500053656E736F7200004144433A00000000EB
:10396000566F6C743A00000000007A444469737426
:10397000616E636500000000446973743A000000E2
:10398000B0B50025C4F202050446002828464FF4CD
:10399000807109D40022FDF7DDF828464FF48061DC
:1039A0000122FDF7D7F809E00122FDF7D3F82846F8
:1039B0004FF480610022FDF7CDF8644240F2E80048
:1039C000C2F2000000684463B0BD0000B0B540F62C
:1039D0000005C4F202050446002828464FF4807111
:1039E00008D40022FDF7B6F8284640210122FDF751
:1039F000B1F808E00122FDF7ADF828464021002289
:103A0000FDF7A8F8644240F2E800C2F20000006846
:103A10008463B0BDB0B541F2000400200021C4F2BF
:103A200002040025FEF720FF20464FF4005100223B
:103A3000FDF790F820464FF480510122FDF78AF8F7
:103A40000020FEF771FE20464FF400510122FDF7E1
:103A500081F8681C45B2B5F1FF3FE5DC012000218B
:103A60000025FEF701FF00BF20464FF40051002261
:103A7000FDF770F820464FF480510122FDF76AF8F7
:103A80000020FEF751FE20464FF400510122FDF7C1
:103A900061F8681C45B2B5F1FF3FE5DC022000216A
:103AA0000025FEF7E1FE00BF20464FF40051002242
:103AB000FDF750F820464FF480510122FDF74AF8F7
:103AC0000020FEF731FE20464FF400510122FDF7A1
:103AD00041F8681C45B2B5F1FF3FE5DC0320002149
:103AE0000025FEF7C1FE00BF20464FF40051002222
:103AF000FDF730F820464FF480510122FDF72AF8F7
:103B00000020FEF711FE20464FF400510122FDF780
:103B100021F8681C45B2B5F1FF3FE5DC0420002127
:103B20000025FEF7A1FE00BF20464FF40051002201
:103B3000FDF710F820464FF480510122FDF70AF8F6
:103B40000020FEF7F1FD20464FF400510122FDF761
:103B500001F8681C45B2B5F1FF3FE5DC0520002106
:103B60000025FEF781FE00BF20464FF400510022E1
:103B7000FCF7F0FF20464FF480510122FCF7EAFFEA
:103B80000020FEF7D1FD20464FF400510122FCF742
:103B9000E1FF681C45B2B5F1FF3FE5DC06200021DE
:103BA0000025FEF761FE00BF20464FF400510022C1
:103BB000FCF7D0FF20464FF480510122FCF7CAFFEA
:103BC0000020FEF7B1FD20464FF400510122FCF722
:103BD000C1FF681C45B2B5F1FF3FE5DC07200021BD
:103BE0000025FEF741FE00BF20464FF400510022A1
:103BF000FCF7B0FF20464FF480510122FCF7AAFFEA
:103C00000020FEF791FD20464FF400510122FCF701
:103C1000A1FF681C45B2B5F1FF3FE5DCB0BD000077
:103C200010B541F20004C4F2020420464FF40071C2
:103C30000022FCF78FFF20464FF480610122FCF741
:103C400089FF20464FF400610122FCF783FF2046E4
:103C50004FF480510122FCF77DFF20464FF40051C4
:103C60000122FCF777FF20464FF400510022FCF7B9
:103C700071FF20464FF480510022FCF76BFFAE200D
:103C8000FEF752FD20464FF400510122FCF762FF7F
:103C900020464FF400510022FCF75CFF20464FF411
:103CA00080510022FCF756FFD520FEF73DFD20464F
:103CB0004FF400510122FCF74DFF20464FF4005114
:103CC0000022FCF747FF20464FF480510022FCF70A
:103CD00041FF8020FEF728FD20464FF400510122CD
:103CE000FCF738FF20464FF400510022FCF732FF6A
:103CF00020464FF480510022FCF72CFFA820FEF74D
:103D000013FD20464FF400510122FCF723FF20460B
:103D10004FF400510022FCF71DFF20464FF4805164
:103D20000022FCF717FF3F20FEF7FEFC20464FF471
:103D300000510122FCF70EFF20464FF400510022F3
:103D4000FCF708FF20464FF480510022FCF702FFE9
:103D5000D320FEF7E9FC20464FF400510122FCF786
:103D6000F9FE20464FF400510022FCF7F3FE2046F6
:103D70004FF480510022FCF7EDFE0020FEF7D4FC4A
:103D800020464FF400510122FCF7E4FE20464FF498
:103D900000510022FCF7DEFE20464FF48051002245
:103DA000FCF7D8FE4020FEF7BFFC20464FF4005140
:103DB0000122FCF7CFFE20464FF400510022FCF711
:103DC000C9FE20464FF480510022FCF7C3FEA1201B
:103DD000FEF7AAFC20464FF400510122FCF7BAFE80
:103DE00020464FF400510022FCF7B4FE20464FF469
:103DF00080510022FCF7AEFEC820FEF795FC20465D
:103E00004FF400510122FCF7A5FE20464FF400516B
:103E10000022FCF79FFE20464FF480510022FCF761
:103E200099FEDA20FEF780FC20464FF40051012273
:103E3000FCF790FE20464FF400510022FCF78AFE6A
:103E400020464FF480510022FCF784FE1220FEF73A
:103E50006BFC20464FF400510122FCF77BFE20460C
:103E60004FF400510022FCF775FE20464FF48051BC
:103E70000022FCF76FFE8120FEF756FC20464FF42F
:103E800000510122FCF766FE20464FF4005100224B
:103E9000FCF760FE20464FF480510022FCF75AFEEA
:103EA000CF20FEF741FC20464FF400510122FCF7E1
:103EB00051FE20464FF400510022FCF74BFE2046F5
:103EC0004FF480510022FCF745FED920FEF72CFC70
:103ED00020464FF400510122FCF73CFE20464FF4EF
:103EE00000510022FCF736FE20464FF4805100229C
:103EF000FCF730FEF120FEF717FC20464FF400518E
:103F00000122FCF727FE20464FF400510022FCF767
:103F100021FE20464FF480510022FCF71BFEDB20DF
:103F2000FEF702FC20464FF400510122FCF712FE7E
:103F300020464FF400510022FCF70CFE20464FF4BF
:103F400080510022FCF706FE3020FEF7EDFB2046F4
:103F50004FF400510122FCF7FDFD20464FF40051C3
:103F60000022FCF7F7FD20464FF480510022FCF7B9
:103F7000F1FDA420FEF7D8FB20464FF400510122AA
:103F8000FCF7E8FD20464FF400510022FCF7E2FD6B
:103F900020464FF480510022FCF7DCFDA620FEF7FE
:103FA000C3FB20464FF400510122FCF7D3FD20460D
:103FB0004FF400510022FCF7CDFD20464FF4805114
:103FC0000022FCF7C7FD8D20FEF7AEFB20464FF424
:103FD00000510122FCF7BEFD20464FF400510022A3
:103FE000FCF7B8FD20464FF480510022FCF7B2FDEB
:103FF0001420FEF799FB20464FF400510122FCF7F4
:10400000A9FD20464FF400510022FCF7A3FD2046F5
:104010004FF480510022FCF79DFDAF20FEF784FB9A
:1040200020464FF400510122FCF794FDBDE81040FA
:10403000FFF7F0BC2DE9F04714466FF00702804609
:104040006FF0010002EBC10100EB48005FFA81F95B
:10405000C0B24946FEF708FC44F22450C0F6000006
:1040600000EB04104FF6006141F20004CFF6FF713F
:10407000C4F20204455CA0F5007720464FF40051DD
:104080000022FCF767FD20464FF480510122FCF727
:1040900061FD2846FEF748FB20464FF400510122FF
:1040A000FCF758FD20464FF400510022FCF752FD6A
:1040B00020464FF480510122FCF74CFD7878BE7801
:1040C000FD7897F804A0FEF72FFB20464FF400512F
:1040D0000122FCF73FFD20464FF400510022FCF77F
:1040E00039FD20464FF480510122FCF733FD304664
:1040F000FEF71AFB20464FF400510122FCF72AFD7F
:1041000020464FF400510022FCF724FD20464FF4D6
:1041100080510122FCF71EFD2846FEF705FB2046D4
:104120004FF400510122FCF715FD20464FF40051D9
:104130000022FCF70FFD20464FF480510122FCF7CE
:1041400009FD5046FEF7F0FA20464FF400510122D7
:10415000FCF700FD7D7920464FF400510022FCF76A
:10416000F9FC20464FF480510122FCF7F3FC28466D
:10417000FEF7DAFA20464FF400510122FCF7EAFC80
:10418000BD7920464FF400510022FCF7E3FC2046A5
:104190004FF480510122FCF7DDFC2846FEF7C4FAFB
:1041A00020464FF400510122FCF7D4FCFD79204653
:1041B0004FF400510022FCF7CDFC20464FF4805113
:1041C0000122FCF7C7FC2846FEF7AEFA20464FF462
:1041D00000510122FCF7BEFC4FF0FF3000EB48001D
:1041E000C0B24946FEF740FB3D7A20464FF40051ED
:1041F0000022FCF7AFFC20464FF480510122FCF76F
:10420000A9FC2846FEF790FA20464FF400510122FF
:10421000FCF7A0FC7D7A20464FF400510022FCF709
:1042200099FC20464FF480510122FCF793FC28466C
:10423000FEF77AFA20464FF400510122FCF78AFC7F
:10424000BD7A20464FF400510022FCF783FC204643
:104250004FF480510122FCF77DFC2846FEF764FAFA
:1042600020464FF400510122FCF774FCFD7A2046F1
:104270004FF400510022FCF76DFC20464FF48051B2
:104280000122FCF767FC2846FEF74EFA20464FF461
:1042900000510122FCF75EFC3D7B20464FF40051AB
:1042A0000022FCF757FC20464FF480510122FCF716
:1042B00051FC2846FEF738FA20464FF400510122FF
:1042C000FCF748FC7D7B20464FF400510022FCF7B0
:1042D00041FC20464FF480510122FCF73BFC28466C
:1042E000FEF722FA20464FF400510122FCF732FC7F
:1042F000BD7B20464FF400510022FCF72BFC2046EA
:104300004FF480510122FCF725FC2846FEF70CFAF9
:1043100020464FF400510122FCF71CFCFD7B204697
:104320004FF400510022FCF715FC20464FF4805159
:104330000122FCF70FFC2846FEF7F6F920464FF461
:1043400000510122BDE8F047FCF704BC002B08BF78
:1043500070472DE9F04F81B01C4691468A4683464E
:10436000981E5D425E1E002742F2107800901BE00E
:104370000120B9FBF0F04CF6CD41CCF6CC41A0FBCE
:104380000112D20802EB8202A0EB420007EB0A0105
:1043900040F03000C2B2C9B25846FFF74BFE0137B9
:1043A000A742A6F1010627D0F943A942E0D0009820
:1043B000C01B032802D2012008E000BF26F0030240
:1043C000012000BF043A00FB08F0FBD1214411F0AA
:1043D0000301CED0012903D100EB80004000C8E7E3
:1043E0004FF47A72424302294FF0640108BF00FB88
:1043F00001F21046BDE700BF01B0BDE8F04F7047C5
:104400002DE9F04F81B01C4691460F46002A8246A6
:1044100004D42B22FFF70EFE3CB955E02D22FFF706
:1044200009FEC9F10009002C4ED007F1010BA01EB6
:104430006542661E002742F2107800901CE000BF23
:104440000120B9FBF0F04CF6CD41CCF6CC41A0FBFD
:104450000112D20802EB8202A0EB42000BEB070133
:1044600040F03000C2B2C9B25046FFF7E3FD013759
:10447000A742A6F1010627D0F943A942E0D000984F
:10448000C01B032802D2012008E000BF26F003026F
:10449000012000BF043A00FB08F0FBD1214411F0D9
:1044A0000301CED0012903D100EB80004000C8E712
:1044B0004FF47A72424302294FF0640108BF00FBB7
:1044C00001F21046BDE700BF01B0BDE8F08F00006B
:1044D000F0B581B0144612786AB10D460646002741
:1044E0007819C1B2D2B23046FFF7A4FD0137F8B255
:1044F000225C002AF4D101B0F0BDF1EE100A4FF6B3
:10450000FF71C0F2C03120EA010040F04070E1EEDE
:10451000100A7047000000000000000001020304C0
:10452000060708090000000000000000000000006D
:1045300000000000000000F8000000000000003350
:104540003000000000100C06100C060000000000F7
:104550000000000040C07840C0784000043F0404E0
:104560003F040400007088FC08300000001820FFA1
:10457000211E0000F008F000E018000000211C03DC
:104580001E211E0000F00888700000001E21232458
:104590001927211010160E00000000000000000076
:1045A00000000000000000E0180402000000000706
:1045B0001820400000020418E0000000004020180D
:1045C00007000000404080F0804040000202010FE0
:1045D00001020200000000F0000000000101011FC4
:1045E00001010100000000000000000080B0700028
:1045F00000000000000000000000000000010101B8
:104600000101010100000000000000000030300046
:104610000000000000000000806018040060180620
:104620000100000000E010080810E000000F10205A
:1046300020100F00001010F8000000000020203FA4
:10464000202000000070080808887000003028242E
:1046500022213000003008888848300000182020CF
:1046600020110E000000C02010F8000000070424F4
:10467000243F240000F80888880808000019212039
:1046800020110E0000E0108888180000000F112093
:1046900020110E0000380808C83808000000003F4C
:1046A000000000000070880808887000001C2221AB
:1046B00021221C0000E010080810E0000000312258
:1046C00022110F00000000C0C000000000000030F8
:1046D000300000000000008000000000000080604A
:1046E00000000000000080402010080000010204CB
:1046F00008102000404040404040400004040404B2
:10470000040404000008102040800000002010086D
:1047100004020100007048080808F00000000030A2
:1047200036010000C030C828E810E0000718272430
:1047300023140B000000C038E0000000203C2302DE
:104740000227382008F8888888700000203F202041
:1047500020110E00C0300808080838000718202073
:104760002010080008F808080810E000203F20206A
:1047700020100F0008F88888E8081000203F20204B
:104780002320180008F88888E8081000203F20003F
:1047900003000000C0300808083800000718202077
:1047A000221E020008F808000008F808203F210136
:1047B00001213F20000808F8080800000020203FE1
:1047C0002020000000000808F8080800C080808051
:1047D0007F00000008F888C028180800203F20014A
:1047E0002638200008F8080000000000203F2020A4
:1047F0002020300008F8F800F8F80800203F003FBB
:10480000003F200008F830C00008F808203F2000D2
:1048100007183F00E01008080810E0000F102020E3
:1048200020100F0008F808080808F000203F2101B8
:1048300001010000E01008080810E0000F1824240F
:1048400038504F0008F8888888887000203F200082
:10485000030C302000708808080838000038202138
:1048600021221C00180808F8080818000000203F42
:104870002000000008F808000008F808001F2020A9
:1048800020201F000878880000C83808000007387A
:104890000E010000F80800F80008F800033C0700CB
:1048A000073C0300081868808068180820302C0333
:1048B000032C30200838C800C83808000000203F0A
:1048C0002000000010080808C838080020382621F9
:1048D00020201800000000FE020202000000007FFD
:1048E00040404000000C30C000000000000000010B
:1048F0000638C00000020202FE00000000404040F6
:104900007F0000000000040202020400000000001A
:104910000000000000000000000000008080808097
:10492000808080800002020400000000000000007F
:104930000000000000008080808000000019242218
:1049400022223F2008F8008080000000003F112054
:1049500020110E000000008080800000000E112059
:1049600020201100000000808088F800000E112037
:1049700020103F200000808080800000001F222245
:1049800022221300008080F0888888180020203FB1
:10499000202000000000808080808000006B9494C4
:1049A0009493600008F8008080800000203F210080
:1049B00000203F2000809898000000000020203F49
:1049C00020200000000000809898000000C0808037
:1049D000807F000008F8000080808000203F2402D3
:1049E0002D302000000808F8000000000020203FC3
:1049F000202000008080808080808000203F200078
:104A00003F20003F8080008080800000203F210008
:104A100000203F200000808080800000001F2020B8
:104A200020201F00808000808000000080FFA120E7
:104A300020110E000000008080808000000E1120F8
:104A400020A0FF80808080008080800020203F2187
:104A5000200001000000808080808000003324243A
:104A600024241900008080E0808000000000001FE6
:104A7000202000008080000000808000001F202097
:104A800020103F20808080000080808000010E3058
:104A90000806010080800080008080800F300C03B9
:104AA0000C300F0000808000808080000020312EBC
:104AB0000E312000808080000080808080818E7098
:104AC0001806010000808080808080000021302C4A
:104AD0002221300000000000807C02020000000063
:104AE000003F404000000000FF0000000000000008
:104AF000FF0000000002027C800000000040403FF8
:104B00000000000000060101020204040000000091
:104B10000000000002000000040000000800000087
:104B200010000000FDFFFFFFFBFFFFFFF7FFFFFF8F
:104B3000EFFFFFFF584B00080000002010000000AE
:104B4000EC010008684B000810000020700700000E
:104B50000C0200080000000001000000100000002E
:084B60000024F4000000000035
:040000050800018965
:00000001FF
