:020000040800F2
:100000002807002055020008C1170008091700083A
:10001000BD1700088D040008951A000800000000B4
:10002000000000000000000000000000C9170008E8
:100030009104000800000000C5170008CD17000853
:100040006F0200086F0200086F0200086F020008CC
:100050006F0200086F0200086F0200086F020008BC
:100060006F0200086F0200086F0200086F020008AC
:100070006F0200086F0200086F0200086F0200089C
:100080006F0200086F0200086F0200086F0200088C
:100090006F0200086F0200086F0200086F0200087C
:1000A0006F0200086F0200086F0200086F0200086C
:1000B0006F0200086F0200086F0200086F0200085C
:1000C0006F0200086F0200086F0200086F0200084C
:1000D0006F020008891A00086F0200086F0200080A
:1000E0006F0200086F0200086F0200086F0200082C
:1000F0006F0200086F0200086F0200086F0200081C
:100100006F0200086F0200086F0200086F0200080B
:100110006F0200086F0200086F0200086F020008FB
:100120006F0200086F0200086F0200086F020008EB
:100130006F0200086F0200086F0200086F020008DB
:100140006F0200086F0200086F0200086F020008CB
:100150006F0200086F0200086F0200086F020008BB
:100160006F0200086F0200086F0200086F020008AB
:100170006F0200086F0200086F0200080000000014
:100180006F0200086F02000800F002F800F052F859
:1001900014A696E8000CB244B344DA4501D100F04D
:1001A00049F8BAE80F000FA696E83000A5EB040561
:1001B00004EB0607AAEB0704A7F101074FEA1515A0
:1001C0004FEA3414A4F10104AC4201D300F032F838
:1001D00013F0010F18BFFB1A43F0010300F001F800
:1001E000DBE7184780190000A0190000103A24BF6F
:1001F00078C878C1FAD8520724BF30C830C144BF8C
:1002000004680C6070470000704700000023002461
:1002100000250026103A28BF78C1FBD8520728BF16
:1002200030C148BF0B6070471FB501F081FC1FBD96
:1002300010B510BD00F0EFF81146FFF7F5FF01F023
:100240002BFC00F00DF903B4FFF7F2FF03BC00F044
:1002500015F900000948804709480047FEE7FEE716
:10026000FEE7FEE7FEE7FEE7FEE7FEE7FEE7FEE766
:1002700004480549054A064B7047000079180008F4
:1002800089010008280100202807002028030020F9
:100290002803002053EA020C00F069802DE9F04B9E
:1002A0004FF00006002B1FBFB3FA83F503FA05F4E5
:1002B00024FA05F65E4012BF1643B2FA82F502FA3E
:1002C00005F4C5F120051EBF22FA05FC44EA0C0422
:1002D000203556EA044C4FEA144418BF641C4FF012
:1002E00000084FF00009904271EB030C39D300294C
:1002F00019BFB1FA81F701FA07F6B0FA80F700FAF0
:1003000007F6C7F120071EBF20FA07FC46EA0C06D5
:100310002037B6FBF4FCA7EB0507103F07F01F0BD7
:10032000CBF120062CFA06F60CFA0BFB44BFB346C1
:100330000026202FA4BF5E464FF0000B5BEA060CA0
:1003400008BF4FF0010B19EB0B0948EB0608ABFB9C
:10035000027C06FB02CC0BFB03CCC01B71EB0C0137
:10036000C1E70B46024641464846BDE8F08B13B54F
:10037000084318BF4FF0FF300146AFF30080BDE8DF
:100380001C40704710B5431C02E010F8011B71B10E
:100390008107FAD14FF0013202C88C1A8C4314EA5B
:1003A000C211F9D0C01A0A0603D0C01E10BDC01A6F
:1003B00010BD0A0401D0801E10BD0902FCD0401EF1
:1003C00010BD4FF0000200B5134694469646203902
:1003D00022BFA0E80C50A0E80C50B1F12001BFF4FE
:1003E000F7AF090728BFA0E80C5048BF0CC05DF864
:1003F00004EB890028BF40F8042B08BF704748BFB2
:1004000020F8022B11F0804F18BF00F8012B704725
:10041000704770477047754600F02CF8AE460500EF
:100420006946534620F00700854618B020B5FFF70F
:100430001FFFBDE820404FF000064FF000074FF0CF
:1004400000084FF0000BAC46ACE8C009ACE8C009AE
:10045000ACE8C009ACE8C00921F007018D4670473F
:1004600010B50446AFF300802046BDE81040FFF70A
:10047000EABE000000487047100000200149182023
:10048000ABBEFEE72600020070470000FEE700005A
:100490007047000072B600BFFEE7000070B5866DC1
:1004A000044600F039F994F83510022928D10546A0
:1004B0002068216C026822F016020260426922F074
:1004C0008002426109B9A16C19B1016821F00801EB
:1004D0000160016821F00101016000BF206800682F
:1004E000C00715D000F018F9401B0628F6D32020CD
:1004F0006065032084F83500002184F8341070BD55
:10050000802060650120002184F8341070BD00BF98
:10051000E06D3F2101FA00F0B060012084F8350061
:100520000020002184F8341070BD000090F83510D0
:10053000022909D1052180F835100068016821F0F1
:100540000101016000207047802141650120704752
:10055000B0B5044600F0E0F8054640F20000C2F2F3
:1005600000000078611C18BF044400BF00F0D4F8FC
:10057000401BA042FAD3B0BD2DE9F04F82B000F18C
:100580003E4707F1FF77860546EA972741F6004682
:10059000C4F20206082243F6004EB04208BF07220A
:1005A000C4F2010E072F38BF3A46002600274FF04D
:1005B0000008009209E000BF08F101080237B8F115
:1005C000100F06F1040600F0A3800D68012202FA64
:1005D00008F415EA0409EFD0D1F804B003220BF0B7
:1005E000030CACF10105BA40012D6FEA020A0FD8E5
:1005F0008268CD6802EA0A02BD402A4382604268EE
:10060000A243CBF3001404FA08F42243426005E04D
:10061000BCF1030F02D14FF0030C1EE0C2688C68DE
:1006200002EA0A02BC402243BCF1020FC26014D1AC
:100630006FF0030202EA58020244D2F820C006F02A
:100640001C040F230D69A3402CEA0303A5402B4390
:100650001362D1F804B00BF0030C02680CFA07F334
:1006600002EA0A021A431BF4403F0260A4D00022AF
:1006700043F644030192C4F202031A684FF6084C91
:1006800042F480421A601A68CFF6FF7C02F480427E
:100690000192019A28F00302724452F80C3006F0DD
:1006A0000C050F24AC40A343009C04FA05F52B4332
:1006B00042F80C30DEF808204B6842EA090543F6A0
:1006C0000C4CDC0258BF22EA0905CEF80850C4F2EF
:1006D000010CDCF800209C0242EA090558BF22EA1E
:1006E0000905CCF80050DEF804209C0342EA090515
:1006F00058BF22EA0905CEF80450DEF80020DB03DB
:1007000042EA090558BF22EA0905CEF8005053E72E
:1007100002B0BDE8F08F000040F22010C2F20000ED
:100720000068704740F2000040F22011C2F2000061
:10073000C2F2000100780A681044086070470000A7
:1007400080B543F60040C4F20200016841F4007134
:100750000160016841F480610160016841F48071C9
:100760000160032000F086F80F2000F005F800F08B
:1007700027F8002080BD000070B540F20006C2F2EC
:10078000000640F208013278C2F200014FF47A7399
:100790000968B3FBF2F20446B1FBF2F1084600F03F
:1007A00061FB0F2C4FF0010508D838B94FF0FF302E
:1007B00021460022002500F031F87460284670BD03
:1007C00082B0002043F640010190C4F202014A6861
:1007D00042F480424A604A6802F480420192019ADF
:1007E0000090086840F080500860086800F0805071
:1007F0000090009802B07047002848BF704700F092
:100800001F01012202FA01F11C2202EAD0004EF27D
:100810000012CEF2000281507047000010B54EF673
:100820000C5CCEF2000CDCF80030C3F3022E8EF02C
:100830000704042C28BF0424BEF103034FF0FF3E3D
:100840000EFA04F438BF0023A14399400EFA03F3D3
:100850009A43114300F00F0200F160430901043A8A
:1008600003F564436244002848BF02F10C03197089
:1008700010BD00004EF60C51CEF200010A684FF692
:10088000FF031A4060F30A2242F0806040F0FD70DE
:1008900008607047002804BF012070472DE9F0412F
:1008A00043F60808C4F202080446D8F8F8030D46D7
:1008B00000F00700884207D288F8F853D8F8F80308
:1008C00000F00700A84277D12068810717D54107BB
:1008D00005D5D8F8001041F4E051C8F80010010720
:1008E00005D5D8F8001041F46041C8F80010D8F8D8
:1008F0000010A26821F0F0011143C8F80010C007F1
:1009000040D1D8F8F80300F00700A84207D988F8CA
:10091000F853D8F8F80300F00700A8424CD120683B
:10092000410707D5D8F80010E26821F4E0511143DF
:10093000C8F80010000708D5D8F80000216920F495
:10094000604040EAC100C8F8000000F07DF8D8F827
:10095000001041F64A32C1F30311C0F60002515CA7
:1009600040F2080220FA01F140F20400C2F2000055
:100970000068C2F200021160FFF7FEFE0020BDE831
:10098000F08100BF6068811E022907D258F8081C58
:1009900089015CBF0120BDE8F08111E0012807D189
:1009A00058F8081C89035CBF0120BDE8F08107E00E
:1009B00058F8081C890703D40120BDE8F08100BF66
:1009C000D8F8001021F003010843C8F80000FFF731
:1009D000A3FE064641F28837D8F80000616800F0AF
:1009E0000C00B0EB810F8CD0FFF796FE801BB84255
:1009F000F2D90320BDE8F08140F2080043F6080177
:100A0000C2F20000C4F202010068096841F65A32DD
:100A1000C1F38221C0F60002515CC840704700005B
:100A200040F2080043F60801C2F20000C4F20201DD
:100A30000068096841F65A32C1F34231C0F600023B
:100A4000515CC8407047000010B543F60404C4F27E
:100A50000204606800F00C0142F200400829C0F274
:100A6000F40007D0042918BF10BD41F20020C0F2E5
:100A70007A0010BD216801F03F0221682368490215
:100A8000C3F3881106D4A1FB00010023FFF702FC89
:100A900007E000BF41F20020C0F27A004843B0FBFB
:100AA000F2F021680222C1F3014102EB4101B0FBE7
:100AB000F1F010BD002804BF012070472DE9F0417E
:100AC00082B00446007843F60006C007C4F202066E
:100AD0000CD0B06800F00C00042840F08180306831
:100AE000800303D56068002800F06A8120788007C1
:100AF0001BD5B06810F00C0F09D0B06800F00C00E6
:100B0000082840F087807068400200F183803068D8
:100B1000800703D5E068012840F0528130682169E0
:100B200020F0F80040EAC10030602078000713D4BC
:100B3000207840072AD4A569002D00F03C81B068D8
:100B400000F00C00082840F0A180012D40F0108139
:100B5000012002B0BDE8F0816069002840F2000089
:100B6000C4F2472000F07E800121C0F8801EFFF70C
:100B7000D3FD0546706F8007DAD4FFF7CDFD401B2B
:100B80000228F7D9032002B0BDE8F081306C5FEA9B
:100B9000C0080AD400200190306C40F080503064CE
:100BA000306C00F080500190019847F20007C4F2C9
:100BB00000073868C00547D4386840F48070386052
:100BC000FFF7AAFD054600BF3868C0053CD4FFF713
:100BD000A3FD401B0228F7D9032002B0BDE8F08135
:100BE000B06800F00C00082803D1706840023FF59F
:100BF00076AF6068B0F5803F07D0B0F5A02F40F029
:100C00009B80306840F480203060306840F4803051
:100C100030609BE0E06800285CD00020C4F24720F0
:100C200001210160FFF778FD054600BF30688007AD
:100C30003FF574AFFFF770FD401B0228F6D9032083
:100C400002B0BDE8F08100BFA068012805D00528EA
:100C500054D1306F40F004003067306F40F0010035
:100C6000306755E00021C0F8801EFFF755FD0546AE
:100C7000706F80077FF55CAFFFF74EFD401B0228C9
:100C8000F6D9032002B0BDE8F08100BF0027C4F20E
:100C9000472700203866FFF73FFD022D05460DD19E
:100CA0003068800140F19080FFF736FD401B02283C
:100CB0004FF00300F4D902B0BDE8F0813068800144
:100CC00079D5FFF729FD401B02284FF00300F5D925
:100CD000F1E700BF0020C4F2472000210160FFF7C8
:100CE0001BFD0546306880077FF51FAFFFF714FD39
:100CF000401B02284FF00300F4D9DCE7316F0028D5
:100D000021F001013167316F21F0040131677DD09D
:100D1000FFF702FD054641F2883700BF306F8007BC
:100D200000F18680FFF7F8FC401BB842F6D903209B
:100D300002B0BDE8F08100BF3168002821F48031A5
:100D40003160316821F4802131607BD0FFF7E4FC11
:100D5000054600BF306880033FF5C8AEFFF7DCFCF6
:100D6000401B6428F6D9032002B0BDE8F08100BF23
:100D70007068E16900F480028A4221D1216A00F0A2
:100D80003F028A421CD147F6C071626A0140B1EB52
:100D9000821F15D1A16A4FF6FF73C903994300F46E
:100DA0004032A1F580318A420AD1E16A00F07060D8
:100DB000B0EB016F04D1002002B0BDE8F08100BFAC
:100DC000012002B0BDE8F08104F11C052FCD0843DD
:100DD00040EA8210D9034FF6FF729143A1F58031AA
:100DE00040EA05600843706001203866FFF794FC14
:100DF000044600BF30688001DDD4FFF78DFC001B86
:100E000002284FF00300F5D955E700BFFFF784FC37
:100E1000054641F2883700BF306F800708D5FFF7DD
:100E20007BFC401BB8424FF00300F5D943E700BFFD
:100E3000B8F1000F3FF57FAE306C20F08050306489
:100E400079E600BFFFF768FC054600BF3068800305
:100E50007FF54CAEFFF760FC401B64284FF00300A9
:100E6000F4D928E7411E0020B0EB116F1CBF012010
:100E700070474EF21002CEF2000251604EF623513E
:100E8000CEF20001F0230B700721906011607047D3
:100E90007047000070470000B0B582B0044600689B
:100EA0000168C368426901F02F05202D03F0200579
:100EB00006D12DB1204602B0BDE8B04000F0ECBC38
:100EC0005FEA017C1EBF02F0010E03F4907212EB88
:100ED0000E0243D1226BCD0618D5012A16D113F08C
:100EE000100213D000210191016801914168019124
:100EF0000199406940063BD4A08DE18DE28D002A26
:100F000018BF884240F0FE8102B0B0BD0A0640F131
:100F1000E98013F0800200F0E58094F84110212967
:100F2000F2D1A168B1F5805F03D12169002900F0F9
:100F30006F82216A4A1C226209784160E18C013982
:100F40000A04E184E0D1C16821F08001C160C16878
:100F500041F04001C16002B0B0BD00BFCA0718BF78
:100F600013F4807240F0DC804A0700F1DF80E4E097
:100F7000E06B01684A68A38D91B2002900F0C68039
:100F8000994280F0C380E285C069B0F5807F00F0AF
:100F90009C80206850E8030F216820F4807041E8AD
:100FA0000302DAB1206850E8030F216820F4807052
:100FB00041E8030292B1206850E8030F216820F451
:100FC000807041E803024AB1206850E8030F2168AD
:100FD00020F4807041E80302002ADAD1206850E84A
:100FE000050F216820F0010041E80502DAB1206810
:100FF00050E8050F216820F0010041E8050292B198
:10100000206850E8050F216820F0010041E8050242
:101010004AB1206850E8050F216820F0010041E83E
:101020000502002ADAD1206850E8050F216820F077
:10103000400041E80502DAB1206850E8050F216858
:1010400020F0400041E8050292B1206850E8050F09
:10105000216820F0400041E805024AB1206850E8CC
:10106000050F216820F0400041E80502002ADAD18E
:10107000202084F8420000202063206850E8030FFD
:10108000216820F0100041E80302DAB1206850E83E
:10109000030F216820F0100041E8030292B120689C
:1010A00050E8030F216820F0100041E803024AB124
:1010B000206850E8030F216820F0100041E8030287
:1010C000002ADAD1E06BFFF7E9F902206063A08D16
:1010D000E18D401A81B2204602B0BDE8B040FFF772
:1010E000D7BE00BF49067FF50FAF13F040013FF4B4
:1010F0000BAFC16821F04001C1602021204684F877
:10110000411002B0BDE8B04000F0FCBA8B427FF461
:10111000FBAEC069B0F5807F7FF4F6AE02226AE1D3
:10112000626C42F0010262644A0706D5BEF1000F0C
:1011300003D0626C42F0020262648A0706D5BEF1F7
:10114000000F03D0626C42F004026264BCF1000F35
:1011500006D55EEA050203D0626C42F008026264C2
:10116000626C002A3FF4D0AE890604D51DB120463A
:1011700000F092FB20684069616C00F0400001F0D3
:101180000801401800F0B680206850E8030F21687D
:1011900020F4907041E80302BAB3206850E8030FCE
:1011A000216820F4907041E8030272B3206850E88F
:1011B000030F216820F4907041E803022AB32068ED
:1011C00050E8030F216820F4907041E80302002AE0
:1011D000DAD11AE0206850E8050F216820F00100FC
:1011E00041E80502DAB1206850E8050F216820F0D7
:1011F000010041E8050292B1206850E8050F21681E
:1012000020F0010041E805024AB1206850E8050FCE
:10121000216820F0010041E80502002ADAD1206BA4
:10122000012824D1206850E8030F216820F0100025
:1012300041E80302DAB1206850E8030F216820F08A
:10124000100041E8030292B1206850E8030F2168C2
:1012500020F0100041E803024AB1206850E8030F73
:10126000216820F0100041E80302002ADAD1202092
:1012700084F842000020206320684069400640F165
:10128000C180206850E8050F216820F0400041E847
:101290000502DAB1206850E8050F216820F040000F
:1012A00041E8050292B1206850E8050F216820F05E
:1012B000400041E805024AB1206850E8050F216866
:1012C00020F0400041E80502002ADAD1E06B002856
:1012D00000F0988041F68D01C0F600010165FFF72E
:1012E00025F900283FF410AEE06B016D02B0BDE8B7
:1012F000B04008472046FFF7CDFD0020606402B0F3
:10130000B0BD00BF401A00BF216851E8031F22682A
:1013100021F4907142E80313BBB3216851E8031F25
:10132000226821F4907142E8031373B3216851E8F5
:10133000031F226821F4907142E803132BB3216844
:1013400051E8031F226821F4907142E80313002B37
:10135000DAD11AE0216851E8051F226821F0010165
:1013600042E80513DBB1216851E8051F226821F02E
:10137000010142E8051393B1216851E8051F226875
:1013800021F0010142E805134BB1216851E8051F26
:10139000226821F0010142E80513002BDAD1202157
:1013A00084F8421000212163216851E8031F22685C
:1013B00021F0100142E80313DBB1216851E8031F5B
:1013C000226821F0100142E8031393B1216851E82B
:1013D000031F226821F0100142E803134BB121687A
:1013E00051E8031F226821F0100142E80313002B8B
:1013F000DAD1022281B22046626302B0BDE8B04079
:10140000FFF746BD204602B0BDE8B040FFF742BD41
:10141000216A31F8022B6FF35F22426021628DE571
:10142000002804BF0120704710B5044690F8410021
:1014300028B9002084F84000204600F021F824203C
:1014400084F841002068C16821F40051C160204641
:1014500000F0A2FA2068016921F49041016141691C
:1014600021F02A014161C16841F40051C1600020AE
:101470002021606484F8411084F84210606310BD3C
:10148000016841F20000C4F20100814218BF7047B8
:1014900080B586B0002143F630020191C4F2020209
:1014A000536900F5704043F010035361536903F032
:1014B00010030193019B0191136843F00103136032
:1014C000126802F001020192019A4FF4C062019287
:1014D0000222CDE90221032104910721059101A9EE
:1014E000FFF74AF8252000210022FFF797F9252071
:1014F000FFF782F906B0BDE88040704790F84230AF
:10150000202B07D100294FF0010318BF002A05D175
:101510001846704702231846704700BF0023036334
:10152000816222218285C285436480F8421001696C
:10153000006819B1C16841F48071C160416941F02E
:1015400001014161C16841F02001C1601846704746
:10155000006841F20001C4F20101884218BF7047DF
:1015600080B540F27001C2F200010B7840F2BC0E6F
:10157000581C0870081D11F801CFC2F2000E01229C
:101580000EF803C0BDE88040FFF7B8BF2DE9F04179
:10159000044690F8410020281CBF0220BDE8F081DD
:1015A0000D4600294FF0010000F0AA801646002ADF
:1015B00008BFBDE8F081002060642120984684F8CF
:1015C0004100FFF7A9F8A684E684A1680646B1F5B4
:1015D000805F02D12069002862D02F460025E08C70
:1015E000002861D018F1010018D0B8F1000F37D1F0
:1015F000216808E017F8010B4860E08C0138E084AE
:10160000E08C002851D00868000673D5002FF1D176
:1016100035F8020B00276FF35F20EDE7216802E049
:101620000868000609D40868000606D408680006A1
:101630005CBF08685FEA0060F2D51FB117F8010BC4
:1016400005E000BF35F8020B00276FF35F2048600C
:10165000E08C0138E084E08C0028E4D125E000BF74
:10166000216800BF0868000608D4FFF755F8801B02
:10167000404541D82168C868F4E700BF17B117F8A2
:10168000010B04E035F8020B00276FF35F20486080
:10169000E08C0138E084E08C0028E3D105E000BF55
:1016A0000027E08C00289DD12168086840061FD4DF
:1016B000B8F1000F1ED018F101000FD108684006E4
:1016C00016D40868400613D40868400610D4086889
:1016D00040064FF00000F1D50FE000BFFFF71CF807
:1016E000801B404508D82068C16800684006F5D5D1
:1016F000002002E0FFF710F80320202184F84110B9
:10170000BDE8F08170470000FEE7000080B586B0BC
:10171000002043F630010190C4F202010A6842F051
:1017200080020A600A6802F080020192019A019028
:101730000A6842F001020A600A6802F0010201929E
:10174000019A01900A6842F008020A60096801F0F3
:10175000080101910199042101910221CDE90210B2
:10176000032004900820059040F60040C4F20200D7
:1017700001A9FEF701FF06B080BD000080B540F270
:10178000700041F20001C2F20000C4F2010140F811
:10179000041F4FF4E13100220C23C0E90112C0E91B
:1017A0000322C0E90532C261FFF73AFE002808BFF4
:1017B00080BDBDE88040FEF76DBE0000FEE7000082
:1017C000FEE700007047000070470000FEF7AABF68
:1017D000B0B592B0002443F64000CDE90A44CDE90B
:1017E00008440594CDE90344CDE901440094C4F2D2
:1017F00002000168022541F080510160006800F09C
:1018000080500090009847F200000094C4F200005D
:10181000016841F4804101600068A82100F4804023
:1018200000900098012006904FF4803007904FF40C
:1018300080000D9004200E90119006A80C95CDE923
:101840000F15FFF737F918B172B600BFFEE700BFFA
:101850000F20CDE901054FF4A05004904FF48050C3
:10186000059001A805210394FFF714F810B172B692
:10187000FEE700BF12B0B0BD4EF68850CEF20000B9
:10188000016841F47001016070470000806B002125
:10189000C185FFF7FFBA000081B090F842102229FD
:1018A00021D183680246B3F5805F09D152F8281F21
:1018B00052F8183C002B63D003685B680AE000BF55
:1018C00052F8281F13B90369002BF5D003685B6831
:1018D00003F07F030B70116801311160C18D013974
:1018E0000A04C18502D001B0704700BF0168CA6810
:1018F00022F02002CA60CA6822F48072CA604A6973
:1019000022F001024A61202180F842100021416347
:10191000026B012A3CD10163016851E8031F026890
:1019200021F0100142E80313DBB1016851E8031F05
:10193000026821F0100142E8031393B1016851E8F5
:10194000031F026821F0100142E803134BB1016844
:1019500051E8031F026821F0100142E80313002B35
:10196000DAD101680A68D20606D5002200920A6818
:101970000092496800910099818D01B0FFF788BA03
:10198000026852686FF35F2221F8022B8162A5E79B
:1019900001B0FFF7DDBD000010B504460068D4E9D2
:1019A00002C22369016921F4405111430161626956
:1019B00043EA0C01E3691143C268194349F20C631D
:1019C0009A431143C1604169A26921F4407141F217
:1019D0000043114340F48062C4F201039A42416122
:1019E00002D1FFF71DF801E0FFF706F8E16963682F
:1019F0001922B1F5004FA0FB020123D15A00DB0FE1
:101A0000FEF748FC48F21F51C5F2EB11A0FB012381
:101A10005A094FF69C73C0F6FF7303F1805302FB23
:101A20000300322303EBC000A0FB01014FF4F87068
:101A300000EA111000EB0210C1F3421108442168C2
:101A4000886010BD9A009B0FFEF724FC48F21F51DE
:101A5000C5F2EB11A0FB01235A094FF69C73C0F6A7
:101A6000FF7302FB0300322303EB0010A0FB010114
:101A7000F02000EA511000EB0210C1F343110844BA
:101A80002168886010BD000040F27400C2F20000BE
:101A9000FFF702BAFEE70000FEF752FEFFF798FEDE
:101AA000FFF734FEFFF76AFE40F2740040F2710166
:101AB000C2F20000C2F200010122FFF71FFD40F256
:101AC0007004C2F20004207880B100BF05460028EF
:101AD0004FF00000FAD00120FEF73AFD2078854251
:101AE000F4D100F005F82078F0E700BFFEE7000031
:101AF000B0B540F27005C2F20005287870B140F22E
:101B0000BC04C2F200042046FEF73CFC291D82B250
:101B1000084621464FF0FF33FFF738FD00202870BC
:101B200040F2BC00C2F200006421FEF74AFCB0BDE6
:101B3000F1EE100A4FF6FF71C0F2C03120EA010049
:101B400040F04070E1EE100A704700000000000015
:101B5000000001020304060708090000000001025A
:101B600003040000881B0008000000201000000093
:101B7000EC010008981B0008100000201807000066
:101B80000C0200080000000001000000100000002E
:081B90000024F4000000000035
:040000050800018965
:00000001FF
