:020000040800F2
:1000000078060020550200083D0D0008B90C0008D4
:10001000390D000801040008E50F00080000000089
:10002000000000000000000000000000210F000898
:1000300005040008000000001D0F0008250F00083F
:100040006F0200086F0200086F0200086F020008CC
:100050006F0200086F0200086F0200086F020008BC
:100060006F0200086F0200086F0200086F020008AC
:100070006F0200086F0200086F0200086F0200089C
:100080006F0200086F0200086F0200086F0200088C
:100090006F0200086F0200086F0200086F0200087C
:1000A0006F0200086F0200086F0200086F0200086C
:1000B0006F0200086F0200086F0200086F0200085C
:1000C0006F0200086F0200086F0200086F0200084C
:1000D0006F0200086F0200086F0200086F0200083C
:1000E0006F0200086F0200086F0200086F0200082C
:1000F0006F0200086F0200086F0200086F0200081C
:100100006F0200086F0200086F0200086F0200080B
:100110006F0200086F0200086F0200086F020008FB
:100120006F0200086F0200086F0200086F020008EB
:100130006F0200086F0200086F0200086F020008DB
:100140006F0200086F0200086F0200086F020008CB
:100150006F0200086F0200086F0200086F020008BB
:100160006F0200086F0200086F0200086F020008AB
:100170006F0200086F0200086F0200080000000014
:100180006F0200086F02000800F002F800F052F859
:1001900014A696E8000CB244B344DA4501D100F04D
:1001A00049F8BAE80F000FA696E83000A5EB040561
:1001B00004EB0607AAEB0704A7F101074FEA1515A0
:1001C0004FEA3414A4F10104AC4201D300F032F838
:1001D00013F0010F18BFFB1A43F0010300F001F800
:1001E000DBE718478C200000AC200000103A24BF49
:1001F00078C878C1FAD8520724BF30C830C144BF8C
:1002000004680C6070470000704700000023002461
:1002100000250026103A28BF78C1FBD8520728BF16
:1002200030C148BF0B6070471FB501F014FD1FBD02
:1002300010B510BD00F0A9F81146FFF7F5FF00F06A
:10024000D3FE00F0C7F803B4FFF7F2FF03BC00F0E1
:10025000CFF800000948804709480047FEE7FEE75D
:10026000FEE7FEE7FEE7FEE7FEE7FEE7FEE7FEE766
:1002700004480549054A064B70470000D10F0008A5
:10028000890100087800002078060020780200200C
:100290007802002053EA020C00F069802DE9F04B4F
:1002A0004FF00006002B1FBFB3FA83F503FA05F4E5
:1002B00024FA05F65E4012BF1643B2FA82F502FA3E
:1002C00005F4C5F120051EBF22FA05FC44EA0C0422
:1002D000203556EA044C4FEA144418BF641C4FF012
:1002E00000084FF00009904271EB030C39D300294C
:1002F00019BFB1FA81F701FA07F6B0FA80F700FAF0
:1003000007F6C7F120071EBF20FA07FC46EA0C06D5
:100310002037B6FBF4FCA7EB0507103F07F01F0BD7
:10032000CBF120062CFA06F60CFA0BFB44BFB346C1
:100330000026202FA4BF5E464FF0000B5BEA060CA0
:1003400008BF4FF0010B19EB0B0948EB0608ABFB9C
:10035000027C06FB02CC0BFB03CCC01B71EB0C0137
:10036000C1E70B46024641464846BDE8F08B13B54F
:10037000084318BF4FF0FF300146AFF30080BDE8DF
:100380001C407047704770477047754600F02CF866
:10039000AE4605006946534620F00700854618B072
:1003A00020B5FFF765FFBDE820404FF000064FF095
:1003B00000074FF000084FF0000BAC46ACE8C00956
:1003C000ACE8C009ACE8C009ACE8C00921F00701FD
:1003D0008D46704710B50446AFF300802046BDE857
:1003E0001040FFF730BF00000048704710000020A9
:1003F00001491820ABBEFEE726000200704700004E
:10040000FEE70000704700002DE9F04F82B000F1D8
:100410003E4707F1FF77860546EA972741F60046F3
:10042000C4F20206082243F6004EB04208BF07227B
:10043000C4F2010E072F38BF3A46002600274FF0BE
:100440000008009209E000BF08F101080237B8F186
:10045000100F06F1040600F0A3800D68012202FAD5
:1004600008F415EA0409EFD0D1F804B003220BF028
:10047000030CACF10105BA40012D6FEA020A0FD856
:100480008268CD6802EA0A02BD402A43826042685F
:10049000A243CBF3001404FA08F42243426005E0BF
:1004A000BCF1030F02D14FF0030C1EE0C2688C6850
:1004B00002EA0A02BC402243BCF1020FC26014D11E
:1004C0006FF0030202EA58020244D2F820C006F09C
:1004D0001C040F230D69A3402CEA0303A5402B4302
:1004E0001362D1F804B00BF0030C02680CFA07F3A6
:1004F00002EA0A021A431BF4403F0260A4D0002221
:1005000043F644030192C4F202031A684FF6084C02
:1005100042F480421A601A68CFF6FF7C02F48042EF
:100520000192019A28F00302724452F80C3006F04E
:100530000C050F24AC40A343009C04FA05F52B43A3
:1005400042F80C30DEF808204B6842EA090543F611
:100550000C4CDC0258BF22EA0905CEF80850C4F260
:10056000010CDCF800209C0242EA090558BF22EA8F
:100570000905CCF80050DEF804209C0342EA090586
:1005800058BF22EA0905CEF80450DEF80020DB034C
:1005900042EA090558BF22EA0905CEF8005053E7A0
:1005A00002B0BDE8F08F0000002A08BF0904816195
:1005B0007047000040F27000C2F20000006870470F
:1005C00040F2000040F27001C2F20000C2F20001ED
:1005D00000780A68104408607047000080B543F650
:1005E0000040C4F20200016841F40071016001683A
:1005F00041F480610160016841F480710160032071
:1006000000F074F80F2000F005F800F027F8002043
:1006100080BD000070B540F20006C2F2000640F254
:1006200008013278C2F200014FF47A730968B3FB13
:10063000F2F20446B1FBF2F1084600F027FB0F2C62
:100640004FF0010508D838B94FF0FF30214600229D
:10065000002500F01FF87460284670BD82B00020AD
:1006600043F640010190C4F202014A6842F480421C
:100670004A604A6802F480420192019A0090086838
:1006800040F080500860086800F0805000900098AA
:1006900002B0704710B54EF60C5CCEF2000CDCF8E0
:1006A0000030C3F3022E8EF00704042C28BF04246C
:1006B000BEF103034FF0FF3E0EFA04F438BF0023EF
:1006C000A14399400EFA03F39A43114300F00F023D
:1006D00000F160430901043A03F5644362440028D1
:1006E00048BF02F10C03197010BD00004EF60C510A
:1006F000CEF200010A684FF6FF031A4060F30A22A7
:1007000042F0806040F0FD7008607047002804BF30
:10071000012070472DE9F04143F60808C4F20208B1
:100720000446D8F8F8030D4600F00700884207D2C7
:1007300088F8F853D8F8F80300F00700A84277D1FA
:100740002068810717D5410705D5D8F8001041F476
:10075000E051C8F80010010705D5D8F8001041F4A1
:100760006041C8F80010D8F80010A26821F0F0012C
:100770001143C8F80010C00740D1D8F8F80300F0C2
:100780000700A84207D988F8F853D8F8F80300F012
:100790000700A8424CD12068410707D5D8F80010BF
:1007A000E26821F4E0511143C8F80010000708D5B1
:1007B000D8F80000216920F4604040EAC100C8F880
:1007C000000000F055F8D8F8001041F67042C1F36F
:1007D0000311C0F60002515C40F2080220FA01F158
:1007E00040F20400C2F200000068C2F20002116090
:1007F000FFF710FF0020BDE8F08100BF6068811E98
:10080000022907D258F8081C89015CBF0120BDE805
:10081000F08111E0012807D158F8081C89035CBF5A
:100820000120BDE8F08107E058F8081C890703D4CF
:100830000120BDE8F08100BFD8F8001021F00301CD
:100840000843C8F80000FFF7B5FE064641F28837B6
:10085000D8F80000616800F00C00B0EB810F8CD07C
:10086000FFF7A8FE801BB842F2D90320BDE8F08153
:1008700010B543F60404C4F20204606800F00C01F1
:1008800042F200400829C0F2F40007D0042918BF42
:1008900010BD41F20020C0F27A0010BD216801F0C5
:1008A0003F02216823684902C3F3881106D4A1FBE3
:1008B00000010023FFF7EEFC07E000BF41F200203B
:1008C000C0F27A004843B0FBF2F021680222C1F383
:1008D000014102EB4101B0FBF1F010BD002804BF63
:1008E000012070472DE9F04182B00446007843F6BC
:1008F0000006C007C4F202060CD0B06800F00C007D
:10090000042840F081803068800303D560680028A7
:1009100000F06A81207880071BD5B06810F00C0FBA
:1009200009D0B06800F00C00082840F0878070689B
:10093000400200F183803068800703D5E068012819
:1009400040F052813068216920F0F80040EAC1008F
:1009500030602078000713D4207840072AD4A56996
:10096000002D00F03C81B06800F00C00082840F039
:10097000A180012D40F01081012002B0BDE8F0817E
:100980006069002840F20000C4F2472000F07E8039
:100990000121C0F8801EFFF70DFE0546706F80072D
:1009A000DAD4FFF707FE401B0228F7D9032002B074
:1009B000BDE8F081306C5FEAC0080AD400200190E5
:1009C000306C40F080503064306C00F0805001900A
:1009D000019847F20007C4F200073868C00547D401
:1009E000386840F480703860FFF7E4FD054600BFCA
:1009F0003868C0053CD4FFF7DDFD401B0228F7D95D
:100A0000032002B0BDE8F081B06800F00C000828B7
:100A100003D1706840023FF576AF6068B0F5803F63
:100A200007D0B0F5A02F40F09B80306840F48020C4
:100A30003060306840F4803030609BE0E06800282F
:100A40005CD00020C4F2472001210160FFF7B2FD15
:100A5000054600BF306880073FF574AFFFF7AAFD79
:100A6000401B0228F6D9032002B0BDE8F08100BF88
:100A7000A068012805D0052854D1306F40F004004B
:100A80003067306F40F00100306755E00021C0F85A
:100A9000801EFFF78FFD0546706F80077FF55CAF06
:100AA000FFF788FD401B0228F6D9032002B0BDE8FD
:100AB000F08100BF0027C4F2472700203866FFF707
:100AC00079FD022D05460DD13068800140F19080FE
:100AD000FFF770FD401B02284FF00300F4D902B06D
:100AE000BDE8F0813068800179D5FFF763FD401BD8
:100AF00002284FF00300F5D9F1E700BF0020C4F24F
:100B0000472000210160FFF755FD0546306880074A
:100B10007FF51FAFFFF74EFD401B02284FF003008B
:100B2000F4D9DCE7316F002821F001013167316F22
:100B300021F0040131677DD0FFF73CFD054641F20D
:100B4000883700BF306F800700F18680FFF732FDE5
:100B5000401BB842F6D9032002B0BDE8F08100BFC7
:100B60003168002821F480313160316821F480211E
:100B700031607BD0FFF71EFD054600BF3068800363
:100B80003FF5C8AEFFF716FD401B6428F6D90320D9
:100B900002B0BDE8F08100BF7068E16900F4800236
:100BA0008A4221D1216A00F03F028A421CD147F6D5
:100BB000C071626A0140B1EB821F15D1A16A4FF684
:100BC000FF73C903994300F44032A1F580318A4292
:100BD0000AD1E16A00F07060B0EB016F04D100202F
:100BE00002B0BDE8F08100BF012002B0BDE8F08195
:100BF00004F11C052FCD084340EA8210D9034FF6BB
:100C0000FF729143A1F5803140EA056008437060AE
:100C100001203866FFF7CEFC044600BF3068800133
:100C2000DDD4FFF7C7FC001B02284FF00300F5D905
:100C300055E700BFFFF7BEFC054641F2883700BF0D
:100C4000306F800708D5FFF7B5FC401BB8424FF066
:100C50000300F5D943E700BFB8F1000F3FF57FAEC1
:100C6000306C20F08050306479E600BFFFF7A2FCC2
:100C7000054600BF306880037FF54CAEFFF79AFC55
:100C8000401B64284FF00300F4D928E7411E0020E0
:100C9000B0EB116F1CBF012070474EF21002CEF274
:100CA000000251604EF62351CEF20001F0230B708A
:100CB0000721906011607047FEE7000070B586B0B4
:100CC000002543F6300005950095C4F20200016846
:100CD00041F2000441F0800101600168C4F20204A5
:100CE00001F080010091009900950168002241F017
:100CF0001001016001684FF4785601F01001009175
:100D000000990095016841F00101016000684FF40D
:100D1000785100F00100009000982046FFF744FC55
:100D20000120CDE90205049001A920460196FFF7B4
:100D30006BFB06B070BD0000FEE70000FEE70000A0
:100D4000B0B541F20004C4F20204054600F080028E
:100D500020464FF48061FFF727FC20464FF40071D6
:100D60000122FFF721FC20464FF400710022FFF71B
:100D70001BFC05F0400220464FF48061FFF714FC95
:100D800020464FF400710122FFF70EFC20464FF47D
:100D900000710022FFF708FC05F0200220464FF406
:100DA0008061FFF701FC20464FF400710122FFF73C
:100DB000FBFB20464FF400710022FFF7F5FB05F026
:100DC000100220464FF48061FFF7EEFB20464FF4FF
:100DD00000710122FFF7E8FB20464FF4007100226A
:100DE000FFF7E2FB05F0080220464FF48061FFF7B1
:100DF000DBFB20464FF400710122FFF7D5FB2046B4
:100E00004FF400710022FFF7CFFB05F004022046EB
:100E10004FF48061FFF7C8FB20464FF400710122B8
:100E2000FFF7C2FB20464FF400710022FFF7BCFB26
:100E300005F0020220464FF48061FFF7B5FB204623
:100E40004FF400710122FFF7AFFB20464FF4007111
:100E50000022FFF7A9FB05F0010220464FF4806154
:100E6000FFF7A2FB20464FF400710122FFF79CFB25
:100E700020464FF400710022BDE8B040FFF794BB5C
:100E800070B541F20005C4F202050C4640F0B00610
:100E900028464FF400510022FFF786FB28464FF406
:100EA00080510022FFF780FB3046FFF749FF2846BC
:100EB0004FF400510122FFF777FB200900F11006E3
:100EC00028464FF400510022FFF76EFB28464FF4EE
:100ED00080510022FFF768FB3046FFF731FF2846BC
:100EE0004FF400510122FFF75FFB28464FF40051F9
:100EF0000022FFF759FB28464FF480510022FFF7EC
:100F000053FB04F00F00FFF71BFF28464FF400517E
:100F10000122BDE87040FFF747BB000070470000AA
:100F200070470000FFF74CBBB0B592B0002443F609
:100F30004000CDE90A44CDE908440594CDE90344D5
:100F4000CDE901440094C4F202000168022541F099
:100F500080510160006800F080500090009847F2D6
:100F600000000094C4F20000016841F48041016077
:100F70000068A82100F480400090009801200690AD
:100F80004FF4803007904FF480000D9004200E90B5
:100F9000119006A80C95CDE90F15FFF79FFC18B12D
:100FA00072B600BFFEE700BF0F20CDE901054FF488
:100FB000A05004904FF48050059001A8052103949F
:100FC000FFF7A4FB10B172B6FEE700BF12B0B0BDD0
:100FD0004EF68850CEF20000016841F470010160C5
:100FE00070470000FEE70000FFF7F8FAFFF79CFFEC
:100FF000FFF764FE00F032F911A400BF01200121C7
:10100000224600F013FE0220012143F2390205239B
:1010100000F04AFD022007216FF05702022300F082
:101020009DFD032001214AF6CD32042300F0F2FC9D
:101030000420012145F27862102300F019FBDDE75E
:1010400053544D3332463430375645543600000041
:10105000B0B541F2000400200021C4F202040025D2
:10106000FFF70EFF20464FF400510022FFF79CFAD5
:1010700020464FF480510122FFF796FA0020FFF737
:101080005FFE20464FF400510122FFF78DFA681CE5
:1010900045B2B5F1FF3FE5DC012000210025FFF757
:1010A000EFFE00BF20464FF400510022FFF77CFA0C
:1010B00020464FF480510122FFF776FA0020FFF717
:1010C0003FFE20464FF400510122FFF76DFA681CE5
:1010D00045B2B5F1FF3FE5DC022000210025FFF716
:1010E000CFFE00BF20464FF400510022FFF75CFA0C
:1010F00020464FF480510122FFF756FA0020FFF7F7
:101100001FFE20464FF400510122FFF74DFA681CE4
:1011100045B2B5F1FF3FE5DC032000210025FFF7D4
:10112000AFFE00BF20464FF400510022FFF73CFA0B
:1011300020464FF480510122FFF736FA0020FFF7D6
:10114000FFFD20464FF400510122FFF72DFA681CE5
:1011500045B2B5F1FF3FE5DC042000210025FFF793
:101160008FFE00BF20464FF400510022FFF71CFA0B
:1011700020464FF480510122FFF716FA0020FFF7B6
:10118000DFFD20464FF400510122FFF70DFA681CE5
:1011900045B2B5F1FF3FE5DC052000210025FFF752
:1011A0006FFE00BF20464FF400510022FFF7FCF90C
:1011B00020464FF480510122FFF7F6F90020FFF797
:1011C000BFFD20464FF400510122FFF7EDF9681CE6
:1011D00045B2B5F1FF3FE5DC062000210025FFF711
:1011E0004FFE00BF20464FF400510022FFF7DCF90C
:1011F00020464FF480510122FFF7D6F90020FFF777
:101200009FFD20464FF400510122FFF7CDF9681CE5
:1012100045B2B5F1FF3FE5DC072000210025FFF7CF
:101220002FFE00BF20464FF400510022FFF7BCF90B
:1012300020464FF480510122FFF7B6F90020FFF756
:101240007FFD20464FF400510122FFF7ADF9681CE5
:1012500045B2B5F1FF3FE5DCB0BD000010B541F28D
:101260000004C4F2020420464FF400710022FFF78C
:101270009BF920464FF480610122FFF795F9204643
:101280004FF400610122FFF78FF920464FF480519F
:101290000122FFF789F920464FF400510122FFF7A0
:1012A00083F920464FF400510022FFF77DF92046D4
:1012B0004FF480510022FFF777F9AE20FFF740FD91
:1012C00020464FF400510122FFF76EF920464FF4FB
:1012D00000510022FFF768F920464FF480510022A8
:1012E000FFF762F9D520FFF72BFD20464FF40051A0
:1012F0000122FFF759F920464FF400510022FFF771
:1013000053F920464FF480510022FFF74DF9802019
:10131000FFF716FD20464FF400510122FFF744F974
:1013200020464FF400510022FFF73EF920464FF4CB
:1013300080510022FFF738F9A820FFF701FD204671
:101340004FF400510122FFF72FF920464FF40051CE
:101350000022FFF729F920464FF480510022FFF7C1
:1013600023F93F20FFF7ECFC20464FF40051012207
:10137000FFF71AF920464FF400510022FFF714F945
:1013800020464FF480510022FFF70EF9D320FFF7DB
:10139000D7FC20464FF400510122FFF705F9204603
:1013A0004FF400510022FFF7FFF820464FF4805120
:1013B0000022FFF7F9F80020FFF7C2FC20464FF4A7
:1013C00000510122FFF7F0F820464FF400510022AF
:1013D000FFF7EAF820464FF480510022FFF7E4F8C7
:1013E0004020FFF7ADFC20464FF400510122FFF7EB
:1013F000DBF820464FF400510022FFF7D5F82046D5
:101400004FF480510022FFF7CFF8A120FFF798FC9E
:1014100020464FF400510122FFF7C6F820464FF452
:1014200000510022FFF7C0F820464FF480510022FF
:10143000FFF7BAF8C820FFF783FC20464FF40051AD
:101440000122FFF7B1F820464FF400510022FFF7C8
:10145000ABF820464FF480510022FFF7A5F8DA20C0
:10146000FFF76EFC20464FF400510122FFF79CF875
:1014700020464FF400510022FFF796F820464FF423
:1014800080510022FFF790F81220FFF759FC204608
:101490004FF400510122FFF787F820464FF4005126
:1014A0000022FFF781F820464FF480510022FFF719
:1014B0007BF88120FFF744FC20464FF400510122C5
:1014C000FFF772F820464FF400510022FFF76CF846
:1014D00020464FF480510022FFF766F8CF20FFF737
:1014E0002FFC20464FF400510122FFF75DF8204603
:1014F0004FF400510022FFF757F820464FF4805177
:101500000022FFF751F8D920FFF71AFC20464FF4CC
:1015100000510122FFF748F820464FF40051002205
:10152000FFF742F820464FF480510022FFF73CF8C5
:10153000F120FFF705FC20464FF400510122FFF790
:1015400033F820464FF400510022FFF72DF82046D3
:101550004FF480510022FFF727F8DB20FFF7F0FB64
:1015600020464FF400510122FFF71EF820464FF4A9
:1015700000510022FFF718F820464FF48051002256
:10158000FFF712F83020FFF7DBFB20464FF4005145
:101590000122FFF709F820464FF400510022FFF71F
:1015A00003F820464FF480510022FEF7FDFFA420EF
:1015B000FFF7C6FB20464FF400510122FEF7F4FF6F
:1015C00020464FF400510022FEF7EEFF20464FF474
:1015D00080510022FEF7E8FFA620FFF7B1FB20466E
:1015E0004FF400510122FEF7DFFF20464FF4005177
:1015F0000022FEF7D9FF20464FF480510022FEF76B
:10160000D3FF8D20FFF79CFB20464FF400510122B1
:10161000FEF7CAFF20464FF400510022FEF7C4FF38
:1016200020464FF480510022FEF7BEFF1420FFF742
:1016300087FB20464FF400510122FEF7B5FF2046FC
:101640004FF400510022FEF7AFFF20464FF48051C7
:101650000022FEF7A9FFAF20FFF772FB20464FF4F0
:1016600000510122FEF7A0FFBDE81040FFF7F0BCDB
:10167000002B08BF70472DE9F04F81B01C46914602
:101680008A468346981E5D425E1E00274FF018086A
:1016900000900FE00120B9FBF0F207EB0A0068F3BD
:1016A0005F02C1B2584600F029F80137A742A6F1FF
:1016B00001061FD0F943A942ECD00098C01B0328B3
:1016C00002D2012008E000BF26F00302012000BF83
:1016D000043A4FEA0010FBD1214411F00301DAD0A3
:1016E000012901D14000D6E7C200022908BF8200CB
:1016F0001046D0E701B0BDE8F04F70472DE9F04744
:1017000014466FF0070280466FF0010002EBC10142
:1017100000EB48005FFA81F9C0B24946FFF7B0FB21
:1017200041F68040C0F6000000EB04104FF6006167
:1017300041F20004CFF6FF71C4F20204455CA0F54B
:10174000007720464FF400510022FEF72DFF20467F
:101750004FF480510122FEF727FF2846FFF7F0FAE9
:1017600020464FF400510122FEF71EFF20464FF4A1
:1017700000510022FEF718FF20464FF4805101224D
:10178000FEF712FF7878BE78FD7897F804A0FFF78F
:10179000D7FA20464FF400510122FEF705FF2046FC
:1017A0004FF400510022FEF7FFFE20464FF4805117
:1017B0000122FEF7F9FE3046FFF7C2FA20464FF449
:1017C00000510122FEF7F0FE20464FF400510022A6
:1017D000FEF7EAFE20464FF480510122FEF7E4FEB8
:1017E0002846FFF7ADFA20464FF400510122FEF7DC
:1017F000DBFE20464FF400510022FEF7D5FE2046C6
:101800004FF480510122FEF7CFFE5046FFF798FAC1
:1018100020464FF400510122FEF7C6FE7D79204696
:101820004FF400510022FEF7BFFE20464FF48051D6
:101830000122FEF7B9FE2846FFF782FA20464FF450
:1018400000510122FEF7B0FEBD7920464FF4005151
:101850000022FEF7A9FE20464FF480510122FEF738
:10186000A3FE2846FFF76CFA20464FF400510122F0
:10187000FEF79AFEFD7920464FF400510022FEF754
:1018800093FE20464FF480510122FEF78DFE28463C
:10189000FFF756FA20464FF400510122FEF784FE6E
:1018A0004FF0FF3000EB4800C0B24946FFF7E8FABE
:1018B0003D7A20464FF400510022FEF775FE204687
:1018C0004FF480510122FEF76FFE2846FFF738FAE9
:1018D00020464FF400510122FEF766FE7D7A204635
:1018E0004FF400510022FEF75FFE20464FF4805176
:1018F0000122FEF759FE2846FFF722FA20464FF450
:1019000000510122FEF750FEBD7A20464FF40051EF
:101910000022FEF749FE20464FF480510122FEF7D7
:1019200043FE2846FFF70CFA20464FF400510122EF
:10193000FEF73AFEFD7A20464FF400510022FEF7F2
:1019400033FE20464FF480510122FEF72DFE28463B
:10195000FFF7F6F920464FF400510122FEF724FE6E
:101960003D7B20464FF400510022FEF71DFE20462D
:101970004FF480510122FEF717FE2846FFF7E0F9E9
:1019800020464FF400510122FEF70EFE7D7B2046DB
:101990004FF400510022FEF707FE20464FF480511D
:1019A0000122FEF701FE2846FFF7CAF920464FF450
:1019B00000510122FEF7F8FDBD7B20464FF4005197
:1019C0000022FEF7F1FD20464FF480510122FEF780
:1019D000EBFD2846FFF7B4F920464FF400510122F1
:1019E000FEF7E2FDFD7B20464FF400510022FEF79A
:1019F000DBFD20464FF480510122FEF7D5FD28463D
:101A0000FFF79EF920464FF400510122BDE8F04750
:101A1000FEF7CABD002B08BF70472DE9F04F81B01B
:101A20001C4691468A468346A3F102085D425E1E2B
:101A3000002715E00120B9FBF0F007EB0A0100F0E8
:101A40000F0000F137020A2838BF00F13002C9B296
:101A50005846FFF753FE0137A742A6F101061FD0F3
:101A6000F943A942E6D0A8EB0700032802D20120DF
:101A700008E000BF26F00302012000BF043A4FEA4D
:101A80000040FBD1214411F00301D4D0012901D140
:101A90000001D0E70203022908BF02021046CAE78C
:101AA00001B0BDE8F04F7047002B08BF70472DE92B
:101AB000F04F81B01C4691468A468346981E5D428F
:101AC0005E1E002742F2107800901BE00120B9FB57
:101AD000F0F04CF6CD41CCF6CC41A0FB0112D2087F
:101AE00002EB8202A0EB420007EB0A0140F030005B
:101AF000C2B2C9B25846FFF701FE0137A742A6F1AC
:101B0000010627D0F943A942E0D00098C01B032862
:101B100002D2012008E000BF26F00302012000BF2E
:101B2000043A00FB08F0FBD1214411F00301CED0B0
:101B3000012903D100EB80004000C8E74FF47A721E
:101B4000424302294FF0640108BF00FB01F2104636
:101B5000BDE700BF01B0BDE8F04F70472DE9F04F81
:101B600081B01C4691460F46002A824604D42B229F
:101B7000FFF7C4FD3CB955E02D22FFF7BFFDC9F1C9
:101B80000009002C4ED007F1010BA01E6542661E15
:101B9000002742F2107800901CE000BF0120B9FB42
:101BA000F0F04CF6CD41CCF6CC41A0FB0112D208AE
:101BB00002EB8202A0EB42000BEB070140F0300089
:101BC000C2B2C9B25046FFF799FD0137A742A6F14C
:101BD000010627D0F943A942E0D00098C01B032892
:101BE00002D2012008E000BF26F00302012000BF5E
:101BF000043A00FB08F0FBD1214411F00301CED0E0
:101C0000012903D100EB80004000C8E74FF47A724D
:101C1000424302294FF0640108BF00FB01F2104665
:101C2000BDE700BF01B0BDE8F08F0000F0B581B0A6
:101C3000144612786AB10D46064600277819C1B2DB
:101C4000D2B23046FFF75AFD0137F8B2225C002AC3
:101C5000F4D101B0F0BDF1EE100A4FF6FF71C0F201
:101C6000C03120EA010040F04070E1EE100A7047F8
:101C7000000000000000000001020304060708093C
:101C80000000000000000000000000000000000054
:101C9000000000F8000000000000003330000000E9
:101CA00000100C06100C06000000000000000000F0
:101CB00040C07840C0784000043F04043F04040062
:101CC000007088FC08300000001820FF211E000072
:101CD000F008F000E018000000211C031E211E0087
:101CE00000F00888700000001E212324192721100D
:101CF00010160E00000000000000000000000000B0
:101D0000000000E018040200000000071820400056
:101D100000020418E0000000004020180700000046
:101D2000404080F0804040000202010F01020200AA
:101D3000000000F0000000000101011F010101008E
:101D4000000000000000000080B0700000000000F3
:101D5000000000000000000000010101010101017C
:101D60000000000000000000003030000000000013
:101D700000000000806018040060180601000000E8
:101D800000E010080810E000000F102020100F00E5
:101D9000001010F8000000000020203F202000006C
:101DA00000700808088870000030282422213000C4
:101DB00000300888884830000018202020110E00CC
:101DC0000000C02010F8000000070424243F240075
:101DD00000F80888880808000019212020110E004A
:101DE00000E0108888180000000F112020110E005C
:101DF00000380808C83808000000003F0000000054
:101E00000070880808887000001C222121221C0014
:101E100000E010080810E0000000312222110F003D
:101E2000000000C0C00000000000003030000000D2
:101E30000000008000000000000080600000000042
:101E4000000080402010080000010204081020005B
:101E500040404040404040000404040404040400A6
:101E6000000810204080000000201008040201003B
:101E7000007048080808F00000000030360100003B
:101E8000C030C828E810E0000718272423140B00EE
:101E90000000C038E0000000203C23020227382068
:101EA00008F8888888700000203F202020110E004C
:101EB000C030080808083800071820202010080043
:101EC00008F808080810E000203F202020100F002C
:101ED00008F88888E8081000203F202023201800F8
:101EE00008F88888E8081000203F20000300000060
:101EF000C03008080838000007182020221E020001
:101F000008F808000008F808203F210101213F20BF
:101F1000000808F8080800000020203F20200000EA
:101F200000000808F8080800C08080807F000000DA
:101F300008F888C028180800203F20012638200013
:101F400008F8080000000000203F2020202030007A
:101F500008F8F800F8F80800203F003F003F200094
:101F600008F830C00008F808203F200007183F009C
:101F7000E01008080810E0000F10202020100F00CB
:101F800008F808080808F000203F210101010000BE
:101F9000E01008080810E0000F18242438504F0003
:101FA00008F8888888887000203F2000030C3020C3
:101FB00000708808080838000038202121221C0001
:101FC000180808F8080818000000203F200000004A
:101FD00008F808000008F808001F202020201F0033
:101FE0000878880000C83808000007380E01000093
:101FF000F80800F80008F800033C0700073C03005D
:10200000081868808068180820302C03032C3020C2
:102010000838C800C83808000000203F2000000031
:1020200010080808C8380800203826212020180089
:10203000000000FE020202000000007F404040005D
:10204000000C30C000000000000000010638C00095
:1020500000020202FE000000004040407F0000003D
:102060000000040202020400000000000000000062
:102070000000000000000000808080808080808060
:102080000002020400000000000000000000000048
:1020900000008080808000000019242222223F203E
:1020A00008F8008080000000003F112020110E0081
:1020B0000000008080800000000E11202020110010
:1020C000000000808088F800000E112020103F20C2
:1020D0000000808080800000001F22222222130046
:1020E000008080F0888888180020203F2020000091
:1020F0000000808080808000006B94949493600046
:1021000008F8008080800000203F210000203F2050
:1021100000809898000000000020203F2020000050
:10212000000000809898000000C08080807F000040
:1021300008F8000080808000203F24022D3020001D
:10214000000808F8000000000020203F20200000C8
:102150008080808080808000203F20003F20003FE2
:102160008080008080800000203F210000203F20F0
:102170000000808080800000001F202020201F00A1
:10218000808000808000000080FFA12020110E00D0
:102190000000008080808000000E112020A0FF80C1
:1021A000808080008080800020203F21200001006E
:1021B00000008080808080000033242424241900C3
:1021C000008080E0808000000000001F20200000D0
:1021D0008080000000808000001F202020103F2011
:1021E000808080000080808000010E3008060100A1
:1021F00080800080008080800F300C030C300F0046
:1022000000808000808080000020312E0E31200070
:10221000808080000080808080818E7018060100A0
:1022200000808080808080000021302C22213000BE
:1022300000000000807C020200000000003F4040DF
:1022400000000000FF00000000000000FF00000090
:102250000002027C800000000040403F00000000BF
:10226000000601010202040400000000000000005A
:10227000902200080000002010000000EC0100087F
:10228000A022000810000020680600000C020008D0
:1022900001000000100000000024F4000000000015
:040000050800018965
:00000001FF
