:020000040800F2
:10000000800600205502000835110008C50C0008C4
:100010003111000801040008DD1300080000000091
:10002000000000000000000000000000191300089C
:100030000504000800000000151300081D13000847
:100040006F0200086F0200086F0200086F020008CC
:100050006F0200086F0200086F0200086F020008BC
:100060006F0200086F0200086F0200086F020008AC
:100070006F0200086F0200086F0200086F0200089C
:100080006F0200086F0200086F0200086F0200088C
:100090006F0200086F0200086F0200086F0200087C
:1000A0006F0200086F0200086F0200086F0200086C
:1000B0006F0200086F0200086F0200086F0200085C
:1000C0006F0200086F0200086F0200086F0200084C
:1000D0006F0200086F0200086F0200086F0200083C
:1000E0006F0200086F0200086F0200086F0200082C
:1000F0006F0200086F0200086F0200086F0200081C
:100100006F0200086F0200086F0200086F0200080B
:100110006F0200086F0200086F0200086F020008FB
:100120006F0200086F0200086F0200086F020008EB
:100130006F0200086F0200086F0200086F020008DB
:100140006F0200086F0200086F0200086F020008CB
:100150006F0200086F0200086F0200086F020008BB
:100160006F0200086F0200086F0200086F020008AB
:100170006F0200086F0200086F0200080000000014
:100180006F0200086F02000800F002F800F052F859
:1001900014A696E8000CB244B344DA4501D100F04D
:1001A00049F8BAE80F000FA696E83000A5EB040561
:1001B00004EB0607AAEB0704A7F101074FEA1515A0
:1001C0004FEA3414A4F10104AC4201D300F032F838
:1001D00013F0010F18BFFB1A43F0010300F001F800
:1001E000DBE71847182C0000382C0000103A24BF19
:1001F00078C878C1FAD8520724BF30C830C144BF8C
:1002000004680C6070470000704700000023002461
:1002100000250026103A28BF78C1FBD8520728BF16
:1002200030C148BF0B6070471FB502F0DAFA1FBD3E
:1002300010B510BD00F0A9F81146FFF7F5FF01F069
:100240005FFD00F0C7F803B4FFF7F2FF03BC00F056
:10025000CFF800000948804709480047FEE7FEE75D
:10026000FEE7FEE7FEE7FEE7FEE7FEE7FEE7FEE766
:1002700004480549054A064B70470000C9130008A9
:1002800089010008800000208006002080020020F4
:100290008002002053EA020C00F069802DE9F04B47
:1002A0004FF00006002B1FBFB3FA83F503FA05F4E5
:1002B00024FA05F65E4012BF1643B2FA82F502FA3E
:1002C00005F4C5F120051EBF22FA05FC44EA0C0422
:1002D000203556EA044C4FEA144418BF641C4FF012
:1002E00000084FF00009904271EB030C39D300294C
:1002F00019BFB1FA81F701FA07F6B0FA80F700FAF0
:1003000007F6C7F120071EBF20FA07FC46EA0C06D5
:100310002037B6FBF4FCA7EB0507103F07F01F0BD7
:10032000CBF120062CFA06F60CFA0BFB44BFB346C1
:100330000026202FA4BF5E464FF0000B5BEA060CA0
:1003400008BF4FF0010B19EB0B0948EB0608ABFB9C
:10035000027C06FB02CC0BFB03CCC01B71EB0C0137
:10036000C1E70B46024641464846BDE8F08B13B54F
:10037000084318BF4FF0FF300146AFF30080BDE8DF
:100380001C407047704770477047754600F02CF866
:10039000AE4605006946534620F00700854618B072
:1003A00020B5FFF765FFBDE820404FF000064FF095
:1003B00000074FF000084FF0000BAC46ACE8C00956
:1003C000ACE8C009ACE8C009ACE8C00921F00701FD
:1003D0008D46704710B50446AFF300802046BDE857
:1003E0001040FFF730BF00000048704710000020A9
:1003F00001491820ABBEFEE726000200704700004E
:10040000FEE70000704700002DE9F04F82B000F1D8
:100410003E4707F1FF77860546EA972741F60046F3
:10042000C4F20206082243F6004EB04208BF07227B
:10043000C4F2010E072F38BF3A46002600274FF0BE
:100440000008009209E000BF08F101080237B8F186
:10045000100F06F1040600F0A3800D68012202FAD5
:1004600008F415EA0409EFD0D1F804B003220BF028
:10047000030CACF10105BA40012D6FEA020A0FD856
:100480008268CD6802EA0A02BD402A43826042685F
:10049000A243CBF3001404FA08F42243426005E0BF
:1004A000BCF1030F02D14FF0030C1EE0C2688C6850
:1004B00002EA0A02BC402243BCF1020FC26014D11E
:1004C0006FF0030202EA58020244D2F820C006F09C
:1004D0001C040F230D69A3402CEA0303A5402B4302
:1004E0001362D1F804B00BF0030C02680CFA07F3A6
:1004F00002EA0A021A431BF4403F0260A4D0002221
:1005000043F644030192C4F202031A684FF6084C02
:1005100042F480421A601A68CFF6FF7C02F48042EF
:100520000192019A28F00302724452F80C3006F04E
:100530000C050F24AC40A343009C04FA05F52B43A3
:1005400042F80C30DEF808204B6842EA090543F611
:100550000C4CDC0258BF22EA0905CEF80850C4F260
:10056000010CDCF800209C0242EA090558BF22EA8F
:100570000905CCF80050DEF804209C0342EA090586
:1005800058BF22EA0905CEF80450DEF80020DB034C
:1005900042EA090558BF22EA0905CEF8005053E7A0
:1005A00002B0BDE8F08F00000069084018BF0120CC
:1005B00070470000002A08BF0904816170470000ED
:1005C00040F27C00C2F200000068704740F2000078
:1005D00040F27C01C2F20000C2F2000100780A6819
:1005E000104408607047000080B543F60040C4F234
:1005F0000200016841F400710160016841F480610A
:100600000160016841F480710160032000F074F81A
:100610000F2000F005F800F027F8002080BD000052
:1006200070B540F20006C2F2000640F208013278CE
:10063000C2F200014FF47A730968B3FBF2F2044688
:10064000B1FBF2F1084600F027FB0F2C4FF001053B
:1006500008D838B94FF0FF3021460022002500F0BD
:100660001FF87460284670BD82B0002043F6400138
:100670000190C4F202014A6842F480424A604A682A
:1006800002F480420192019A0090086840F0805084
:100690000860086800F080500090009802B0704731
:1006A00010B54EF60C5CCEF2000CDCF80030C3F353
:1006B000022E8EF00704042C28BF0424BEF103038D
:1006C0004FF0FF3E0EFA04F438BF0023A1439940D7
:1006D0000EFA03F39A43114300F00F0200F1604356
:1006E0000901043A03F564436244002848BF02F15B
:1006F0000C03197010BD00004EF60C51CEF2000133
:100700000A684FF6FF031A4060F30A2242F0806045
:1007100040F0FD7008607047002804BF012070475A
:100720002DE9F04143F60808C4F202080446D8F85F
:10073000F8030D4600F00700884207D288F8F85306
:10074000D8F8F80300F00700A84277D120688107A5
:1007500017D5410705D5D8F8001041F4E051C8F885
:100760000010010705D5D8F8001041F46041C8F821
:100770000010D8F80010A26821F0F0011143C8F869
:100780000010C00740D1D8F8F80300F00700A842D5
:1007900007D988F8F853D8F8F80300F00700A84202
:1007A0004CD12068410707D5D8F80010E26821F441
:1007B000E0511143C8F80010000708D5D8F8000030
:1007C000216920F4604040EAC100C8F8000000F050
:1007D00055F8D8F8001042F2FC72C1F30311C0F6CC
:1007E0000002515C40F2080220FA01F140F20400DC
:1007F000C2F200000068C2F200021160FFF710FFB1
:100800000020BDE8F08100BF6068811E022907D288
:1008100058F8081C89015CBF0120BDE8F08111E097
:10082000012807D158F8081C89035CBF0120BDE8E6
:10083000F08107E058F8081C890703D40120BDE8BF
:10084000F08100BFD8F8001021F003010843C8F878
:100850000000FFF7B5FE064641F28837D8F80000E1
:10086000616800F00C00B0EB810F8CD0FFF7A8FEA0
:10087000801BB842F2D90320BDE8F08110B543F6E1
:100880000404C4F20204606800F00C0142F200406B
:100890000829C0F2F40007D0042918BF10BD41F2A6
:1008A0000020C0F27A0010BD216801F03F022168EB
:1008B00023684902C3F3881106D4A1FB0001002379
:1008C000FFF7E8FC07E000BF41F20020C0F27A0029
:1008D0004843B0FBF2F021680222C1F3014102EB70
:1008E0004101B0FBF1F010BD002804BF01207047AA
:1008F0002DE9F04182B00446007843F60006C007B7
:10090000C4F202060CD0B06800F00C00042840F0DD
:1009100081803068800303D56068002800F06A8118
:10092000207880071BD5B06810F00C0F09D0B06894
:1009300000F00C00082840F087807068400200F149
:1009400083803068800703D5E068012840F0528139
:100950003068216920F0F80040EAC100306020785A
:10096000000713D4207840072AD4A569002D00F091
:100970003C81B06800F00C00082840F0A180012DF7
:1009800040F01081012002B0BDE8F08160690028CC
:1009900040F20000C4F2472000F07E800121C0F840
:1009A000801EFFF70DFE0546706F8007DAD4FFF753
:1009B00007FE401B0228F7D9032002B0BDE8F081F2
:1009C000306C5FEAC0080AD400200190306C40F01F
:1009D00080503064306C00F080500190019847F2F4
:1009E0000007C4F200073868C00547D4386840F4EF
:1009F00080703860FFF7E4FD054600BF3868C00529
:100A00003CD4FFF7DDFD401B0228F7D9032002B0DC
:100A1000BDE8F081B06800F00C00082803D17068D0
:100A200040023FF576AF6068B0F5803F07D0B0F583
:100A3000A02F40F09B80306840F480203060306808
:100A400040F4803030609BE0E06800285CD00020FB
:100A5000C4F2472001210160FFF7B2FD054600BF47
:100A6000306880073FF574AFFFF7AAFD401B0228EE
:100A7000F6D9032002B0BDE8F08100BFA0680128CC
:100A800005D0052854D1306F40F004003067306F36
:100A900040F00100306755E00021C0F8801EFFF7EC
:100AA0008FFD0546706F80077FF55CAFFFF788FD0F
:100AB000401B0228F6D9032002B0BDE8F08100BF38
:100AC0000027C4F2472700203866FFF779FD022D82
:100AD00005460DD13068800140F19080FFF770FD30
:100AE000401B02284FF00300F4D902B0BDE8F081AA
:100AF0003068800179D5FFF763FD401B02284FF075
:100B00000300F5D9F1E700BF0020C4F2472000211F
:100B10000160FFF755FD0546306880077FF51FAF80
:100B2000FFF74EFD401B02284FF00300F4D9DCE72D
:100B3000316F002821F001013167316F21F004018C
:100B400031677DD0FFF73CFD054641F2883700BF95
:100B5000306F800700F18680FFF732FD401BB842FE
:100B6000F6D9032002B0BDE8F08100BF316800284B
:100B700021F480313160316821F4802131607BD0F3
:100B8000FFF71EFD054600BF306880033FF5C8AE85
:100B9000FFF716FD401B6428F6D9032002B0BDE81C
:100BA000F08100BF7068E16900F480028A4221D1BF
:100BB000216A00F03F028A421CD147F6C071626A86
:100BC0000140B1EB821F15D1A16A4FF6FF73C90333
:100BD000994300F44032A1F580318A420AD1E16A9A
:100BE00000F07060B0EB016F04D1002002B0BDE8EE
:100BF000F08100BF012002B0BDE8F08104F11C05C6
:100C00002FCD084340EA8210D9034FF6FF7291437B
:100C1000A1F5803140EA0560084370600120386624
:100C2000FFF7CEFC044600BF30688001DDD4FFF73B
:100C3000C7FC001B02284FF00300F5D955E700BFA1
:100C4000FFF7BEFC054641F2883700BF306F8007D2
:100C500008D5FFF7B5FC401BB8424FF00300F5D9AB
:100C600043E700BFB8F1000F3FF57FAE306C20F0D6
:100C70008050306479E600BFFFF7A2FC054600BF54
:100C8000306880037FF54CAEFFF79AFC401B642868
:100C90004FF00300F4D928E7411E0020B0EB116F9C
:100CA0001CBF012070474EF21002CEF200025160CC
:100CB0004EF62351CEF20001F0230B700721906015
:100CC00011607047FEE700002DE9F04F81B0DDE9CB
:100CD0000ABA984691460E46074600F0BBFED02061
:100CE00000F012FE00F0E0FB3B2000F00DFE00F0F3
:100CF000DBFB00F0AFFED12000F006FE00F0D4FBDD
:100D000000F096FC0446012000F06AFD00F064FF4C
:100D100000F0A0FED02000F0F7FD00F0C5FB3C2065
:100D200000F0F2FD00F0C0FB00F094FED12000F0D6
:100D3000EBFD00F0B9FB00F07BFC0546012000F064
:100D40004FFD00F049FF45EA0420388000F082FEA4
:100D5000D02000F0D9FD00F0A7FB3D2000F0D4FD2D
:100D600000F0A2FB00F076FED12000F0CDFD00F0F7
:100D70009BFB00F05DFC0446012000F031FD00F01B
:100D80002BFF00F067FED02000F0BEFD00F08CFBD2
:100D90003E2000F0B9FD00F087FB00F05BFED120A3
:100DA00000F0B2FD00F080FB00F042FC054601209F
:100DB00000F016FD00F010FF45EA0420308000F03E
:100DC00049FED02000F0A0FD00F06EFB3F2000F0B7
:100DD0009BFD00F069FB00F03DFED12000F094FD8A
:100DE00000F062FB00F024FC0446012000F0F8FC57
:100DF00000F0F2FE00F02EFED02000F085FD00F0A5
:100E000053FB402000F080FD00F04EFB00F022FE7E
:100E1000D12000F079FD00F047FB00F009FC054609
:100E2000012000F0DDFC00F0D7FE45EA0420A9F81F
:100E3000000000F00FFED02000F066FD00F034FB53
:100E4000432000F061FD00F02FFB00F003FED120F5
:100E500000F05AFD00F028FB00F0EAFB04460120F8
:100E600000F0BEFC00F0B8FE00F0F4FDD02000F071
:100E70004BFD00F019FB442000F046FD00F014FB90
:100E800000F0E8FDD12000F03FFD00F00DFB00F088
:100E9000CFFB0546012000F0A3FC00F09DFE45EAD3
:100EA0000420A8F8000000F0D5FDD02000F02CFDB3
:100EB00000F0FAFA452000F027FD00F0F5FA00F006
:100EC000C9FDD12000F020FD00F0EEFA00F0B0FBEB
:100ED0000446012000F084FC00F07EFE00F0BAFD24
:100EE000D02000F011FD00F0DFFA462000F00CFDEC
:100EF00000F0DAFA00F0AEFDD12000F005FD00F0C0
:100F0000D3FA00F095FB0546012000F069FC00F0E3
:100F100063FE45EA0420ABF8000000F09BFDD02002
:100F200000F0F2FC00F0C0FA472000F0EDFC00F009
:100F3000BBFA00F08FFDD12000F0E6FC00F0B4FA1F
:100F400000F076FB0446012000F04AFC00F044FE6D
:100F500000F080FDD02000F0D7FC00F0A5FA48207A
:100F600000F0D2FC00F0A0FA00F074FDD12000F0F7
:100F7000CBFC00F099FA00F05BFB0546012000F085
:100F80002FFC00F029FE45EA0420AAF8000001B079
:100F9000BDE8F08F80B500F023FA00F05BFDD020B3
:100FA00000F0B2FC00F080FA6B2000F0ADFC00F025
:100FB0007BFA012000F0A8FC00F076FA00F00CFEAD
:100FC00000F048FDD02000F09FFC00F06DFA6C208E
:100FD00000F09AFC00F068FA002000F095FC00F0A8
:100FE00063FA00F0F9FD00F035FDD02000F08CFC34
:100FF00000F05AFA192000F087FC00F055FA092099
:1010000000F082FC00F050FA00F0E6FD00F022FD56
:10101000D02000F079FC00F047FA1A2000F074FCB0
:1010200000F042FA062000F06FFC00F03DFA00F0FC
:10103000D3FD00F00FFDD02000F066FC00F034FA84
:101040001B2000F061FC00F02FFA182000F05CFC7F
:1010500000F02AFA00F0C0FD00F0FCFCD02000F007
:1010600053FC00F021FA1C2000F04EFC00F01CFAAA
:10107000182000F049FC00F017FABDE8804000F0AD
:10108000ABBD00002DE9F04387B04FF0000843F6F8
:101090003000CDF81880CDF80480C4F20200016859
:1010A000002441F0800101600168C4F2020401F0F3
:1010B000800101910199CDF804800168012241F07D
:1010C000010101600168302601F0010101910199DF
:1010D000CDF804800168012741F01001016000682B
:1010E000302100F01000019001982046FFF762FACD
:1010F00004F5805528464FF4785100224FF4785972
:10110000FFF758FA0296112002AECDE903072046F8
:1011100031460597FFF778F928463146CDE9029721
:10112000CDE90487FFF770F907B0BDE8F083000050
:10113000FEE70000FEE70000B0B541F20004C4F293
:101140000204054600F0800220464FF48061FFF75C
:1011500031FA20464FF400710122FFF72BFA2046A6
:101160004FF400710022FFF725FA05F040022046F7
:101170004FF48061FFF71EFA20464FF40071012200
:10118000FFF718FA20464FF400710022FFF712FA19
:1011900005F0200220464FF48061FFF70BFA20464D
:1011A0004FF400710122FFF705FA20464FF4007159
:1011B0000022FFF7FFF905F0100220464FF480618E
:1011C000FFF7F8F920464FF400710122FFF7F2F91A
:1011D00020464FF400710022FFF7ECF905F00802F9
:1011E00020464FF48061FFF7E5F920464FF4007187
:1011F0000122FFF7DFF920464FF400710022FFF7CC
:10120000D9F905F0040220464FF48061FFF7D2F9C6
:1012100020464FF400710122FFF7CCF920464FF42D
:1012200000710022FFF7C6F905F0020220464FF4D4
:101230008061FFF7BFF920464FF400710122FFF7EC
:10124000B9F920464FF400710022FFF7B3F905F019
:10125000010220464FF48061FFF7ACF920464FF4BD
:1012600000710122FFF7A6F920464FF40071002219
:10127000BDE8B040FFF79EB970B541F20005C4F279
:1012800002050C4640F0B00628464FF400510022FB
:10129000FFF790F928464FF480510022FFF78AF9B2
:1012A0003046FFF749FF28464FF400510122FFF76F
:1012B00081F9200900F1100628464FF40051002260
:1012C000FFF778F928464FF480510022FFF772F9B2
:1012D0003046FFF731FF28464FF400510122FFF757
:1012E00069F928464FF400510022FFF763F92846B8
:1012F0004FF480510022FFF75DF904F00F00FFF773
:101300001BFF28464FF400510122BDE87040FFF753
:1013100051B900007047000070470000FFF756B950
:10132000B0B592B0002443F64000CDE90A44CDE9BF
:1013300008440594CDE90344CDE901440094C4F286
:1013400002000168022541F080510160006800F050
:1013500080500090009847F200000094C4F2000012
:10136000016841F4804101600068A82100F48040D8
:1013700000900098012006904FF4803007904FF4C1
:1013800080000D9004200E90119006A80C95CDE9D8
:101390000F15FFF7A9FA18B172B600BFFEE700BF3C
:1013A0000F20CDE901054FF4A05004904FF4805078
:1013B000059001A805210394FFF7AEF910B172B6AC
:1013C000FEE700BF12B0B0BD4EF68850CEF200006E
:1013D000016841F47001016070470000FEE7000001
:1013E000B0B582B00024C4F20204204610210122CC
:1013F000FFF7E0F8002500950098C008222823D8C0
:1014000000BF00BF0098013000900098C00822285B
:101410001AD800BF00BF0098013000900098C008A3
:10142000222811D800BF00BF00980130009000981A
:10143000C008222808D800BF00BF009801300090E3
:101440000098B0F58C7FDBD3204620210122FFF7E6
:10145000B1F801950198C008222823D800BF00BF29
:101460000198013001900198C00822281AD800BFC5
:1014700000BF0198013001900198C008222811D8BE
:1014800000BF00BF0198013001900198C0082228D8
:1014900008D800BF00BF0198013001900198B0F555
:1014A0008C7FDBD302B0B0BD70B582B00024C4F233
:1014B0000204204620210122FFF77CF80025019537
:1014C0000198C008222823D800BF00BF019801302E
:1014D00001900198C00822281AD800BF00BF0198C7
:1014E000013001900198C008222811D800BF00BF28
:1014F0000198013001900198C008222808D800BF47
:1015000000BF0198013001900198B0F58C7FDBD3CA
:10151000204610210122FFF74DF801950198C008DF
:10152000222823D800BF00BF019801300190019804
:10153000C00822281AD800BF00BF019801300190CE
:101540000198C008222811D800BF00BF01980130BF
:1015500001900198C008222808D800BF00BF019858
:10156000013001900198B0F58C7FDBD3204620211B
:10157000FFF71AF80026019601990546C9082229A5
:1015800024D800BF00BF00BF01980130019001982E
:10159000C00822281AD800BF00BF0198013001906E
:1015A0000198C008222811D800BF00BF019801305F
:1015B00001900198C008222808D800BF00BF0198F8
:1015C000013001900198B0F58C7FDBD320461021CB
:1015D0000022FEF7EFFF01960198C008222823D8C9
:1015E00000BF00BF0198013001900198C008222877
:1015F0001AD800BF00BF0198013001900198C008BF
:10160000222811D800BF00BF019801300190019835
:10161000C008222808D800BF00BF019801300190FF
:101620000198B0F58C7FDBD3284602B070BD000076
:101630002DE9F04182B00024C4F2020420462021AA
:101640000122FEF7B7FF002501950198C008222866
:1016500024D800BF00BF00BF01980130019001985D
:10166000C00822281AD800BF00BF0198013001909D
:101670000198C008222811D800BF00BF019801308E
:1016800001900198C008222808D800BF00BF019827
:10169000013001900198B0F58C7FDBD34FF08008CA
:1016A0000026002704E000BF0136082E00F09480D9
:1016B000204610210122FEF77DFF01950198C00808
:1016C000222823D800BF00BF019801300190019863
:1016D000C00822281AD800BF00BF0198013001902D
:1016E0000198C008222811D800BF00BF019801301E
:1016F00001900198C008222808D800BF00BF0198B7
:10170000013001900198B0F58C7FDBD32046202179
:10171000FEF74AFF01950199C908222924D800BF84
:1017200000BF00BF0199013101910199C908222927
:101730001AD800BF00BF0199013101910199C90870
:10174000222911D800BF00BF0199013101910199EF
:10175000C908222908D800BF00BF019901310191B1
:101760000199B1F58C7FDBD328FA06F1012808BF77
:101770000F43204610210022FEF71CFF019501981F
:10178000C008222890D800BF00BF00BF01980130D8
:1017900001900198C00822283FF686AF00BF00BF25
:1017A0000198013001900198C00822283FF67CAFD3
:1017B00000BF00BF0198013001900198C0082228A5
:1017C0003FF672AF00BF00BF019801300190019851
:1017D000B0F58C7FD8D367E7F8B202B0BDE8F081EE
:1017E000B0B584B00024C4F2020402462046202191
:1017F000FEF7E0FE002501950198C008222823D8B5
:1018000000BF00BF0198013001900198C008222854
:101810001AD800BF00BF0198013001900198C0089C
:10182000222811D800BF00BF019801300190019813
:10183000C008222808D800BF00BF019801300190DD
:101840000198B0F58C7FDBD3204610210122FEF7F2
:10185000B1FE02950298C008222823D800BF00BF1D
:101860000298013002900298C00822281AD800BFBE
:1018700000BF0298013002900298C008222811D8B7
:1018800000BF00BF0298013002900298C0082228D1
:1018900008D800BF00BF0298013002900298B0F54E
:1018A0008C7FDBD32046102100220024FEF782FE2D
:1018B00003940398C008222824D800BF00BF00BFAB
:1018C0000398013003900398C00822281AD800BF5B
:1018D00000BF0398013003900398C008222811D854
:1018E00000BF00BF0398013003900398C00822286E
:1018F00008D800BF00BF0398013003900398B0F5EB
:101900008C7FDBD304B0B0BD2DE9F04184B000255D
:101910000446C4F2020500264FF08008002703E0C9
:101920000137082F00F0928028FA07F000EA04023D
:1019300028462021FEF73EFE01960198C008222885
:1019400024D800BF00BF00BF01980130019001986A
:10195000C00822281AD800BF00BF019801300190AA
:101960000198C008222811D800BF00BF019801309B
:1019700001900198C008222808D800BF00BF019834
:10198000013001900198B0F58C7FDBD328461021FF
:101990000122FEF70FFE02960298C008222823D8E3
:1019A00000BF00BF0298013002900298C0082228B0
:1019B0001AD800BF00BF0298013002900298C008F8
:1019C000222811D800BF00BF02980130029002986F
:1019D000C008222808D800BF00BF0298013002903A
:1019E0000298B0F58C7FDBD3284610210022FEF749
:1019F000E1FD03960398C008222891D800BF00BFDC
:101A00000398013003900398C00822283FF688AF5E
:101A100000BF00BF0398013003900398C00822283C
:101A20003FF67EAF00BF00BF0398013003900398DC
:101A3000C00822283FF674AF00BF00BF03980130F2
:101A400003900398B0F58C7FD8D369E704B0BDE864
:101A5000F0810000B0B582B00024C4F20204204638
:101A600020210122FEF7A6FD002501950198C0085E
:101A7000222823D800BF00BF0198013001900198AF
:101A8000C00822281AD800BF00BF01980130019079
:101A90000198C008222811D800BF00BF019801306A
:101AA00001900198C008222808D800BF00BF019803
:101AB000013001900198B0F58C7FDBD320461021D6
:101AC0000122FEF777FD01950198C008222823D84E
:101AD00000BF00BF0198013001900198C008222882
:101AE0001AD800BF00BF0198013001900198C008CA
:101AF000222811D800BF00BF019801300190019841
:101B0000C008222808D800BF00BF0198013001900A
:101B10000198B0F58C7FDBD32046202100220025E0
:101B2000FEF748FD01950198C008222824D800BF7F
:101B300000BF00BF0198013001900198C008222821
:101B40001AD800BF00BF0198013001900198C00869
:101B5000222811D800BF00BF0198013001900198E0
:101B6000C008222808D800BF00BF019801300190AA
:101B70000198B0F58C7FDBD3204610210022FEF7C0
:101B800019FD01950198C008222823D800BF00BF85
:101B90000198013001900198C00822281AD800BF8E
:101BA00000BF0198013001900198C008222811D887
:101BB00000BF00BF0198013001900198C0082228A1
:101BC00008D800BF00BF0198013001900198B0F51E
:101BD0008C7FDBD302B0B0BDB0B584B00024C4F2BA
:101BE00002042046202100220025FEF7E3FC019597
:101BF0000198C008222823D800BF00BF01980130F7
:101C000001900198C00822281AD800BF00BF01988F
:101C1000013001900198C008222811D800BF00BFF0
:101C20000198013001900198C008222808D800BF0F
:101C300000BF0198013001900198B0F58C7FDBD393
:101C4000204610210122FEF7B5FC02950298C0083B
:101C5000222823D800BF00BF0298013002900298CA
:101C6000C00822281AD800BF00BF02980130029095
:101C70000298C008222811D800BF00BF0298013086
:101C800002900298C008222808D800BF00BF02981E
:101C9000013002900298B0F58C7FDBD320462021E2
:101CA0000122FEF787FC002003900398C008222839
:101CB00024D800BF00BF00BF0398013003900398F1
:101CC000C00822281AD800BF00BF03980130039033
:101CD0000398C008222811D800BF00BF0398013024
:101CE00003900398C008222808D800BF00BF0398BB
:101CF000013003900398B0F58C7FDBD304B0B0BD06
:101D000082B0FEF771FCFFF70BFBFFF7BBF900F0A9
:101D100055F9FFF73FF922A20120012100F04CFD07
:101D200040F27004C2F2000404F10A0804F1080948
:101D3000A51C261DA71D00BF2046294632463B464E
:101D4000CDE90098FEF7C0FFB4F900200220012180
:101D5000052300F0C9FCB4F902200320012105236A
:101D600000F0C2FCB4F9042004200121052300F096
:101D7000BBFCB4F9062002200821052300F0B4FCC6
:101D8000B4F9082003200821052300F0ADFCB4F9C4
:101D90000A2004200821052300F0A6FCCCE700BFA0
:101DA0004D50553630353020746573743A0000005C
:101DB000B0B541F2000400200021C4F20204002565
:101DC000FFF75AFA20464FF400510022FEF7F2FBCB
:101DD00020464FF480510122FEF7ECFB0020FFF774
:101DE000ABF920464FF400510122FEF7E3FB681CDB
:101DF00045B2B5F1FF3FE5DC012000210025FFF7EA
:101E00003BFA00BF20464FF400510022FEF7D2FB00
:101E100020464FF480510122FEF7CCFB0020FFF753
:101E20008BF920464FF400510122FEF7C3FB681CDA
:101E300045B2B5F1FF3FE5DC022000210025FFF7A8
:101E40001BFA00BF20464FF400510022FEF7B2FB00
:101E500020464FF480510122FEF7ACFB0020FFF733
:101E60006BF920464FF400510122FEF7A3FB681CDA
:101E700045B2B5F1FF3FE5DC032000210025FFF767
:101E8000FBF900BF20464FF400510022FEF792FB01
:101E900020464FF480510122FEF78CFB0020FFF713
:101EA0004BF920464FF400510122FEF783FB681CDA
:101EB00045B2B5F1FF3FE5DC042000210025FFF726
:101EC000DBF900BF20464FF400510022FEF772FB01
:101ED00020464FF480510122FEF76CFB0020FFF7F3
:101EE0002BF920464FF400510122FEF763FB681CDA
:101EF00045B2B5F1FF3FE5DC052000210025FFF7E5
:101F0000BBF900BF20464FF400510022FEF752FB00
:101F100020464FF480510122FEF74CFB0020FFF7D2
:101F20000BF920464FF400510122FEF743FB681CD9
:101F300045B2B5F1FF3FE5DC062000210025FFF7A3
:101F40009BF900BF20464FF400510022FEF732FB00
:101F500020464FF480510122FEF72CFB0020FFF7B2
:101F6000EBF820464FF400510122FEF723FB681CDA
:101F700045B2B5F1FF3FE5DC072000210025FFF762
:101F80007BF900BF20464FF400510022FEF712FB00
:101F900020464FF480510122FEF70CFB0020FFF792
:101FA000CBF820464FF400510122FEF703FB681CDA
:101FB00045B2B5F1FF3FE5DCB0BD000010B541F220
:101FC0000004C4F2020420464FF400710022FEF720
:101FD000F1FA20464FF480610122FEF7EBFA204629
:101FE0004FF400610122FEF7E5FA20464FF48051DC
:101FF0000122FEF7DFFA20464FF400510122FEF7DE
:10200000D9FA20464FF400510022FEF7D3FA2046B9
:102010004FF480510022FEF7CDFAAE20FFF78CF886
:1020200020464FF400510122FEF7C4FA20464FF437
:1020300000510022FEF7BEFA20464FF480510022E4
:10204000FEF7B8FAD520FFF777F820464FF4005195
:102050000122FEF7AFFA20464FF400510022FEF7AE
:10206000A9FA20464FF480510022FEF7A3FA8020FF
:10207000FFF762F820464FF400510122FEF79AFA6A
:1020800020464FF400510022FEF794FA20464FF408
:1020900080510022FEF78EFAA820FFF74DF8204667
:1020A0004FF400510122FEF785FA20464FF400510B
:1020B0000022FEF77FFA20464FF480510022FEF7FF
:1020C00079FA3F20FFF738F820464FF400510122FB
:1020D000FEF770FA20464FF400510022FEF76AFA2C
:1020E00020464FF480510022FEF764FAD320FFF718
:1020F00023F820464FF400510122FEF75BFA2046F8
:102100004FF400510022FEF755FA20464FF480515B
:102110000022FEF74FFA0020FFF70EF820464FF49A
:1021200000510122FEF746FA20464FF400510022EA
:10213000FEF740FA20464FF480510022FEF73AFAAB
:102140004020FEF7F9FF20464FF400510122FEF730
:1021500031FA20464FF400510022FEF72BFA2046B8
:102160004FF480510022FEF725FAA120FEF7E4FF8C
:1021700020464FF400510122FEF71CFA20464FF48E
:1021800000510022FEF716FA20464FF4805100223B
:10219000FEF710FAC820FEF7CFFF20464FF400519B
:1021A0000122FEF707FA20464FF400510022FEF705
:1021B00001FA20464FF480510022FEF7FBF9DA20A5
:1021C000FEF7BAFF20464FF400510122FEF7F2F964
:1021D00020464FF400510022FEF7ECF920464FF460
:1021E00080510022FEF7E6F91220FEF7A5FF2046F7
:1021F0004FF400510122FEF7DDF920464FF4005163
:102200000022FEF7D7F920464FF480510022FEF756
:10221000D1F98120FEF790FF20464FF400510122B2
:10222000FEF7C8F920464FF400510022FEF7C2F92C
:1022300020464FF480510022FEF7BCF9CF20FEF774
:102240007BFF20464FF400510122FEF7B3F92046F0
:102250004FF400510022FEF7ADF920464FF48051B3
:102260000022FEF7A7F9D920FEF766FF20464FF4BB
:1022700000510122FEF79EF920464FF40051002242
:10228000FEF798F920464FF480510022FEF792F9AC
:10229000F120FEF751FF20464FF400510122FEF7D6
:1022A00089F920464FF400510022FEF783F92046B9
:1022B0004FF480510022FEF77DF9DB20FEF73CFF52
:1022C00020464FF400510122FEF774F920464FF4E6
:1022D00000510022FEF76EF920464FF48051002293
:1022E000FEF768F93020FEF727FF20464FF4005133
:1022F0000122FEF75FF920464FF400510022FEF75D
:1023000059F920464FF480510022FEF753F9A420DA
:10231000FEF712FF20464FF400510122FEF74AF962
:1023200020464FF400510022FEF744F920464FF4B6
:1023300080510022FEF73EF9A620FEF7FDFE204662
:102340004FF400510122FEF735F920464FF40051B9
:102350000022FEF72FF920464FF480510022FEF7AD
:1023600029F98D20FEF7E8FE20464FF400510122A6
:10237000FEF720F920464FF400510022FEF71AF92B
:1023800020464FF480510022FEF714F91420FEF786
:10239000D3FE20464FF400510122FEF70BF92046F0
:1023A0004FF400510022FEF705F920464FF480510A
:1023B0000022FEF7FFF8AF20FEF7BEFE20464FF4E6
:1023C00000510122FEF7F6F8BDE81040FFF7F0BC1F
:1023D0002DE9F04714466FF0070280466FF00100C8
:1023E00002EBC10100EB48005FFA81F9C0B2494637
:1023F000FEF742FF42F60C00C0F6000000EB0410AE
:102400004FF6006141F20004CFF6FF71C4F20204FE
:10241000455CA0F5007720464FF400510022FEF7FE
:10242000C9F820464FF480510122FEF7C3F8284630
:10243000FEF782FE20464FF400510122FEF7BAF863
:1024400020464FF400510022FEF7B4F820464FF426
:1024500080510122FEF7AEF87878BE78FD7897F8C3
:1024600004A0FEF769FE20464FF400510122FEF75A
:10247000A1F820464FF400510022FEF79BF82046B9
:102480004FF480510122FEF795F83046FEF754FED6
:1024900020464FF400510122FEF78CF820464FF4FD
:1024A00000510022FEF786F820464FF480510122A9
:1024B000FEF780F82846FEF73FFE20464FF4005115
:1024C0000122FEF777F820464FF400510022FEF774
:1024D00071F820464FF480510122FEF76BF8504608
:1024E000FEF72AFE20464FF400510122FEF762F863
:1024F0007D7920464FF400510022FEF75BF820461C
:102500004FF480510122FEF755F82846FEF714FEDD
:1025100020464FF400510122FEF74CF8BD792046C9
:102520004FF400510022FEF745F820464FF4805149
:102530000122FEF73FF82846FEF7FEFD20464FF445
:1025400000510122FEF736F8FD7920464FF4005184
:102550000022FEF72FF820464FF480510122FEF7AB
:1025600029F82846FEF7E8FD20464FF400510122E5
:10257000FEF720F84FF0FF3000EB4800C0B24946AC
:10258000FEF77AFE3D7A20464FF400510022FEF716
:1025900011F820464FF480510122FEF70BF828462F
:1025A000FEF7CAFD20464FF400510122FEF702F863
:1025B0007D7A20464FF400510022FDF7FBFF2046B4
:1025C0004FF480510122FDF7F5FF2846FEF7B4FDD8
:1025D00020464FF400510122FDF7ECFFBD7A204662
:1025E0004FF400510022FDF7E5FF20464FF48051E3
:1025F0000122FDF7DFFF2846FEF79EFD20464FF43F
:1026000000510122FDF7D6FFFD7A20464FF400511C
:102610000022FDF7CFFF20464FF480510122FDF745
:10262000C9FF2846FEF788FD20464FF400510122DD
:10263000FDF7C0FF3D7B20464FF400510022FDF71F
:10264000B9FF20464FF480510122FDF7B3FF284621
:10265000FEF772FD20464FF400510122FDF7AAFF5C
:102660007D7B20464FF400510022FDF7A3FF20465A
:102670004FF480510122FDF79DFF2846FEF75CFDD7
:1026800020464FF400510122FDF794FFBD7B204608
:102690004FF400510022FDF78DFF20464FF480518A
:1026A0000122FDF787FF2846FEF746FD20464FF43E
:1026B00000510122FDF77EFFFD7B20464FF40051C3
:1026C0000022FDF777FF20464FF480510122FDF7ED
:1026D00071FF2846FEF730FD20464FF400510122DD
:1026E000BDE8F047FDF766BF2DE9F04F81B01C460D
:1026F00091460F46002A824604D42B22FFF768FE3B
:102700003CB955E02D22FFF763FEC9F10009002C0A
:102710004ED007F1010BA01E6542661E002742F253
:10272000107800901CE000BF0120B9FBF0F04CF6DF
:10273000CD41CCF6CC41A0FB0112D20802EB8202C3
:10274000A0EB42000BEB070140F03000C2B2C9B26F
:102750005046FFF73DFE0137A742A6F1010627D0FC
:10276000F943A942E0D00098C01B032802D20120FF
:1027700008E000BF26F00302012000BF043A00FB7E
:1027800008F0FBD1214411F00301CED0012903D17F
:1027900000EB80004000C8E74FF47A724243022900
:1027A0004FF0640108BF00FB01F21046BDE700BF17
:1027B00001B0BDE8F08F0000F0B581B0144612788A
:1027C0006AB10D46064600277819C1B2D2B230462A
:1027D000FFF7FEFD0137F8B2225C002AF4D101B008
:1027E000F0BDF1EE100A4FF6FF71C0F2C03120EAE1
:1027F000010040F04070E1EE100A70470000000058
:1028000000000000010203040607080900000000A0
:10281000000000000000000000000000000000F8C0
:1028200000000000000000333000000000100C0623
:10283000100C0600000000000000000040C07840BE
:10284000C0784000043F04043F040400007088FC8A
:1028500008300000001820FF211E0000F008F000E2
:10286000E018000000211C031E211E0000F0088853
:10287000700000001E2123241927211010160E00BD
:10288000000000000000000000000000000000E068
:10289000180402000000000718204000000204187D
:1028A000E00000000040201807000000404080F0D9
:1028B000804040000202010F01020200000000F00F
:1028C000000000000101011F0101010000000000E3
:1028D0000000000080B07000000000000000000058
:1028E00000000000000101010101010100000000E1
:1028F0000000000000303000000000000000000078
:1029000080601804006018060100000000E0100854
:102910000810E000000F102020100F00001010F829
:10292000000000000020203F202000000070080868
:1029300008887000003028242221300000300888E8
:10294000884830000018202020110E000000C02010
:1029500010F8000000070424243F240000F8088831
:10296000880808000019212020110E0000E01088BE
:1029700088180000000F112020110E0000380808F0
:10298000C83808000000003F000000000070880800
:1029900008887000001C222121221C0000E0100881
:1029A0000810E0000000312222110F00000000C0DA
:1029B000C000000000000030300000000000008077
:1029C0000000000000008060000000000000804067
:1029D0002010080000010204081020004040404080
:1029E00040404000040404040404040000081020D3
:1029F0004080000000201008040201000070480818
:102A00000808F0000000003036010000C030C8287F
:102A1000E810E0000718272423140B000000C0383A
:102A2000E0000000203C23020227382008F88888B4
:102A300088700000203F202020110E00C0300808C0
:102A400008083800071820202010080008F8080897
:102A50000810E000203F202020100F0008F8888890
:102A6000E8081000203F20202320180008F888885C
:102A7000E8081000203F200003000000C0300808D4
:102A80000838000007182020221E020008F808005D
:102A90000008F808203F210101213F20000808F824
:102AA000080800000020203F202000000000080847
:102AB000F8080800C08080807F00000008F888C007
:102AC00028180800203F20012638200008F80800B8
:102AD00000000000203F20202020300008F8F800EF
:102AE000F8F80800203F003F003F200008F830C001
:102AF0000008F808203F200007183F00E0100808F1
:102B00000810E0000F10202020100F0008F808081F
:102B10000808F000203F210101010000E010080832
:102B20000810E0000F18242438504F0008F8888857
:102B300088887000203F2000030C30200070880837
:102B4000080838000038202121221C00180808F845
:102B5000080818000000203F2000000008F80800C6
:102B60000008F808001F202020201F000878880097
:102B700000C83808000007380E010000F80800F807
:102B80000008F800033C0700073C030008186880B1
:102B90008068180820302C03032C30200838C80027
:102BA000C83808000000203F200000001008080876
:102BB000C83808002038262120201800000000FE18
:102BC000020202000000007F40404000000C30C0C4
:102BD00000000000000000010638C00000020202F0
:102BE000FE000000004040407F00000000000402A2
:102BF00002020400000000000000000000000000CD
:102C000000000000808080808080808000020204BC
:102C100000000000000000000000000000008080B4
:102C2000808000000019242222223F2008F8008022
:102C300080000000003F112020110E0000000080E5
:102C400080800000000E1120202011000000008074
:102C50008088F800000E112020103F2000008080A6
:102C600080800000001F222222221300008080F0BA
:102C7000888888180020203F2020000000008080E5
:102C800080808000006B94949493600008F800802A
:102C900080800000203F210000203F200080989885
:102CA000000000000020203F2020000000000080E5
:102CB0009898000000C08080807F000008F8000025
:102CC00080808000203F24022D302000000808F87A
:102CD000000000000020203F202000008080808035
:102CE00080808000203F20003F20003F80800080C7
:102CF00080800000203F210000203F2000008080D5
:102D000080800000001F202020201F008080008085
:102D10008000000080FFA12020110E000000008034
:102D200080808000000E112020A0FF808080800025
:102D30008080800020203F21200001000000808052
:102D4000808080000033242424241900008080E047
:102D5000808000000000001F202000008080000014
:102D600000808000001F202020103F2080808000F5
:102D70000080808000010E30080601008080008005
:102D8000008080800F300C030C300F00008080002A
:102D9000808080000020312E0E3120008080800055
:102DA0000080808080818E70180601000080808005
:102DB000808080000021302C2221300000000000A3
:102DC000807C020200000000003F40400000000044
:102DD000FF00000000000000FF0000000002027C75
:102DE000800000000040403F00000000000601019C
:102DF000020204040000000000000000202E000871
:102E00000000002010000000EC010008302E000837
:102E100010000020700600000C02000800000000F6
:102E200001000000100000000024F4000000000079
:040000050800018965
:00000001FF
